{
	"compilerInput": "{\"language\":\"Solidity\",\"sources\":{\"blockchainproject.sol\":{\"content\":\"// SPDX-License-Identifier: MIT\\r\\npragma solidity ^0.8.0;\\r\\n\\r\\ncontract Marketplace {\\r\\n    struct Product {\\r\\n        uint id;\\r\\n        address payable seller;\\r\\n        address payable owner;\\r\\n        string title;\\r\\n        string description;\\r\\n        string imageHash; \\r\\n        uint price;\\r\\n        bool sold;\\r\\n    }\\r\\n\\r\\n    Product[] public products;\\r\\n    uint public productCount;\\r\\n\\r\\n    event ProductListed(uint productId, address indexed seller, address indexed owner, string title, string imageHash, uint price);\\r\\n    event ProductSold(uint productId, address indexed oldOwner, address indexed newOwner, uint price);\\r\\n    event PaymentSent(address indexed from, address indexed to, uint256 amount);\\r\\n\\r\\n    constructor() {\\r\\n        productCount = 0;\\r\\n    }\\r\\n\\r\\n    function listAllProducts(string memory _title, string memory _description, string memory _imageHash, uint _price) external {\\r\\n        require(_price > 0, \\\"Price must be greater than zero\\\");\\r\\n        \\r\\n        products.push(Product({\\r\\n            id: productCount,\\r\\n            seller: payable(msg.sender),\\r\\n            owner: payable(msg.sender), // Owner set as the seller initially\\r\\n            title: _title,\\r\\n            description: _description,\\r\\n            imageHash: _imageHash,\\r\\n            price: _price,\\r\\n            sold: false\\r\\n        }));\\r\\n        \\r\\n        emit ProductListed(productCount, msg.sender, msg.sender, _title, _imageHash, _price);\\r\\n        productCount++;\\r\\n    }\\r\\n\\r\\n    function buyProduct(uint _id) external payable {\\r\\n        require(_id < productCount, \\\"Product ID does not exist\\\");\\r\\n        Product storage product = products[_id];\\r\\n        require(msg.value == product.price, \\\"Please submit the asking price in order to complete the purchase\\\");\\r\\n        require(!product.sold, \\\"This product has already been sold\\\");\\r\\n        require(msg.sender != product.owner, \\\"Owner cannot buy their own product\\\");\\r\\n\\r\\n        address payable prevOwner = product.owner; // Track previous owner for event\\r\\n        product.owner = payable(msg.sender); // Update owner to the new buyer\\r\\n        product.sold = true;\\r\\n\\r\\n        prevOwner.transfer(msg.value); // Transfer funds to the previous owner\\r\\n\\r\\n        emit PaymentSent(msg.sender, prevOwner, msg.value);\\r\\n        emit ProductSold(_id, prevOwner, msg.sender, product.price);\\r\\n    }\\r\\n\\r\\n    function getAllProducts() external view returns (Product[] memory) {\\r\\n        return products;\\r\\n    }\\r\\n\\r\\n    function getProductById(uint _id) external view returns (Product memory) {\\r\\n        require(_id < productCount, \\\"Product ID does not exist\\\");\\r\\n        return products[_id];\\r\\n    }\\r\\n}\\r\\n\"}},\"settings\":{\"optimizer\":{\"enabled\":false,\"runs\":200},\"outputSelection\":{\"*\":{\"\":[\"ast\"],\"*\":[\"abi\",\"metadata\",\"devdoc\",\"userdoc\",\"storageLayout\",\"evm.legacyAssembly\",\"evm.bytecode\",\"evm.deployedBytecode\",\"evm.methodIdentifiers\",\"evm.gasEstimates\",\"evm.assembly\"]}},\"remappings\":[]}}",
	"name": "Marketplace",
	"bytecode": {
		"linkReferences": {},
		"object": "6080604052348015600e575f80fd5b505f600181905550611cd0806100235f395ff3fe608060405260043610610054575f3560e01c806302ee3a52146100585780633f70c2b4146100825780633faa8694146100be5780637acc0b20146100e65780638642269e14610129578063e0f6ef8714610145575b5f80fd5b348015610063575f80fd5b5061006c61016f565b60405161007991906111da565b60405180910390f35b34801561008d575f80fd5b506100a860048036038101906100a39190611235565b610452565b6040516100b5919061131b565b60405180910390f35b3480156100c9575f80fd5b506100e460048036038101906100df9190611467565b610757565b005b3480156100f1575f80fd5b5061010c60048036038101906101079190611235565b6109b5565b604051610120989796959493929190611594565b60405180910390f35b610143600480360381019061013e9190611235565b610be3565b005b348015610150575f80fd5b50610159610f0f565b6040516101669190611625565b60405180910390f35b60605f805480602002602001604051908101604052809291908181526020015f905b82821015610449578382905f5260205f209060080201604051806101000160405290815f8201548152602001600182015f9054906101000a900473ffffffffffffffffffffffffffffffffffffffff1673ffffffffffffffffffffffffffffffffffffffff1673ffffffffffffffffffffffffffffffffffffffff168152602001600282015f9054906101000a900473ffffffffffffffffffffffffffffffffffffffff1673ffffffffffffffffffffffffffffffffffffffff1673ffffffffffffffffffffffffffffffffffffffff1681526020016003820180546102769061166b565b80601f01602080910402602001604051908101604052809291908181526020018280546102a29061166b565b80156102ed5780601f106102c4576101008083540402835291602001916102ed565b820191905f5260205f20905b8154815290600101906020018083116102d057829003601f168201915b505050505081526020016004820180546103069061166b565b80601f01602080910402602001604051908101604052809291908181526020018280546103329061166b565b801561037d5780601f106103545761010080835404028352916020019161037d565b820191905f5260205f20905b81548152906001019060200180831161036057829003601f168201915b505050505081526020016005820180546103969061166b565b80601f01602080910402602001604051908101604052809291908181526020018280546103c29061166b565b801561040d5780601f106103e45761010080835404028352916020019161040d565b820191905f5260205f20905b8154815290600101906020018083116103f057829003601f168201915b5050505050815260200160068201548152602001600782015f9054906101000a900460ff16151515158152505081526020019060010190610191565b50505050905090565b61045a610f15565b600154821061049e576040517f08c379a0000000000000000000000000000000000000000000000000000000008152600401610495906116e5565b60405180910390fd5b5f82815481106104b1576104b0611703565b5b905f5260205f209060080201604051806101000160405290815f8201548152602001600182015f9054906101000a900473ffffffffffffffffffffffffffffffffffffffff1673ffffffffffffffffffffffffffffffffffffffff1673ffffffffffffffffffffffffffffffffffffffff168152602001600282015f9054906101000a900473ffffffffffffffffffffffffffffffffffffffff1673ffffffffffffffffffffffffffffffffffffffff1673ffffffffffffffffffffffffffffffffffffffff16815260200160038201805461058c9061166b565b80601f01602080910402602001604051908101604052809291908181526020018280546105b89061166b565b80156106035780601f106105da57610100808354040283529160200191610603565b820191905f5260205f20905b8154815290600101906020018083116105e657829003601f168201915b5050505050815260200160048201805461061c9061166b565b80601f01602080910402602001604051908101604052809291908181526020018280546106489061166b565b80156106935780601f1061066a57610100808354040283529160200191610693565b820191905f5260205f20905b81548152906001019060200180831161067657829003601f168201915b505050505081526020016005820180546106ac9061166b565b80601f01602080910402602001604051908101604052809291908181526020018280546106d89061166b565b80156107235780601f106106fa57610100808354040283529160200191610723565b820191905f5260205f20905b81548152906001019060200180831161070657829003601f168201915b5050505050815260200160068201548152602001600782015f9054906101000a900460ff1615151515815250509050919050565b5f8111610799576040517f08c379a00000000000000000000000000000000000000000000000000000000081526004016107909061177a565b60405180910390fd5b5f60405180610100016040528060015481526020013373ffffffffffffffffffffffffffffffffffffffff1681526020013373ffffffffffffffffffffffffffffffffffffffff1681526020018681526020018581526020018481526020018381526020015f1515815250908060018154018082558091505060019003905f5260205f2090600802015f909190919091505f820151815f01556020820151816001015f6101000a81548173ffffffffffffffffffffffffffffffffffffffff021916908373ffffffffffffffffffffffffffffffffffffffff1602179055506040820151816002015f6101000a81548173ffffffffffffffffffffffffffffffffffffffff021916908373ffffffffffffffffffffffffffffffffffffffff16021790555060608201518160030190816108d39190611935565b5060808201518160040190816108e99190611935565b5060a08201518160050190816108ff9190611935565b5060c0820151816006015560e0820151816007015f6101000a81548160ff02191690831515021790555050503373ffffffffffffffffffffffffffffffffffffffff163373ffffffffffffffffffffffffffffffffffffffff167fd6c1f674ceec95954157d523258b10894f33dda5bf0532a1e27ae8181fce35526001548786866040516109909493929190611a04565b60405180910390a360015f8154809291906109aa90611a82565b919050555050505050565b5f81815481106109c3575f80fd5b905f5260205f2090600802015f91509050805f015490806001015f9054906101000a900473ffffffffffffffffffffffffffffffffffffffff1690806002015f9054906101000a900473ffffffffffffffffffffffffffffffffffffffff1690806003018054610a329061166b565b80601f0160208091040260200160405190810160405280929190818152602001828054610a5e9061166b565b8015610aa95780601f10610a8057610100808354040283529160200191610aa9565b820191905f5260205f20905b815481529060010190602001808311610a8c57829003601f168201915b505050505090806004018054610abe9061166b565b80601f0160208091040260200160405190810160405280929190818152602001828054610aea9061166b565b8015610b355780601f10610b0c57610100808354040283529160200191610b35565b820191905f5260205f20905b815481529060010190602001808311610b1857829003601f168201915b505050505090806005018054610b4a9061166b565b80601f0160208091040260200160405190810160405280929190818152602001828054610b769061166b565b8015610bc15780601f10610b9857610100808354040283529160200191610bc1565b820191905f5260205f20905b815481529060010190602001808311610ba457829003601f168201915b505050505090806006015490806007015f9054906101000a900460ff16905088565b6001548110610c27576040517f08c379a0000000000000000000000000000000000000000000000000000000008152600401610c1e906116e5565b60405180910390fd5b5f808281548110610c3b57610c3a611703565b5b905f5260205f209060080201905080600601543414610c8f576040517f08c379a0000000000000000000000000000000000000000000000000000000008152600401610c8690611b39565b60405180910390fd5b806007015f9054906101000a900460ff1615610ce0576040517f08c379a0000000000000000000000000000000000000000000000000000000008152600401610cd790611bc7565b60405180910390fd5b806002015f9054906101000a900473ffffffffffffffffffffffffffffffffffffffff1673ffffffffffffffffffffffffffffffffffffffff163373ffffffffffffffffffffffffffffffffffffffff1603610d71576040517f08c379a0000000000000000000000000000000000000000000000000000000008152600401610d6890611c55565b60405180910390fd5b5f816002015f9054906101000a900473ffffffffffffffffffffffffffffffffffffffff16905033826002015f6101000a81548173ffffffffffffffffffffffffffffffffffffffff021916908373ffffffffffffffffffffffffffffffffffffffff1602179055506001826007015f6101000a81548160ff0219169083151502179055508073ffffffffffffffffffffffffffffffffffffffff166108fc3490811502906040515f60405180830381858888f19350505050158015610e39573d5f803e3d5ffd5b508073ffffffffffffffffffffffffffffffffffffffff163373ffffffffffffffffffffffffffffffffffffffff167fd52bd61f7c422d441e024604f4517878fd3305d6acf0fe37baef23ed21af6bc934604051610e979190611625565b60405180910390a33373ffffffffffffffffffffffffffffffffffffffff168173ffffffffffffffffffffffffffffffffffffffff167fa02e46fc9bbd3e1138787bc1dc117ae0b9a5a3745ea30b0ab673d79d90739029858560060154604051610f02929190611c73565b60405180910390a3505050565b60015481565b6040518061010001604052805f81526020015f73ffffffffffffffffffffffffffffffffffffffff1681526020015f73ffffffffffffffffffffffffffffffffffffffff1681526020016060815260200160608152602001606081526020015f81526020015f151581525090565b5f81519050919050565b5f82825260208201905092915050565b5f819050602082019050919050565b5f819050919050565b610fbe81610fac565b82525050565b5f73ffffffffffffffffffffffffffffffffffffffff82169050919050565b5f610fed82610fc4565b9050919050565b610ffd81610fe3565b82525050565b5f81519050919050565b5f82825260208201905092915050565b8281835e5f83830152505050565b5f601f19601f8301169050919050565b5f61104582611003565b61104f818561100d565b935061105f81856020860161101d565b6110688161102b565b840191505092915050565b5f8115159050919050565b61108781611073565b82525050565b5f61010083015f8301516110a35f860182610fb5565b5060208301516110b66020860182610ff4565b5060408301516110c96040860182610ff4565b50606083015184820360608601526110e1828261103b565b915050608083015184820360808601526110fb828261103b565b91505060a083015184820360a0860152611115828261103b565b91505060c083015161112a60c0860182610fb5565b5060e083015161113d60e086018261107e565b508091505092915050565b5f611153838361108d565b905092915050565b5f602082019050919050565b5f61117182610f83565b61117b8185610f8d565b93508360208202850161118d85610f9d565b805f5b858110156111c857848403895281516111a98582611148565b94506111b48361115b565b925060208a01995050600181019050611190565b50829750879550505050505092915050565b5f6020820190508181035f8301526111f28184611167565b905092915050565b5f604051905090565b5f80fd5b5f80fd5b61121481610fac565b811461121e575f80fd5b50565b5f8135905061122f8161120b565b92915050565b5f6020828403121561124a57611249611203565b5b5f61125784828501611221565b91505092915050565b5f61010083015f8301516112765f860182610fb5565b5060208301516112896020860182610ff4565b50604083015161129c6040860182610ff4565b50606083015184820360608601526112b4828261103b565b915050608083015184820360808601526112ce828261103b565b91505060a083015184820360a08601526112e8828261103b565b91505060c08301516112fd60c0860182610fb5565b5060e083015161131060e086018261107e565b508091505092915050565b5f6020820190508181035f8301526113338184611260565b905092915050565b5f80fd5b5f80fd5b7f4e487b71000000000000000000000000000000000000000000000000000000005f52604160045260245ffd5b6113798261102b565b810181811067ffffffffffffffff8211171561139857611397611343565b5b80604052505050565b5f6113aa6111fa565b90506113b68282611370565b919050565b5f67ffffffffffffffff8211156113d5576113d4611343565b5b6113de8261102b565b9050602081019050919050565b828183375f83830152505050565b5f61140b611406846113bb565b6113a1565b9050828152602081018484840111156114275761142661133f565b5b6114328482856113eb565b509392505050565b5f82601f83011261144e5761144d61133b565b5b813561145e8482602086016113f9565b91505092915050565b5f805f806080858703121561147f5761147e611203565b5b5f85013567ffffffffffffffff81111561149c5761149b611207565b5b6114a88782880161143a565b945050602085013567ffffffffffffffff8111156114c9576114c8611207565b5b6114d58782880161143a565b935050604085013567ffffffffffffffff8111156114f6576114f5611207565b5b6115028782880161143a565b925050606061151387828801611221565b91505092959194509250565b61152881610fac565b82525050565b61153781610fe3565b82525050565b5f82825260208201905092915050565b5f61155782611003565b611561818561153d565b935061157181856020860161101d565b61157a8161102b565b840191505092915050565b61158e81611073565b82525050565b5f610100820190506115a85f83018b61151f565b6115b5602083018a61152e565b6115c2604083018961152e565b81810360608301526115d4818861154d565b905081810360808301526115e8818761154d565b905081810360a08301526115fc818661154d565b905061160b60c083018561151f565b61161860e0830184611585565b9998505050505050505050565b5f6020820190506116385f83018461151f565b92915050565b7f4e487b71000000000000000000000000000000000000000000000000000000005f52602260045260245ffd5b5f600282049050600182168061168257607f821691505b6020821081036116955761169461163e565b5b50919050565b7f50726f6475637420494420646f6573206e6f74206578697374000000000000005f82015250565b5f6116cf60198361153d565b91506116da8261169b565b602082019050919050565b5f6020820190508181035f8301526116fc816116c3565b9050919050565b7f4e487b71000000000000000000000000000000000000000000000000000000005f52603260045260245ffd5b7f5072696365206d7573742062652067726561746572207468616e207a65726f005f82015250565b5f611764601f8361153d565b915061176f82611730565b602082019050919050565b5f6020820190508181035f83015261179181611758565b9050919050565b5f819050815f5260205f209050919050565b5f6020601f8301049050919050565b5f82821b905092915050565b5f600883026117f47fffffffffffffffffffffffffffffffffffffffffffffffffffffffffffffffff826117b9565b6117fe86836117b9565b95508019841693508086168417925050509392505050565b5f819050919050565b5f61183961183461182f84610fac565b611816565b610fac565b9050919050565b5f819050919050565b6118528361181f565b61186661185e82611840565b8484546117c5565b825550505050565b5f90565b61187a61186e565b611885818484611849565b505050565b5b818110156118a85761189d5f82611872565b60018101905061188b565b5050565b601f8211156118ed576118be81611798565b6118c7846117aa565b810160208510156118d6578190505b6118ea6118e2856117aa565b83018261188a565b50505b505050565b5f82821c905092915050565b5f61190d5f19846008026118f2565b1980831691505092915050565b5f61192583836118fe565b9150826002028217905092915050565b61193e82611003565b67ffffffffffffffff81111561195757611956611343565b5b611961825461166b565b61196c8282856118ac565b5f60209050601f83116001811461199d575f841561198b578287015190505b611995858261191a565b8655506119fc565b601f1984166119ab86611798565b5f5b828110156119d2578489015182556001820191506020850194506020810190506119ad565b868310156119ef57848901516119eb601f8916826118fe565b8355505b6001600288020188555050505b505050505050565b5f608082019050611a175f83018761151f565b8181036020830152611a29818661154d565b90508181036040830152611a3d818561154d565b9050611a4c606083018461151f565b95945050505050565b7f4e487b71000000000000000000000000000000000000000000000000000000005f52601160045260245ffd5b5f611a8c82610fac565b91507fffffffffffffffffffffffffffffffffffffffffffffffffffffffffffffffff8203611abe57611abd611a55565b5b600182019050919050565b7f506c65617365207375626d6974207468652061736b696e6720707269636520695f8201527f6e206f7264657220746f20636f6d706c65746520746865207075726368617365602082015250565b5f611b2360408361153d565b9150611b2e82611ac9565b604082019050919050565b5f6020820190508181035f830152611b5081611b17565b9050919050565b7f546869732070726f647563742068617320616c7265616479206265656e20736f5f8201527f6c64000000000000000000000000000000000000000000000000000000000000602082015250565b5f611bb160228361153d565b9150611bbc82611b57565b604082019050919050565b5f6020820190508181035f830152611bde81611ba5565b9050919050565b7f4f776e65722063616e6e6f7420627579207468656972206f776e2070726f64755f8201527f6374000000000000000000000000000000000000000000000000000000000000602082015250565b5f611c3f60228361153d565b9150611c4a82611be5565b604082019050919050565b5f6020820190508181035f830152611c6c81611c33565b9050919050565b5f604082019050611c865f83018561151f565b611c93602083018461151f565b939250505056fea2646970667358221220957a0512838777cab067a14585defd3d569ba40bc4337019763cbc609a9fbc3064736f6c63430008190033",
		"opcodes": "PUSH1 0x80 PUSH1 0x40 MSTORE CALLVALUE DUP1 ISZERO PUSH1 0xE JUMPI PUSH0 DUP1 REVERT JUMPDEST POP PUSH0 PUSH1 0x1 DUP2 SWAP1 SSTORE POP PUSH2 0x1CD0 DUP1 PUSH2 0x23 PUSH0 CODECOPY PUSH0 RETURN INVALID PUSH1 0x80 PUSH1 0x40 MSTORE PUSH1 0x4 CALLDATASIZE LT PUSH2 0x54 JUMPI PUSH0 CALLDATALOAD PUSH1 0xE0 SHR DUP1 PUSH4 0x2EE3A52 EQ PUSH2 0x58 JUMPI DUP1 PUSH4 0x3F70C2B4 EQ PUSH2 0x82 JUMPI DUP1 PUSH4 0x3FAA8694 EQ PUSH2 0xBE JUMPI DUP1 PUSH4 0x7ACC0B20 EQ PUSH2 0xE6 JUMPI DUP1 PUSH4 0x8642269E EQ PUSH2 0x129 JUMPI DUP1 PUSH4 0xE0F6EF87 EQ PUSH2 0x145 JUMPI JUMPDEST PUSH0 DUP1 REVERT JUMPDEST CALLVALUE DUP1 ISZERO PUSH2 0x63 JUMPI PUSH0 DUP1 REVERT JUMPDEST POP PUSH2 0x6C PUSH2 0x16F JUMP JUMPDEST PUSH1 0x40 MLOAD PUSH2 0x79 SWAP2 SWAP1 PUSH2 0x11DA JUMP JUMPDEST PUSH1 0x40 MLOAD DUP1 SWAP2 SUB SWAP1 RETURN JUMPDEST CALLVALUE DUP1 ISZERO PUSH2 0x8D JUMPI PUSH0 DUP1 REVERT JUMPDEST POP PUSH2 0xA8 PUSH1 0x4 DUP1 CALLDATASIZE SUB DUP2 ADD SWAP1 PUSH2 0xA3 SWAP2 SWAP1 PUSH2 0x1235 JUMP JUMPDEST PUSH2 0x452 JUMP JUMPDEST PUSH1 0x40 MLOAD PUSH2 0xB5 SWAP2 SWAP1 PUSH2 0x131B JUMP JUMPDEST PUSH1 0x40 MLOAD DUP1 SWAP2 SUB SWAP1 RETURN JUMPDEST CALLVALUE DUP1 ISZERO PUSH2 0xC9 JUMPI PUSH0 DUP1 REVERT JUMPDEST POP PUSH2 0xE4 PUSH1 0x4 DUP1 CALLDATASIZE SUB DUP2 ADD SWAP1 PUSH2 0xDF SWAP2 SWAP1 PUSH2 0x1467 JUMP JUMPDEST PUSH2 0x757 JUMP JUMPDEST STOP JUMPDEST CALLVALUE DUP1 ISZERO PUSH2 0xF1 JUMPI PUSH0 DUP1 REVERT JUMPDEST POP PUSH2 0x10C PUSH1 0x4 DUP1 CALLDATASIZE SUB DUP2 ADD SWAP1 PUSH2 0x107 SWAP2 SWAP1 PUSH2 0x1235 JUMP JUMPDEST PUSH2 0x9B5 JUMP JUMPDEST PUSH1 0x40 MLOAD PUSH2 0x120 SWAP9 SWAP8 SWAP7 SWAP6 SWAP5 SWAP4 SWAP3 SWAP2 SWAP1 PUSH2 0x1594 JUMP JUMPDEST PUSH1 0x40 MLOAD DUP1 SWAP2 SUB SWAP1 RETURN JUMPDEST PUSH2 0x143 PUSH1 0x4 DUP1 CALLDATASIZE SUB DUP2 ADD SWAP1 PUSH2 0x13E SWAP2 SWAP1 PUSH2 0x1235 JUMP JUMPDEST PUSH2 0xBE3 JUMP JUMPDEST STOP JUMPDEST CALLVALUE DUP1 ISZERO PUSH2 0x150 JUMPI PUSH0 DUP1 REVERT JUMPDEST POP PUSH2 0x159 PUSH2 0xF0F JUMP JUMPDEST PUSH1 0x40 MLOAD PUSH2 0x166 SWAP2 SWAP1 PUSH2 0x1625 JUMP JUMPDEST PUSH1 0x40 MLOAD DUP1 SWAP2 SUB SWAP1 RETURN JUMPDEST PUSH1 0x60 PUSH0 DUP1 SLOAD DUP1 PUSH1 0x20 MUL PUSH1 0x20 ADD PUSH1 0x40 MLOAD SWAP1 DUP2 ADD PUSH1 0x40 MSTORE DUP1 SWAP3 SWAP2 SWAP1 DUP2 DUP2 MSTORE PUSH1 0x20 ADD PUSH0 SWAP1 JUMPDEST DUP3 DUP3 LT ISZERO PUSH2 0x449 JUMPI DUP4 DUP3 SWAP1 PUSH0 MSTORE PUSH1 0x20 PUSH0 KECCAK256 SWAP1 PUSH1 0x8 MUL ADD PUSH1 0x40 MLOAD DUP1 PUSH2 0x100 ADD PUSH1 0x40 MSTORE SWAP1 DUP2 PUSH0 DUP3 ADD SLOAD DUP2 MSTORE PUSH1 0x20 ADD PUSH1 0x1 DUP3 ADD PUSH0 SWAP1 SLOAD SWAP1 PUSH2 0x100 EXP SWAP1 DIV PUSH20 0xFFFFFFFFFFFFFFFFFFFFFFFFFFFFFFFFFFFFFFFF AND PUSH20 0xFFFFFFFFFFFFFFFFFFFFFFFFFFFFFFFFFFFFFFFF AND PUSH20 0xFFFFFFFFFFFFFFFFFFFFFFFFFFFFFFFFFFFFFFFF AND DUP2 MSTORE PUSH1 0x20 ADD PUSH1 0x2 DUP3 ADD PUSH0 SWAP1 SLOAD SWAP1 PUSH2 0x100 EXP SWAP1 DIV PUSH20 0xFFFFFFFFFFFFFFFFFFFFFFFFFFFFFFFFFFFFFFFF AND PUSH20 0xFFFFFFFFFFFFFFFFFFFFFFFFFFFFFFFFFFFFFFFF AND PUSH20 0xFFFFFFFFFFFFFFFFFFFFFFFFFFFFFFFFFFFFFFFF AND DUP2 MSTORE PUSH1 0x20 ADD PUSH1 0x3 DUP3 ADD DUP1 SLOAD PUSH2 0x276 SWAP1 PUSH2 0x166B JUMP JUMPDEST DUP1 PUSH1 0x1F ADD PUSH1 0x20 DUP1 SWAP2 DIV MUL PUSH1 0x20 ADD PUSH1 0x40 MLOAD SWAP1 DUP2 ADD PUSH1 0x40 MSTORE DUP1 SWAP3 SWAP2 SWAP1 DUP2 DUP2 MSTORE PUSH1 0x20 ADD DUP3 DUP1 SLOAD PUSH2 0x2A2 SWAP1 PUSH2 0x166B JUMP JUMPDEST DUP1 ISZERO PUSH2 0x2ED JUMPI DUP1 PUSH1 0x1F LT PUSH2 0x2C4 JUMPI PUSH2 0x100 DUP1 DUP4 SLOAD DIV MUL DUP4 MSTORE SWAP2 PUSH1 0x20 ADD SWAP2 PUSH2 0x2ED JUMP JUMPDEST DUP3 ADD SWAP2 SWAP1 PUSH0 MSTORE PUSH1 0x20 PUSH0 KECCAK256 SWAP1 JUMPDEST DUP2 SLOAD DUP2 MSTORE SWAP1 PUSH1 0x1 ADD SWAP1 PUSH1 0x20 ADD DUP1 DUP4 GT PUSH2 0x2D0 JUMPI DUP3 SWAP1 SUB PUSH1 0x1F AND DUP3 ADD SWAP2 JUMPDEST POP POP POP POP POP DUP2 MSTORE PUSH1 0x20 ADD PUSH1 0x4 DUP3 ADD DUP1 SLOAD PUSH2 0x306 SWAP1 PUSH2 0x166B JUMP JUMPDEST DUP1 PUSH1 0x1F ADD PUSH1 0x20 DUP1 SWAP2 DIV MUL PUSH1 0x20 ADD PUSH1 0x40 MLOAD SWAP1 DUP2 ADD PUSH1 0x40 MSTORE DUP1 SWAP3 SWAP2 SWAP1 DUP2 DUP2 MSTORE PUSH1 0x20 ADD DUP3 DUP1 SLOAD PUSH2 0x332 SWAP1 PUSH2 0x166B JUMP JUMPDEST DUP1 ISZERO PUSH2 0x37D JUMPI DUP1 PUSH1 0x1F LT PUSH2 0x354 JUMPI PUSH2 0x100 DUP1 DUP4 SLOAD DIV MUL DUP4 MSTORE SWAP2 PUSH1 0x20 ADD SWAP2 PUSH2 0x37D JUMP JUMPDEST DUP3 ADD SWAP2 SWAP1 PUSH0 MSTORE PUSH1 0x20 PUSH0 KECCAK256 SWAP1 JUMPDEST DUP2 SLOAD DUP2 MSTORE SWAP1 PUSH1 0x1 ADD SWAP1 PUSH1 0x20 ADD DUP1 DUP4 GT PUSH2 0x360 JUMPI DUP3 SWAP1 SUB PUSH1 0x1F AND DUP3 ADD SWAP2 JUMPDEST POP POP POP POP POP DUP2 MSTORE PUSH1 0x20 ADD PUSH1 0x5 DUP3 ADD DUP1 SLOAD PUSH2 0x396 SWAP1 PUSH2 0x166B JUMP JUMPDEST DUP1 PUSH1 0x1F ADD PUSH1 0x20 DUP1 SWAP2 DIV MUL PUSH1 0x20 ADD PUSH1 0x40 MLOAD SWAP1 DUP2 ADD PUSH1 0x40 MSTORE DUP1 SWAP3 SWAP2 SWAP1 DUP2 DUP2 MSTORE PUSH1 0x20 ADD DUP3 DUP1 SLOAD PUSH2 0x3C2 SWAP1 PUSH2 0x166B JUMP JUMPDEST DUP1 ISZERO PUSH2 0x40D JUMPI DUP1 PUSH1 0x1F LT PUSH2 0x3E4 JUMPI PUSH2 0x100 DUP1 DUP4 SLOAD DIV MUL DUP4 MSTORE SWAP2 PUSH1 0x20 ADD SWAP2 PUSH2 0x40D JUMP JUMPDEST DUP3 ADD SWAP2 SWAP1 PUSH0 MSTORE PUSH1 0x20 PUSH0 KECCAK256 SWAP1 JUMPDEST DUP2 SLOAD DUP2 MSTORE SWAP1 PUSH1 0x1 ADD SWAP1 PUSH1 0x20 ADD DUP1 DUP4 GT PUSH2 0x3F0 JUMPI DUP3 SWAP1 SUB PUSH1 0x1F AND DUP3 ADD SWAP2 JUMPDEST POP POP POP POP POP DUP2 MSTORE PUSH1 0x20 ADD PUSH1 0x6 DUP3 ADD SLOAD DUP2 MSTORE PUSH1 0x20 ADD PUSH1 0x7 DUP3 ADD PUSH0 SWAP1 SLOAD SWAP1 PUSH2 0x100 EXP SWAP1 DIV PUSH1 0xFF AND ISZERO ISZERO ISZERO ISZERO DUP2 MSTORE POP POP DUP2 MSTORE PUSH1 0x20 ADD SWAP1 PUSH1 0x1 ADD SWAP1 PUSH2 0x191 JUMP JUMPDEST POP POP POP POP SWAP1 POP SWAP1 JUMP JUMPDEST PUSH2 0x45A PUSH2 0xF15 JUMP JUMPDEST PUSH1 0x1 SLOAD DUP3 LT PUSH2 0x49E JUMPI PUSH1 0x40 MLOAD PUSH32 0x8C379A000000000000000000000000000000000000000000000000000000000 DUP2 MSTORE PUSH1 0x4 ADD PUSH2 0x495 SWAP1 PUSH2 0x16E5 JUMP JUMPDEST PUSH1 0x40 MLOAD DUP1 SWAP2 SUB SWAP1 REVERT JUMPDEST PUSH0 DUP3 DUP2 SLOAD DUP2 LT PUSH2 0x4B1 JUMPI PUSH2 0x4B0 PUSH2 0x1703 JUMP JUMPDEST JUMPDEST SWAP1 PUSH0 MSTORE PUSH1 0x20 PUSH0 KECCAK256 SWAP1 PUSH1 0x8 MUL ADD PUSH1 0x40 MLOAD DUP1 PUSH2 0x100 ADD PUSH1 0x40 MSTORE SWAP1 DUP2 PUSH0 DUP3 ADD SLOAD DUP2 MSTORE PUSH1 0x20 ADD PUSH1 0x1 DUP3 ADD PUSH0 SWAP1 SLOAD SWAP1 PUSH2 0x100 EXP SWAP1 DIV PUSH20 0xFFFFFFFFFFFFFFFFFFFFFFFFFFFFFFFFFFFFFFFF AND PUSH20 0xFFFFFFFFFFFFFFFFFFFFFFFFFFFFFFFFFFFFFFFF AND PUSH20 0xFFFFFFFFFFFFFFFFFFFFFFFFFFFFFFFFFFFFFFFF AND DUP2 MSTORE PUSH1 0x20 ADD PUSH1 0x2 DUP3 ADD PUSH0 SWAP1 SLOAD SWAP1 PUSH2 0x100 EXP SWAP1 DIV PUSH20 0xFFFFFFFFFFFFFFFFFFFFFFFFFFFFFFFFFFFFFFFF AND PUSH20 0xFFFFFFFFFFFFFFFFFFFFFFFFFFFFFFFFFFFFFFFF AND PUSH20 0xFFFFFFFFFFFFFFFFFFFFFFFFFFFFFFFFFFFFFFFF AND DUP2 MSTORE PUSH1 0x20 ADD PUSH1 0x3 DUP3 ADD DUP1 SLOAD PUSH2 0x58C SWAP1 PUSH2 0x166B JUMP JUMPDEST DUP1 PUSH1 0x1F ADD PUSH1 0x20 DUP1 SWAP2 DIV MUL PUSH1 0x20 ADD PUSH1 0x40 MLOAD SWAP1 DUP2 ADD PUSH1 0x40 MSTORE DUP1 SWAP3 SWAP2 SWAP1 DUP2 DUP2 MSTORE PUSH1 0x20 ADD DUP3 DUP1 SLOAD PUSH2 0x5B8 SWAP1 PUSH2 0x166B JUMP JUMPDEST DUP1 ISZERO PUSH2 0x603 JUMPI DUP1 PUSH1 0x1F LT PUSH2 0x5DA JUMPI PUSH2 0x100 DUP1 DUP4 SLOAD DIV MUL DUP4 MSTORE SWAP2 PUSH1 0x20 ADD SWAP2 PUSH2 0x603 JUMP JUMPDEST DUP3 ADD SWAP2 SWAP1 PUSH0 MSTORE PUSH1 0x20 PUSH0 KECCAK256 SWAP1 JUMPDEST DUP2 SLOAD DUP2 MSTORE SWAP1 PUSH1 0x1 ADD SWAP1 PUSH1 0x20 ADD DUP1 DUP4 GT PUSH2 0x5E6 JUMPI DUP3 SWAP1 SUB PUSH1 0x1F AND DUP3 ADD SWAP2 JUMPDEST POP POP POP POP POP DUP2 MSTORE PUSH1 0x20 ADD PUSH1 0x4 DUP3 ADD DUP1 SLOAD PUSH2 0x61C SWAP1 PUSH2 0x166B JUMP JUMPDEST DUP1 PUSH1 0x1F ADD PUSH1 0x20 DUP1 SWAP2 DIV MUL PUSH1 0x20 ADD PUSH1 0x40 MLOAD SWAP1 DUP2 ADD PUSH1 0x40 MSTORE DUP1 SWAP3 SWAP2 SWAP1 DUP2 DUP2 MSTORE PUSH1 0x20 ADD DUP3 DUP1 SLOAD PUSH2 0x648 SWAP1 PUSH2 0x166B JUMP JUMPDEST DUP1 ISZERO PUSH2 0x693 JUMPI DUP1 PUSH1 0x1F LT PUSH2 0x66A JUMPI PUSH2 0x100 DUP1 DUP4 SLOAD DIV MUL DUP4 MSTORE SWAP2 PUSH1 0x20 ADD SWAP2 PUSH2 0x693 JUMP JUMPDEST DUP3 ADD SWAP2 SWAP1 PUSH0 MSTORE PUSH1 0x20 PUSH0 KECCAK256 SWAP1 JUMPDEST DUP2 SLOAD DUP2 MSTORE SWAP1 PUSH1 0x1 ADD SWAP1 PUSH1 0x20 ADD DUP1 DUP4 GT PUSH2 0x676 JUMPI DUP3 SWAP1 SUB PUSH1 0x1F AND DUP3 ADD SWAP2 JUMPDEST POP POP POP POP POP DUP2 MSTORE PUSH1 0x20 ADD PUSH1 0x5 DUP3 ADD DUP1 SLOAD PUSH2 0x6AC SWAP1 PUSH2 0x166B JUMP JUMPDEST DUP1 PUSH1 0x1F ADD PUSH1 0x20 DUP1 SWAP2 DIV MUL PUSH1 0x20 ADD PUSH1 0x40 MLOAD SWAP1 DUP2 ADD PUSH1 0x40 MSTORE DUP1 SWAP3 SWAP2 SWAP1 DUP2 DUP2 MSTORE PUSH1 0x20 ADD DUP3 DUP1 SLOAD PUSH2 0x6D8 SWAP1 PUSH2 0x166B JUMP JUMPDEST DUP1 ISZERO PUSH2 0x723 JUMPI DUP1 PUSH1 0x1F LT PUSH2 0x6FA JUMPI PUSH2 0x100 DUP1 DUP4 SLOAD DIV MUL DUP4 MSTORE SWAP2 PUSH1 0x20 ADD SWAP2 PUSH2 0x723 JUMP JUMPDEST DUP3 ADD SWAP2 SWAP1 PUSH0 MSTORE PUSH1 0x20 PUSH0 KECCAK256 SWAP1 JUMPDEST DUP2 SLOAD DUP2 MSTORE SWAP1 PUSH1 0x1 ADD SWAP1 PUSH1 0x20 ADD DUP1 DUP4 GT PUSH2 0x706 JUMPI DUP3 SWAP1 SUB PUSH1 0x1F AND DUP3 ADD SWAP2 JUMPDEST POP POP POP POP POP DUP2 MSTORE PUSH1 0x20 ADD PUSH1 0x6 DUP3 ADD SLOAD DUP2 MSTORE PUSH1 0x20 ADD PUSH1 0x7 DUP3 ADD PUSH0 SWAP1 SLOAD SWAP1 PUSH2 0x100 EXP SWAP1 DIV PUSH1 0xFF AND ISZERO ISZERO ISZERO ISZERO DUP2 MSTORE POP POP SWAP1 POP SWAP2 SWAP1 POP JUMP JUMPDEST PUSH0 DUP2 GT PUSH2 0x799 JUMPI PUSH1 0x40 MLOAD PUSH32 0x8C379A000000000000000000000000000000000000000000000000000000000 DUP2 MSTORE PUSH1 0x4 ADD PUSH2 0x790 SWAP1 PUSH2 0x177A JUMP JUMPDEST PUSH1 0x40 MLOAD DUP1 SWAP2 SUB SWAP1 REVERT JUMPDEST PUSH0 PUSH1 0x40 MLOAD DUP1 PUSH2 0x100 ADD PUSH1 0x40 MSTORE DUP1 PUSH1 0x1 SLOAD DUP2 MSTORE PUSH1 0x20 ADD CALLER PUSH20 0xFFFFFFFFFFFFFFFFFFFFFFFFFFFFFFFFFFFFFFFF AND DUP2 MSTORE PUSH1 0x20 ADD CALLER PUSH20 0xFFFFFFFFFFFFFFFFFFFFFFFFFFFFFFFFFFFFFFFF AND DUP2 MSTORE PUSH1 0x20 ADD DUP7 DUP2 MSTORE PUSH1 0x20 ADD DUP6 DUP2 MSTORE PUSH1 0x20 ADD DUP5 DUP2 MSTORE PUSH1 0x20 ADD DUP4 DUP2 MSTORE PUSH1 0x20 ADD PUSH0 ISZERO ISZERO DUP2 MSTORE POP SWAP1 DUP1 PUSH1 0x1 DUP2 SLOAD ADD DUP1 DUP3 SSTORE DUP1 SWAP2 POP POP PUSH1 0x1 SWAP1 SUB SWAP1 PUSH0 MSTORE PUSH1 0x20 PUSH0 KECCAK256 SWAP1 PUSH1 0x8 MUL ADD PUSH0 SWAP1 SWAP2 SWAP1 SWAP2 SWAP1 SWAP2 POP PUSH0 DUP3 ADD MLOAD DUP2 PUSH0 ADD SSTORE PUSH1 0x20 DUP3 ADD MLOAD DUP2 PUSH1 0x1 ADD PUSH0 PUSH2 0x100 EXP DUP2 SLOAD DUP2 PUSH20 0xFFFFFFFFFFFFFFFFFFFFFFFFFFFFFFFFFFFFFFFF MUL NOT AND SWAP1 DUP4 PUSH20 0xFFFFFFFFFFFFFFFFFFFFFFFFFFFFFFFFFFFFFFFF AND MUL OR SWAP1 SSTORE POP PUSH1 0x40 DUP3 ADD MLOAD DUP2 PUSH1 0x2 ADD PUSH0 PUSH2 0x100 EXP DUP2 SLOAD DUP2 PUSH20 0xFFFFFFFFFFFFFFFFFFFFFFFFFFFFFFFFFFFFFFFF MUL NOT AND SWAP1 DUP4 PUSH20 0xFFFFFFFFFFFFFFFFFFFFFFFFFFFFFFFFFFFFFFFF AND MUL OR SWAP1 SSTORE POP PUSH1 0x60 DUP3 ADD MLOAD DUP2 PUSH1 0x3 ADD SWAP1 DUP2 PUSH2 0x8D3 SWAP2 SWAP1 PUSH2 0x1935 JUMP JUMPDEST POP PUSH1 0x80 DUP3 ADD MLOAD DUP2 PUSH1 0x4 ADD SWAP1 DUP2 PUSH2 0x8E9 SWAP2 SWAP1 PUSH2 0x1935 JUMP JUMPDEST POP PUSH1 0xA0 DUP3 ADD MLOAD DUP2 PUSH1 0x5 ADD SWAP1 DUP2 PUSH2 0x8FF SWAP2 SWAP1 PUSH2 0x1935 JUMP JUMPDEST POP PUSH1 0xC0 DUP3 ADD MLOAD DUP2 PUSH1 0x6 ADD SSTORE PUSH1 0xE0 DUP3 ADD MLOAD DUP2 PUSH1 0x7 ADD PUSH0 PUSH2 0x100 EXP DUP2 SLOAD DUP2 PUSH1 0xFF MUL NOT AND SWAP1 DUP4 ISZERO ISZERO MUL OR SWAP1 SSTORE POP POP POP CALLER PUSH20 0xFFFFFFFFFFFFFFFFFFFFFFFFFFFFFFFFFFFFFFFF AND CALLER PUSH20 0xFFFFFFFFFFFFFFFFFFFFFFFFFFFFFFFFFFFFFFFF AND PUSH32 0xD6C1F674CEEC95954157D523258B10894F33DDA5BF0532A1E27AE8181FCE3552 PUSH1 0x1 SLOAD DUP8 DUP7 DUP7 PUSH1 0x40 MLOAD PUSH2 0x990 SWAP5 SWAP4 SWAP3 SWAP2 SWAP1 PUSH2 0x1A04 JUMP JUMPDEST PUSH1 0x40 MLOAD DUP1 SWAP2 SUB SWAP1 LOG3 PUSH1 0x1 PUSH0 DUP2 SLOAD DUP1 SWAP3 SWAP2 SWAP1 PUSH2 0x9AA SWAP1 PUSH2 0x1A82 JUMP JUMPDEST SWAP2 SWAP1 POP SSTORE POP POP POP POP POP JUMP JUMPDEST PUSH0 DUP2 DUP2 SLOAD DUP2 LT PUSH2 0x9C3 JUMPI PUSH0 DUP1 REVERT JUMPDEST SWAP1 PUSH0 MSTORE PUSH1 0x20 PUSH0 KECCAK256 SWAP1 PUSH1 0x8 MUL ADD PUSH0 SWAP2 POP SWAP1 POP DUP1 PUSH0 ADD SLOAD SWAP1 DUP1 PUSH1 0x1 ADD PUSH0 SWAP1 SLOAD SWAP1 PUSH2 0x100 EXP SWAP1 DIV PUSH20 0xFFFFFFFFFFFFFFFFFFFFFFFFFFFFFFFFFFFFFFFF AND SWAP1 DUP1 PUSH1 0x2 ADD PUSH0 SWAP1 SLOAD SWAP1 PUSH2 0x100 EXP SWAP1 DIV PUSH20 0xFFFFFFFFFFFFFFFFFFFFFFFFFFFFFFFFFFFFFFFF AND SWAP1 DUP1 PUSH1 0x3 ADD DUP1 SLOAD PUSH2 0xA32 SWAP1 PUSH2 0x166B JUMP JUMPDEST DUP1 PUSH1 0x1F ADD PUSH1 0x20 DUP1 SWAP2 DIV MUL PUSH1 0x20 ADD PUSH1 0x40 MLOAD SWAP1 DUP2 ADD PUSH1 0x40 MSTORE DUP1 SWAP3 SWAP2 SWAP1 DUP2 DUP2 MSTORE PUSH1 0x20 ADD DUP3 DUP1 SLOAD PUSH2 0xA5E SWAP1 PUSH2 0x166B JUMP JUMPDEST DUP1 ISZERO PUSH2 0xAA9 JUMPI DUP1 PUSH1 0x1F LT PUSH2 0xA80 JUMPI PUSH2 0x100 DUP1 DUP4 SLOAD DIV MUL DUP4 MSTORE SWAP2 PUSH1 0x20 ADD SWAP2 PUSH2 0xAA9 JUMP JUMPDEST DUP3 ADD SWAP2 SWAP1 PUSH0 MSTORE PUSH1 0x20 PUSH0 KECCAK256 SWAP1 JUMPDEST DUP2 SLOAD DUP2 MSTORE SWAP1 PUSH1 0x1 ADD SWAP1 PUSH1 0x20 ADD DUP1 DUP4 GT PUSH2 0xA8C JUMPI DUP3 SWAP1 SUB PUSH1 0x1F AND DUP3 ADD SWAP2 JUMPDEST POP POP POP POP POP SWAP1 DUP1 PUSH1 0x4 ADD DUP1 SLOAD PUSH2 0xABE SWAP1 PUSH2 0x166B JUMP JUMPDEST DUP1 PUSH1 0x1F ADD PUSH1 0x20 DUP1 SWAP2 DIV MUL PUSH1 0x20 ADD PUSH1 0x40 MLOAD SWAP1 DUP2 ADD PUSH1 0x40 MSTORE DUP1 SWAP3 SWAP2 SWAP1 DUP2 DUP2 MSTORE PUSH1 0x20 ADD DUP3 DUP1 SLOAD PUSH2 0xAEA SWAP1 PUSH2 0x166B JUMP JUMPDEST DUP1 ISZERO PUSH2 0xB35 JUMPI DUP1 PUSH1 0x1F LT PUSH2 0xB0C JUMPI PUSH2 0x100 DUP1 DUP4 SLOAD DIV MUL DUP4 MSTORE SWAP2 PUSH1 0x20 ADD SWAP2 PUSH2 0xB35 JUMP JUMPDEST DUP3 ADD SWAP2 SWAP1 PUSH0 MSTORE PUSH1 0x20 PUSH0 KECCAK256 SWAP1 JUMPDEST DUP2 SLOAD DUP2 MSTORE SWAP1 PUSH1 0x1 ADD SWAP1 PUSH1 0x20 ADD DUP1 DUP4 GT PUSH2 0xB18 JUMPI DUP3 SWAP1 SUB PUSH1 0x1F AND DUP3 ADD SWAP2 JUMPDEST POP POP POP POP POP SWAP1 DUP1 PUSH1 0x5 ADD DUP1 SLOAD PUSH2 0xB4A SWAP1 PUSH2 0x166B JUMP JUMPDEST DUP1 PUSH1 0x1F ADD PUSH1 0x20 DUP1 SWAP2 DIV MUL PUSH1 0x20 ADD PUSH1 0x40 MLOAD SWAP1 DUP2 ADD PUSH1 0x40 MSTORE DUP1 SWAP3 SWAP2 SWAP1 DUP2 DUP2 MSTORE PUSH1 0x20 ADD DUP3 DUP1 SLOAD PUSH2 0xB76 SWAP1 PUSH2 0x166B JUMP JUMPDEST DUP1 ISZERO PUSH2 0xBC1 JUMPI DUP1 PUSH1 0x1F LT PUSH2 0xB98 JUMPI PUSH2 0x100 DUP1 DUP4 SLOAD DIV MUL DUP4 MSTORE SWAP2 PUSH1 0x20 ADD SWAP2 PUSH2 0xBC1 JUMP JUMPDEST DUP3 ADD SWAP2 SWAP1 PUSH0 MSTORE PUSH1 0x20 PUSH0 KECCAK256 SWAP1 JUMPDEST DUP2 SLOAD DUP2 MSTORE SWAP1 PUSH1 0x1 ADD SWAP1 PUSH1 0x20 ADD DUP1 DUP4 GT PUSH2 0xBA4 JUMPI DUP3 SWAP1 SUB PUSH1 0x1F AND DUP3 ADD SWAP2 JUMPDEST POP POP POP POP POP SWAP1 DUP1 PUSH1 0x6 ADD SLOAD SWAP1 DUP1 PUSH1 0x7 ADD PUSH0 SWAP1 SLOAD SWAP1 PUSH2 0x100 EXP SWAP1 DIV PUSH1 0xFF AND SWAP1 POP DUP9 JUMP JUMPDEST PUSH1 0x1 SLOAD DUP2 LT PUSH2 0xC27 JUMPI PUSH1 0x40 MLOAD PUSH32 0x8C379A000000000000000000000000000000000000000000000000000000000 DUP2 MSTORE PUSH1 0x4 ADD PUSH2 0xC1E SWAP1 PUSH2 0x16E5 JUMP JUMPDEST PUSH1 0x40 MLOAD DUP1 SWAP2 SUB SWAP1 REVERT JUMPDEST PUSH0 DUP1 DUP3 DUP2 SLOAD DUP2 LT PUSH2 0xC3B JUMPI PUSH2 0xC3A PUSH2 0x1703 JUMP JUMPDEST JUMPDEST SWAP1 PUSH0 MSTORE PUSH1 0x20 PUSH0 KECCAK256 SWAP1 PUSH1 0x8 MUL ADD SWAP1 POP DUP1 PUSH1 0x6 ADD SLOAD CALLVALUE EQ PUSH2 0xC8F JUMPI PUSH1 0x40 MLOAD PUSH32 0x8C379A000000000000000000000000000000000000000000000000000000000 DUP2 MSTORE PUSH1 0x4 ADD PUSH2 0xC86 SWAP1 PUSH2 0x1B39 JUMP JUMPDEST PUSH1 0x40 MLOAD DUP1 SWAP2 SUB SWAP1 REVERT JUMPDEST DUP1 PUSH1 0x7 ADD PUSH0 SWAP1 SLOAD SWAP1 PUSH2 0x100 EXP SWAP1 DIV PUSH1 0xFF AND ISZERO PUSH2 0xCE0 JUMPI PUSH1 0x40 MLOAD PUSH32 0x8C379A000000000000000000000000000000000000000000000000000000000 DUP2 MSTORE PUSH1 0x4 ADD PUSH2 0xCD7 SWAP1 PUSH2 0x1BC7 JUMP JUMPDEST PUSH1 0x40 MLOAD DUP1 SWAP2 SUB SWAP1 REVERT JUMPDEST DUP1 PUSH1 0x2 ADD PUSH0 SWAP1 SLOAD SWAP1 PUSH2 0x100 EXP SWAP1 DIV PUSH20 0xFFFFFFFFFFFFFFFFFFFFFFFFFFFFFFFFFFFFFFFF AND PUSH20 0xFFFFFFFFFFFFFFFFFFFFFFFFFFFFFFFFFFFFFFFF AND CALLER PUSH20 0xFFFFFFFFFFFFFFFFFFFFFFFFFFFFFFFFFFFFFFFF AND SUB PUSH2 0xD71 JUMPI PUSH1 0x40 MLOAD PUSH32 0x8C379A000000000000000000000000000000000000000000000000000000000 DUP2 MSTORE PUSH1 0x4 ADD PUSH2 0xD68 SWAP1 PUSH2 0x1C55 JUMP JUMPDEST PUSH1 0x40 MLOAD DUP1 SWAP2 SUB SWAP1 REVERT JUMPDEST PUSH0 DUP2 PUSH1 0x2 ADD PUSH0 SWAP1 SLOAD SWAP1 PUSH2 0x100 EXP SWAP1 DIV PUSH20 0xFFFFFFFFFFFFFFFFFFFFFFFFFFFFFFFFFFFFFFFF AND SWAP1 POP CALLER DUP3 PUSH1 0x2 ADD PUSH0 PUSH2 0x100 EXP DUP2 SLOAD DUP2 PUSH20 0xFFFFFFFFFFFFFFFFFFFFFFFFFFFFFFFFFFFFFFFF MUL NOT AND SWAP1 DUP4 PUSH20 0xFFFFFFFFFFFFFFFFFFFFFFFFFFFFFFFFFFFFFFFF AND MUL OR SWAP1 SSTORE POP PUSH1 0x1 DUP3 PUSH1 0x7 ADD PUSH0 PUSH2 0x100 EXP DUP2 SLOAD DUP2 PUSH1 0xFF MUL NOT AND SWAP1 DUP4 ISZERO ISZERO MUL OR SWAP1 SSTORE POP DUP1 PUSH20 0xFFFFFFFFFFFFFFFFFFFFFFFFFFFFFFFFFFFFFFFF AND PUSH2 0x8FC CALLVALUE SWAP1 DUP2 ISZERO MUL SWAP1 PUSH1 0x40 MLOAD PUSH0 PUSH1 0x40 MLOAD DUP1 DUP4 SUB DUP2 DUP6 DUP9 DUP9 CALL SWAP4 POP POP POP POP ISZERO DUP1 ISZERO PUSH2 0xE39 JUMPI RETURNDATASIZE PUSH0 DUP1 RETURNDATACOPY RETURNDATASIZE PUSH0 REVERT JUMPDEST POP DUP1 PUSH20 0xFFFFFFFFFFFFFFFFFFFFFFFFFFFFFFFFFFFFFFFF AND CALLER PUSH20 0xFFFFFFFFFFFFFFFFFFFFFFFFFFFFFFFFFFFFFFFF AND PUSH32 0xD52BD61F7C422D441E024604F4517878FD3305D6ACF0FE37BAEF23ED21AF6BC9 CALLVALUE PUSH1 0x40 MLOAD PUSH2 0xE97 SWAP2 SWAP1 PUSH2 0x1625 JUMP JUMPDEST PUSH1 0x40 MLOAD DUP1 SWAP2 SUB SWAP1 LOG3 CALLER PUSH20 0xFFFFFFFFFFFFFFFFFFFFFFFFFFFFFFFFFFFFFFFF AND DUP2 PUSH20 0xFFFFFFFFFFFFFFFFFFFFFFFFFFFFFFFFFFFFFFFF AND PUSH32 0xA02E46FC9BBD3E1138787BC1DC117AE0B9A5A3745EA30B0AB673D79D90739029 DUP6 DUP6 PUSH1 0x6 ADD SLOAD PUSH1 0x40 MLOAD PUSH2 0xF02 SWAP3 SWAP2 SWAP1 PUSH2 0x1C73 JUMP JUMPDEST PUSH1 0x40 MLOAD DUP1 SWAP2 SUB SWAP1 LOG3 POP POP POP JUMP JUMPDEST PUSH1 0x1 SLOAD DUP2 JUMP JUMPDEST PUSH1 0x40 MLOAD DUP1 PUSH2 0x100 ADD PUSH1 0x40 MSTORE DUP1 PUSH0 DUP2 MSTORE PUSH1 0x20 ADD PUSH0 PUSH20 0xFFFFFFFFFFFFFFFFFFFFFFFFFFFFFFFFFFFFFFFF AND DUP2 MSTORE PUSH1 0x20 ADD PUSH0 PUSH20 0xFFFFFFFFFFFFFFFFFFFFFFFFFFFFFFFFFFFFFFFF AND DUP2 MSTORE PUSH1 0x20 ADD PUSH1 0x60 DUP2 MSTORE PUSH1 0x20 ADD PUSH1 0x60 DUP2 MSTORE PUSH1 0x20 ADD PUSH1 0x60 DUP2 MSTORE PUSH1 0x20 ADD PUSH0 DUP2 MSTORE PUSH1 0x20 ADD PUSH0 ISZERO ISZERO DUP2 MSTORE POP SWAP1 JUMP JUMPDEST PUSH0 DUP2 MLOAD SWAP1 POP SWAP2 SWAP1 POP JUMP JUMPDEST PUSH0 DUP3 DUP3 MSTORE PUSH1 0x20 DUP3 ADD SWAP1 POP SWAP3 SWAP2 POP POP JUMP JUMPDEST PUSH0 DUP2 SWAP1 POP PUSH1 0x20 DUP3 ADD SWAP1 POP SWAP2 SWAP1 POP JUMP JUMPDEST PUSH0 DUP2 SWAP1 POP SWAP2 SWAP1 POP JUMP JUMPDEST PUSH2 0xFBE DUP2 PUSH2 0xFAC JUMP JUMPDEST DUP3 MSTORE POP POP JUMP JUMPDEST PUSH0 PUSH20 0xFFFFFFFFFFFFFFFFFFFFFFFFFFFFFFFFFFFFFFFF DUP3 AND SWAP1 POP SWAP2 SWAP1 POP JUMP JUMPDEST PUSH0 PUSH2 0xFED DUP3 PUSH2 0xFC4 JUMP JUMPDEST SWAP1 POP SWAP2 SWAP1 POP JUMP JUMPDEST PUSH2 0xFFD DUP2 PUSH2 0xFE3 JUMP JUMPDEST DUP3 MSTORE POP POP JUMP JUMPDEST PUSH0 DUP2 MLOAD SWAP1 POP SWAP2 SWAP1 POP JUMP JUMPDEST PUSH0 DUP3 DUP3 MSTORE PUSH1 0x20 DUP3 ADD SWAP1 POP SWAP3 SWAP2 POP POP JUMP JUMPDEST DUP3 DUP2 DUP4 MCOPY PUSH0 DUP4 DUP4 ADD MSTORE POP POP POP JUMP JUMPDEST PUSH0 PUSH1 0x1F NOT PUSH1 0x1F DUP4 ADD AND SWAP1 POP SWAP2 SWAP1 POP JUMP JUMPDEST PUSH0 PUSH2 0x1045 DUP3 PUSH2 0x1003 JUMP JUMPDEST PUSH2 0x104F DUP2 DUP6 PUSH2 0x100D JUMP JUMPDEST SWAP4 POP PUSH2 0x105F DUP2 DUP6 PUSH1 0x20 DUP7 ADD PUSH2 0x101D JUMP JUMPDEST PUSH2 0x1068 DUP2 PUSH2 0x102B JUMP JUMPDEST DUP5 ADD SWAP2 POP POP SWAP3 SWAP2 POP POP JUMP JUMPDEST PUSH0 DUP2 ISZERO ISZERO SWAP1 POP SWAP2 SWAP1 POP JUMP JUMPDEST PUSH2 0x1087 DUP2 PUSH2 0x1073 JUMP JUMPDEST DUP3 MSTORE POP POP JUMP JUMPDEST PUSH0 PUSH2 0x100 DUP4 ADD PUSH0 DUP4 ADD MLOAD PUSH2 0x10A3 PUSH0 DUP7 ADD DUP3 PUSH2 0xFB5 JUMP JUMPDEST POP PUSH1 0x20 DUP4 ADD MLOAD PUSH2 0x10B6 PUSH1 0x20 DUP7 ADD DUP3 PUSH2 0xFF4 JUMP JUMPDEST POP PUSH1 0x40 DUP4 ADD MLOAD PUSH2 0x10C9 PUSH1 0x40 DUP7 ADD DUP3 PUSH2 0xFF4 JUMP JUMPDEST POP PUSH1 0x60 DUP4 ADD MLOAD DUP5 DUP3 SUB PUSH1 0x60 DUP7 ADD MSTORE PUSH2 0x10E1 DUP3 DUP3 PUSH2 0x103B JUMP JUMPDEST SWAP2 POP POP PUSH1 0x80 DUP4 ADD MLOAD DUP5 DUP3 SUB PUSH1 0x80 DUP7 ADD MSTORE PUSH2 0x10FB DUP3 DUP3 PUSH2 0x103B JUMP JUMPDEST SWAP2 POP POP PUSH1 0xA0 DUP4 ADD MLOAD DUP5 DUP3 SUB PUSH1 0xA0 DUP7 ADD MSTORE PUSH2 0x1115 DUP3 DUP3 PUSH2 0x103B JUMP JUMPDEST SWAP2 POP POP PUSH1 0xC0 DUP4 ADD MLOAD PUSH2 0x112A PUSH1 0xC0 DUP7 ADD DUP3 PUSH2 0xFB5 JUMP JUMPDEST POP PUSH1 0xE0 DUP4 ADD MLOAD PUSH2 0x113D PUSH1 0xE0 DUP7 ADD DUP3 PUSH2 0x107E JUMP JUMPDEST POP DUP1 SWAP2 POP POP SWAP3 SWAP2 POP POP JUMP JUMPDEST PUSH0 PUSH2 0x1153 DUP4 DUP4 PUSH2 0x108D JUMP JUMPDEST SWAP1 POP SWAP3 SWAP2 POP POP JUMP JUMPDEST PUSH0 PUSH1 0x20 DUP3 ADD SWAP1 POP SWAP2 SWAP1 POP JUMP JUMPDEST PUSH0 PUSH2 0x1171 DUP3 PUSH2 0xF83 JUMP JUMPDEST PUSH2 0x117B DUP2 DUP6 PUSH2 0xF8D JUMP JUMPDEST SWAP4 POP DUP4 PUSH1 0x20 DUP3 MUL DUP6 ADD PUSH2 0x118D DUP6 PUSH2 0xF9D JUMP JUMPDEST DUP1 PUSH0 JUMPDEST DUP6 DUP2 LT ISZERO PUSH2 0x11C8 JUMPI DUP5 DUP5 SUB DUP10 MSTORE DUP2 MLOAD PUSH2 0x11A9 DUP6 DUP3 PUSH2 0x1148 JUMP JUMPDEST SWAP5 POP PUSH2 0x11B4 DUP4 PUSH2 0x115B JUMP JUMPDEST SWAP3 POP PUSH1 0x20 DUP11 ADD SWAP10 POP POP PUSH1 0x1 DUP2 ADD SWAP1 POP PUSH2 0x1190 JUMP JUMPDEST POP DUP3 SWAP8 POP DUP8 SWAP6 POP POP POP POP POP POP SWAP3 SWAP2 POP POP JUMP JUMPDEST PUSH0 PUSH1 0x20 DUP3 ADD SWAP1 POP DUP2 DUP2 SUB PUSH0 DUP4 ADD MSTORE PUSH2 0x11F2 DUP2 DUP5 PUSH2 0x1167 JUMP JUMPDEST SWAP1 POP SWAP3 SWAP2 POP POP JUMP JUMPDEST PUSH0 PUSH1 0x40 MLOAD SWAP1 POP SWAP1 JUMP JUMPDEST PUSH0 DUP1 REVERT JUMPDEST PUSH0 DUP1 REVERT JUMPDEST PUSH2 0x1214 DUP2 PUSH2 0xFAC JUMP JUMPDEST DUP2 EQ PUSH2 0x121E JUMPI PUSH0 DUP1 REVERT JUMPDEST POP JUMP JUMPDEST PUSH0 DUP2 CALLDATALOAD SWAP1 POP PUSH2 0x122F DUP2 PUSH2 0x120B JUMP JUMPDEST SWAP3 SWAP2 POP POP JUMP JUMPDEST PUSH0 PUSH1 0x20 DUP3 DUP5 SUB SLT ISZERO PUSH2 0x124A JUMPI PUSH2 0x1249 PUSH2 0x1203 JUMP JUMPDEST JUMPDEST PUSH0 PUSH2 0x1257 DUP5 DUP3 DUP6 ADD PUSH2 0x1221 JUMP JUMPDEST SWAP2 POP POP SWAP3 SWAP2 POP POP JUMP JUMPDEST PUSH0 PUSH2 0x100 DUP4 ADD PUSH0 DUP4 ADD MLOAD PUSH2 0x1276 PUSH0 DUP7 ADD DUP3 PUSH2 0xFB5 JUMP JUMPDEST POP PUSH1 0x20 DUP4 ADD MLOAD PUSH2 0x1289 PUSH1 0x20 DUP7 ADD DUP3 PUSH2 0xFF4 JUMP JUMPDEST POP PUSH1 0x40 DUP4 ADD MLOAD PUSH2 0x129C PUSH1 0x40 DUP7 ADD DUP3 PUSH2 0xFF4 JUMP JUMPDEST POP PUSH1 0x60 DUP4 ADD MLOAD DUP5 DUP3 SUB PUSH1 0x60 DUP7 ADD MSTORE PUSH2 0x12B4 DUP3 DUP3 PUSH2 0x103B JUMP JUMPDEST SWAP2 POP POP PUSH1 0x80 DUP4 ADD MLOAD DUP5 DUP3 SUB PUSH1 0x80 DUP7 ADD MSTORE PUSH2 0x12CE DUP3 DUP3 PUSH2 0x103B JUMP JUMPDEST SWAP2 POP POP PUSH1 0xA0 DUP4 ADD MLOAD DUP5 DUP3 SUB PUSH1 0xA0 DUP7 ADD MSTORE PUSH2 0x12E8 DUP3 DUP3 PUSH2 0x103B JUMP JUMPDEST SWAP2 POP POP PUSH1 0xC0 DUP4 ADD MLOAD PUSH2 0x12FD PUSH1 0xC0 DUP7 ADD DUP3 PUSH2 0xFB5 JUMP JUMPDEST POP PUSH1 0xE0 DUP4 ADD MLOAD PUSH2 0x1310 PUSH1 0xE0 DUP7 ADD DUP3 PUSH2 0x107E JUMP JUMPDEST POP DUP1 SWAP2 POP POP SWAP3 SWAP2 POP POP JUMP JUMPDEST PUSH0 PUSH1 0x20 DUP3 ADD SWAP1 POP DUP2 DUP2 SUB PUSH0 DUP4 ADD MSTORE PUSH2 0x1333 DUP2 DUP5 PUSH2 0x1260 JUMP JUMPDEST SWAP1 POP SWAP3 SWAP2 POP POP JUMP JUMPDEST PUSH0 DUP1 REVERT JUMPDEST PUSH0 DUP1 REVERT JUMPDEST PUSH32 0x4E487B7100000000000000000000000000000000000000000000000000000000 PUSH0 MSTORE PUSH1 0x41 PUSH1 0x4 MSTORE PUSH1 0x24 PUSH0 REVERT JUMPDEST PUSH2 0x1379 DUP3 PUSH2 0x102B JUMP JUMPDEST DUP2 ADD DUP2 DUP2 LT PUSH8 0xFFFFFFFFFFFFFFFF DUP3 GT OR ISZERO PUSH2 0x1398 JUMPI PUSH2 0x1397 PUSH2 0x1343 JUMP JUMPDEST JUMPDEST DUP1 PUSH1 0x40 MSTORE POP POP POP JUMP JUMPDEST PUSH0 PUSH2 0x13AA PUSH2 0x11FA JUMP JUMPDEST SWAP1 POP PUSH2 0x13B6 DUP3 DUP3 PUSH2 0x1370 JUMP JUMPDEST SWAP2 SWAP1 POP JUMP JUMPDEST PUSH0 PUSH8 0xFFFFFFFFFFFFFFFF DUP3 GT ISZERO PUSH2 0x13D5 JUMPI PUSH2 0x13D4 PUSH2 0x1343 JUMP JUMPDEST JUMPDEST PUSH2 0x13DE DUP3 PUSH2 0x102B JUMP JUMPDEST SWAP1 POP PUSH1 0x20 DUP2 ADD SWAP1 POP SWAP2 SWAP1 POP JUMP JUMPDEST DUP3 DUP2 DUP4 CALLDATACOPY PUSH0 DUP4 DUP4 ADD MSTORE POP POP POP JUMP JUMPDEST PUSH0 PUSH2 0x140B PUSH2 0x1406 DUP5 PUSH2 0x13BB JUMP JUMPDEST PUSH2 0x13A1 JUMP JUMPDEST SWAP1 POP DUP3 DUP2 MSTORE PUSH1 0x20 DUP2 ADD DUP5 DUP5 DUP5 ADD GT ISZERO PUSH2 0x1427 JUMPI PUSH2 0x1426 PUSH2 0x133F JUMP JUMPDEST JUMPDEST PUSH2 0x1432 DUP5 DUP3 DUP6 PUSH2 0x13EB JUMP JUMPDEST POP SWAP4 SWAP3 POP POP POP JUMP JUMPDEST PUSH0 DUP3 PUSH1 0x1F DUP4 ADD SLT PUSH2 0x144E JUMPI PUSH2 0x144D PUSH2 0x133B JUMP JUMPDEST JUMPDEST DUP2 CALLDATALOAD PUSH2 0x145E DUP5 DUP3 PUSH1 0x20 DUP7 ADD PUSH2 0x13F9 JUMP JUMPDEST SWAP2 POP POP SWAP3 SWAP2 POP POP JUMP JUMPDEST PUSH0 DUP1 PUSH0 DUP1 PUSH1 0x80 DUP6 DUP8 SUB SLT ISZERO PUSH2 0x147F JUMPI PUSH2 0x147E PUSH2 0x1203 JUMP JUMPDEST JUMPDEST PUSH0 DUP6 ADD CALLDATALOAD PUSH8 0xFFFFFFFFFFFFFFFF DUP2 GT ISZERO PUSH2 0x149C JUMPI PUSH2 0x149B PUSH2 0x1207 JUMP JUMPDEST JUMPDEST PUSH2 0x14A8 DUP8 DUP3 DUP9 ADD PUSH2 0x143A JUMP JUMPDEST SWAP5 POP POP PUSH1 0x20 DUP6 ADD CALLDATALOAD PUSH8 0xFFFFFFFFFFFFFFFF DUP2 GT ISZERO PUSH2 0x14C9 JUMPI PUSH2 0x14C8 PUSH2 0x1207 JUMP JUMPDEST JUMPDEST PUSH2 0x14D5 DUP8 DUP3 DUP9 ADD PUSH2 0x143A JUMP JUMPDEST SWAP4 POP POP PUSH1 0x40 DUP6 ADD CALLDATALOAD PUSH8 0xFFFFFFFFFFFFFFFF DUP2 GT ISZERO PUSH2 0x14F6 JUMPI PUSH2 0x14F5 PUSH2 0x1207 JUMP JUMPDEST JUMPDEST PUSH2 0x1502 DUP8 DUP3 DUP9 ADD PUSH2 0x143A JUMP JUMPDEST SWAP3 POP POP PUSH1 0x60 PUSH2 0x1513 DUP8 DUP3 DUP9 ADD PUSH2 0x1221 JUMP JUMPDEST SWAP2 POP POP SWAP3 SWAP6 SWAP2 SWAP5 POP SWAP3 POP JUMP JUMPDEST PUSH2 0x1528 DUP2 PUSH2 0xFAC JUMP JUMPDEST DUP3 MSTORE POP POP JUMP JUMPDEST PUSH2 0x1537 DUP2 PUSH2 0xFE3 JUMP JUMPDEST DUP3 MSTORE POP POP JUMP JUMPDEST PUSH0 DUP3 DUP3 MSTORE PUSH1 0x20 DUP3 ADD SWAP1 POP SWAP3 SWAP2 POP POP JUMP JUMPDEST PUSH0 PUSH2 0x1557 DUP3 PUSH2 0x1003 JUMP JUMPDEST PUSH2 0x1561 DUP2 DUP6 PUSH2 0x153D JUMP JUMPDEST SWAP4 POP PUSH2 0x1571 DUP2 DUP6 PUSH1 0x20 DUP7 ADD PUSH2 0x101D JUMP JUMPDEST PUSH2 0x157A DUP2 PUSH2 0x102B JUMP JUMPDEST DUP5 ADD SWAP2 POP POP SWAP3 SWAP2 POP POP JUMP JUMPDEST PUSH2 0x158E DUP2 PUSH2 0x1073 JUMP JUMPDEST DUP3 MSTORE POP POP JUMP JUMPDEST PUSH0 PUSH2 0x100 DUP3 ADD SWAP1 POP PUSH2 0x15A8 PUSH0 DUP4 ADD DUP12 PUSH2 0x151F JUMP JUMPDEST PUSH2 0x15B5 PUSH1 0x20 DUP4 ADD DUP11 PUSH2 0x152E JUMP JUMPDEST PUSH2 0x15C2 PUSH1 0x40 DUP4 ADD DUP10 PUSH2 0x152E JUMP JUMPDEST DUP2 DUP2 SUB PUSH1 0x60 DUP4 ADD MSTORE PUSH2 0x15D4 DUP2 DUP9 PUSH2 0x154D JUMP JUMPDEST SWAP1 POP DUP2 DUP2 SUB PUSH1 0x80 DUP4 ADD MSTORE PUSH2 0x15E8 DUP2 DUP8 PUSH2 0x154D JUMP JUMPDEST SWAP1 POP DUP2 DUP2 SUB PUSH1 0xA0 DUP4 ADD MSTORE PUSH2 0x15FC DUP2 DUP7 PUSH2 0x154D JUMP JUMPDEST SWAP1 POP PUSH2 0x160B PUSH1 0xC0 DUP4 ADD DUP6 PUSH2 0x151F JUMP JUMPDEST PUSH2 0x1618 PUSH1 0xE0 DUP4 ADD DUP5 PUSH2 0x1585 JUMP JUMPDEST SWAP10 SWAP9 POP POP POP POP POP POP POP POP POP JUMP JUMPDEST PUSH0 PUSH1 0x20 DUP3 ADD SWAP1 POP PUSH2 0x1638 PUSH0 DUP4 ADD DUP5 PUSH2 0x151F JUMP JUMPDEST SWAP3 SWAP2 POP POP JUMP JUMPDEST PUSH32 0x4E487B7100000000000000000000000000000000000000000000000000000000 PUSH0 MSTORE PUSH1 0x22 PUSH1 0x4 MSTORE PUSH1 0x24 PUSH0 REVERT JUMPDEST PUSH0 PUSH1 0x2 DUP3 DIV SWAP1 POP PUSH1 0x1 DUP3 AND DUP1 PUSH2 0x1682 JUMPI PUSH1 0x7F DUP3 AND SWAP2 POP JUMPDEST PUSH1 0x20 DUP3 LT DUP2 SUB PUSH2 0x1695 JUMPI PUSH2 0x1694 PUSH2 0x163E JUMP JUMPDEST JUMPDEST POP SWAP2 SWAP1 POP JUMP JUMPDEST PUSH32 0x50726F6475637420494420646F6573206E6F7420657869737400000000000000 PUSH0 DUP3 ADD MSTORE POP JUMP JUMPDEST PUSH0 PUSH2 0x16CF PUSH1 0x19 DUP4 PUSH2 0x153D JUMP JUMPDEST SWAP2 POP PUSH2 0x16DA DUP3 PUSH2 0x169B JUMP JUMPDEST PUSH1 0x20 DUP3 ADD SWAP1 POP SWAP2 SWAP1 POP JUMP JUMPDEST PUSH0 PUSH1 0x20 DUP3 ADD SWAP1 POP DUP2 DUP2 SUB PUSH0 DUP4 ADD MSTORE PUSH2 0x16FC DUP2 PUSH2 0x16C3 JUMP JUMPDEST SWAP1 POP SWAP2 SWAP1 POP JUMP JUMPDEST PUSH32 0x4E487B7100000000000000000000000000000000000000000000000000000000 PUSH0 MSTORE PUSH1 0x32 PUSH1 0x4 MSTORE PUSH1 0x24 PUSH0 REVERT JUMPDEST PUSH32 0x5072696365206D7573742062652067726561746572207468616E207A65726F00 PUSH0 DUP3 ADD MSTORE POP JUMP JUMPDEST PUSH0 PUSH2 0x1764 PUSH1 0x1F DUP4 PUSH2 0x153D JUMP JUMPDEST SWAP2 POP PUSH2 0x176F DUP3 PUSH2 0x1730 JUMP JUMPDEST PUSH1 0x20 DUP3 ADD SWAP1 POP SWAP2 SWAP1 POP JUMP JUMPDEST PUSH0 PUSH1 0x20 DUP3 ADD SWAP1 POP DUP2 DUP2 SUB PUSH0 DUP4 ADD MSTORE PUSH2 0x1791 DUP2 PUSH2 0x1758 JUMP JUMPDEST SWAP1 POP SWAP2 SWAP1 POP JUMP JUMPDEST PUSH0 DUP2 SWAP1 POP DUP2 PUSH0 MSTORE PUSH1 0x20 PUSH0 KECCAK256 SWAP1 POP SWAP2 SWAP1 POP JUMP JUMPDEST PUSH0 PUSH1 0x20 PUSH1 0x1F DUP4 ADD DIV SWAP1 POP SWAP2 SWAP1 POP JUMP JUMPDEST PUSH0 DUP3 DUP3 SHL SWAP1 POP SWAP3 SWAP2 POP POP JUMP JUMPDEST PUSH0 PUSH1 0x8 DUP4 MUL PUSH2 0x17F4 PUSH32 0xFFFFFFFFFFFFFFFFFFFFFFFFFFFFFFFFFFFFFFFFFFFFFFFFFFFFFFFFFFFFFFFF DUP3 PUSH2 0x17B9 JUMP JUMPDEST PUSH2 0x17FE DUP7 DUP4 PUSH2 0x17B9 JUMP JUMPDEST SWAP6 POP DUP1 NOT DUP5 AND SWAP4 POP DUP1 DUP7 AND DUP5 OR SWAP3 POP POP POP SWAP4 SWAP3 POP POP POP JUMP JUMPDEST PUSH0 DUP2 SWAP1 POP SWAP2 SWAP1 POP JUMP JUMPDEST PUSH0 PUSH2 0x1839 PUSH2 0x1834 PUSH2 0x182F DUP5 PUSH2 0xFAC JUMP JUMPDEST PUSH2 0x1816 JUMP JUMPDEST PUSH2 0xFAC JUMP JUMPDEST SWAP1 POP SWAP2 SWAP1 POP JUMP JUMPDEST PUSH0 DUP2 SWAP1 POP SWAP2 SWAP1 POP JUMP JUMPDEST PUSH2 0x1852 DUP4 PUSH2 0x181F JUMP JUMPDEST PUSH2 0x1866 PUSH2 0x185E DUP3 PUSH2 0x1840 JUMP JUMPDEST DUP5 DUP5 SLOAD PUSH2 0x17C5 JUMP JUMPDEST DUP3 SSTORE POP POP POP POP JUMP JUMPDEST PUSH0 SWAP1 JUMP JUMPDEST PUSH2 0x187A PUSH2 0x186E JUMP JUMPDEST PUSH2 0x1885 DUP2 DUP5 DUP5 PUSH2 0x1849 JUMP JUMPDEST POP POP POP JUMP JUMPDEST JUMPDEST DUP2 DUP2 LT ISZERO PUSH2 0x18A8 JUMPI PUSH2 0x189D PUSH0 DUP3 PUSH2 0x1872 JUMP JUMPDEST PUSH1 0x1 DUP2 ADD SWAP1 POP PUSH2 0x188B JUMP JUMPDEST POP POP JUMP JUMPDEST PUSH1 0x1F DUP3 GT ISZERO PUSH2 0x18ED JUMPI PUSH2 0x18BE DUP2 PUSH2 0x1798 JUMP JUMPDEST PUSH2 0x18C7 DUP5 PUSH2 0x17AA JUMP JUMPDEST DUP2 ADD PUSH1 0x20 DUP6 LT ISZERO PUSH2 0x18D6 JUMPI DUP2 SWAP1 POP JUMPDEST PUSH2 0x18EA PUSH2 0x18E2 DUP6 PUSH2 0x17AA JUMP JUMPDEST DUP4 ADD DUP3 PUSH2 0x188A JUMP JUMPDEST POP POP JUMPDEST POP POP POP JUMP JUMPDEST PUSH0 DUP3 DUP3 SHR SWAP1 POP SWAP3 SWAP2 POP POP JUMP JUMPDEST PUSH0 PUSH2 0x190D PUSH0 NOT DUP5 PUSH1 0x8 MUL PUSH2 0x18F2 JUMP JUMPDEST NOT DUP1 DUP4 AND SWAP2 POP POP SWAP3 SWAP2 POP POP JUMP JUMPDEST PUSH0 PUSH2 0x1925 DUP4 DUP4 PUSH2 0x18FE JUMP JUMPDEST SWAP2 POP DUP3 PUSH1 0x2 MUL DUP3 OR SWAP1 POP SWAP3 SWAP2 POP POP JUMP JUMPDEST PUSH2 0x193E DUP3 PUSH2 0x1003 JUMP JUMPDEST PUSH8 0xFFFFFFFFFFFFFFFF DUP2 GT ISZERO PUSH2 0x1957 JUMPI PUSH2 0x1956 PUSH2 0x1343 JUMP JUMPDEST JUMPDEST PUSH2 0x1961 DUP3 SLOAD PUSH2 0x166B JUMP JUMPDEST PUSH2 0x196C DUP3 DUP3 DUP6 PUSH2 0x18AC JUMP JUMPDEST PUSH0 PUSH1 0x20 SWAP1 POP PUSH1 0x1F DUP4 GT PUSH1 0x1 DUP2 EQ PUSH2 0x199D JUMPI PUSH0 DUP5 ISZERO PUSH2 0x198B JUMPI DUP3 DUP8 ADD MLOAD SWAP1 POP JUMPDEST PUSH2 0x1995 DUP6 DUP3 PUSH2 0x191A JUMP JUMPDEST DUP7 SSTORE POP PUSH2 0x19FC JUMP JUMPDEST PUSH1 0x1F NOT DUP5 AND PUSH2 0x19AB DUP7 PUSH2 0x1798 JUMP JUMPDEST PUSH0 JUMPDEST DUP3 DUP2 LT ISZERO PUSH2 0x19D2 JUMPI DUP5 DUP10 ADD MLOAD DUP3 SSTORE PUSH1 0x1 DUP3 ADD SWAP2 POP PUSH1 0x20 DUP6 ADD SWAP5 POP PUSH1 0x20 DUP2 ADD SWAP1 POP PUSH2 0x19AD JUMP JUMPDEST DUP7 DUP4 LT ISZERO PUSH2 0x19EF JUMPI DUP5 DUP10 ADD MLOAD PUSH2 0x19EB PUSH1 0x1F DUP10 AND DUP3 PUSH2 0x18FE JUMP JUMPDEST DUP4 SSTORE POP JUMPDEST PUSH1 0x1 PUSH1 0x2 DUP9 MUL ADD DUP9 SSTORE POP POP POP JUMPDEST POP POP POP POP POP POP JUMP JUMPDEST PUSH0 PUSH1 0x80 DUP3 ADD SWAP1 POP PUSH2 0x1A17 PUSH0 DUP4 ADD DUP8 PUSH2 0x151F JUMP JUMPDEST DUP2 DUP2 SUB PUSH1 0x20 DUP4 ADD MSTORE PUSH2 0x1A29 DUP2 DUP7 PUSH2 0x154D JUMP JUMPDEST SWAP1 POP DUP2 DUP2 SUB PUSH1 0x40 DUP4 ADD MSTORE PUSH2 0x1A3D DUP2 DUP6 PUSH2 0x154D JUMP JUMPDEST SWAP1 POP PUSH2 0x1A4C PUSH1 0x60 DUP4 ADD DUP5 PUSH2 0x151F JUMP JUMPDEST SWAP6 SWAP5 POP POP POP POP POP JUMP JUMPDEST PUSH32 0x4E487B7100000000000000000000000000000000000000000000000000000000 PUSH0 MSTORE PUSH1 0x11 PUSH1 0x4 MSTORE PUSH1 0x24 PUSH0 REVERT JUMPDEST PUSH0 PUSH2 0x1A8C DUP3 PUSH2 0xFAC JUMP JUMPDEST SWAP2 POP PUSH32 0xFFFFFFFFFFFFFFFFFFFFFFFFFFFFFFFFFFFFFFFFFFFFFFFFFFFFFFFFFFFFFFFF DUP3 SUB PUSH2 0x1ABE JUMPI PUSH2 0x1ABD PUSH2 0x1A55 JUMP JUMPDEST JUMPDEST PUSH1 0x1 DUP3 ADD SWAP1 POP SWAP2 SWAP1 POP JUMP JUMPDEST PUSH32 0x506C65617365207375626D6974207468652061736B696E672070726963652069 PUSH0 DUP3 ADD MSTORE PUSH32 0x6E206F7264657220746F20636F6D706C65746520746865207075726368617365 PUSH1 0x20 DUP3 ADD MSTORE POP JUMP JUMPDEST PUSH0 PUSH2 0x1B23 PUSH1 0x40 DUP4 PUSH2 0x153D JUMP JUMPDEST SWAP2 POP PUSH2 0x1B2E DUP3 PUSH2 0x1AC9 JUMP JUMPDEST PUSH1 0x40 DUP3 ADD SWAP1 POP SWAP2 SWAP1 POP JUMP JUMPDEST PUSH0 PUSH1 0x20 DUP3 ADD SWAP1 POP DUP2 DUP2 SUB PUSH0 DUP4 ADD MSTORE PUSH2 0x1B50 DUP2 PUSH2 0x1B17 JUMP JUMPDEST SWAP1 POP SWAP2 SWAP1 POP JUMP JUMPDEST PUSH32 0x546869732070726F647563742068617320616C7265616479206265656E20736F PUSH0 DUP3 ADD MSTORE PUSH32 0x6C64000000000000000000000000000000000000000000000000000000000000 PUSH1 0x20 DUP3 ADD MSTORE POP JUMP JUMPDEST PUSH0 PUSH2 0x1BB1 PUSH1 0x22 DUP4 PUSH2 0x153D JUMP JUMPDEST SWAP2 POP PUSH2 0x1BBC DUP3 PUSH2 0x1B57 JUMP JUMPDEST PUSH1 0x40 DUP3 ADD SWAP1 POP SWAP2 SWAP1 POP JUMP JUMPDEST PUSH0 PUSH1 0x20 DUP3 ADD SWAP1 POP DUP2 DUP2 SUB PUSH0 DUP4 ADD MSTORE PUSH2 0x1BDE DUP2 PUSH2 0x1BA5 JUMP JUMPDEST SWAP1 POP SWAP2 SWAP1 POP JUMP JUMPDEST PUSH32 0x4F776E65722063616E6E6F7420627579207468656972206F776E2070726F6475 PUSH0 DUP3 ADD MSTORE PUSH32 0x6374000000000000000000000000000000000000000000000000000000000000 PUSH1 0x20 DUP3 ADD MSTORE POP JUMP JUMPDEST PUSH0 PUSH2 0x1C3F PUSH1 0x22 DUP4 PUSH2 0x153D JUMP JUMPDEST SWAP2 POP PUSH2 0x1C4A DUP3 PUSH2 0x1BE5 JUMP JUMPDEST PUSH1 0x40 DUP3 ADD SWAP1 POP SWAP2 SWAP1 POP JUMP JUMPDEST PUSH0 PUSH1 0x20 DUP3 ADD SWAP1 POP DUP2 DUP2 SUB PUSH0 DUP4 ADD MSTORE PUSH2 0x1C6C DUP2 PUSH2 0x1C33 JUMP JUMPDEST SWAP1 POP SWAP2 SWAP1 POP JUMP JUMPDEST PUSH0 PUSH1 0x40 DUP3 ADD SWAP1 POP PUSH2 0x1C86 PUSH0 DUP4 ADD DUP6 PUSH2 0x151F JUMP JUMPDEST PUSH2 0x1C93 PUSH1 0x20 DUP4 ADD DUP5 PUSH2 0x151F JUMP JUMPDEST SWAP4 SWAP3 POP POP POP JUMP INVALID LOG2 PUSH5 0x6970667358 0x22 SLT KECCAK256 SWAP6 PUSH27 0x512838777CAB067A14585DEFD3D569BA40BC4337019763CBC609A SWAP16 0xBC ADDRESS PUSH5 0x736F6C6343 STOP ADDMOD NOT STOP CALLER "
	},
	"abi": [
		{
			"inputs": [
				{
					"internalType": "uint256",
					"name": "_id",
					"type": "uint256"
				}
			],
			"name": "buyProduct",
			"outputs": [],
			"stateMutability": "payable",
			"type": "function"
		},
		{
			"inputs": [
				{
					"internalType": "string",
					"name": "_title",
					"type": "string"
				},
				{
					"internalType": "string",
					"name": "_description",
					"type": "string"
				},
				{
					"internalType": "string",
					"name": "_imageHash",
					"type": "string"
				},
				{
					"internalType": "uint256",
					"name": "_price",
					"type": "uint256"
				}
			],
			"name": "listAllProducts",
			"outputs": [],
			"stateMutability": "nonpayable",
			"type": "function"
		},
		{
			"inputs": [],
			"stateMutability": "nonpayable",
			"type": "constructor"
		},
		{
			"anonymous": false,
			"inputs": [
				{
					"indexed": true,
					"internalType": "address",
					"name": "from",
					"type": "address"
				},
				{
					"indexed": true,
					"internalType": "address",
					"name": "to",
					"type": "address"
				},
				{
					"indexed": false,
					"internalType": "uint256",
					"name": "amount",
					"type": "uint256"
				}
			],
			"name": "PaymentSent",
			"type": "event"
		},
		{
			"anonymous": false,
			"inputs": [
				{
					"indexed": false,
					"internalType": "uint256",
					"name": "productId",
					"type": "uint256"
				},
				{
					"indexed": true,
					"internalType": "address",
					"name": "seller",
					"type": "address"
				},
				{
					"indexed": true,
					"internalType": "address",
					"name": "owner",
					"type": "address"
				},
				{
					"indexed": false,
					"internalType": "string",
					"name": "title",
					"type": "string"
				},
				{
					"indexed": false,
					"internalType": "string",
					"name": "imageHash",
					"type": "string"
				},
				{
					"indexed": false,
					"internalType": "uint256",
					"name": "price",
					"type": "uint256"
				}
			],
			"name": "ProductListed",
			"type": "event"
		},
		{
			"anonymous": false,
			"inputs": [
				{
					"indexed": false,
					"internalType": "uint256",
					"name": "productId",
					"type": "uint256"
				},
				{
					"indexed": true,
					"internalType": "address",
					"name": "oldOwner",
					"type": "address"
				},
				{
					"indexed": true,
					"internalType": "address",
					"name": "newOwner",
					"type": "address"
				},
				{
					"indexed": false,
					"internalType": "uint256",
					"name": "price",
					"type": "uint256"
				}
			],
			"name": "ProductSold",
			"type": "event"
		},
		{
			"inputs": [],
			"name": "getAllProducts",
			"outputs": [
				{
					"components": [
						{
							"internalType": "uint256",
							"name": "id",
							"type": "uint256"
						},
						{
							"internalType": "address payable",
							"name": "seller",
							"type": "address"
						},
						{
							"internalType": "address payable",
							"name": "owner",
							"type": "address"
						},
						{
							"internalType": "string",
							"name": "title",
							"type": "string"
						},
						{
							"internalType": "string",
							"name": "description",
							"type": "string"
						},
						{
							"internalType": "string",
							"name": "imageHash",
							"type": "string"
						},
						{
							"internalType": "uint256",
							"name": "price",
							"type": "uint256"
						},
						{
							"internalType": "bool",
							"name": "sold",
							"type": "bool"
						}
					],
					"internalType": "struct Marketplace.Product[]",
					"name": "",
					"type": "tuple[]"
				}
			],
			"stateMutability": "view",
			"type": "function"
		},
		{
			"inputs": [
				{
					"internalType": "uint256",
					"name": "_id",
					"type": "uint256"
				}
			],
			"name": "getProductById",
			"outputs": [
				{
					"components": [
						{
							"internalType": "uint256",
							"name": "id",
							"type": "uint256"
						},
						{
							"internalType": "address payable",
							"name": "seller",
							"type": "address"
						},
						{
							"internalType": "address payable",
							"name": "owner",
							"type": "address"
						},
						{
							"internalType": "string",
							"name": "title",
							"type": "string"
						},
						{
							"internalType": "string",
							"name": "description",
							"type": "string"
						},
						{
							"internalType": "string",
							"name": "imageHash",
							"type": "string"
						},
						{
							"internalType": "uint256",
							"name": "price",
							"type": "uint256"
						},
						{
							"internalType": "bool",
							"name": "sold",
							"type": "bool"
						}
					],
					"internalType": "struct Marketplace.Product",
					"name": "",
					"type": "tuple"
				}
			],
			"stateMutability": "view",
			"type": "function"
		},
		{
			"inputs": [],
			"name": "productCount",
			"outputs": [
				{
					"internalType": "uint256",
					"name": "",
					"type": "uint256"
				}
			],
			"stateMutability": "view",
			"type": "function"
		},
		{
			"inputs": [
				{
					"internalType": "uint256",
					"name": "",
					"type": "uint256"
				}
			],
			"name": "products",
			"outputs": [
				{
					"internalType": "uint256",
					"name": "id",
					"type": "uint256"
				},
				{
					"internalType": "address payable",
					"name": "seller",
					"type": "address"
				},
				{
					"internalType": "address payable",
					"name": "owner",
					"type": "address"
				},
				{
					"internalType": "string",
					"name": "title",
					"type": "string"
				},
				{
					"internalType": "string",
					"name": "description",
					"type": "string"
				},
				{
					"internalType": "string",
					"name": "imageHash",
					"type": "string"
				},
				{
					"internalType": "uint256",
					"name": "price",
					"type": "uint256"
				},
				{
					"internalType": "bool",
					"name": "sold",
					"type": "bool"
				}
			],
			"stateMutability": "view",
			"type": "function"
		}
	],
	"storageLayout": {
		"storage": [
			{
				"astId": 22,
				"contract": "blockchainproject.sol:Marketplace",
				"label": "products",
				"offset": 0,
				"slot": "0",
				"type": "t_array(t_struct(Product)18_storage)dyn_storage"
			},
			{
				"astId": 24,
				"contract": "blockchainproject.sol:Marketplace",
				"label": "productCount",
				"offset": 0,
				"slot": "1",
				"type": "t_uint256"
			}
		],
		"types": {
			"t_address_payable": {
				"encoding": "inplace",
				"label": "address payable",
				"numberOfBytes": "20"
			},
			"t_array(t_struct(Product)18_storage)dyn_storage": {
				"base": "t_struct(Product)18_storage",
				"encoding": "dynamic_array",
				"label": "struct Marketplace.Product[]",
				"numberOfBytes": "32"
			},
			"t_bool": {
				"encoding": "inplace",
				"label": "bool",
				"numberOfBytes": "1"
			},
			"t_string_storage": {
				"encoding": "bytes",
				"label": "string",
				"numberOfBytes": "32"
			},
			"t_struct(Product)18_storage": {
				"encoding": "inplace",
				"label": "struct Marketplace.Product",
				"members": [
					{
						"astId": 3,
						"contract": "blockchainproject.sol:Marketplace",
						"label": "id",
						"offset": 0,
						"slot": "0",
						"type": "t_uint256"
					},
					{
						"astId": 5,
						"contract": "blockchainproject.sol:Marketplace",
						"label": "seller",
						"offset": 0,
						"slot": "1",
						"type": "t_address_payable"
					},
					{
						"astId": 7,
						"contract": "blockchainproject.sol:Marketplace",
						"label": "owner",
						"offset": 0,
						"slot": "2",
						"type": "t_address_payable"
					},
					{
						"astId": 9,
						"contract": "blockchainproject.sol:Marketplace",
						"label": "title",
						"offset": 0,
						"slot": "3",
						"type": "t_string_storage"
					},
					{
						"astId": 11,
						"contract": "blockchainproject.sol:Marketplace",
						"label": "description",
						"offset": 0,
						"slot": "4",
						"type": "t_string_storage"
					},
					{
						"astId": 13,
						"contract": "blockchainproject.sol:Marketplace",
						"label": "imageHash",
						"offset": 0,
						"slot": "5",
						"type": "t_string_storage"
					},
					{
						"astId": 15,
						"contract": "blockchainproject.sol:Marketplace",
						"label": "price",
						"offset": 0,
						"slot": "6",
						"type": "t_uint256"
					},
					{
						"astId": 17,
						"contract": "blockchainproject.sol:Marketplace",
						"label": "sold",
						"offset": 0,
						"slot": "7",
						"type": "t_bool"
					}
				],
				"numberOfBytes": "256"
			},
			"t_uint256": {
				"encoding": "inplace",
				"label": "uint256",
				"numberOfBytes": "32"
			}
		}
	},
	"web3Deploy": "var marketplaceContract = new web3.eth.Contract([{\"inputs\":[],\"stateMutability\":\"nonpayable\",\"type\":\"constructor\"},{\"anonymous\":false,\"inputs\":[{\"indexed\":true,\"internalType\":\"address\",\"name\":\"from\",\"type\":\"address\"},{\"indexed\":true,\"internalType\":\"address\",\"name\":\"to\",\"type\":\"address\"},{\"indexed\":false,\"internalType\":\"uint256\",\"name\":\"amount\",\"type\":\"uint256\"}],\"name\":\"PaymentSent\",\"type\":\"event\"},{\"anonymous\":false,\"inputs\":[{\"indexed\":false,\"internalType\":\"uint256\",\"name\":\"productId\",\"type\":\"uint256\"},{\"indexed\":true,\"internalType\":\"address\",\"name\":\"seller\",\"type\":\"address\"},{\"indexed\":true,\"internalType\":\"address\",\"name\":\"owner\",\"type\":\"address\"},{\"indexed\":false,\"internalType\":\"string\",\"name\":\"title\",\"type\":\"string\"},{\"indexed\":false,\"internalType\":\"string\",\"name\":\"imageHash\",\"type\":\"string\"},{\"indexed\":false,\"internalType\":\"uint256\",\"name\":\"price\",\"type\":\"uint256\"}],\"name\":\"ProductListed\",\"type\":\"event\"},{\"anonymous\":false,\"inputs\":[{\"indexed\":false,\"internalType\":\"uint256\",\"name\":\"productId\",\"type\":\"uint256\"},{\"indexed\":true,\"internalType\":\"address\",\"name\":\"oldOwner\",\"type\":\"address\"},{\"indexed\":true,\"internalType\":\"address\",\"name\":\"newOwner\",\"type\":\"address\"},{\"indexed\":false,\"internalType\":\"uint256\",\"name\":\"price\",\"type\":\"uint256\"}],\"name\":\"ProductSold\",\"type\":\"event\"},{\"inputs\":[{\"internalType\":\"uint256\",\"name\":\"_id\",\"type\":\"uint256\"}],\"name\":\"buyProduct\",\"outputs\":[],\"stateMutability\":\"payable\",\"type\":\"function\"},{\"inputs\":[],\"name\":\"getAllProducts\",\"outputs\":[{\"components\":[{\"internalType\":\"uint256\",\"name\":\"id\",\"type\":\"uint256\"},{\"internalType\":\"address payable\",\"name\":\"seller\",\"type\":\"address\"},{\"internalType\":\"address payable\",\"name\":\"owner\",\"type\":\"address\"},{\"internalType\":\"string\",\"name\":\"title\",\"type\":\"string\"},{\"internalType\":\"string\",\"name\":\"description\",\"type\":\"string\"},{\"internalType\":\"string\",\"name\":\"imageHash\",\"type\":\"string\"},{\"internalType\":\"uint256\",\"name\":\"price\",\"type\":\"uint256\"},{\"internalType\":\"bool\",\"name\":\"sold\",\"type\":\"bool\"}],\"internalType\":\"struct Marketplace.Product[]\",\"name\":\"\",\"type\":\"tuple[]\"}],\"stateMutability\":\"view\",\"type\":\"function\"},{\"inputs\":[{\"internalType\":\"uint256\",\"name\":\"_id\",\"type\":\"uint256\"}],\"name\":\"getProductById\",\"outputs\":[{\"components\":[{\"internalType\":\"uint256\",\"name\":\"id\",\"type\":\"uint256\"},{\"internalType\":\"address payable\",\"name\":\"seller\",\"type\":\"address\"},{\"internalType\":\"address payable\",\"name\":\"owner\",\"type\":\"address\"},{\"internalType\":\"string\",\"name\":\"title\",\"type\":\"string\"},{\"internalType\":\"string\",\"name\":\"description\",\"type\":\"string\"},{\"internalType\":\"string\",\"name\":\"imageHash\",\"type\":\"string\"},{\"internalType\":\"uint256\",\"name\":\"price\",\"type\":\"uint256\"},{\"internalType\":\"bool\",\"name\":\"sold\",\"type\":\"bool\"}],\"internalType\":\"struct Marketplace.Product\",\"name\":\"\",\"type\":\"tuple\"}],\"stateMutability\":\"view\",\"type\":\"function\"},{\"inputs\":[{\"internalType\":\"string\",\"name\":\"_title\",\"type\":\"string\"},{\"internalType\":\"string\",\"name\":\"_description\",\"type\":\"string\"},{\"internalType\":\"string\",\"name\":\"_imageHash\",\"type\":\"string\"},{\"internalType\":\"uint256\",\"name\":\"_price\",\"type\":\"uint256\"}],\"name\":\"listAllProducts\",\"outputs\":[],\"stateMutability\":\"nonpayable\",\"type\":\"function\"},{\"inputs\":[],\"name\":\"productCount\",\"outputs\":[{\"internalType\":\"uint256\",\"name\":\"\",\"type\":\"uint256\"}],\"stateMutability\":\"view\",\"type\":\"function\"},{\"inputs\":[{\"internalType\":\"uint256\",\"name\":\"\",\"type\":\"uint256\"}],\"name\":\"products\",\"outputs\":[{\"internalType\":\"uint256\",\"name\":\"id\",\"type\":\"uint256\"},{\"internalType\":\"address payable\",\"name\":\"seller\",\"type\":\"address\"},{\"internalType\":\"address payable\",\"name\":\"owner\",\"type\":\"address\"},{\"internalType\":\"string\",\"name\":\"title\",\"type\":\"string\"},{\"internalType\":\"string\",\"name\":\"description\",\"type\":\"string\"},{\"internalType\":\"string\",\"name\":\"imageHash\",\"type\":\"string\"},{\"internalType\":\"uint256\",\"name\":\"price\",\"type\":\"uint256\"},{\"internalType\":\"bool\",\"name\":\"sold\",\"type\":\"bool\"}],\"stateMutability\":\"view\",\"type\":\"function\"}]);\nvar marketplace = marketplaceContract.deploy({\n     data: '0x6080604052348015600e575f80fd5b505f600181905550611cd0806100235f395ff3fe608060405260043610610054575f3560e01c806302ee3a52146100585780633f70c2b4146100825780633faa8694146100be5780637acc0b20146100e65780638642269e14610129578063e0f6ef8714610145575b5f80fd5b348015610063575f80fd5b5061006c61016f565b60405161007991906111da565b60405180910390f35b34801561008d575f80fd5b506100a860048036038101906100a39190611235565b610452565b6040516100b5919061131b565b60405180910390f35b3480156100c9575f80fd5b506100e460048036038101906100df9190611467565b610757565b005b3480156100f1575f80fd5b5061010c60048036038101906101079190611235565b6109b5565b604051610120989796959493929190611594565b60405180910390f35b610143600480360381019061013e9190611235565b610be3565b005b348015610150575f80fd5b50610159610f0f565b6040516101669190611625565b60405180910390f35b60605f805480602002602001604051908101604052809291908181526020015f905b82821015610449578382905f5260205f209060080201604051806101000160405290815f8201548152602001600182015f9054906101000a900473ffffffffffffffffffffffffffffffffffffffff1673ffffffffffffffffffffffffffffffffffffffff1673ffffffffffffffffffffffffffffffffffffffff168152602001600282015f9054906101000a900473ffffffffffffffffffffffffffffffffffffffff1673ffffffffffffffffffffffffffffffffffffffff1673ffffffffffffffffffffffffffffffffffffffff1681526020016003820180546102769061166b565b80601f01602080910402602001604051908101604052809291908181526020018280546102a29061166b565b80156102ed5780601f106102c4576101008083540402835291602001916102ed565b820191905f5260205f20905b8154815290600101906020018083116102d057829003601f168201915b505050505081526020016004820180546103069061166b565b80601f01602080910402602001604051908101604052809291908181526020018280546103329061166b565b801561037d5780601f106103545761010080835404028352916020019161037d565b820191905f5260205f20905b81548152906001019060200180831161036057829003601f168201915b505050505081526020016005820180546103969061166b565b80601f01602080910402602001604051908101604052809291908181526020018280546103c29061166b565b801561040d5780601f106103e45761010080835404028352916020019161040d565b820191905f5260205f20905b8154815290600101906020018083116103f057829003601f168201915b5050505050815260200160068201548152602001600782015f9054906101000a900460ff16151515158152505081526020019060010190610191565b50505050905090565b61045a610f15565b600154821061049e576040517f08c379a0000000000000000000000000000000000000000000000000000000008152600401610495906116e5565b60405180910390fd5b5f82815481106104b1576104b0611703565b5b905f5260205f209060080201604051806101000160405290815f8201548152602001600182015f9054906101000a900473ffffffffffffffffffffffffffffffffffffffff1673ffffffffffffffffffffffffffffffffffffffff1673ffffffffffffffffffffffffffffffffffffffff168152602001600282015f9054906101000a900473ffffffffffffffffffffffffffffffffffffffff1673ffffffffffffffffffffffffffffffffffffffff1673ffffffffffffffffffffffffffffffffffffffff16815260200160038201805461058c9061166b565b80601f01602080910402602001604051908101604052809291908181526020018280546105b89061166b565b80156106035780601f106105da57610100808354040283529160200191610603565b820191905f5260205f20905b8154815290600101906020018083116105e657829003601f168201915b5050505050815260200160048201805461061c9061166b565b80601f01602080910402602001604051908101604052809291908181526020018280546106489061166b565b80156106935780601f1061066a57610100808354040283529160200191610693565b820191905f5260205f20905b81548152906001019060200180831161067657829003601f168201915b505050505081526020016005820180546106ac9061166b565b80601f01602080910402602001604051908101604052809291908181526020018280546106d89061166b565b80156107235780601f106106fa57610100808354040283529160200191610723565b820191905f5260205f20905b81548152906001019060200180831161070657829003601f168201915b5050505050815260200160068201548152602001600782015f9054906101000a900460ff1615151515815250509050919050565b5f8111610799576040517f08c379a00000000000000000000000000000000000000000000000000000000081526004016107909061177a565b60405180910390fd5b5f60405180610100016040528060015481526020013373ffffffffffffffffffffffffffffffffffffffff1681526020013373ffffffffffffffffffffffffffffffffffffffff1681526020018681526020018581526020018481526020018381526020015f1515815250908060018154018082558091505060019003905f5260205f2090600802015f909190919091505f820151815f01556020820151816001015f6101000a81548173ffffffffffffffffffffffffffffffffffffffff021916908373ffffffffffffffffffffffffffffffffffffffff1602179055506040820151816002015f6101000a81548173ffffffffffffffffffffffffffffffffffffffff021916908373ffffffffffffffffffffffffffffffffffffffff16021790555060608201518160030190816108d39190611935565b5060808201518160040190816108e99190611935565b5060a08201518160050190816108ff9190611935565b5060c0820151816006015560e0820151816007015f6101000a81548160ff02191690831515021790555050503373ffffffffffffffffffffffffffffffffffffffff163373ffffffffffffffffffffffffffffffffffffffff167fd6c1f674ceec95954157d523258b10894f33dda5bf0532a1e27ae8181fce35526001548786866040516109909493929190611a04565b60405180910390a360015f8154809291906109aa90611a82565b919050555050505050565b5f81815481106109c3575f80fd5b905f5260205f2090600802015f91509050805f015490806001015f9054906101000a900473ffffffffffffffffffffffffffffffffffffffff1690806002015f9054906101000a900473ffffffffffffffffffffffffffffffffffffffff1690806003018054610a329061166b565b80601f0160208091040260200160405190810160405280929190818152602001828054610a5e9061166b565b8015610aa95780601f10610a8057610100808354040283529160200191610aa9565b820191905f5260205f20905b815481529060010190602001808311610a8c57829003601f168201915b505050505090806004018054610abe9061166b565b80601f0160208091040260200160405190810160405280929190818152602001828054610aea9061166b565b8015610b355780601f10610b0c57610100808354040283529160200191610b35565b820191905f5260205f20905b815481529060010190602001808311610b1857829003601f168201915b505050505090806005018054610b4a9061166b565b80601f0160208091040260200160405190810160405280929190818152602001828054610b769061166b565b8015610bc15780601f10610b9857610100808354040283529160200191610bc1565b820191905f5260205f20905b815481529060010190602001808311610ba457829003601f168201915b505050505090806006015490806007015f9054906101000a900460ff16905088565b6001548110610c27576040517f08c379a0000000000000000000000000000000000000000000000000000000008152600401610c1e906116e5565b60405180910390fd5b5f808281548110610c3b57610c3a611703565b5b905f5260205f209060080201905080600601543414610c8f576040517f08c379a0000000000000000000000000000000000000000000000000000000008152600401610c8690611b39565b60405180910390fd5b806007015f9054906101000a900460ff1615610ce0576040517f08c379a0000000000000000000000000000000000000000000000000000000008152600401610cd790611bc7565b60405180910390fd5b806002015f9054906101000a900473ffffffffffffffffffffffffffffffffffffffff1673ffffffffffffffffffffffffffffffffffffffff163373ffffffffffffffffffffffffffffffffffffffff1603610d71576040517f08c379a0000000000000000000000000000000000000000000000000000000008152600401610d6890611c55565b60405180910390fd5b5f816002015f9054906101000a900473ffffffffffffffffffffffffffffffffffffffff16905033826002015f6101000a81548173ffffffffffffffffffffffffffffffffffffffff021916908373ffffffffffffffffffffffffffffffffffffffff1602179055506001826007015f6101000a81548160ff0219169083151502179055508073ffffffffffffffffffffffffffffffffffffffff166108fc3490811502906040515f60405180830381858888f19350505050158015610e39573d5f803e3d5ffd5b508073ffffffffffffffffffffffffffffffffffffffff163373ffffffffffffffffffffffffffffffffffffffff167fd52bd61f7c422d441e024604f4517878fd3305d6acf0fe37baef23ed21af6bc934604051610e979190611625565b60405180910390a33373ffffffffffffffffffffffffffffffffffffffff168173ffffffffffffffffffffffffffffffffffffffff167fa02e46fc9bbd3e1138787bc1dc117ae0b9a5a3745ea30b0ab673d79d90739029858560060154604051610f02929190611c73565b60405180910390a3505050565b60015481565b6040518061010001604052805f81526020015f73ffffffffffffffffffffffffffffffffffffffff1681526020015f73ffffffffffffffffffffffffffffffffffffffff1681526020016060815260200160608152602001606081526020015f81526020015f151581525090565b5f81519050919050565b5f82825260208201905092915050565b5f819050602082019050919050565b5f819050919050565b610fbe81610fac565b82525050565b5f73ffffffffffffffffffffffffffffffffffffffff82169050919050565b5f610fed82610fc4565b9050919050565b610ffd81610fe3565b82525050565b5f81519050919050565b5f82825260208201905092915050565b8281835e5f83830152505050565b5f601f19601f8301169050919050565b5f61104582611003565b61104f818561100d565b935061105f81856020860161101d565b6110688161102b565b840191505092915050565b5f8115159050919050565b61108781611073565b82525050565b5f61010083015f8301516110a35f860182610fb5565b5060208301516110b66020860182610ff4565b5060408301516110c96040860182610ff4565b50606083015184820360608601526110e1828261103b565b915050608083015184820360808601526110fb828261103b565b91505060a083015184820360a0860152611115828261103b565b91505060c083015161112a60c0860182610fb5565b5060e083015161113d60e086018261107e565b508091505092915050565b5f611153838361108d565b905092915050565b5f602082019050919050565b5f61117182610f83565b61117b8185610f8d565b93508360208202850161118d85610f9d565b805f5b858110156111c857848403895281516111a98582611148565b94506111b48361115b565b925060208a01995050600181019050611190565b50829750879550505050505092915050565b5f6020820190508181035f8301526111f28184611167565b905092915050565b5f604051905090565b5f80fd5b5f80fd5b61121481610fac565b811461121e575f80fd5b50565b5f8135905061122f8161120b565b92915050565b5f6020828403121561124a57611249611203565b5b5f61125784828501611221565b91505092915050565b5f61010083015f8301516112765f860182610fb5565b5060208301516112896020860182610ff4565b50604083015161129c6040860182610ff4565b50606083015184820360608601526112b4828261103b565b915050608083015184820360808601526112ce828261103b565b91505060a083015184820360a08601526112e8828261103b565b91505060c08301516112fd60c0860182610fb5565b5060e083015161131060e086018261107e565b508091505092915050565b5f6020820190508181035f8301526113338184611260565b905092915050565b5f80fd5b5f80fd5b7f4e487b71000000000000000000000000000000000000000000000000000000005f52604160045260245ffd5b6113798261102b565b810181811067ffffffffffffffff8211171561139857611397611343565b5b80604052505050565b5f6113aa6111fa565b90506113b68282611370565b919050565b5f67ffffffffffffffff8211156113d5576113d4611343565b5b6113de8261102b565b9050602081019050919050565b828183375f83830152505050565b5f61140b611406846113bb565b6113a1565b9050828152602081018484840111156114275761142661133f565b5b6114328482856113eb565b509392505050565b5f82601f83011261144e5761144d61133b565b5b813561145e8482602086016113f9565b91505092915050565b5f805f806080858703121561147f5761147e611203565b5b5f85013567ffffffffffffffff81111561149c5761149b611207565b5b6114a88782880161143a565b945050602085013567ffffffffffffffff8111156114c9576114c8611207565b5b6114d58782880161143a565b935050604085013567ffffffffffffffff8111156114f6576114f5611207565b5b6115028782880161143a565b925050606061151387828801611221565b91505092959194509250565b61152881610fac565b82525050565b61153781610fe3565b82525050565b5f82825260208201905092915050565b5f61155782611003565b611561818561153d565b935061157181856020860161101d565b61157a8161102b565b840191505092915050565b61158e81611073565b82525050565b5f610100820190506115a85f83018b61151f565b6115b5602083018a61152e565b6115c2604083018961152e565b81810360608301526115d4818861154d565b905081810360808301526115e8818761154d565b905081810360a08301526115fc818661154d565b905061160b60c083018561151f565b61161860e0830184611585565b9998505050505050505050565b5f6020820190506116385f83018461151f565b92915050565b7f4e487b71000000000000000000000000000000000000000000000000000000005f52602260045260245ffd5b5f600282049050600182168061168257607f821691505b6020821081036116955761169461163e565b5b50919050565b7f50726f6475637420494420646f6573206e6f74206578697374000000000000005f82015250565b5f6116cf60198361153d565b91506116da8261169b565b602082019050919050565b5f6020820190508181035f8301526116fc816116c3565b9050919050565b7f4e487b71000000000000000000000000000000000000000000000000000000005f52603260045260245ffd5b7f5072696365206d7573742062652067726561746572207468616e207a65726f005f82015250565b5f611764601f8361153d565b915061176f82611730565b602082019050919050565b5f6020820190508181035f83015261179181611758565b9050919050565b5f819050815f5260205f209050919050565b5f6020601f8301049050919050565b5f82821b905092915050565b5f600883026117f47fffffffffffffffffffffffffffffffffffffffffffffffffffffffffffffffff826117b9565b6117fe86836117b9565b95508019841693508086168417925050509392505050565b5f819050919050565b5f61183961183461182f84610fac565b611816565b610fac565b9050919050565b5f819050919050565b6118528361181f565b61186661185e82611840565b8484546117c5565b825550505050565b5f90565b61187a61186e565b611885818484611849565b505050565b5b818110156118a85761189d5f82611872565b60018101905061188b565b5050565b601f8211156118ed576118be81611798565b6118c7846117aa565b810160208510156118d6578190505b6118ea6118e2856117aa565b83018261188a565b50505b505050565b5f82821c905092915050565b5f61190d5f19846008026118f2565b1980831691505092915050565b5f61192583836118fe565b9150826002028217905092915050565b61193e82611003565b67ffffffffffffffff81111561195757611956611343565b5b611961825461166b565b61196c8282856118ac565b5f60209050601f83116001811461199d575f841561198b578287015190505b611995858261191a565b8655506119fc565b601f1984166119ab86611798565b5f5b828110156119d2578489015182556001820191506020850194506020810190506119ad565b868310156119ef57848901516119eb601f8916826118fe565b8355505b6001600288020188555050505b505050505050565b5f608082019050611a175f83018761151f565b8181036020830152611a29818661154d565b90508181036040830152611a3d818561154d565b9050611a4c606083018461151f565b95945050505050565b7f4e487b71000000000000000000000000000000000000000000000000000000005f52601160045260245ffd5b5f611a8c82610fac565b91507fffffffffffffffffffffffffffffffffffffffffffffffffffffffffffffffff8203611abe57611abd611a55565b5b600182019050919050565b7f506c65617365207375626d6974207468652061736b696e6720707269636520695f8201527f6e206f7264657220746f20636f6d706c65746520746865207075726368617365602082015250565b5f611b2360408361153d565b9150611b2e82611ac9565b604082019050919050565b5f6020820190508181035f830152611b5081611b17565b9050919050565b7f546869732070726f647563742068617320616c7265616479206265656e20736f5f8201527f6c64000000000000000000000000000000000000000000000000000000000000602082015250565b5f611bb160228361153d565b9150611bbc82611b57565b604082019050919050565b5f6020820190508181035f830152611bde81611ba5565b9050919050565b7f4f776e65722063616e6e6f7420627579207468656972206f776e2070726f64755f8201527f6374000000000000000000000000000000000000000000000000000000000000602082015250565b5f611c3f60228361153d565b9150611c4a82611be5565b604082019050919050565b5f6020820190508181035f830152611c6c81611c33565b9050919050565b5f604082019050611c865f83018561151f565b611c93602083018461151f565b939250505056fea2646970667358221220957a0512838777cab067a14585defd3d569ba40bc4337019763cbc609a9fbc3064736f6c63430008190033', \n     arguments: [\n     ]\n}).send({\n     from: web3.eth.accounts[0], \n     gas: '4700000'\n   }, function (e, contract){\n    console.log(e, contract);\n    if (typeof contract.address !== 'undefined') {\n         console.log('Contract mined! address: ' + contract.address + ' transactionHash: ' + contract.transactionHash);\n    }\n })",
	"functionHashes": {
		"8642269e": "buyProduct(uint256)",
		"02ee3a52": "getAllProducts()",
		"3f70c2b4": "getProductById(uint256)",
		"3faa8694": "listAllProducts(string,string,string,uint256)",
		"e0f6ef87": "productCount()",
		"7acc0b20": "products(uint256)"
	},
	"gasEstimates": {
		"Creation": {
			"codeDepositCost": "1475200",
			"executionCost": "6552",
			"totalCost": "1481752"
		},
		"External": {
			"buyProduct(uint256)": "infinite",
			"getAllProducts()": "infinite",
			"getProductById(uint256)": "infinite",
			"listAllProducts(string,string,string,uint256)": "infinite",
			"productCount()": "2513",
			"products(uint256)": "infinite"
		}
	},
	"devdoc": {
		"kind": "dev",
		"methods": {},
		"version": 1
	},
	"userdoc": {
		"kind": "user",
		"methods": {},
		"version": 1
	},
	"Runtime Bytecode": {
		"immutableReferences": {},
		"linkReferences": {},
		"object": "608060405260043610610054575f3560e01c806302ee3a52146100585780633f70c2b4146100825780633faa8694146100be5780637acc0b20146100e65780638642269e14610129578063e0f6ef8714610145575b5f80fd5b348015610063575f80fd5b5061006c61016f565b60405161007991906111da565b60405180910390f35b34801561008d575f80fd5b506100a860048036038101906100a39190611235565b610452565b6040516100b5919061131b565b60405180910390f35b3480156100c9575f80fd5b506100e460048036038101906100df9190611467565b610757565b005b3480156100f1575f80fd5b5061010c60048036038101906101079190611235565b6109b5565b604051610120989796959493929190611594565b60405180910390f35b610143600480360381019061013e9190611235565b610be3565b005b348015610150575f80fd5b50610159610f0f565b6040516101669190611625565b60405180910390f35b60605f805480602002602001604051908101604052809291908181526020015f905b82821015610449578382905f5260205f209060080201604051806101000160405290815f8201548152602001600182015f9054906101000a900473ffffffffffffffffffffffffffffffffffffffff1673ffffffffffffffffffffffffffffffffffffffff1673ffffffffffffffffffffffffffffffffffffffff168152602001600282015f9054906101000a900473ffffffffffffffffffffffffffffffffffffffff1673ffffffffffffffffffffffffffffffffffffffff1673ffffffffffffffffffffffffffffffffffffffff1681526020016003820180546102769061166b565b80601f01602080910402602001604051908101604052809291908181526020018280546102a29061166b565b80156102ed5780601f106102c4576101008083540402835291602001916102ed565b820191905f5260205f20905b8154815290600101906020018083116102d057829003601f168201915b505050505081526020016004820180546103069061166b565b80601f01602080910402602001604051908101604052809291908181526020018280546103329061166b565b801561037d5780601f106103545761010080835404028352916020019161037d565b820191905f5260205f20905b81548152906001019060200180831161036057829003601f168201915b505050505081526020016005820180546103969061166b565b80601f01602080910402602001604051908101604052809291908181526020018280546103c29061166b565b801561040d5780601f106103e45761010080835404028352916020019161040d565b820191905f5260205f20905b8154815290600101906020018083116103f057829003601f168201915b5050505050815260200160068201548152602001600782015f9054906101000a900460ff16151515158152505081526020019060010190610191565b50505050905090565b61045a610f15565b600154821061049e576040517f08c379a0000000000000000000000000000000000000000000000000000000008152600401610495906116e5565b60405180910390fd5b5f82815481106104b1576104b0611703565b5b905f5260205f209060080201604051806101000160405290815f8201548152602001600182015f9054906101000a900473ffffffffffffffffffffffffffffffffffffffff1673ffffffffffffffffffffffffffffffffffffffff1673ffffffffffffffffffffffffffffffffffffffff168152602001600282015f9054906101000a900473ffffffffffffffffffffffffffffffffffffffff1673ffffffffffffffffffffffffffffffffffffffff1673ffffffffffffffffffffffffffffffffffffffff16815260200160038201805461058c9061166b565b80601f01602080910402602001604051908101604052809291908181526020018280546105b89061166b565b80156106035780601f106105da57610100808354040283529160200191610603565b820191905f5260205f20905b8154815290600101906020018083116105e657829003601f168201915b5050505050815260200160048201805461061c9061166b565b80601f01602080910402602001604051908101604052809291908181526020018280546106489061166b565b80156106935780601f1061066a57610100808354040283529160200191610693565b820191905f5260205f20905b81548152906001019060200180831161067657829003601f168201915b505050505081526020016005820180546106ac9061166b565b80601f01602080910402602001604051908101604052809291908181526020018280546106d89061166b565b80156107235780601f106106fa57610100808354040283529160200191610723565b820191905f5260205f20905b81548152906001019060200180831161070657829003601f168201915b5050505050815260200160068201548152602001600782015f9054906101000a900460ff1615151515815250509050919050565b5f8111610799576040517f08c379a00000000000000000000000000000000000000000000000000000000081526004016107909061177a565b60405180910390fd5b5f60405180610100016040528060015481526020013373ffffffffffffffffffffffffffffffffffffffff1681526020013373ffffffffffffffffffffffffffffffffffffffff1681526020018681526020018581526020018481526020018381526020015f1515815250908060018154018082558091505060019003905f5260205f2090600802015f909190919091505f820151815f01556020820151816001015f6101000a81548173ffffffffffffffffffffffffffffffffffffffff021916908373ffffffffffffffffffffffffffffffffffffffff1602179055506040820151816002015f6101000a81548173ffffffffffffffffffffffffffffffffffffffff021916908373ffffffffffffffffffffffffffffffffffffffff16021790555060608201518160030190816108d39190611935565b5060808201518160040190816108e99190611935565b5060a08201518160050190816108ff9190611935565b5060c0820151816006015560e0820151816007015f6101000a81548160ff02191690831515021790555050503373ffffffffffffffffffffffffffffffffffffffff163373ffffffffffffffffffffffffffffffffffffffff167fd6c1f674ceec95954157d523258b10894f33dda5bf0532a1e27ae8181fce35526001548786866040516109909493929190611a04565b60405180910390a360015f8154809291906109aa90611a82565b919050555050505050565b5f81815481106109c3575f80fd5b905f5260205f2090600802015f91509050805f015490806001015f9054906101000a900473ffffffffffffffffffffffffffffffffffffffff1690806002015f9054906101000a900473ffffffffffffffffffffffffffffffffffffffff1690806003018054610a329061166b565b80601f0160208091040260200160405190810160405280929190818152602001828054610a5e9061166b565b8015610aa95780601f10610a8057610100808354040283529160200191610aa9565b820191905f5260205f20905b815481529060010190602001808311610a8c57829003601f168201915b505050505090806004018054610abe9061166b565b80601f0160208091040260200160405190810160405280929190818152602001828054610aea9061166b565b8015610b355780601f10610b0c57610100808354040283529160200191610b35565b820191905f5260205f20905b815481529060010190602001808311610b1857829003601f168201915b505050505090806005018054610b4a9061166b565b80601f0160208091040260200160405190810160405280929190818152602001828054610b769061166b565b8015610bc15780601f10610b9857610100808354040283529160200191610bc1565b820191905f5260205f20905b815481529060010190602001808311610ba457829003601f168201915b505050505090806006015490806007015f9054906101000a900460ff16905088565b6001548110610c27576040517f08c379a0000000000000000000000000000000000000000000000000000000008152600401610c1e906116e5565b60405180910390fd5b5f808281548110610c3b57610c3a611703565b5b905f5260205f209060080201905080600601543414610c8f576040517f08c379a0000000000000000000000000000000000000000000000000000000008152600401610c8690611b39565b60405180910390fd5b806007015f9054906101000a900460ff1615610ce0576040517f08c379a0000000000000000000000000000000000000000000000000000000008152600401610cd790611bc7565b60405180910390fd5b806002015f9054906101000a900473ffffffffffffffffffffffffffffffffffffffff1673ffffffffffffffffffffffffffffffffffffffff163373ffffffffffffffffffffffffffffffffffffffff1603610d71576040517f08c379a0000000000000000000000000000000000000000000000000000000008152600401610d6890611c55565b60405180910390fd5b5f816002015f9054906101000a900473ffffffffffffffffffffffffffffffffffffffff16905033826002015f6101000a81548173ffffffffffffffffffffffffffffffffffffffff021916908373ffffffffffffffffffffffffffffffffffffffff1602179055506001826007015f6101000a81548160ff0219169083151502179055508073ffffffffffffffffffffffffffffffffffffffff166108fc3490811502906040515f60405180830381858888f19350505050158015610e39573d5f803e3d5ffd5b508073ffffffffffffffffffffffffffffffffffffffff163373ffffffffffffffffffffffffffffffffffffffff167fd52bd61f7c422d441e024604f4517878fd3305d6acf0fe37baef23ed21af6bc934604051610e979190611625565b60405180910390a33373ffffffffffffffffffffffffffffffffffffffff168173ffffffffffffffffffffffffffffffffffffffff167fa02e46fc9bbd3e1138787bc1dc117ae0b9a5a3745ea30b0ab673d79d90739029858560060154604051610f02929190611c73565b60405180910390a3505050565b60015481565b6040518061010001604052805f81526020015f73ffffffffffffffffffffffffffffffffffffffff1681526020015f73ffffffffffffffffffffffffffffffffffffffff1681526020016060815260200160608152602001606081526020015f81526020015f151581525090565b5f81519050919050565b5f82825260208201905092915050565b5f819050602082019050919050565b5f819050919050565b610fbe81610fac565b82525050565b5f73ffffffffffffffffffffffffffffffffffffffff82169050919050565b5f610fed82610fc4565b9050919050565b610ffd81610fe3565b82525050565b5f81519050919050565b5f82825260208201905092915050565b8281835e5f83830152505050565b5f601f19601f8301169050919050565b5f61104582611003565b61104f818561100d565b935061105f81856020860161101d565b6110688161102b565b840191505092915050565b5f8115159050919050565b61108781611073565b82525050565b5f61010083015f8301516110a35f860182610fb5565b5060208301516110b66020860182610ff4565b5060408301516110c96040860182610ff4565b50606083015184820360608601526110e1828261103b565b915050608083015184820360808601526110fb828261103b565b91505060a083015184820360a0860152611115828261103b565b91505060c083015161112a60c0860182610fb5565b5060e083015161113d60e086018261107e565b508091505092915050565b5f611153838361108d565b905092915050565b5f602082019050919050565b5f61117182610f83565b61117b8185610f8d565b93508360208202850161118d85610f9d565b805f5b858110156111c857848403895281516111a98582611148565b94506111b48361115b565b925060208a01995050600181019050611190565b50829750879550505050505092915050565b5f6020820190508181035f8301526111f28184611167565b905092915050565b5f604051905090565b5f80fd5b5f80fd5b61121481610fac565b811461121e575f80fd5b50565b5f8135905061122f8161120b565b92915050565b5f6020828403121561124a57611249611203565b5b5f61125784828501611221565b91505092915050565b5f61010083015f8301516112765f860182610fb5565b5060208301516112896020860182610ff4565b50604083015161129c6040860182610ff4565b50606083015184820360608601526112b4828261103b565b915050608083015184820360808601526112ce828261103b565b91505060a083015184820360a08601526112e8828261103b565b91505060c08301516112fd60c0860182610fb5565b5060e083015161131060e086018261107e565b508091505092915050565b5f6020820190508181035f8301526113338184611260565b905092915050565b5f80fd5b5f80fd5b7f4e487b71000000000000000000000000000000000000000000000000000000005f52604160045260245ffd5b6113798261102b565b810181811067ffffffffffffffff8211171561139857611397611343565b5b80604052505050565b5f6113aa6111fa565b90506113b68282611370565b919050565b5f67ffffffffffffffff8211156113d5576113d4611343565b5b6113de8261102b565b9050602081019050919050565b828183375f83830152505050565b5f61140b611406846113bb565b6113a1565b9050828152602081018484840111156114275761142661133f565b5b6114328482856113eb565b509392505050565b5f82601f83011261144e5761144d61133b565b5b813561145e8482602086016113f9565b91505092915050565b5f805f806080858703121561147f5761147e611203565b5b5f85013567ffffffffffffffff81111561149c5761149b611207565b5b6114a88782880161143a565b945050602085013567ffffffffffffffff8111156114c9576114c8611207565b5b6114d58782880161143a565b935050604085013567ffffffffffffffff8111156114f6576114f5611207565b5b6115028782880161143a565b925050606061151387828801611221565b91505092959194509250565b61152881610fac565b82525050565b61153781610fe3565b82525050565b5f82825260208201905092915050565b5f61155782611003565b611561818561153d565b935061157181856020860161101d565b61157a8161102b565b840191505092915050565b61158e81611073565b82525050565b5f610100820190506115a85f83018b61151f565b6115b5602083018a61152e565b6115c2604083018961152e565b81810360608301526115d4818861154d565b905081810360808301526115e8818761154d565b905081810360a08301526115fc818661154d565b905061160b60c083018561151f565b61161860e0830184611585565b9998505050505050505050565b5f6020820190506116385f83018461151f565b92915050565b7f4e487b71000000000000000000000000000000000000000000000000000000005f52602260045260245ffd5b5f600282049050600182168061168257607f821691505b6020821081036116955761169461163e565b5b50919050565b7f50726f6475637420494420646f6573206e6f74206578697374000000000000005f82015250565b5f6116cf60198361153d565b91506116da8261169b565b602082019050919050565b5f6020820190508181035f8301526116fc816116c3565b9050919050565b7f4e487b71000000000000000000000000000000000000000000000000000000005f52603260045260245ffd5b7f5072696365206d7573742062652067726561746572207468616e207a65726f005f82015250565b5f611764601f8361153d565b915061176f82611730565b602082019050919050565b5f6020820190508181035f83015261179181611758565b9050919050565b5f819050815f5260205f209050919050565b5f6020601f8301049050919050565b5f82821b905092915050565b5f600883026117f47fffffffffffffffffffffffffffffffffffffffffffffffffffffffffffffffff826117b9565b6117fe86836117b9565b95508019841693508086168417925050509392505050565b5f819050919050565b5f61183961183461182f84610fac565b611816565b610fac565b9050919050565b5f819050919050565b6118528361181f565b61186661185e82611840565b8484546117c5565b825550505050565b5f90565b61187a61186e565b611885818484611849565b505050565b5b818110156118a85761189d5f82611872565b60018101905061188b565b5050565b601f8211156118ed576118be81611798565b6118c7846117aa565b810160208510156118d6578190505b6118ea6118e2856117aa565b83018261188a565b50505b505050565b5f82821c905092915050565b5f61190d5f19846008026118f2565b1980831691505092915050565b5f61192583836118fe565b9150826002028217905092915050565b61193e82611003565b67ffffffffffffffff81111561195757611956611343565b5b611961825461166b565b61196c8282856118ac565b5f60209050601f83116001811461199d575f841561198b578287015190505b611995858261191a565b8655506119fc565b601f1984166119ab86611798565b5f5b828110156119d2578489015182556001820191506020850194506020810190506119ad565b868310156119ef57848901516119eb601f8916826118fe565b8355505b6001600288020188555050505b505050505050565b5f608082019050611a175f83018761151f565b8181036020830152611a29818661154d565b90508181036040830152611a3d818561154d565b9050611a4c606083018461151f565b95945050505050565b7f4e487b71000000000000000000000000000000000000000000000000000000005f52601160045260245ffd5b5f611a8c82610fac565b91507fffffffffffffffffffffffffffffffffffffffffffffffffffffffffffffffff8203611abe57611abd611a55565b5b600182019050919050565b7f506c65617365207375626d6974207468652061736b696e6720707269636520695f8201527f6e206f7264657220746f20636f6d706c65746520746865207075726368617365602082015250565b5f611b2360408361153d565b9150611b2e82611ac9565b604082019050919050565b5f6020820190508181035f830152611b5081611b17565b9050919050565b7f546869732070726f647563742068617320616c7265616479206265656e20736f5f8201527f6c64000000000000000000000000000000000000000000000000000000000000602082015250565b5f611bb160228361153d565b9150611bbc82611b57565b604082019050919050565b5f6020820190508181035f830152611bde81611ba5565b9050919050565b7f4f776e65722063616e6e6f7420627579207468656972206f776e2070726f64755f8201527f6374000000000000000000000000000000000000000000000000000000000000602082015250565b5f611c3f60228361153d565b9150611c4a82611be5565b604082019050919050565b5f6020820190508181035f830152611c6c81611c33565b9050919050565b5f604082019050611c865f83018561151f565b611c93602083018461151f565b939250505056fea2646970667358221220957a0512838777cab067a14585defd3d569ba40bc4337019763cbc609a9fbc3064736f6c63430008190033",
		"opcodes": "PUSH1 0x80 PUSH1 0x40 MSTORE PUSH1 0x4 CALLDATASIZE LT PUSH2 0x54 JUMPI PUSH0 CALLDATALOAD PUSH1 0xE0 SHR DUP1 PUSH4 0x2EE3A52 EQ PUSH2 0x58 JUMPI DUP1 PUSH4 0x3F70C2B4 EQ PUSH2 0x82 JUMPI DUP1 PUSH4 0x3FAA8694 EQ PUSH2 0xBE JUMPI DUP1 PUSH4 0x7ACC0B20 EQ PUSH2 0xE6 JUMPI DUP1 PUSH4 0x8642269E EQ PUSH2 0x129 JUMPI DUP1 PUSH4 0xE0F6EF87 EQ PUSH2 0x145 JUMPI JUMPDEST PUSH0 DUP1 REVERT JUMPDEST CALLVALUE DUP1 ISZERO PUSH2 0x63 JUMPI PUSH0 DUP1 REVERT JUMPDEST POP PUSH2 0x6C PUSH2 0x16F JUMP JUMPDEST PUSH1 0x40 MLOAD PUSH2 0x79 SWAP2 SWAP1 PUSH2 0x11DA JUMP JUMPDEST PUSH1 0x40 MLOAD DUP1 SWAP2 SUB SWAP1 RETURN JUMPDEST CALLVALUE DUP1 ISZERO PUSH2 0x8D JUMPI PUSH0 DUP1 REVERT JUMPDEST POP PUSH2 0xA8 PUSH1 0x4 DUP1 CALLDATASIZE SUB DUP2 ADD SWAP1 PUSH2 0xA3 SWAP2 SWAP1 PUSH2 0x1235 JUMP JUMPDEST PUSH2 0x452 JUMP JUMPDEST PUSH1 0x40 MLOAD PUSH2 0xB5 SWAP2 SWAP1 PUSH2 0x131B JUMP JUMPDEST PUSH1 0x40 MLOAD DUP1 SWAP2 SUB SWAP1 RETURN JUMPDEST CALLVALUE DUP1 ISZERO PUSH2 0xC9 JUMPI PUSH0 DUP1 REVERT JUMPDEST POP PUSH2 0xE4 PUSH1 0x4 DUP1 CALLDATASIZE SUB DUP2 ADD SWAP1 PUSH2 0xDF SWAP2 SWAP1 PUSH2 0x1467 JUMP JUMPDEST PUSH2 0x757 JUMP JUMPDEST STOP JUMPDEST CALLVALUE DUP1 ISZERO PUSH2 0xF1 JUMPI PUSH0 DUP1 REVERT JUMPDEST POP PUSH2 0x10C PUSH1 0x4 DUP1 CALLDATASIZE SUB DUP2 ADD SWAP1 PUSH2 0x107 SWAP2 SWAP1 PUSH2 0x1235 JUMP JUMPDEST PUSH2 0x9B5 JUMP JUMPDEST PUSH1 0x40 MLOAD PUSH2 0x120 SWAP9 SWAP8 SWAP7 SWAP6 SWAP5 SWAP4 SWAP3 SWAP2 SWAP1 PUSH2 0x1594 JUMP JUMPDEST PUSH1 0x40 MLOAD DUP1 SWAP2 SUB SWAP1 RETURN JUMPDEST PUSH2 0x143 PUSH1 0x4 DUP1 CALLDATASIZE SUB DUP2 ADD SWAP1 PUSH2 0x13E SWAP2 SWAP1 PUSH2 0x1235 JUMP JUMPDEST PUSH2 0xBE3 JUMP JUMPDEST STOP JUMPDEST CALLVALUE DUP1 ISZERO PUSH2 0x150 JUMPI PUSH0 DUP1 REVERT JUMPDEST POP PUSH2 0x159 PUSH2 0xF0F JUMP JUMPDEST PUSH1 0x40 MLOAD PUSH2 0x166 SWAP2 SWAP1 PUSH2 0x1625 JUMP JUMPDEST PUSH1 0x40 MLOAD DUP1 SWAP2 SUB SWAP1 RETURN JUMPDEST PUSH1 0x60 PUSH0 DUP1 SLOAD DUP1 PUSH1 0x20 MUL PUSH1 0x20 ADD PUSH1 0x40 MLOAD SWAP1 DUP2 ADD PUSH1 0x40 MSTORE DUP1 SWAP3 SWAP2 SWAP1 DUP2 DUP2 MSTORE PUSH1 0x20 ADD PUSH0 SWAP1 JUMPDEST DUP3 DUP3 LT ISZERO PUSH2 0x449 JUMPI DUP4 DUP3 SWAP1 PUSH0 MSTORE PUSH1 0x20 PUSH0 KECCAK256 SWAP1 PUSH1 0x8 MUL ADD PUSH1 0x40 MLOAD DUP1 PUSH2 0x100 ADD PUSH1 0x40 MSTORE SWAP1 DUP2 PUSH0 DUP3 ADD SLOAD DUP2 MSTORE PUSH1 0x20 ADD PUSH1 0x1 DUP3 ADD PUSH0 SWAP1 SLOAD SWAP1 PUSH2 0x100 EXP SWAP1 DIV PUSH20 0xFFFFFFFFFFFFFFFFFFFFFFFFFFFFFFFFFFFFFFFF AND PUSH20 0xFFFFFFFFFFFFFFFFFFFFFFFFFFFFFFFFFFFFFFFF AND PUSH20 0xFFFFFFFFFFFFFFFFFFFFFFFFFFFFFFFFFFFFFFFF AND DUP2 MSTORE PUSH1 0x20 ADD PUSH1 0x2 DUP3 ADD PUSH0 SWAP1 SLOAD SWAP1 PUSH2 0x100 EXP SWAP1 DIV PUSH20 0xFFFFFFFFFFFFFFFFFFFFFFFFFFFFFFFFFFFFFFFF AND PUSH20 0xFFFFFFFFFFFFFFFFFFFFFFFFFFFFFFFFFFFFFFFF AND PUSH20 0xFFFFFFFFFFFFFFFFFFFFFFFFFFFFFFFFFFFFFFFF AND DUP2 MSTORE PUSH1 0x20 ADD PUSH1 0x3 DUP3 ADD DUP1 SLOAD PUSH2 0x276 SWAP1 PUSH2 0x166B JUMP JUMPDEST DUP1 PUSH1 0x1F ADD PUSH1 0x20 DUP1 SWAP2 DIV MUL PUSH1 0x20 ADD PUSH1 0x40 MLOAD SWAP1 DUP2 ADD PUSH1 0x40 MSTORE DUP1 SWAP3 SWAP2 SWAP1 DUP2 DUP2 MSTORE PUSH1 0x20 ADD DUP3 DUP1 SLOAD PUSH2 0x2A2 SWAP1 PUSH2 0x166B JUMP JUMPDEST DUP1 ISZERO PUSH2 0x2ED JUMPI DUP1 PUSH1 0x1F LT PUSH2 0x2C4 JUMPI PUSH2 0x100 DUP1 DUP4 SLOAD DIV MUL DUP4 MSTORE SWAP2 PUSH1 0x20 ADD SWAP2 PUSH2 0x2ED JUMP JUMPDEST DUP3 ADD SWAP2 SWAP1 PUSH0 MSTORE PUSH1 0x20 PUSH0 KECCAK256 SWAP1 JUMPDEST DUP2 SLOAD DUP2 MSTORE SWAP1 PUSH1 0x1 ADD SWAP1 PUSH1 0x20 ADD DUP1 DUP4 GT PUSH2 0x2D0 JUMPI DUP3 SWAP1 SUB PUSH1 0x1F AND DUP3 ADD SWAP2 JUMPDEST POP POP POP POP POP DUP2 MSTORE PUSH1 0x20 ADD PUSH1 0x4 DUP3 ADD DUP1 SLOAD PUSH2 0x306 SWAP1 PUSH2 0x166B JUMP JUMPDEST DUP1 PUSH1 0x1F ADD PUSH1 0x20 DUP1 SWAP2 DIV MUL PUSH1 0x20 ADD PUSH1 0x40 MLOAD SWAP1 DUP2 ADD PUSH1 0x40 MSTORE DUP1 SWAP3 SWAP2 SWAP1 DUP2 DUP2 MSTORE PUSH1 0x20 ADD DUP3 DUP1 SLOAD PUSH2 0x332 SWAP1 PUSH2 0x166B JUMP JUMPDEST DUP1 ISZERO PUSH2 0x37D JUMPI DUP1 PUSH1 0x1F LT PUSH2 0x354 JUMPI PUSH2 0x100 DUP1 DUP4 SLOAD DIV MUL DUP4 MSTORE SWAP2 PUSH1 0x20 ADD SWAP2 PUSH2 0x37D JUMP JUMPDEST DUP3 ADD SWAP2 SWAP1 PUSH0 MSTORE PUSH1 0x20 PUSH0 KECCAK256 SWAP1 JUMPDEST DUP2 SLOAD DUP2 MSTORE SWAP1 PUSH1 0x1 ADD SWAP1 PUSH1 0x20 ADD DUP1 DUP4 GT PUSH2 0x360 JUMPI DUP3 SWAP1 SUB PUSH1 0x1F AND DUP3 ADD SWAP2 JUMPDEST POP POP POP POP POP DUP2 MSTORE PUSH1 0x20 ADD PUSH1 0x5 DUP3 ADD DUP1 SLOAD PUSH2 0x396 SWAP1 PUSH2 0x166B JUMP JUMPDEST DUP1 PUSH1 0x1F ADD PUSH1 0x20 DUP1 SWAP2 DIV MUL PUSH1 0x20 ADD PUSH1 0x40 MLOAD SWAP1 DUP2 ADD PUSH1 0x40 MSTORE DUP1 SWAP3 SWAP2 SWAP1 DUP2 DUP2 MSTORE PUSH1 0x20 ADD DUP3 DUP1 SLOAD PUSH2 0x3C2 SWAP1 PUSH2 0x166B JUMP JUMPDEST DUP1 ISZERO PUSH2 0x40D JUMPI DUP1 PUSH1 0x1F LT PUSH2 0x3E4 JUMPI PUSH2 0x100 DUP1 DUP4 SLOAD DIV MUL DUP4 MSTORE SWAP2 PUSH1 0x20 ADD SWAP2 PUSH2 0x40D JUMP JUMPDEST DUP3 ADD SWAP2 SWAP1 PUSH0 MSTORE PUSH1 0x20 PUSH0 KECCAK256 SWAP1 JUMPDEST DUP2 SLOAD DUP2 MSTORE SWAP1 PUSH1 0x1 ADD SWAP1 PUSH1 0x20 ADD DUP1 DUP4 GT PUSH2 0x3F0 JUMPI DUP3 SWAP1 SUB PUSH1 0x1F AND DUP3 ADD SWAP2 JUMPDEST POP POP POP POP POP DUP2 MSTORE PUSH1 0x20 ADD PUSH1 0x6 DUP3 ADD SLOAD DUP2 MSTORE PUSH1 0x20 ADD PUSH1 0x7 DUP3 ADD PUSH0 SWAP1 SLOAD SWAP1 PUSH2 0x100 EXP SWAP1 DIV PUSH1 0xFF AND ISZERO ISZERO ISZERO ISZERO DUP2 MSTORE POP POP DUP2 MSTORE PUSH1 0x20 ADD SWAP1 PUSH1 0x1 ADD SWAP1 PUSH2 0x191 JUMP JUMPDEST POP POP POP POP SWAP1 POP SWAP1 JUMP JUMPDEST PUSH2 0x45A PUSH2 0xF15 JUMP JUMPDEST PUSH1 0x1 SLOAD DUP3 LT PUSH2 0x49E JUMPI PUSH1 0x40 MLOAD PUSH32 0x8C379A000000000000000000000000000000000000000000000000000000000 DUP2 MSTORE PUSH1 0x4 ADD PUSH2 0x495 SWAP1 PUSH2 0x16E5 JUMP JUMPDEST PUSH1 0x40 MLOAD DUP1 SWAP2 SUB SWAP1 REVERT JUMPDEST PUSH0 DUP3 DUP2 SLOAD DUP2 LT PUSH2 0x4B1 JUMPI PUSH2 0x4B0 PUSH2 0x1703 JUMP JUMPDEST JUMPDEST SWAP1 PUSH0 MSTORE PUSH1 0x20 PUSH0 KECCAK256 SWAP1 PUSH1 0x8 MUL ADD PUSH1 0x40 MLOAD DUP1 PUSH2 0x100 ADD PUSH1 0x40 MSTORE SWAP1 DUP2 PUSH0 DUP3 ADD SLOAD DUP2 MSTORE PUSH1 0x20 ADD PUSH1 0x1 DUP3 ADD PUSH0 SWAP1 SLOAD SWAP1 PUSH2 0x100 EXP SWAP1 DIV PUSH20 0xFFFFFFFFFFFFFFFFFFFFFFFFFFFFFFFFFFFFFFFF AND PUSH20 0xFFFFFFFFFFFFFFFFFFFFFFFFFFFFFFFFFFFFFFFF AND PUSH20 0xFFFFFFFFFFFFFFFFFFFFFFFFFFFFFFFFFFFFFFFF AND DUP2 MSTORE PUSH1 0x20 ADD PUSH1 0x2 DUP3 ADD PUSH0 SWAP1 SLOAD SWAP1 PUSH2 0x100 EXP SWAP1 DIV PUSH20 0xFFFFFFFFFFFFFFFFFFFFFFFFFFFFFFFFFFFFFFFF AND PUSH20 0xFFFFFFFFFFFFFFFFFFFFFFFFFFFFFFFFFFFFFFFF AND PUSH20 0xFFFFFFFFFFFFFFFFFFFFFFFFFFFFFFFFFFFFFFFF AND DUP2 MSTORE PUSH1 0x20 ADD PUSH1 0x3 DUP3 ADD DUP1 SLOAD PUSH2 0x58C SWAP1 PUSH2 0x166B JUMP JUMPDEST DUP1 PUSH1 0x1F ADD PUSH1 0x20 DUP1 SWAP2 DIV MUL PUSH1 0x20 ADD PUSH1 0x40 MLOAD SWAP1 DUP2 ADD PUSH1 0x40 MSTORE DUP1 SWAP3 SWAP2 SWAP1 DUP2 DUP2 MSTORE PUSH1 0x20 ADD DUP3 DUP1 SLOAD PUSH2 0x5B8 SWAP1 PUSH2 0x166B JUMP JUMPDEST DUP1 ISZERO PUSH2 0x603 JUMPI DUP1 PUSH1 0x1F LT PUSH2 0x5DA JUMPI PUSH2 0x100 DUP1 DUP4 SLOAD DIV MUL DUP4 MSTORE SWAP2 PUSH1 0x20 ADD SWAP2 PUSH2 0x603 JUMP JUMPDEST DUP3 ADD SWAP2 SWAP1 PUSH0 MSTORE PUSH1 0x20 PUSH0 KECCAK256 SWAP1 JUMPDEST DUP2 SLOAD DUP2 MSTORE SWAP1 PUSH1 0x1 ADD SWAP1 PUSH1 0x20 ADD DUP1 DUP4 GT PUSH2 0x5E6 JUMPI DUP3 SWAP1 SUB PUSH1 0x1F AND DUP3 ADD SWAP2 JUMPDEST POP POP POP POP POP DUP2 MSTORE PUSH1 0x20 ADD PUSH1 0x4 DUP3 ADD DUP1 SLOAD PUSH2 0x61C SWAP1 PUSH2 0x166B JUMP JUMPDEST DUP1 PUSH1 0x1F ADD PUSH1 0x20 DUP1 SWAP2 DIV MUL PUSH1 0x20 ADD PUSH1 0x40 MLOAD SWAP1 DUP2 ADD PUSH1 0x40 MSTORE DUP1 SWAP3 SWAP2 SWAP1 DUP2 DUP2 MSTORE PUSH1 0x20 ADD DUP3 DUP1 SLOAD PUSH2 0x648 SWAP1 PUSH2 0x166B JUMP JUMPDEST DUP1 ISZERO PUSH2 0x693 JUMPI DUP1 PUSH1 0x1F LT PUSH2 0x66A JUMPI PUSH2 0x100 DUP1 DUP4 SLOAD DIV MUL DUP4 MSTORE SWAP2 PUSH1 0x20 ADD SWAP2 PUSH2 0x693 JUMP JUMPDEST DUP3 ADD SWAP2 SWAP1 PUSH0 MSTORE PUSH1 0x20 PUSH0 KECCAK256 SWAP1 JUMPDEST DUP2 SLOAD DUP2 MSTORE SWAP1 PUSH1 0x1 ADD SWAP1 PUSH1 0x20 ADD DUP1 DUP4 GT PUSH2 0x676 JUMPI DUP3 SWAP1 SUB PUSH1 0x1F AND DUP3 ADD SWAP2 JUMPDEST POP POP POP POP POP DUP2 MSTORE PUSH1 0x20 ADD PUSH1 0x5 DUP3 ADD DUP1 SLOAD PUSH2 0x6AC SWAP1 PUSH2 0x166B JUMP JUMPDEST DUP1 PUSH1 0x1F ADD PUSH1 0x20 DUP1 SWAP2 DIV MUL PUSH1 0x20 ADD PUSH1 0x40 MLOAD SWAP1 DUP2 ADD PUSH1 0x40 MSTORE DUP1 SWAP3 SWAP2 SWAP1 DUP2 DUP2 MSTORE PUSH1 0x20 ADD DUP3 DUP1 SLOAD PUSH2 0x6D8 SWAP1 PUSH2 0x166B JUMP JUMPDEST DUP1 ISZERO PUSH2 0x723 JUMPI DUP1 PUSH1 0x1F LT PUSH2 0x6FA JUMPI PUSH2 0x100 DUP1 DUP4 SLOAD DIV MUL DUP4 MSTORE SWAP2 PUSH1 0x20 ADD SWAP2 PUSH2 0x723 JUMP JUMPDEST DUP3 ADD SWAP2 SWAP1 PUSH0 MSTORE PUSH1 0x20 PUSH0 KECCAK256 SWAP1 JUMPDEST DUP2 SLOAD DUP2 MSTORE SWAP1 PUSH1 0x1 ADD SWAP1 PUSH1 0x20 ADD DUP1 DUP4 GT PUSH2 0x706 JUMPI DUP3 SWAP1 SUB PUSH1 0x1F AND DUP3 ADD SWAP2 JUMPDEST POP POP POP POP POP DUP2 MSTORE PUSH1 0x20 ADD PUSH1 0x6 DUP3 ADD SLOAD DUP2 MSTORE PUSH1 0x20 ADD PUSH1 0x7 DUP3 ADD PUSH0 SWAP1 SLOAD SWAP1 PUSH2 0x100 EXP SWAP1 DIV PUSH1 0xFF AND ISZERO ISZERO ISZERO ISZERO DUP2 MSTORE POP POP SWAP1 POP SWAP2 SWAP1 POP JUMP JUMPDEST PUSH0 DUP2 GT PUSH2 0x799 JUMPI PUSH1 0x40 MLOAD PUSH32 0x8C379A000000000000000000000000000000000000000000000000000000000 DUP2 MSTORE PUSH1 0x4 ADD PUSH2 0x790 SWAP1 PUSH2 0x177A JUMP JUMPDEST PUSH1 0x40 MLOAD DUP1 SWAP2 SUB SWAP1 REVERT JUMPDEST PUSH0 PUSH1 0x40 MLOAD DUP1 PUSH2 0x100 ADD PUSH1 0x40 MSTORE DUP1 PUSH1 0x1 SLOAD DUP2 MSTORE PUSH1 0x20 ADD CALLER PUSH20 0xFFFFFFFFFFFFFFFFFFFFFFFFFFFFFFFFFFFFFFFF AND DUP2 MSTORE PUSH1 0x20 ADD CALLER PUSH20 0xFFFFFFFFFFFFFFFFFFFFFFFFFFFFFFFFFFFFFFFF AND DUP2 MSTORE PUSH1 0x20 ADD DUP7 DUP2 MSTORE PUSH1 0x20 ADD DUP6 DUP2 MSTORE PUSH1 0x20 ADD DUP5 DUP2 MSTORE PUSH1 0x20 ADD DUP4 DUP2 MSTORE PUSH1 0x20 ADD PUSH0 ISZERO ISZERO DUP2 MSTORE POP SWAP1 DUP1 PUSH1 0x1 DUP2 SLOAD ADD DUP1 DUP3 SSTORE DUP1 SWAP2 POP POP PUSH1 0x1 SWAP1 SUB SWAP1 PUSH0 MSTORE PUSH1 0x20 PUSH0 KECCAK256 SWAP1 PUSH1 0x8 MUL ADD PUSH0 SWAP1 SWAP2 SWAP1 SWAP2 SWAP1 SWAP2 POP PUSH0 DUP3 ADD MLOAD DUP2 PUSH0 ADD SSTORE PUSH1 0x20 DUP3 ADD MLOAD DUP2 PUSH1 0x1 ADD PUSH0 PUSH2 0x100 EXP DUP2 SLOAD DUP2 PUSH20 0xFFFFFFFFFFFFFFFFFFFFFFFFFFFFFFFFFFFFFFFF MUL NOT AND SWAP1 DUP4 PUSH20 0xFFFFFFFFFFFFFFFFFFFFFFFFFFFFFFFFFFFFFFFF AND MUL OR SWAP1 SSTORE POP PUSH1 0x40 DUP3 ADD MLOAD DUP2 PUSH1 0x2 ADD PUSH0 PUSH2 0x100 EXP DUP2 SLOAD DUP2 PUSH20 0xFFFFFFFFFFFFFFFFFFFFFFFFFFFFFFFFFFFFFFFF MUL NOT AND SWAP1 DUP4 PUSH20 0xFFFFFFFFFFFFFFFFFFFFFFFFFFFFFFFFFFFFFFFF AND MUL OR SWAP1 SSTORE POP PUSH1 0x60 DUP3 ADD MLOAD DUP2 PUSH1 0x3 ADD SWAP1 DUP2 PUSH2 0x8D3 SWAP2 SWAP1 PUSH2 0x1935 JUMP JUMPDEST POP PUSH1 0x80 DUP3 ADD MLOAD DUP2 PUSH1 0x4 ADD SWAP1 DUP2 PUSH2 0x8E9 SWAP2 SWAP1 PUSH2 0x1935 JUMP JUMPDEST POP PUSH1 0xA0 DUP3 ADD MLOAD DUP2 PUSH1 0x5 ADD SWAP1 DUP2 PUSH2 0x8FF SWAP2 SWAP1 PUSH2 0x1935 JUMP JUMPDEST POP PUSH1 0xC0 DUP3 ADD MLOAD DUP2 PUSH1 0x6 ADD SSTORE PUSH1 0xE0 DUP3 ADD MLOAD DUP2 PUSH1 0x7 ADD PUSH0 PUSH2 0x100 EXP DUP2 SLOAD DUP2 PUSH1 0xFF MUL NOT AND SWAP1 DUP4 ISZERO ISZERO MUL OR SWAP1 SSTORE POP POP POP CALLER PUSH20 0xFFFFFFFFFFFFFFFFFFFFFFFFFFFFFFFFFFFFFFFF AND CALLER PUSH20 0xFFFFFFFFFFFFFFFFFFFFFFFFFFFFFFFFFFFFFFFF AND PUSH32 0xD6C1F674CEEC95954157D523258B10894F33DDA5BF0532A1E27AE8181FCE3552 PUSH1 0x1 SLOAD DUP8 DUP7 DUP7 PUSH1 0x40 MLOAD PUSH2 0x990 SWAP5 SWAP4 SWAP3 SWAP2 SWAP1 PUSH2 0x1A04 JUMP JUMPDEST PUSH1 0x40 MLOAD DUP1 SWAP2 SUB SWAP1 LOG3 PUSH1 0x1 PUSH0 DUP2 SLOAD DUP1 SWAP3 SWAP2 SWAP1 PUSH2 0x9AA SWAP1 PUSH2 0x1A82 JUMP JUMPDEST SWAP2 SWAP1 POP SSTORE POP POP POP POP POP JUMP JUMPDEST PUSH0 DUP2 DUP2 SLOAD DUP2 LT PUSH2 0x9C3 JUMPI PUSH0 DUP1 REVERT JUMPDEST SWAP1 PUSH0 MSTORE PUSH1 0x20 PUSH0 KECCAK256 SWAP1 PUSH1 0x8 MUL ADD PUSH0 SWAP2 POP SWAP1 POP DUP1 PUSH0 ADD SLOAD SWAP1 DUP1 PUSH1 0x1 ADD PUSH0 SWAP1 SLOAD SWAP1 PUSH2 0x100 EXP SWAP1 DIV PUSH20 0xFFFFFFFFFFFFFFFFFFFFFFFFFFFFFFFFFFFFFFFF AND SWAP1 DUP1 PUSH1 0x2 ADD PUSH0 SWAP1 SLOAD SWAP1 PUSH2 0x100 EXP SWAP1 DIV PUSH20 0xFFFFFFFFFFFFFFFFFFFFFFFFFFFFFFFFFFFFFFFF AND SWAP1 DUP1 PUSH1 0x3 ADD DUP1 SLOAD PUSH2 0xA32 SWAP1 PUSH2 0x166B JUMP JUMPDEST DUP1 PUSH1 0x1F ADD PUSH1 0x20 DUP1 SWAP2 DIV MUL PUSH1 0x20 ADD PUSH1 0x40 MLOAD SWAP1 DUP2 ADD PUSH1 0x40 MSTORE DUP1 SWAP3 SWAP2 SWAP1 DUP2 DUP2 MSTORE PUSH1 0x20 ADD DUP3 DUP1 SLOAD PUSH2 0xA5E SWAP1 PUSH2 0x166B JUMP JUMPDEST DUP1 ISZERO PUSH2 0xAA9 JUMPI DUP1 PUSH1 0x1F LT PUSH2 0xA80 JUMPI PUSH2 0x100 DUP1 DUP4 SLOAD DIV MUL DUP4 MSTORE SWAP2 PUSH1 0x20 ADD SWAP2 PUSH2 0xAA9 JUMP JUMPDEST DUP3 ADD SWAP2 SWAP1 PUSH0 MSTORE PUSH1 0x20 PUSH0 KECCAK256 SWAP1 JUMPDEST DUP2 SLOAD DUP2 MSTORE SWAP1 PUSH1 0x1 ADD SWAP1 PUSH1 0x20 ADD DUP1 DUP4 GT PUSH2 0xA8C JUMPI DUP3 SWAP1 SUB PUSH1 0x1F AND DUP3 ADD SWAP2 JUMPDEST POP POP POP POP POP SWAP1 DUP1 PUSH1 0x4 ADD DUP1 SLOAD PUSH2 0xABE SWAP1 PUSH2 0x166B JUMP JUMPDEST DUP1 PUSH1 0x1F ADD PUSH1 0x20 DUP1 SWAP2 DIV MUL PUSH1 0x20 ADD PUSH1 0x40 MLOAD SWAP1 DUP2 ADD PUSH1 0x40 MSTORE DUP1 SWAP3 SWAP2 SWAP1 DUP2 DUP2 MSTORE PUSH1 0x20 ADD DUP3 DUP1 SLOAD PUSH2 0xAEA SWAP1 PUSH2 0x166B JUMP JUMPDEST DUP1 ISZERO PUSH2 0xB35 JUMPI DUP1 PUSH1 0x1F LT PUSH2 0xB0C JUMPI PUSH2 0x100 DUP1 DUP4 SLOAD DIV MUL DUP4 MSTORE SWAP2 PUSH1 0x20 ADD SWAP2 PUSH2 0xB35 JUMP JUMPDEST DUP3 ADD SWAP2 SWAP1 PUSH0 MSTORE PUSH1 0x20 PUSH0 KECCAK256 SWAP1 JUMPDEST DUP2 SLOAD DUP2 MSTORE SWAP1 PUSH1 0x1 ADD SWAP1 PUSH1 0x20 ADD DUP1 DUP4 GT PUSH2 0xB18 JUMPI DUP3 SWAP1 SUB PUSH1 0x1F AND DUP3 ADD SWAP2 JUMPDEST POP POP POP POP POP SWAP1 DUP1 PUSH1 0x5 ADD DUP1 SLOAD PUSH2 0xB4A SWAP1 PUSH2 0x166B JUMP JUMPDEST DUP1 PUSH1 0x1F ADD PUSH1 0x20 DUP1 SWAP2 DIV MUL PUSH1 0x20 ADD PUSH1 0x40 MLOAD SWAP1 DUP2 ADD PUSH1 0x40 MSTORE DUP1 SWAP3 SWAP2 SWAP1 DUP2 DUP2 MSTORE PUSH1 0x20 ADD DUP3 DUP1 SLOAD PUSH2 0xB76 SWAP1 PUSH2 0x166B JUMP JUMPDEST DUP1 ISZERO PUSH2 0xBC1 JUMPI DUP1 PUSH1 0x1F LT PUSH2 0xB98 JUMPI PUSH2 0x100 DUP1 DUP4 SLOAD DIV MUL DUP4 MSTORE SWAP2 PUSH1 0x20 ADD SWAP2 PUSH2 0xBC1 JUMP JUMPDEST DUP3 ADD SWAP2 SWAP1 PUSH0 MSTORE PUSH1 0x20 PUSH0 KECCAK256 SWAP1 JUMPDEST DUP2 SLOAD DUP2 MSTORE SWAP1 PUSH1 0x1 ADD SWAP1 PUSH1 0x20 ADD DUP1 DUP4 GT PUSH2 0xBA4 JUMPI DUP3 SWAP1 SUB PUSH1 0x1F AND DUP3 ADD SWAP2 JUMPDEST POP POP POP POP POP SWAP1 DUP1 PUSH1 0x6 ADD SLOAD SWAP1 DUP1 PUSH1 0x7 ADD PUSH0 SWAP1 SLOAD SWAP1 PUSH2 0x100 EXP SWAP1 DIV PUSH1 0xFF AND SWAP1 POP DUP9 JUMP JUMPDEST PUSH1 0x1 SLOAD DUP2 LT PUSH2 0xC27 JUMPI PUSH1 0x40 MLOAD PUSH32 0x8C379A000000000000000000000000000000000000000000000000000000000 DUP2 MSTORE PUSH1 0x4 ADD PUSH2 0xC1E SWAP1 PUSH2 0x16E5 JUMP JUMPDEST PUSH1 0x40 MLOAD DUP1 SWAP2 SUB SWAP1 REVERT JUMPDEST PUSH0 DUP1 DUP3 DUP2 SLOAD DUP2 LT PUSH2 0xC3B JUMPI PUSH2 0xC3A PUSH2 0x1703 JUMP JUMPDEST JUMPDEST SWAP1 PUSH0 MSTORE PUSH1 0x20 PUSH0 KECCAK256 SWAP1 PUSH1 0x8 MUL ADD SWAP1 POP DUP1 PUSH1 0x6 ADD SLOAD CALLVALUE EQ PUSH2 0xC8F JUMPI PUSH1 0x40 MLOAD PUSH32 0x8C379A000000000000000000000000000000000000000000000000000000000 DUP2 MSTORE PUSH1 0x4 ADD PUSH2 0xC86 SWAP1 PUSH2 0x1B39 JUMP JUMPDEST PUSH1 0x40 MLOAD DUP1 SWAP2 SUB SWAP1 REVERT JUMPDEST DUP1 PUSH1 0x7 ADD PUSH0 SWAP1 SLOAD SWAP1 PUSH2 0x100 EXP SWAP1 DIV PUSH1 0xFF AND ISZERO PUSH2 0xCE0 JUMPI PUSH1 0x40 MLOAD PUSH32 0x8C379A000000000000000000000000000000000000000000000000000000000 DUP2 MSTORE PUSH1 0x4 ADD PUSH2 0xCD7 SWAP1 PUSH2 0x1BC7 JUMP JUMPDEST PUSH1 0x40 MLOAD DUP1 SWAP2 SUB SWAP1 REVERT JUMPDEST DUP1 PUSH1 0x2 ADD PUSH0 SWAP1 SLOAD SWAP1 PUSH2 0x100 EXP SWAP1 DIV PUSH20 0xFFFFFFFFFFFFFFFFFFFFFFFFFFFFFFFFFFFFFFFF AND PUSH20 0xFFFFFFFFFFFFFFFFFFFFFFFFFFFFFFFFFFFFFFFF AND CALLER PUSH20 0xFFFFFFFFFFFFFFFFFFFFFFFFFFFFFFFFFFFFFFFF AND SUB PUSH2 0xD71 JUMPI PUSH1 0x40 MLOAD PUSH32 0x8C379A000000000000000000000000000000000000000000000000000000000 DUP2 MSTORE PUSH1 0x4 ADD PUSH2 0xD68 SWAP1 PUSH2 0x1C55 JUMP JUMPDEST PUSH1 0x40 MLOAD DUP1 SWAP2 SUB SWAP1 REVERT JUMPDEST PUSH0 DUP2 PUSH1 0x2 ADD PUSH0 SWAP1 SLOAD SWAP1 PUSH2 0x100 EXP SWAP1 DIV PUSH20 0xFFFFFFFFFFFFFFFFFFFFFFFFFFFFFFFFFFFFFFFF AND SWAP1 POP CALLER DUP3 PUSH1 0x2 ADD PUSH0 PUSH2 0x100 EXP DUP2 SLOAD DUP2 PUSH20 0xFFFFFFFFFFFFFFFFFFFFFFFFFFFFFFFFFFFFFFFF MUL NOT AND SWAP1 DUP4 PUSH20 0xFFFFFFFFFFFFFFFFFFFFFFFFFFFFFFFFFFFFFFFF AND MUL OR SWAP1 SSTORE POP PUSH1 0x1 DUP3 PUSH1 0x7 ADD PUSH0 PUSH2 0x100 EXP DUP2 SLOAD DUP2 PUSH1 0xFF MUL NOT AND SWAP1 DUP4 ISZERO ISZERO MUL OR SWAP1 SSTORE POP DUP1 PUSH20 0xFFFFFFFFFFFFFFFFFFFFFFFFFFFFFFFFFFFFFFFF AND PUSH2 0x8FC CALLVALUE SWAP1 DUP2 ISZERO MUL SWAP1 PUSH1 0x40 MLOAD PUSH0 PUSH1 0x40 MLOAD DUP1 DUP4 SUB DUP2 DUP6 DUP9 DUP9 CALL SWAP4 POP POP POP POP ISZERO DUP1 ISZERO PUSH2 0xE39 JUMPI RETURNDATASIZE PUSH0 DUP1 RETURNDATACOPY RETURNDATASIZE PUSH0 REVERT JUMPDEST POP DUP1 PUSH20 0xFFFFFFFFFFFFFFFFFFFFFFFFFFFFFFFFFFFFFFFF AND CALLER PUSH20 0xFFFFFFFFFFFFFFFFFFFFFFFFFFFFFFFFFFFFFFFF AND PUSH32 0xD52BD61F7C422D441E024604F4517878FD3305D6ACF0FE37BAEF23ED21AF6BC9 CALLVALUE PUSH1 0x40 MLOAD PUSH2 0xE97 SWAP2 SWAP1 PUSH2 0x1625 JUMP JUMPDEST PUSH1 0x40 MLOAD DUP1 SWAP2 SUB SWAP1 LOG3 CALLER PUSH20 0xFFFFFFFFFFFFFFFFFFFFFFFFFFFFFFFFFFFFFFFF AND DUP2 PUSH20 0xFFFFFFFFFFFFFFFFFFFFFFFFFFFFFFFFFFFFFFFF AND PUSH32 0xA02E46FC9BBD3E1138787BC1DC117AE0B9A5A3745EA30B0AB673D79D90739029 DUP6 DUP6 PUSH1 0x6 ADD SLOAD PUSH1 0x40 MLOAD PUSH2 0xF02 SWAP3 SWAP2 SWAP1 PUSH2 0x1C73 JUMP JUMPDEST PUSH1 0x40 MLOAD DUP1 SWAP2 SUB SWAP1 LOG3 POP POP POP JUMP JUMPDEST PUSH1 0x1 SLOAD DUP2 JUMP JUMPDEST PUSH1 0x40 MLOAD DUP1 PUSH2 0x100 ADD PUSH1 0x40 MSTORE DUP1 PUSH0 DUP2 MSTORE PUSH1 0x20 ADD PUSH0 PUSH20 0xFFFFFFFFFFFFFFFFFFFFFFFFFFFFFFFFFFFFFFFF AND DUP2 MSTORE PUSH1 0x20 ADD PUSH0 PUSH20 0xFFFFFFFFFFFFFFFFFFFFFFFFFFFFFFFFFFFFFFFF AND DUP2 MSTORE PUSH1 0x20 ADD PUSH1 0x60 DUP2 MSTORE PUSH1 0x20 ADD PUSH1 0x60 DUP2 MSTORE PUSH1 0x20 ADD PUSH1 0x60 DUP2 MSTORE PUSH1 0x20 ADD PUSH0 DUP2 MSTORE PUSH1 0x20 ADD PUSH0 ISZERO ISZERO DUP2 MSTORE POP SWAP1 JUMP JUMPDEST PUSH0 DUP2 MLOAD SWAP1 POP SWAP2 SWAP1 POP JUMP JUMPDEST PUSH0 DUP3 DUP3 MSTORE PUSH1 0x20 DUP3 ADD SWAP1 POP SWAP3 SWAP2 POP POP JUMP JUMPDEST PUSH0 DUP2 SWAP1 POP PUSH1 0x20 DUP3 ADD SWAP1 POP SWAP2 SWAP1 POP JUMP JUMPDEST PUSH0 DUP2 SWAP1 POP SWAP2 SWAP1 POP JUMP JUMPDEST PUSH2 0xFBE DUP2 PUSH2 0xFAC JUMP JUMPDEST DUP3 MSTORE POP POP JUMP JUMPDEST PUSH0 PUSH20 0xFFFFFFFFFFFFFFFFFFFFFFFFFFFFFFFFFFFFFFFF DUP3 AND SWAP1 POP SWAP2 SWAP1 POP JUMP JUMPDEST PUSH0 PUSH2 0xFED DUP3 PUSH2 0xFC4 JUMP JUMPDEST SWAP1 POP SWAP2 SWAP1 POP JUMP JUMPDEST PUSH2 0xFFD DUP2 PUSH2 0xFE3 JUMP JUMPDEST DUP3 MSTORE POP POP JUMP JUMPDEST PUSH0 DUP2 MLOAD SWAP1 POP SWAP2 SWAP1 POP JUMP JUMPDEST PUSH0 DUP3 DUP3 MSTORE PUSH1 0x20 DUP3 ADD SWAP1 POP SWAP3 SWAP2 POP POP JUMP JUMPDEST DUP3 DUP2 DUP4 MCOPY PUSH0 DUP4 DUP4 ADD MSTORE POP POP POP JUMP JUMPDEST PUSH0 PUSH1 0x1F NOT PUSH1 0x1F DUP4 ADD AND SWAP1 POP SWAP2 SWAP1 POP JUMP JUMPDEST PUSH0 PUSH2 0x1045 DUP3 PUSH2 0x1003 JUMP JUMPDEST PUSH2 0x104F DUP2 DUP6 PUSH2 0x100D JUMP JUMPDEST SWAP4 POP PUSH2 0x105F DUP2 DUP6 PUSH1 0x20 DUP7 ADD PUSH2 0x101D JUMP JUMPDEST PUSH2 0x1068 DUP2 PUSH2 0x102B JUMP JUMPDEST DUP5 ADD SWAP2 POP POP SWAP3 SWAP2 POP POP JUMP JUMPDEST PUSH0 DUP2 ISZERO ISZERO SWAP1 POP SWAP2 SWAP1 POP JUMP JUMPDEST PUSH2 0x1087 DUP2 PUSH2 0x1073 JUMP JUMPDEST DUP3 MSTORE POP POP JUMP JUMPDEST PUSH0 PUSH2 0x100 DUP4 ADD PUSH0 DUP4 ADD MLOAD PUSH2 0x10A3 PUSH0 DUP7 ADD DUP3 PUSH2 0xFB5 JUMP JUMPDEST POP PUSH1 0x20 DUP4 ADD MLOAD PUSH2 0x10B6 PUSH1 0x20 DUP7 ADD DUP3 PUSH2 0xFF4 JUMP JUMPDEST POP PUSH1 0x40 DUP4 ADD MLOAD PUSH2 0x10C9 PUSH1 0x40 DUP7 ADD DUP3 PUSH2 0xFF4 JUMP JUMPDEST POP PUSH1 0x60 DUP4 ADD MLOAD DUP5 DUP3 SUB PUSH1 0x60 DUP7 ADD MSTORE PUSH2 0x10E1 DUP3 DUP3 PUSH2 0x103B JUMP JUMPDEST SWAP2 POP POP PUSH1 0x80 DUP4 ADD MLOAD DUP5 DUP3 SUB PUSH1 0x80 DUP7 ADD MSTORE PUSH2 0x10FB DUP3 DUP3 PUSH2 0x103B JUMP JUMPDEST SWAP2 POP POP PUSH1 0xA0 DUP4 ADD MLOAD DUP5 DUP3 SUB PUSH1 0xA0 DUP7 ADD MSTORE PUSH2 0x1115 DUP3 DUP3 PUSH2 0x103B JUMP JUMPDEST SWAP2 POP POP PUSH1 0xC0 DUP4 ADD MLOAD PUSH2 0x112A PUSH1 0xC0 DUP7 ADD DUP3 PUSH2 0xFB5 JUMP JUMPDEST POP PUSH1 0xE0 DUP4 ADD MLOAD PUSH2 0x113D PUSH1 0xE0 DUP7 ADD DUP3 PUSH2 0x107E JUMP JUMPDEST POP DUP1 SWAP2 POP POP SWAP3 SWAP2 POP POP JUMP JUMPDEST PUSH0 PUSH2 0x1153 DUP4 DUP4 PUSH2 0x108D JUMP JUMPDEST SWAP1 POP SWAP3 SWAP2 POP POP JUMP JUMPDEST PUSH0 PUSH1 0x20 DUP3 ADD SWAP1 POP SWAP2 SWAP1 POP JUMP JUMPDEST PUSH0 PUSH2 0x1171 DUP3 PUSH2 0xF83 JUMP JUMPDEST PUSH2 0x117B DUP2 DUP6 PUSH2 0xF8D JUMP JUMPDEST SWAP4 POP DUP4 PUSH1 0x20 DUP3 MUL DUP6 ADD PUSH2 0x118D DUP6 PUSH2 0xF9D JUMP JUMPDEST DUP1 PUSH0 JUMPDEST DUP6 DUP2 LT ISZERO PUSH2 0x11C8 JUMPI DUP5 DUP5 SUB DUP10 MSTORE DUP2 MLOAD PUSH2 0x11A9 DUP6 DUP3 PUSH2 0x1148 JUMP JUMPDEST SWAP5 POP PUSH2 0x11B4 DUP4 PUSH2 0x115B JUMP JUMPDEST SWAP3 POP PUSH1 0x20 DUP11 ADD SWAP10 POP POP PUSH1 0x1 DUP2 ADD SWAP1 POP PUSH2 0x1190 JUMP JUMPDEST POP DUP3 SWAP8 POP DUP8 SWAP6 POP POP POP POP POP POP SWAP3 SWAP2 POP POP JUMP JUMPDEST PUSH0 PUSH1 0x20 DUP3 ADD SWAP1 POP DUP2 DUP2 SUB PUSH0 DUP4 ADD MSTORE PUSH2 0x11F2 DUP2 DUP5 PUSH2 0x1167 JUMP JUMPDEST SWAP1 POP SWAP3 SWAP2 POP POP JUMP JUMPDEST PUSH0 PUSH1 0x40 MLOAD SWAP1 POP SWAP1 JUMP JUMPDEST PUSH0 DUP1 REVERT JUMPDEST PUSH0 DUP1 REVERT JUMPDEST PUSH2 0x1214 DUP2 PUSH2 0xFAC JUMP JUMPDEST DUP2 EQ PUSH2 0x121E JUMPI PUSH0 DUP1 REVERT JUMPDEST POP JUMP JUMPDEST PUSH0 DUP2 CALLDATALOAD SWAP1 POP PUSH2 0x122F DUP2 PUSH2 0x120B JUMP JUMPDEST SWAP3 SWAP2 POP POP JUMP JUMPDEST PUSH0 PUSH1 0x20 DUP3 DUP5 SUB SLT ISZERO PUSH2 0x124A JUMPI PUSH2 0x1249 PUSH2 0x1203 JUMP JUMPDEST JUMPDEST PUSH0 PUSH2 0x1257 DUP5 DUP3 DUP6 ADD PUSH2 0x1221 JUMP JUMPDEST SWAP2 POP POP SWAP3 SWAP2 POP POP JUMP JUMPDEST PUSH0 PUSH2 0x100 DUP4 ADD PUSH0 DUP4 ADD MLOAD PUSH2 0x1276 PUSH0 DUP7 ADD DUP3 PUSH2 0xFB5 JUMP JUMPDEST POP PUSH1 0x20 DUP4 ADD MLOAD PUSH2 0x1289 PUSH1 0x20 DUP7 ADD DUP3 PUSH2 0xFF4 JUMP JUMPDEST POP PUSH1 0x40 DUP4 ADD MLOAD PUSH2 0x129C PUSH1 0x40 DUP7 ADD DUP3 PUSH2 0xFF4 JUMP JUMPDEST POP PUSH1 0x60 DUP4 ADD MLOAD DUP5 DUP3 SUB PUSH1 0x60 DUP7 ADD MSTORE PUSH2 0x12B4 DUP3 DUP3 PUSH2 0x103B JUMP JUMPDEST SWAP2 POP POP PUSH1 0x80 DUP4 ADD MLOAD DUP5 DUP3 SUB PUSH1 0x80 DUP7 ADD MSTORE PUSH2 0x12CE DUP3 DUP3 PUSH2 0x103B JUMP JUMPDEST SWAP2 POP POP PUSH1 0xA0 DUP4 ADD MLOAD DUP5 DUP3 SUB PUSH1 0xA0 DUP7 ADD MSTORE PUSH2 0x12E8 DUP3 DUP3 PUSH2 0x103B JUMP JUMPDEST SWAP2 POP POP PUSH1 0xC0 DUP4 ADD MLOAD PUSH2 0x12FD PUSH1 0xC0 DUP7 ADD DUP3 PUSH2 0xFB5 JUMP JUMPDEST POP PUSH1 0xE0 DUP4 ADD MLOAD PUSH2 0x1310 PUSH1 0xE0 DUP7 ADD DUP3 PUSH2 0x107E JUMP JUMPDEST POP DUP1 SWAP2 POP POP SWAP3 SWAP2 POP POP JUMP JUMPDEST PUSH0 PUSH1 0x20 DUP3 ADD SWAP1 POP DUP2 DUP2 SUB PUSH0 DUP4 ADD MSTORE PUSH2 0x1333 DUP2 DUP5 PUSH2 0x1260 JUMP JUMPDEST SWAP1 POP SWAP3 SWAP2 POP POP JUMP JUMPDEST PUSH0 DUP1 REVERT JUMPDEST PUSH0 DUP1 REVERT JUMPDEST PUSH32 0x4E487B7100000000000000000000000000000000000000000000000000000000 PUSH0 MSTORE PUSH1 0x41 PUSH1 0x4 MSTORE PUSH1 0x24 PUSH0 REVERT JUMPDEST PUSH2 0x1379 DUP3 PUSH2 0x102B JUMP JUMPDEST DUP2 ADD DUP2 DUP2 LT PUSH8 0xFFFFFFFFFFFFFFFF DUP3 GT OR ISZERO PUSH2 0x1398 JUMPI PUSH2 0x1397 PUSH2 0x1343 JUMP JUMPDEST JUMPDEST DUP1 PUSH1 0x40 MSTORE POP POP POP JUMP JUMPDEST PUSH0 PUSH2 0x13AA PUSH2 0x11FA JUMP JUMPDEST SWAP1 POP PUSH2 0x13B6 DUP3 DUP3 PUSH2 0x1370 JUMP JUMPDEST SWAP2 SWAP1 POP JUMP JUMPDEST PUSH0 PUSH8 0xFFFFFFFFFFFFFFFF DUP3 GT ISZERO PUSH2 0x13D5 JUMPI PUSH2 0x13D4 PUSH2 0x1343 JUMP JUMPDEST JUMPDEST PUSH2 0x13DE DUP3 PUSH2 0x102B JUMP JUMPDEST SWAP1 POP PUSH1 0x20 DUP2 ADD SWAP1 POP SWAP2 SWAP1 POP JUMP JUMPDEST DUP3 DUP2 DUP4 CALLDATACOPY PUSH0 DUP4 DUP4 ADD MSTORE POP POP POP JUMP JUMPDEST PUSH0 PUSH2 0x140B PUSH2 0x1406 DUP5 PUSH2 0x13BB JUMP JUMPDEST PUSH2 0x13A1 JUMP JUMPDEST SWAP1 POP DUP3 DUP2 MSTORE PUSH1 0x20 DUP2 ADD DUP5 DUP5 DUP5 ADD GT ISZERO PUSH2 0x1427 JUMPI PUSH2 0x1426 PUSH2 0x133F JUMP JUMPDEST JUMPDEST PUSH2 0x1432 DUP5 DUP3 DUP6 PUSH2 0x13EB JUMP JUMPDEST POP SWAP4 SWAP3 POP POP POP JUMP JUMPDEST PUSH0 DUP3 PUSH1 0x1F DUP4 ADD SLT PUSH2 0x144E JUMPI PUSH2 0x144D PUSH2 0x133B JUMP JUMPDEST JUMPDEST DUP2 CALLDATALOAD PUSH2 0x145E DUP5 DUP3 PUSH1 0x20 DUP7 ADD PUSH2 0x13F9 JUMP JUMPDEST SWAP2 POP POP SWAP3 SWAP2 POP POP JUMP JUMPDEST PUSH0 DUP1 PUSH0 DUP1 PUSH1 0x80 DUP6 DUP8 SUB SLT ISZERO PUSH2 0x147F JUMPI PUSH2 0x147E PUSH2 0x1203 JUMP JUMPDEST JUMPDEST PUSH0 DUP6 ADD CALLDATALOAD PUSH8 0xFFFFFFFFFFFFFFFF DUP2 GT ISZERO PUSH2 0x149C JUMPI PUSH2 0x149B PUSH2 0x1207 JUMP JUMPDEST JUMPDEST PUSH2 0x14A8 DUP8 DUP3 DUP9 ADD PUSH2 0x143A JUMP JUMPDEST SWAP5 POP POP PUSH1 0x20 DUP6 ADD CALLDATALOAD PUSH8 0xFFFFFFFFFFFFFFFF DUP2 GT ISZERO PUSH2 0x14C9 JUMPI PUSH2 0x14C8 PUSH2 0x1207 JUMP JUMPDEST JUMPDEST PUSH2 0x14D5 DUP8 DUP3 DUP9 ADD PUSH2 0x143A JUMP JUMPDEST SWAP4 POP POP PUSH1 0x40 DUP6 ADD CALLDATALOAD PUSH8 0xFFFFFFFFFFFFFFFF DUP2 GT ISZERO PUSH2 0x14F6 JUMPI PUSH2 0x14F5 PUSH2 0x1207 JUMP JUMPDEST JUMPDEST PUSH2 0x1502 DUP8 DUP3 DUP9 ADD PUSH2 0x143A JUMP JUMPDEST SWAP3 POP POP PUSH1 0x60 PUSH2 0x1513 DUP8 DUP3 DUP9 ADD PUSH2 0x1221 JUMP JUMPDEST SWAP2 POP POP SWAP3 SWAP6 SWAP2 SWAP5 POP SWAP3 POP JUMP JUMPDEST PUSH2 0x1528 DUP2 PUSH2 0xFAC JUMP JUMPDEST DUP3 MSTORE POP POP JUMP JUMPDEST PUSH2 0x1537 DUP2 PUSH2 0xFE3 JUMP JUMPDEST DUP3 MSTORE POP POP JUMP JUMPDEST PUSH0 DUP3 DUP3 MSTORE PUSH1 0x20 DUP3 ADD SWAP1 POP SWAP3 SWAP2 POP POP JUMP JUMPDEST PUSH0 PUSH2 0x1557 DUP3 PUSH2 0x1003 JUMP JUMPDEST PUSH2 0x1561 DUP2 DUP6 PUSH2 0x153D JUMP JUMPDEST SWAP4 POP PUSH2 0x1571 DUP2 DUP6 PUSH1 0x20 DUP7 ADD PUSH2 0x101D JUMP JUMPDEST PUSH2 0x157A DUP2 PUSH2 0x102B JUMP JUMPDEST DUP5 ADD SWAP2 POP POP SWAP3 SWAP2 POP POP JUMP JUMPDEST PUSH2 0x158E DUP2 PUSH2 0x1073 JUMP JUMPDEST DUP3 MSTORE POP POP JUMP JUMPDEST PUSH0 PUSH2 0x100 DUP3 ADD SWAP1 POP PUSH2 0x15A8 PUSH0 DUP4 ADD DUP12 PUSH2 0x151F JUMP JUMPDEST PUSH2 0x15B5 PUSH1 0x20 DUP4 ADD DUP11 PUSH2 0x152E JUMP JUMPDEST PUSH2 0x15C2 PUSH1 0x40 DUP4 ADD DUP10 PUSH2 0x152E JUMP JUMPDEST DUP2 DUP2 SUB PUSH1 0x60 DUP4 ADD MSTORE PUSH2 0x15D4 DUP2 DUP9 PUSH2 0x154D JUMP JUMPDEST SWAP1 POP DUP2 DUP2 SUB PUSH1 0x80 DUP4 ADD MSTORE PUSH2 0x15E8 DUP2 DUP8 PUSH2 0x154D JUMP JUMPDEST SWAP1 POP DUP2 DUP2 SUB PUSH1 0xA0 DUP4 ADD MSTORE PUSH2 0x15FC DUP2 DUP7 PUSH2 0x154D JUMP JUMPDEST SWAP1 POP PUSH2 0x160B PUSH1 0xC0 DUP4 ADD DUP6 PUSH2 0x151F JUMP JUMPDEST PUSH2 0x1618 PUSH1 0xE0 DUP4 ADD DUP5 PUSH2 0x1585 JUMP JUMPDEST SWAP10 SWAP9 POP POP POP POP POP POP POP POP POP JUMP JUMPDEST PUSH0 PUSH1 0x20 DUP3 ADD SWAP1 POP PUSH2 0x1638 PUSH0 DUP4 ADD DUP5 PUSH2 0x151F JUMP JUMPDEST SWAP3 SWAP2 POP POP JUMP JUMPDEST PUSH32 0x4E487B7100000000000000000000000000000000000000000000000000000000 PUSH0 MSTORE PUSH1 0x22 PUSH1 0x4 MSTORE PUSH1 0x24 PUSH0 REVERT JUMPDEST PUSH0 PUSH1 0x2 DUP3 DIV SWAP1 POP PUSH1 0x1 DUP3 AND DUP1 PUSH2 0x1682 JUMPI PUSH1 0x7F DUP3 AND SWAP2 POP JUMPDEST PUSH1 0x20 DUP3 LT DUP2 SUB PUSH2 0x1695 JUMPI PUSH2 0x1694 PUSH2 0x163E JUMP JUMPDEST JUMPDEST POP SWAP2 SWAP1 POP JUMP JUMPDEST PUSH32 0x50726F6475637420494420646F6573206E6F7420657869737400000000000000 PUSH0 DUP3 ADD MSTORE POP JUMP JUMPDEST PUSH0 PUSH2 0x16CF PUSH1 0x19 DUP4 PUSH2 0x153D JUMP JUMPDEST SWAP2 POP PUSH2 0x16DA DUP3 PUSH2 0x169B JUMP JUMPDEST PUSH1 0x20 DUP3 ADD SWAP1 POP SWAP2 SWAP1 POP JUMP JUMPDEST PUSH0 PUSH1 0x20 DUP3 ADD SWAP1 POP DUP2 DUP2 SUB PUSH0 DUP4 ADD MSTORE PUSH2 0x16FC DUP2 PUSH2 0x16C3 JUMP JUMPDEST SWAP1 POP SWAP2 SWAP1 POP JUMP JUMPDEST PUSH32 0x4E487B7100000000000000000000000000000000000000000000000000000000 PUSH0 MSTORE PUSH1 0x32 PUSH1 0x4 MSTORE PUSH1 0x24 PUSH0 REVERT JUMPDEST PUSH32 0x5072696365206D7573742062652067726561746572207468616E207A65726F00 PUSH0 DUP3 ADD MSTORE POP JUMP JUMPDEST PUSH0 PUSH2 0x1764 PUSH1 0x1F DUP4 PUSH2 0x153D JUMP JUMPDEST SWAP2 POP PUSH2 0x176F DUP3 PUSH2 0x1730 JUMP JUMPDEST PUSH1 0x20 DUP3 ADD SWAP1 POP SWAP2 SWAP1 POP JUMP JUMPDEST PUSH0 PUSH1 0x20 DUP3 ADD SWAP1 POP DUP2 DUP2 SUB PUSH0 DUP4 ADD MSTORE PUSH2 0x1791 DUP2 PUSH2 0x1758 JUMP JUMPDEST SWAP1 POP SWAP2 SWAP1 POP JUMP JUMPDEST PUSH0 DUP2 SWAP1 POP DUP2 PUSH0 MSTORE PUSH1 0x20 PUSH0 KECCAK256 SWAP1 POP SWAP2 SWAP1 POP JUMP JUMPDEST PUSH0 PUSH1 0x20 PUSH1 0x1F DUP4 ADD DIV SWAP1 POP SWAP2 SWAP1 POP JUMP JUMPDEST PUSH0 DUP3 DUP3 SHL SWAP1 POP SWAP3 SWAP2 POP POP JUMP JUMPDEST PUSH0 PUSH1 0x8 DUP4 MUL PUSH2 0x17F4 PUSH32 0xFFFFFFFFFFFFFFFFFFFFFFFFFFFFFFFFFFFFFFFFFFFFFFFFFFFFFFFFFFFFFFFF DUP3 PUSH2 0x17B9 JUMP JUMPDEST PUSH2 0x17FE DUP7 DUP4 PUSH2 0x17B9 JUMP JUMPDEST SWAP6 POP DUP1 NOT DUP5 AND SWAP4 POP DUP1 DUP7 AND DUP5 OR SWAP3 POP POP POP SWAP4 SWAP3 POP POP POP JUMP JUMPDEST PUSH0 DUP2 SWAP1 POP SWAP2 SWAP1 POP JUMP JUMPDEST PUSH0 PUSH2 0x1839 PUSH2 0x1834 PUSH2 0x182F DUP5 PUSH2 0xFAC JUMP JUMPDEST PUSH2 0x1816 JUMP JUMPDEST PUSH2 0xFAC JUMP JUMPDEST SWAP1 POP SWAP2 SWAP1 POP JUMP JUMPDEST PUSH0 DUP2 SWAP1 POP SWAP2 SWAP1 POP JUMP JUMPDEST PUSH2 0x1852 DUP4 PUSH2 0x181F JUMP JUMPDEST PUSH2 0x1866 PUSH2 0x185E DUP3 PUSH2 0x1840 JUMP JUMPDEST DUP5 DUP5 SLOAD PUSH2 0x17C5 JUMP JUMPDEST DUP3 SSTORE POP POP POP POP JUMP JUMPDEST PUSH0 SWAP1 JUMP JUMPDEST PUSH2 0x187A PUSH2 0x186E JUMP JUMPDEST PUSH2 0x1885 DUP2 DUP5 DUP5 PUSH2 0x1849 JUMP JUMPDEST POP POP POP JUMP JUMPDEST JUMPDEST DUP2 DUP2 LT ISZERO PUSH2 0x18A8 JUMPI PUSH2 0x189D PUSH0 DUP3 PUSH2 0x1872 JUMP JUMPDEST PUSH1 0x1 DUP2 ADD SWAP1 POP PUSH2 0x188B JUMP JUMPDEST POP POP JUMP JUMPDEST PUSH1 0x1F DUP3 GT ISZERO PUSH2 0x18ED JUMPI PUSH2 0x18BE DUP2 PUSH2 0x1798 JUMP JUMPDEST PUSH2 0x18C7 DUP5 PUSH2 0x17AA JUMP JUMPDEST DUP2 ADD PUSH1 0x20 DUP6 LT ISZERO PUSH2 0x18D6 JUMPI DUP2 SWAP1 POP JUMPDEST PUSH2 0x18EA PUSH2 0x18E2 DUP6 PUSH2 0x17AA JUMP JUMPDEST DUP4 ADD DUP3 PUSH2 0x188A JUMP JUMPDEST POP POP JUMPDEST POP POP POP JUMP JUMPDEST PUSH0 DUP3 DUP3 SHR SWAP1 POP SWAP3 SWAP2 POP POP JUMP JUMPDEST PUSH0 PUSH2 0x190D PUSH0 NOT DUP5 PUSH1 0x8 MUL PUSH2 0x18F2 JUMP JUMPDEST NOT DUP1 DUP4 AND SWAP2 POP POP SWAP3 SWAP2 POP POP JUMP JUMPDEST PUSH0 PUSH2 0x1925 DUP4 DUP4 PUSH2 0x18FE JUMP JUMPDEST SWAP2 POP DUP3 PUSH1 0x2 MUL DUP3 OR SWAP1 POP SWAP3 SWAP2 POP POP JUMP JUMPDEST PUSH2 0x193E DUP3 PUSH2 0x1003 JUMP JUMPDEST PUSH8 0xFFFFFFFFFFFFFFFF DUP2 GT ISZERO PUSH2 0x1957 JUMPI PUSH2 0x1956 PUSH2 0x1343 JUMP JUMPDEST JUMPDEST PUSH2 0x1961 DUP3 SLOAD PUSH2 0x166B JUMP JUMPDEST PUSH2 0x196C DUP3 DUP3 DUP6 PUSH2 0x18AC JUMP JUMPDEST PUSH0 PUSH1 0x20 SWAP1 POP PUSH1 0x1F DUP4 GT PUSH1 0x1 DUP2 EQ PUSH2 0x199D JUMPI PUSH0 DUP5 ISZERO PUSH2 0x198B JUMPI DUP3 DUP8 ADD MLOAD SWAP1 POP JUMPDEST PUSH2 0x1995 DUP6 DUP3 PUSH2 0x191A JUMP JUMPDEST DUP7 SSTORE POP PUSH2 0x19FC JUMP JUMPDEST PUSH1 0x1F NOT DUP5 AND PUSH2 0x19AB DUP7 PUSH2 0x1798 JUMP JUMPDEST PUSH0 JUMPDEST DUP3 DUP2 LT ISZERO PUSH2 0x19D2 JUMPI DUP5 DUP10 ADD MLOAD DUP3 SSTORE PUSH1 0x1 DUP3 ADD SWAP2 POP PUSH1 0x20 DUP6 ADD SWAP5 POP PUSH1 0x20 DUP2 ADD SWAP1 POP PUSH2 0x19AD JUMP JUMPDEST DUP7 DUP4 LT ISZERO PUSH2 0x19EF JUMPI DUP5 DUP10 ADD MLOAD PUSH2 0x19EB PUSH1 0x1F DUP10 AND DUP3 PUSH2 0x18FE JUMP JUMPDEST DUP4 SSTORE POP JUMPDEST PUSH1 0x1 PUSH1 0x2 DUP9 MUL ADD DUP9 SSTORE POP POP POP JUMPDEST POP POP POP POP POP POP JUMP JUMPDEST PUSH0 PUSH1 0x80 DUP3 ADD SWAP1 POP PUSH2 0x1A17 PUSH0 DUP4 ADD DUP8 PUSH2 0x151F JUMP JUMPDEST DUP2 DUP2 SUB PUSH1 0x20 DUP4 ADD MSTORE PUSH2 0x1A29 DUP2 DUP7 PUSH2 0x154D JUMP JUMPDEST SWAP1 POP DUP2 DUP2 SUB PUSH1 0x40 DUP4 ADD MSTORE PUSH2 0x1A3D DUP2 DUP6 PUSH2 0x154D JUMP JUMPDEST SWAP1 POP PUSH2 0x1A4C PUSH1 0x60 DUP4 ADD DUP5 PUSH2 0x151F JUMP JUMPDEST SWAP6 SWAP5 POP POP POP POP POP JUMP JUMPDEST PUSH32 0x4E487B7100000000000000000000000000000000000000000000000000000000 PUSH0 MSTORE PUSH1 0x11 PUSH1 0x4 MSTORE PUSH1 0x24 PUSH0 REVERT JUMPDEST PUSH0 PUSH2 0x1A8C DUP3 PUSH2 0xFAC JUMP JUMPDEST SWAP2 POP PUSH32 0xFFFFFFFFFFFFFFFFFFFFFFFFFFFFFFFFFFFFFFFFFFFFFFFFFFFFFFFFFFFFFFFF DUP3 SUB PUSH2 0x1ABE JUMPI PUSH2 0x1ABD PUSH2 0x1A55 JUMP JUMPDEST JUMPDEST PUSH1 0x1 DUP3 ADD SWAP1 POP SWAP2 SWAP1 POP JUMP JUMPDEST PUSH32 0x506C65617365207375626D6974207468652061736B696E672070726963652069 PUSH0 DUP3 ADD MSTORE PUSH32 0x6E206F7264657220746F20636F6D706C65746520746865207075726368617365 PUSH1 0x20 DUP3 ADD MSTORE POP JUMP JUMPDEST PUSH0 PUSH2 0x1B23 PUSH1 0x40 DUP4 PUSH2 0x153D JUMP JUMPDEST SWAP2 POP PUSH2 0x1B2E DUP3 PUSH2 0x1AC9 JUMP JUMPDEST PUSH1 0x40 DUP3 ADD SWAP1 POP SWAP2 SWAP1 POP JUMP JUMPDEST PUSH0 PUSH1 0x20 DUP3 ADD SWAP1 POP DUP2 DUP2 SUB PUSH0 DUP4 ADD MSTORE PUSH2 0x1B50 DUP2 PUSH2 0x1B17 JUMP JUMPDEST SWAP1 POP SWAP2 SWAP1 POP JUMP JUMPDEST PUSH32 0x546869732070726F647563742068617320616C7265616479206265656E20736F PUSH0 DUP3 ADD MSTORE PUSH32 0x6C64000000000000000000000000000000000000000000000000000000000000 PUSH1 0x20 DUP3 ADD MSTORE POP JUMP JUMPDEST PUSH0 PUSH2 0x1BB1 PUSH1 0x22 DUP4 PUSH2 0x153D JUMP JUMPDEST SWAP2 POP PUSH2 0x1BBC DUP3 PUSH2 0x1B57 JUMP JUMPDEST PUSH1 0x40 DUP3 ADD SWAP1 POP SWAP2 SWAP1 POP JUMP JUMPDEST PUSH0 PUSH1 0x20 DUP3 ADD SWAP1 POP DUP2 DUP2 SUB PUSH0 DUP4 ADD MSTORE PUSH2 0x1BDE DUP2 PUSH2 0x1BA5 JUMP JUMPDEST SWAP1 POP SWAP2 SWAP1 POP JUMP JUMPDEST PUSH32 0x4F776E65722063616E6E6F7420627579207468656972206F776E2070726F6475 PUSH0 DUP3 ADD MSTORE PUSH32 0x6374000000000000000000000000000000000000000000000000000000000000 PUSH1 0x20 DUP3 ADD MSTORE POP JUMP JUMPDEST PUSH0 PUSH2 0x1C3F PUSH1 0x22 DUP4 PUSH2 0x153D JUMP JUMPDEST SWAP2 POP PUSH2 0x1C4A DUP3 PUSH2 0x1BE5 JUMP JUMPDEST PUSH1 0x40 DUP3 ADD SWAP1 POP SWAP2 SWAP1 POP JUMP JUMPDEST PUSH0 PUSH1 0x20 DUP3 ADD SWAP1 POP DUP2 DUP2 SUB PUSH0 DUP4 ADD MSTORE PUSH2 0x1C6C DUP2 PUSH2 0x1C33 JUMP JUMPDEST SWAP1 POP SWAP2 SWAP1 POP JUMP JUMPDEST PUSH0 PUSH1 0x40 DUP3 ADD SWAP1 POP PUSH2 0x1C86 PUSH0 DUP4 ADD DUP6 PUSH2 0x151F JUMP JUMPDEST PUSH2 0x1C93 PUSH1 0x20 DUP4 ADD DUP5 PUSH2 0x151F JUMP JUMPDEST SWAP4 SWAP3 POP POP POP JUMP INVALID LOG2 PUSH5 0x6970667358 0x22 SLT KECCAK256 SWAP6 PUSH27 0x512838777CAB067A14585DEFD3D569BA40BC4337019763CBC609A SWAP16 0xBC ADDRESS PUSH5 0x736F6C6343 STOP ADDMOD NOT STOP CALLER "
	},
	"Assembly": ".code\n  PUSH 80\t\t\tcontract Marketplace {\\r\\n    ...\n  PUSH 40\t\t\tcontract Marketplace {\\r\\n    ...\n  MSTORE \t\t\tcontract Marketplace {\\r\\n    ...\n  CALLVALUE \t\t\tconstructor() {\\r\\n        pro...\n  DUP1 \t\t\tconstructor() {\\r\\n        pro...\n  ISZERO \t\t\tconstructor() {\\r\\n        pro...\n  PUSH [tag] 1\t\t\tconstructor() {\\r\\n        pro...\n  JUMPI \t\t\tconstructor() {\\r\\n        pro...\n  PUSH 0\t\t\tconstructor() {\\r\\n        pro...\n  DUP1 \t\t\tconstructor() {\\r\\n        pro...\n  REVERT \t\t\tconstructor() {\\r\\n        pro...\ntag 1\t\t\tconstructor() {\\r\\n        pro...\n  JUMPDEST \t\t\tconstructor() {\\r\\n        pro...\n  POP \t\t\tconstructor() {\\r\\n        pro...\n  PUSH 0\t\t\t0\n  PUSH 1\t\t\tproductCount\n  DUP2 \t\t\tproductCount = 0\n  SWAP1 \t\t\tproductCount = 0\n  SSTORE \t\t\tproductCount = 0\n  POP \t\t\tproductCount = 0\n  PUSH #[$] 0000000000000000000000000000000000000000000000000000000000000000\t\t\tcontract Marketplace {\\r\\n    ...\n  DUP1 \t\t\tcontract Marketplace {\\r\\n    ...\n  PUSH [$] 0000000000000000000000000000000000000000000000000000000000000000\t\t\tcontract Marketplace {\\r\\n    ...\n  PUSH 0\t\t\tcontract Marketplace {\\r\\n    ...\n  CODECOPY \t\t\tcontract Marketplace {\\r\\n    ...\n  PUSH 0\t\t\tcontract Marketplace {\\r\\n    ...\n  RETURN \t\t\tcontract Marketplace {\\r\\n    ...\n.data\n  0:\n    .code\n      PUSH 80\t\t\tcontract Marketplace {\\r\\n    ...\n      PUSH 40\t\t\tcontract Marketplace {\\r\\n    ...\n      MSTORE \t\t\tcontract Marketplace {\\r\\n    ...\n      PUSH 4\t\t\tcontract Marketplace {\\r\\n    ...\n      CALLDATASIZE \t\t\tcontract Marketplace {\\r\\n    ...\n      LT \t\t\tcontract Marketplace {\\r\\n    ...\n      PUSH [tag] 1\t\t\tcontract Marketplace {\\r\\n    ...\n      JUMPI \t\t\tcontract Marketplace {\\r\\n    ...\n      PUSH 0\t\t\tcontract Marketplace {\\r\\n    ...\n      CALLDATALOAD \t\t\tcontract Marketplace {\\r\\n    ...\n      PUSH E0\t\t\tcontract Marketplace {\\r\\n    ...\n      SHR \t\t\tcontract Marketplace {\\r\\n    ...\n      DUP1 \t\t\tcontract Marketplace {\\r\\n    ...\n      PUSH 2EE3A52\t\t\tcontract Marketplace {\\r\\n    ...\n      EQ \t\t\tcontract Marketplace {\\r\\n    ...\n      PUSH [tag] 2\t\t\tcontract Marketplace {\\r\\n    ...\n      JUMPI \t\t\tcontract Marketplace {\\r\\n    ...\n      DUP1 \t\t\tcontract Marketplace {\\r\\n    ...\n      PUSH 3F70C2B4\t\t\tcontract Marketplace {\\r\\n    ...\n      EQ \t\t\tcontract Marketplace {\\r\\n    ...\n      PUSH [tag] 3\t\t\tcontract Marketplace {\\r\\n    ...\n      JUMPI \t\t\tcontract Marketplace {\\r\\n    ...\n      DUP1 \t\t\tcontract Marketplace {\\r\\n    ...\n      PUSH 3FAA8694\t\t\tcontract Marketplace {\\r\\n    ...\n      EQ \t\t\tcontract Marketplace {\\r\\n    ...\n      PUSH [tag] 4\t\t\tcontract Marketplace {\\r\\n    ...\n      JUMPI \t\t\tcontract Marketplace {\\r\\n    ...\n      DUP1 \t\t\tcontract Marketplace {\\r\\n    ...\n      PUSH 7ACC0B20\t\t\tcontract Marketplace {\\r\\n    ...\n      EQ \t\t\tcontract Marketplace {\\r\\n    ...\n      PUSH [tag] 5\t\t\tcontract Marketplace {\\r\\n    ...\n      JUMPI \t\t\tcontract Marketplace {\\r\\n    ...\n      DUP1 \t\t\tcontract Marketplace {\\r\\n    ...\n      PUSH 8642269E\t\t\tcontract Marketplace {\\r\\n    ...\n      EQ \t\t\tcontract Marketplace {\\r\\n    ...\n      PUSH [tag] 6\t\t\tcontract Marketplace {\\r\\n    ...\n      JUMPI \t\t\tcontract Marketplace {\\r\\n    ...\n      DUP1 \t\t\tcontract Marketplace {\\r\\n    ...\n      PUSH E0F6EF87\t\t\tcontract Marketplace {\\r\\n    ...\n      EQ \t\t\tcontract Marketplace {\\r\\n    ...\n      PUSH [tag] 7\t\t\tcontract Marketplace {\\r\\n    ...\n      JUMPI \t\t\tcontract Marketplace {\\r\\n    ...\n    tag 1\t\t\tcontract Marketplace {\\r\\n    ...\n      JUMPDEST \t\t\tcontract Marketplace {\\r\\n    ...\n      PUSH 0\t\t\tcontract Marketplace {\\r\\n    ...\n      DUP1 \t\t\tcontract Marketplace {\\r\\n    ...\n      REVERT \t\t\tcontract Marketplace {\\r\\n    ...\n    tag 2\t\t\tfunction getAllProducts() exte...\n      JUMPDEST \t\t\tfunction getAllProducts() exte...\n      CALLVALUE \t\t\tfunction getAllProducts() exte...\n      DUP1 \t\t\tfunction getAllProducts() exte...\n      ISZERO \t\t\tfunction getAllProducts() exte...\n      PUSH [tag] 8\t\t\tfunction getAllProducts() exte...\n      JUMPI \t\t\tfunction getAllProducts() exte...\n      PUSH 0\t\t\tfunction getAllProducts() exte...\n      DUP1 \t\t\tfunction getAllProducts() exte...\n      REVERT \t\t\tfunction getAllProducts() exte...\n    tag 8\t\t\tfunction getAllProducts() exte...\n      JUMPDEST \t\t\tfunction getAllProducts() exte...\n      POP \t\t\tfunction getAllProducts() exte...\n      PUSH [tag] 9\t\t\tfunction getAllProducts() exte...\n      PUSH [tag] 10\t\t\tfunction getAllProducts() exte...\n      JUMP \t\t\tfunction getAllProducts() exte...\n    tag 9\t\t\tfunction getAllProducts() exte...\n      JUMPDEST \t\t\tfunction getAllProducts() exte...\n      PUSH 40\t\t\tfunction getAllProducts() exte...\n      MLOAD \t\t\tfunction getAllProducts() exte...\n      PUSH [tag] 11\t\t\tfunction getAllProducts() exte...\n      SWAP2 \t\t\tfunction getAllProducts() exte...\n      SWAP1 \t\t\tfunction getAllProducts() exte...\n      PUSH [tag] 12\t\t\tfunction getAllProducts() exte...\n      JUMP \t\t\tfunction getAllProducts() exte...\n    tag 11\t\t\tfunction getAllProducts() exte...\n      JUMPDEST \t\t\tfunction getAllProducts() exte...\n      PUSH 40\t\t\tfunction getAllProducts() exte...\n      MLOAD \t\t\tfunction getAllProducts() exte...\n      DUP1 \t\t\tfunction getAllProducts() exte...\n      SWAP2 \t\t\tfunction getAllProducts() exte...\n      SUB \t\t\tfunction getAllProducts() exte...\n      SWAP1 \t\t\tfunction getAllProducts() exte...\n      RETURN \t\t\tfunction getAllProducts() exte...\n    tag 3\t\t\tfunction getProductById(uint _...\n      JUMPDEST \t\t\tfunction getProductById(uint _...\n      CALLVALUE \t\t\tfunction getProductById(uint _...\n      DUP1 \t\t\tfunction getProductById(uint _...\n      ISZERO \t\t\tfunction getProductById(uint _...\n      PUSH [tag] 13\t\t\tfunction getProductById(uint _...\n      JUMPI \t\t\tfunction getProductById(uint _...\n      PUSH 0\t\t\tfunction getProductById(uint _...\n      DUP1 \t\t\tfunction getProductById(uint _...\n      REVERT \t\t\tfunction getProductById(uint _...\n    tag 13\t\t\tfunction getProductById(uint _...\n      JUMPDEST \t\t\tfunction getProductById(uint _...\n      POP \t\t\tfunction getProductById(uint _...\n      PUSH [tag] 14\t\t\tfunction getProductById(uint _...\n      PUSH 4\t\t\tfunction getProductById(uint _...\n      DUP1 \t\t\tfunction getProductById(uint _...\n      CALLDATASIZE \t\t\tfunction getProductById(uint _...\n      SUB \t\t\tfunction getProductById(uint _...\n      DUP2 \t\t\tfunction getProductById(uint _...\n      ADD \t\t\tfunction getProductById(uint _...\n      SWAP1 \t\t\tfunction getProductById(uint _...\n      PUSH [tag] 15\t\t\tfunction getProductById(uint _...\n      SWAP2 \t\t\tfunction getProductById(uint _...\n      SWAP1 \t\t\tfunction getProductById(uint _...\n      PUSH [tag] 16\t\t\tfunction getProductById(uint _...\n      JUMP \t\t\tfunction getProductById(uint _...\n    tag 15\t\t\tfunction getProductById(uint _...\n      JUMPDEST \t\t\tfunction getProductById(uint _...\n      PUSH [tag] 17\t\t\tfunction getProductById(uint _...\n      JUMP \t\t\tfunction getProductById(uint _...\n    tag 14\t\t\tfunction getProductById(uint _...\n      JUMPDEST \t\t\tfunction getProductById(uint _...\n      PUSH 40\t\t\tfunction getProductById(uint _...\n      MLOAD \t\t\tfunction getProductById(uint _...\n      PUSH [tag] 18\t\t\tfunction getProductById(uint _...\n      SWAP2 \t\t\tfunction getProductById(uint _...\n      SWAP1 \t\t\tfunction getProductById(uint _...\n      PUSH [tag] 19\t\t\tfunction getProductById(uint _...\n      JUMP \t\t\tfunction getProductById(uint _...\n    tag 18\t\t\tfunction getProductById(uint _...\n      JUMPDEST \t\t\tfunction getProductById(uint _...\n      PUSH 40\t\t\tfunction getProductById(uint _...\n      MLOAD \t\t\tfunction getProductById(uint _...\n      DUP1 \t\t\tfunction getProductById(uint _...\n      SWAP2 \t\t\tfunction getProductById(uint _...\n      SUB \t\t\tfunction getProductById(uint _...\n      SWAP1 \t\t\tfunction getProductById(uint _...\n      RETURN \t\t\tfunction getProductById(uint _...\n    tag 4\t\t\tfunction listAllProducts(strin...\n      JUMPDEST \t\t\tfunction listAllProducts(strin...\n      CALLVALUE \t\t\tfunction listAllProducts(strin...\n      DUP1 \t\t\tfunction listAllProducts(strin...\n      ISZERO \t\t\tfunction listAllProducts(strin...\n      PUSH [tag] 20\t\t\tfunction listAllProducts(strin...\n      JUMPI \t\t\tfunction listAllProducts(strin...\n      PUSH 0\t\t\tfunction listAllProducts(strin...\n      DUP1 \t\t\tfunction listAllProducts(strin...\n      REVERT \t\t\tfunction listAllProducts(strin...\n    tag 20\t\t\tfunction listAllProducts(strin...\n      JUMPDEST \t\t\tfunction listAllProducts(strin...\n      POP \t\t\tfunction listAllProducts(strin...\n      PUSH [tag] 21\t\t\tfunction listAllProducts(strin...\n      PUSH 4\t\t\tfunction listAllProducts(strin...\n      DUP1 \t\t\tfunction listAllProducts(strin...\n      CALLDATASIZE \t\t\tfunction listAllProducts(strin...\n      SUB \t\t\tfunction listAllProducts(strin...\n      DUP2 \t\t\tfunction listAllProducts(strin...\n      ADD \t\t\tfunction listAllProducts(strin...\n      SWAP1 \t\t\tfunction listAllProducts(strin...\n      PUSH [tag] 22\t\t\tfunction listAllProducts(strin...\n      SWAP2 \t\t\tfunction listAllProducts(strin...\n      SWAP1 \t\t\tfunction listAllProducts(strin...\n      PUSH [tag] 23\t\t\tfunction listAllProducts(strin...\n      JUMP \t\t\tfunction listAllProducts(strin...\n    tag 22\t\t\tfunction listAllProducts(strin...\n      JUMPDEST \t\t\tfunction listAllProducts(strin...\n      PUSH [tag] 24\t\t\tfunction listAllProducts(strin...\n      JUMP \t\t\tfunction listAllProducts(strin...\n    tag 21\t\t\tfunction listAllProducts(strin...\n      JUMPDEST \t\t\tfunction listAllProducts(strin...\n      STOP \t\t\tfunction listAllProducts(strin...\n    tag 5\t\t\tProduct[] public products\n      JUMPDEST \t\t\tProduct[] public products\n      CALLVALUE \t\t\tProduct[] public products\n      DUP1 \t\t\tProduct[] public products\n      ISZERO \t\t\tProduct[] public products\n      PUSH [tag] 25\t\t\tProduct[] public products\n      JUMPI \t\t\tProduct[] public products\n      PUSH 0\t\t\tProduct[] public products\n      DUP1 \t\t\tProduct[] public products\n      REVERT \t\t\tProduct[] public products\n    tag 25\t\t\tProduct[] public products\n      JUMPDEST \t\t\tProduct[] public products\n      POP \t\t\tProduct[] public products\n      PUSH [tag] 26\t\t\tProduct[] public products\n      PUSH 4\t\t\tProduct[] public products\n      DUP1 \t\t\tProduct[] public products\n      CALLDATASIZE \t\t\tProduct[] public products\n      SUB \t\t\tProduct[] public products\n      DUP2 \t\t\tProduct[] public products\n      ADD \t\t\tProduct[] public products\n      SWAP1 \t\t\tProduct[] public products\n      PUSH [tag] 27\t\t\tProduct[] public products\n      SWAP2 \t\t\tProduct[] public products\n      SWAP1 \t\t\tProduct[] public products\n      PUSH [tag] 16\t\t\tProduct[] public products\n      JUMP \t\t\tProduct[] public products\n    tag 27\t\t\tProduct[] public products\n      JUMPDEST \t\t\tProduct[] public products\n      PUSH [tag] 28\t\t\tProduct[] public products\n      JUMP \t\t\tProduct[] public products\n    tag 26\t\t\tProduct[] public products\n      JUMPDEST \t\t\tProduct[] public products\n      PUSH 40\t\t\tProduct[] public products\n      MLOAD \t\t\tProduct[] public products\n      PUSH [tag] 29\t\t\tProduct[] public products\n      SWAP9 \t\t\tProduct[] public products\n      SWAP8 \t\t\tProduct[] public products\n      SWAP7 \t\t\tProduct[] public products\n      SWAP6 \t\t\tProduct[] public products\n      SWAP5 \t\t\tProduct[] public products\n      SWAP4 \t\t\tProduct[] public products\n      SWAP3 \t\t\tProduct[] public products\n      SWAP2 \t\t\tProduct[] public products\n      SWAP1 \t\t\tProduct[] public products\n      PUSH [tag] 30\t\t\tProduct[] public products\n      JUMP \t\t\tProduct[] public products\n    tag 29\t\t\tProduct[] public products\n      JUMPDEST \t\t\tProduct[] public products\n      PUSH 40\t\t\tProduct[] public products\n      MLOAD \t\t\tProduct[] public products\n      DUP1 \t\t\tProduct[] public products\n      SWAP2 \t\t\tProduct[] public products\n      SUB \t\t\tProduct[] public products\n      SWAP1 \t\t\tProduct[] public products\n      RETURN \t\t\tProduct[] public products\n    tag 6\t\t\tfunction buyProduct(uint _id) ...\n      JUMPDEST \t\t\tfunction buyProduct(uint _id) ...\n      PUSH [tag] 31\t\t\tfunction buyProduct(uint _id) ...\n      PUSH 4\t\t\tfunction buyProduct(uint _id) ...\n      DUP1 \t\t\tfunction buyProduct(uint _id) ...\n      CALLDATASIZE \t\t\tfunction buyProduct(uint _id) ...\n      SUB \t\t\tfunction buyProduct(uint _id) ...\n      DUP2 \t\t\tfunction buyProduct(uint _id) ...\n      ADD \t\t\tfunction buyProduct(uint _id) ...\n      SWAP1 \t\t\tfunction buyProduct(uint _id) ...\n      PUSH [tag] 32\t\t\tfunction buyProduct(uint _id) ...\n      SWAP2 \t\t\tfunction buyProduct(uint _id) ...\n      SWAP1 \t\t\tfunction buyProduct(uint _id) ...\n      PUSH [tag] 16\t\t\tfunction buyProduct(uint _id) ...\n      JUMP \t\t\tfunction buyProduct(uint _id) ...\n    tag 32\t\t\tfunction buyProduct(uint _id) ...\n      JUMPDEST \t\t\tfunction buyProduct(uint _id) ...\n      PUSH [tag] 33\t\t\tfunction buyProduct(uint _id) ...\n      JUMP \t\t\tfunction buyProduct(uint _id) ...\n    tag 31\t\t\tfunction buyProduct(uint _id) ...\n      JUMPDEST \t\t\tfunction buyProduct(uint _id) ...\n      STOP \t\t\tfunction buyProduct(uint _id) ...\n    tag 7\t\t\tuint public productCount\n      JUMPDEST \t\t\tuint public productCount\n      CALLVALUE \t\t\tuint public productCount\n      DUP1 \t\t\tuint public productCount\n      ISZERO \t\t\tuint public productCount\n      PUSH [tag] 34\t\t\tuint public productCount\n      JUMPI \t\t\tuint public productCount\n      PUSH 0\t\t\tuint public productCount\n      DUP1 \t\t\tuint public productCount\n      REVERT \t\t\tuint public productCount\n    tag 34\t\t\tuint public productCount\n      JUMPDEST \t\t\tuint public productCount\n      POP \t\t\tuint public productCount\n      PUSH [tag] 35\t\t\tuint public productCount\n      PUSH [tag] 36\t\t\tuint public productCount\n      JUMP \t\t\tuint public productCount\n    tag 35\t\t\tuint public productCount\n      JUMPDEST \t\t\tuint public productCount\n      PUSH 40\t\t\tuint public productCount\n      MLOAD \t\t\tuint public productCount\n      PUSH [tag] 37\t\t\tuint public productCount\n      SWAP2 \t\t\tuint public productCount\n      SWAP1 \t\t\tuint public productCount\n      PUSH [tag] 38\t\t\tuint public productCount\n      JUMP \t\t\tuint public productCount\n    tag 37\t\t\tuint public productCount\n      JUMPDEST \t\t\tuint public productCount\n      PUSH 40\t\t\tuint public productCount\n      MLOAD \t\t\tuint public productCount\n      DUP1 \t\t\tuint public productCount\n      SWAP2 \t\t\tuint public productCount\n      SUB \t\t\tuint public productCount\n      SWAP1 \t\t\tuint public productCount\n      RETURN \t\t\tuint public productCount\n    tag 10\t\t\tfunction getAllProducts() exte...\n      JUMPDEST \t\t\tfunction getAllProducts() exte...\n      PUSH 60\t\t\tProduct[] memory\n      PUSH 0\t\t\tproducts\n      DUP1 \t\t\treturn products\n      SLOAD \t\t\treturn products\n      DUP1 \t\t\treturn products\n      PUSH 20\t\t\treturn products\n      MUL \t\t\treturn products\n      PUSH 20\t\t\treturn products\n      ADD \t\t\treturn products\n      PUSH 40\t\t\treturn products\n      MLOAD \t\t\treturn products\n      SWAP1 \t\t\treturn products\n      DUP2 \t\t\treturn products\n      ADD \t\t\treturn products\n      PUSH 40\t\t\treturn products\n      MSTORE \t\t\treturn products\n      DUP1 \t\t\treturn products\n      SWAP3 \t\t\treturn products\n      SWAP2 \t\t\treturn products\n      SWAP1 \t\t\treturn products\n      DUP2 \t\t\treturn products\n      DUP2 \t\t\treturn products\n      MSTORE \t\t\treturn products\n      PUSH 20\t\t\treturn products\n      ADD \t\t\treturn products\n      PUSH 0\t\t\treturn products\n      SWAP1 \t\t\treturn products\n    tag 40\t\t\treturn products\n      JUMPDEST \t\t\treturn products\n      DUP3 \t\t\treturn products\n      DUP3 \t\t\treturn products\n      LT \t\t\treturn products\n      ISZERO \t\t\treturn products\n      PUSH [tag] 41\t\t\treturn products\n      JUMPI \t\t\treturn products\n      DUP4 \t\t\treturn products\n      DUP3 \t\t\treturn products\n      SWAP1 \t\t\treturn products\n      PUSH 0\t\t\treturn products\n      MSTORE \t\t\treturn products\n      PUSH 20\t\t\treturn products\n      PUSH 0\t\t\treturn products\n      KECCAK256 \t\t\treturn products\n      SWAP1 \t\t\treturn products\n      PUSH 8\t\t\treturn products\n      MUL \t\t\treturn products\n      ADD \t\t\treturn products\n      PUSH 40\t\t\treturn products\n      MLOAD \t\t\treturn products\n      DUP1 \t\t\treturn products\n      PUSH 100\t\t\treturn products\n      ADD \t\t\treturn products\n      PUSH 40\t\t\treturn products\n      MSTORE \t\t\treturn products\n      SWAP1 \t\t\treturn products\n      DUP2 \t\t\treturn products\n      PUSH 0\t\t\treturn products\n      DUP3 \t\t\treturn products\n      ADD \t\t\treturn products\n      SLOAD \t\t\treturn products\n      DUP2 \t\t\treturn products\n      MSTORE \t\t\treturn products\n      PUSH 20\t\t\treturn products\n      ADD \t\t\treturn products\n      PUSH 1\t\t\treturn products\n      DUP3 \t\t\treturn products\n      ADD \t\t\treturn products\n      PUSH 0\t\t\treturn products\n      SWAP1 \t\t\treturn products\n      SLOAD \t\t\treturn products\n      SWAP1 \t\t\treturn products\n      PUSH 100\t\t\treturn products\n      EXP \t\t\treturn products\n      SWAP1 \t\t\treturn products\n      DIV \t\t\treturn products\n      PUSH FFFFFFFFFFFFFFFFFFFFFFFFFFFFFFFFFFFFFFFF\t\t\treturn products\n      AND \t\t\treturn products\n      PUSH FFFFFFFFFFFFFFFFFFFFFFFFFFFFFFFFFFFFFFFF\t\t\treturn products\n      AND \t\t\treturn products\n      PUSH FFFFFFFFFFFFFFFFFFFFFFFFFFFFFFFFFFFFFFFF\t\t\treturn products\n      AND \t\t\treturn products\n      DUP2 \t\t\treturn products\n      MSTORE \t\t\treturn products\n      PUSH 20\t\t\treturn products\n      ADD \t\t\treturn products\n      PUSH 2\t\t\treturn products\n      DUP3 \t\t\treturn products\n      ADD \t\t\treturn products\n      PUSH 0\t\t\treturn products\n      SWAP1 \t\t\treturn products\n      SLOAD \t\t\treturn products\n      SWAP1 \t\t\treturn products\n      PUSH 100\t\t\treturn products\n      EXP \t\t\treturn products\n      SWAP1 \t\t\treturn products\n      DIV \t\t\treturn products\n      PUSH FFFFFFFFFFFFFFFFFFFFFFFFFFFFFFFFFFFFFFFF\t\t\treturn products\n      AND \t\t\treturn products\n      PUSH FFFFFFFFFFFFFFFFFFFFFFFFFFFFFFFFFFFFFFFF\t\t\treturn products\n      AND \t\t\treturn products\n      PUSH FFFFFFFFFFFFFFFFFFFFFFFFFFFFFFFFFFFFFFFF\t\t\treturn products\n      AND \t\t\treturn products\n      DUP2 \t\t\treturn products\n      MSTORE \t\t\treturn products\n      PUSH 20\t\t\treturn products\n      ADD \t\t\treturn products\n      PUSH 3\t\t\treturn products\n      DUP3 \t\t\treturn products\n      ADD \t\t\treturn products\n      DUP1 \t\t\treturn products\n      SLOAD \t\t\treturn products\n      PUSH [tag] 43\t\t\treturn products\n      SWAP1 \t\t\treturn products\n      PUSH [tag] 44\t\t\treturn products\n      JUMP \t\t\treturn products\n    tag 43\t\t\treturn products\n      JUMPDEST \t\t\treturn products\n      DUP1 \t\t\treturn products\n      PUSH 1F\t\t\treturn products\n      ADD \t\t\treturn products\n      PUSH 20\t\t\treturn products\n      DUP1 \t\t\treturn products\n      SWAP2 \t\t\treturn products\n      DIV \t\t\treturn products\n      MUL \t\t\treturn products\n      PUSH 20\t\t\treturn products\n      ADD \t\t\treturn products\n      PUSH 40\t\t\treturn products\n      MLOAD \t\t\treturn products\n      SWAP1 \t\t\treturn products\n      DUP2 \t\t\treturn products\n      ADD \t\t\treturn products\n      PUSH 40\t\t\treturn products\n      MSTORE \t\t\treturn products\n      DUP1 \t\t\treturn products\n      SWAP3 \t\t\treturn products\n      SWAP2 \t\t\treturn products\n      SWAP1 \t\t\treturn products\n      DUP2 \t\t\treturn products\n      DUP2 \t\t\treturn products\n      MSTORE \t\t\treturn products\n      PUSH 20\t\t\treturn products\n      ADD \t\t\treturn products\n      DUP3 \t\t\treturn products\n      DUP1 \t\t\treturn products\n      SLOAD \t\t\treturn products\n      PUSH [tag] 45\t\t\treturn products\n      SWAP1 \t\t\treturn products\n      PUSH [tag] 44\t\t\treturn products\n      JUMP \t\t\treturn products\n    tag 45\t\t\treturn products\n      JUMPDEST \t\t\treturn products\n      DUP1 \t\t\treturn products\n      ISZERO \t\t\treturn products\n      PUSH [tag] 46\t\t\treturn products\n      JUMPI \t\t\treturn products\n      DUP1 \t\t\treturn products\n      PUSH 1F\t\t\treturn products\n      LT \t\t\treturn products\n      PUSH [tag] 47\t\t\treturn products\n      JUMPI \t\t\treturn products\n      PUSH 100\t\t\treturn products\n      DUP1 \t\t\treturn products\n      DUP4 \t\t\treturn products\n      SLOAD \t\t\treturn products\n      DIV \t\t\treturn products\n      MUL \t\t\treturn products\n      DUP4 \t\t\treturn products\n      MSTORE \t\t\treturn products\n      SWAP2 \t\t\treturn products\n      PUSH 20\t\t\treturn products\n      ADD \t\t\treturn products\n      SWAP2 \t\t\treturn products\n      PUSH [tag] 46\t\t\treturn products\n      JUMP \t\t\treturn products\n    tag 47\t\t\treturn products\n      JUMPDEST \t\t\treturn products\n      DUP3 \t\t\treturn products\n      ADD \t\t\treturn products\n      SWAP2 \t\t\treturn products\n      SWAP1 \t\t\treturn products\n      PUSH 0\t\t\treturn products\n      MSTORE \t\t\treturn products\n      PUSH 20\t\t\treturn products\n      PUSH 0\t\t\treturn products\n      KECCAK256 \t\t\treturn products\n      SWAP1 \t\t\treturn products\n    tag 48\t\t\treturn products\n      JUMPDEST \t\t\treturn products\n      DUP2 \t\t\treturn products\n      SLOAD \t\t\treturn products\n      DUP2 \t\t\treturn products\n      MSTORE \t\t\treturn products\n      SWAP1 \t\t\treturn products\n      PUSH 1\t\t\treturn products\n      ADD \t\t\treturn products\n      SWAP1 \t\t\treturn products\n      PUSH 20\t\t\treturn products\n      ADD \t\t\treturn products\n      DUP1 \t\t\treturn products\n      DUP4 \t\t\treturn products\n      GT \t\t\treturn products\n      PUSH [tag] 48\t\t\treturn products\n      JUMPI \t\t\treturn products\n      DUP3 \t\t\treturn products\n      SWAP1 \t\t\treturn products\n      SUB \t\t\treturn products\n      PUSH 1F\t\t\treturn products\n      AND \t\t\treturn products\n      DUP3 \t\t\treturn products\n      ADD \t\t\treturn products\n      SWAP2 \t\t\treturn products\n    tag 46\t\t\treturn products\n      JUMPDEST \t\t\treturn products\n      POP \t\t\treturn products\n      POP \t\t\treturn products\n      POP \t\t\treturn products\n      POP \t\t\treturn products\n      POP \t\t\treturn products\n      DUP2 \t\t\treturn products\n      MSTORE \t\t\treturn products\n      PUSH 20\t\t\treturn products\n      ADD \t\t\treturn products\n      PUSH 4\t\t\treturn products\n      DUP3 \t\t\treturn products\n      ADD \t\t\treturn products\n      DUP1 \t\t\treturn products\n      SLOAD \t\t\treturn products\n      PUSH [tag] 49\t\t\treturn products\n      SWAP1 \t\t\treturn products\n      PUSH [tag] 44\t\t\treturn products\n      JUMP \t\t\treturn products\n    tag 49\t\t\treturn products\n      JUMPDEST \t\t\treturn products\n      DUP1 \t\t\treturn products\n      PUSH 1F\t\t\treturn products\n      ADD \t\t\treturn products\n      PUSH 20\t\t\treturn products\n      DUP1 \t\t\treturn products\n      SWAP2 \t\t\treturn products\n      DIV \t\t\treturn products\n      MUL \t\t\treturn products\n      PUSH 20\t\t\treturn products\n      ADD \t\t\treturn products\n      PUSH 40\t\t\treturn products\n      MLOAD \t\t\treturn products\n      SWAP1 \t\t\treturn products\n      DUP2 \t\t\treturn products\n      ADD \t\t\treturn products\n      PUSH 40\t\t\treturn products\n      MSTORE \t\t\treturn products\n      DUP1 \t\t\treturn products\n      SWAP3 \t\t\treturn products\n      SWAP2 \t\t\treturn products\n      SWAP1 \t\t\treturn products\n      DUP2 \t\t\treturn products\n      DUP2 \t\t\treturn products\n      MSTORE \t\t\treturn products\n      PUSH 20\t\t\treturn products\n      ADD \t\t\treturn products\n      DUP3 \t\t\treturn products\n      DUP1 \t\t\treturn products\n      SLOAD \t\t\treturn products\n      PUSH [tag] 50\t\t\treturn products\n      SWAP1 \t\t\treturn products\n      PUSH [tag] 44\t\t\treturn products\n      JUMP \t\t\treturn products\n    tag 50\t\t\treturn products\n      JUMPDEST \t\t\treturn products\n      DUP1 \t\t\treturn products\n      ISZERO \t\t\treturn products\n      PUSH [tag] 51\t\t\treturn products\n      JUMPI \t\t\treturn products\n      DUP1 \t\t\treturn products\n      PUSH 1F\t\t\treturn products\n      LT \t\t\treturn products\n      PUSH [tag] 52\t\t\treturn products\n      JUMPI \t\t\treturn products\n      PUSH 100\t\t\treturn products\n      DUP1 \t\t\treturn products\n      DUP4 \t\t\treturn products\n      SLOAD \t\t\treturn products\n      DIV \t\t\treturn products\n      MUL \t\t\treturn products\n      DUP4 \t\t\treturn products\n      MSTORE \t\t\treturn products\n      SWAP2 \t\t\treturn products\n      PUSH 20\t\t\treturn products\n      ADD \t\t\treturn products\n      SWAP2 \t\t\treturn products\n      PUSH [tag] 51\t\t\treturn products\n      JUMP \t\t\treturn products\n    tag 52\t\t\treturn products\n      JUMPDEST \t\t\treturn products\n      DUP3 \t\t\treturn products\n      ADD \t\t\treturn products\n      SWAP2 \t\t\treturn products\n      SWAP1 \t\t\treturn products\n      PUSH 0\t\t\treturn products\n      MSTORE \t\t\treturn products\n      PUSH 20\t\t\treturn products\n      PUSH 0\t\t\treturn products\n      KECCAK256 \t\t\treturn products\n      SWAP1 \t\t\treturn products\n    tag 53\t\t\treturn products\n      JUMPDEST \t\t\treturn products\n      DUP2 \t\t\treturn products\n      SLOAD \t\t\treturn products\n      DUP2 \t\t\treturn products\n      MSTORE \t\t\treturn products\n      SWAP1 \t\t\treturn products\n      PUSH 1\t\t\treturn products\n      ADD \t\t\treturn products\n      SWAP1 \t\t\treturn products\n      PUSH 20\t\t\treturn products\n      ADD \t\t\treturn products\n      DUP1 \t\t\treturn products\n      DUP4 \t\t\treturn products\n      GT \t\t\treturn products\n      PUSH [tag] 53\t\t\treturn products\n      JUMPI \t\t\treturn products\n      DUP3 \t\t\treturn products\n      SWAP1 \t\t\treturn products\n      SUB \t\t\treturn products\n      PUSH 1F\t\t\treturn products\n      AND \t\t\treturn products\n      DUP3 \t\t\treturn products\n      ADD \t\t\treturn products\n      SWAP2 \t\t\treturn products\n    tag 51\t\t\treturn products\n      JUMPDEST \t\t\treturn products\n      POP \t\t\treturn products\n      POP \t\t\treturn products\n      POP \t\t\treturn products\n      POP \t\t\treturn products\n      POP \t\t\treturn products\n      DUP2 \t\t\treturn products\n      MSTORE \t\t\treturn products\n      PUSH 20\t\t\treturn products\n      ADD \t\t\treturn products\n      PUSH 5\t\t\treturn products\n      DUP3 \t\t\treturn products\n      ADD \t\t\treturn products\n      DUP1 \t\t\treturn products\n      SLOAD \t\t\treturn products\n      PUSH [tag] 54\t\t\treturn products\n      SWAP1 \t\t\treturn products\n      PUSH [tag] 44\t\t\treturn products\n      JUMP \t\t\treturn products\n    tag 54\t\t\treturn products\n      JUMPDEST \t\t\treturn products\n      DUP1 \t\t\treturn products\n      PUSH 1F\t\t\treturn products\n      ADD \t\t\treturn products\n      PUSH 20\t\t\treturn products\n      DUP1 \t\t\treturn products\n      SWAP2 \t\t\treturn products\n      DIV \t\t\treturn products\n      MUL \t\t\treturn products\n      PUSH 20\t\t\treturn products\n      ADD \t\t\treturn products\n      PUSH 40\t\t\treturn products\n      MLOAD \t\t\treturn products\n      SWAP1 \t\t\treturn products\n      DUP2 \t\t\treturn products\n      ADD \t\t\treturn products\n      PUSH 40\t\t\treturn products\n      MSTORE \t\t\treturn products\n      DUP1 \t\t\treturn products\n      SWAP3 \t\t\treturn products\n      SWAP2 \t\t\treturn products\n      SWAP1 \t\t\treturn products\n      DUP2 \t\t\treturn products\n      DUP2 \t\t\treturn products\n      MSTORE \t\t\treturn products\n      PUSH 20\t\t\treturn products\n      ADD \t\t\treturn products\n      DUP3 \t\t\treturn products\n      DUP1 \t\t\treturn products\n      SLOAD \t\t\treturn products\n      PUSH [tag] 55\t\t\treturn products\n      SWAP1 \t\t\treturn products\n      PUSH [tag] 44\t\t\treturn products\n      JUMP \t\t\treturn products\n    tag 55\t\t\treturn products\n      JUMPDEST \t\t\treturn products\n      DUP1 \t\t\treturn products\n      ISZERO \t\t\treturn products\n      PUSH [tag] 56\t\t\treturn products\n      JUMPI \t\t\treturn products\n      DUP1 \t\t\treturn products\n      PUSH 1F\t\t\treturn products\n      LT \t\t\treturn products\n      PUSH [tag] 57\t\t\treturn products\n      JUMPI \t\t\treturn products\n      PUSH 100\t\t\treturn products\n      DUP1 \t\t\treturn products\n      DUP4 \t\t\treturn products\n      SLOAD \t\t\treturn products\n      DIV \t\t\treturn products\n      MUL \t\t\treturn products\n      DUP4 \t\t\treturn products\n      MSTORE \t\t\treturn products\n      SWAP2 \t\t\treturn products\n      PUSH 20\t\t\treturn products\n      ADD \t\t\treturn products\n      SWAP2 \t\t\treturn products\n      PUSH [tag] 56\t\t\treturn products\n      JUMP \t\t\treturn products\n    tag 57\t\t\treturn products\n      JUMPDEST \t\t\treturn products\n      DUP3 \t\t\treturn products\n      ADD \t\t\treturn products\n      SWAP2 \t\t\treturn products\n      SWAP1 \t\t\treturn products\n      PUSH 0\t\t\treturn products\n      MSTORE \t\t\treturn products\n      PUSH 20\t\t\treturn products\n      PUSH 0\t\t\treturn products\n      KECCAK256 \t\t\treturn products\n      SWAP1 \t\t\treturn products\n    tag 58\t\t\treturn products\n      JUMPDEST \t\t\treturn products\n      DUP2 \t\t\treturn products\n      SLOAD \t\t\treturn products\n      DUP2 \t\t\treturn products\n      MSTORE \t\t\treturn products\n      SWAP1 \t\t\treturn products\n      PUSH 1\t\t\treturn products\n      ADD \t\t\treturn products\n      SWAP1 \t\t\treturn products\n      PUSH 20\t\t\treturn products\n      ADD \t\t\treturn products\n      DUP1 \t\t\treturn products\n      DUP4 \t\t\treturn products\n      GT \t\t\treturn products\n      PUSH [tag] 58\t\t\treturn products\n      JUMPI \t\t\treturn products\n      DUP3 \t\t\treturn products\n      SWAP1 \t\t\treturn products\n      SUB \t\t\treturn products\n      PUSH 1F\t\t\treturn products\n      AND \t\t\treturn products\n      DUP3 \t\t\treturn products\n      ADD \t\t\treturn products\n      SWAP2 \t\t\treturn products\n    tag 56\t\t\treturn products\n      JUMPDEST \t\t\treturn products\n      POP \t\t\treturn products\n      POP \t\t\treturn products\n      POP \t\t\treturn products\n      POP \t\t\treturn products\n      POP \t\t\treturn products\n      DUP2 \t\t\treturn products\n      MSTORE \t\t\treturn products\n      PUSH 20\t\t\treturn products\n      ADD \t\t\treturn products\n      PUSH 6\t\t\treturn products\n      DUP3 \t\t\treturn products\n      ADD \t\t\treturn products\n      SLOAD \t\t\treturn products\n      DUP2 \t\t\treturn products\n      MSTORE \t\t\treturn products\n      PUSH 20\t\t\treturn products\n      ADD \t\t\treturn products\n      PUSH 7\t\t\treturn products\n      DUP3 \t\t\treturn products\n      ADD \t\t\treturn products\n      PUSH 0\t\t\treturn products\n      SWAP1 \t\t\treturn products\n      SLOAD \t\t\treturn products\n      SWAP1 \t\t\treturn products\n      PUSH 100\t\t\treturn products\n      EXP \t\t\treturn products\n      SWAP1 \t\t\treturn products\n      DIV \t\t\treturn products\n      PUSH FF\t\t\treturn products\n      AND \t\t\treturn products\n      ISZERO \t\t\treturn products\n      ISZERO \t\t\treturn products\n      ISZERO \t\t\treturn products\n      ISZERO \t\t\treturn products\n      DUP2 \t\t\treturn products\n      MSTORE \t\t\treturn products\n      POP \t\t\treturn products\n      POP \t\t\treturn products\n      DUP2 \t\t\treturn products\n      MSTORE \t\t\treturn products\n      PUSH 20\t\t\treturn products\n      ADD \t\t\treturn products\n      SWAP1 \t\t\treturn products\n      PUSH 1\t\t\treturn products\n      ADD \t\t\treturn products\n      SWAP1 \t\t\treturn products\n      PUSH [tag] 40\t\t\treturn products\n      JUMP \t\t\treturn products\n    tag 41\t\t\treturn products\n      JUMPDEST \t\t\treturn products\n      POP \t\t\treturn products\n      POP \t\t\treturn products\n      POP \t\t\treturn products\n      POP \t\t\treturn products\n      SWAP1 \t\t\treturn products\n      POP \t\t\treturn products\n      SWAP1 \t\t\tfunction getAllProducts() exte...\n      JUMP \t\t\tfunction getAllProducts() exte...\n    tag 17\t\t\tfunction getProductById(uint _...\n      JUMPDEST \t\t\tfunction getProductById(uint _...\n      PUSH [tag] 59\t\t\tProduct memory\n      PUSH [tag] 60\t\t\tProduct memory\n      JUMP \t\t\tProduct memory\n    tag 59\t\t\tProduct memory\n      JUMPDEST \t\t\tProduct memory\n      PUSH 1\t\t\tproductCount\n      SLOAD \t\t\tproductCount\n      DUP3 \t\t\t_id\n      LT \t\t\t_id < productCount\n      PUSH [tag] 62\t\t\trequire(_id < productCount, \"P...\n      JUMPI \t\t\trequire(_id < productCount, \"P...\n      PUSH 40\t\t\trequire(_id < productCount, \"P...\n      MLOAD \t\t\trequire(_id < productCount, \"P...\n      PUSH 8C379A000000000000000000000000000000000000000000000000000000000\t\t\trequire(_id < productCount, \"P...\n      DUP2 \t\t\trequire(_id < productCount, \"P...\n      MSTORE \t\t\trequire(_id < productCount, \"P...\n      PUSH 4\t\t\trequire(_id < productCount, \"P...\n      ADD \t\t\trequire(_id < productCount, \"P...\n      PUSH [tag] 63\t\t\trequire(_id < productCount, \"P...\n      SWAP1 \t\t\trequire(_id < productCount, \"P...\n      PUSH [tag] 64\t\t\trequire(_id < productCount, \"P...\n      JUMP \t\t\trequire(_id < productCount, \"P...\n    tag 63\t\t\trequire(_id < productCount, \"P...\n      JUMPDEST \t\t\trequire(_id < productCount, \"P...\n      PUSH 40\t\t\trequire(_id < productCount, \"P...\n      MLOAD \t\t\trequire(_id < productCount, \"P...\n      DUP1 \t\t\trequire(_id < productCount, \"P...\n      SWAP2 \t\t\trequire(_id < productCount, \"P...\n      SUB \t\t\trequire(_id < productCount, \"P...\n      SWAP1 \t\t\trequire(_id < productCount, \"P...\n      REVERT \t\t\trequire(_id < productCount, \"P...\n    tag 62\t\t\trequire(_id < productCount, \"P...\n      JUMPDEST \t\t\trequire(_id < productCount, \"P...\n      PUSH 0\t\t\tproducts\n      DUP3 \t\t\t_id\n      DUP2 \t\t\tproducts[_id]\n      SLOAD \t\t\tproducts[_id]\n      DUP2 \t\t\tproducts[_id]\n      LT \t\t\tproducts[_id]\n      PUSH [tag] 65\t\t\tproducts[_id]\n      JUMPI \t\t\tproducts[_id]\n      PUSH [tag] 66\t\t\tproducts[_id]\n      PUSH [tag] 67\t\t\tproducts[_id]\n      JUMP \t\t\tproducts[_id]\n    tag 66\t\t\tproducts[_id]\n      JUMPDEST \t\t\tproducts[_id]\n    tag 65\t\t\tproducts[_id]\n      JUMPDEST \t\t\tproducts[_id]\n      SWAP1 \t\t\tproducts[_id]\n      PUSH 0\t\t\tproducts[_id]\n      MSTORE \t\t\tproducts[_id]\n      PUSH 20\t\t\tproducts[_id]\n      PUSH 0\t\t\tproducts[_id]\n      KECCAK256 \t\t\tproducts[_id]\n      SWAP1 \t\t\tproducts[_id]\n      PUSH 8\t\t\tproducts[_id]\n      MUL \t\t\tproducts[_id]\n      ADD \t\t\tproducts[_id]\n      PUSH 40\t\t\treturn products[_id]\n      MLOAD \t\t\treturn products[_id]\n      DUP1 \t\t\treturn products[_id]\n      PUSH 100\t\t\treturn products[_id]\n      ADD \t\t\treturn products[_id]\n      PUSH 40\t\t\treturn products[_id]\n      MSTORE \t\t\treturn products[_id]\n      SWAP1 \t\t\treturn products[_id]\n      DUP2 \t\t\treturn products[_id]\n      PUSH 0\t\t\treturn products[_id]\n      DUP3 \t\t\treturn products[_id]\n      ADD \t\t\treturn products[_id]\n      SLOAD \t\t\treturn products[_id]\n      DUP2 \t\t\treturn products[_id]\n      MSTORE \t\t\treturn products[_id]\n      PUSH 20\t\t\treturn products[_id]\n      ADD \t\t\treturn products[_id]\n      PUSH 1\t\t\treturn products[_id]\n      DUP3 \t\t\treturn products[_id]\n      ADD \t\t\treturn products[_id]\n      PUSH 0\t\t\treturn products[_id]\n      SWAP1 \t\t\treturn products[_id]\n      SLOAD \t\t\treturn products[_id]\n      SWAP1 \t\t\treturn products[_id]\n      PUSH 100\t\t\treturn products[_id]\n      EXP \t\t\treturn products[_id]\n      SWAP1 \t\t\treturn products[_id]\n      DIV \t\t\treturn products[_id]\n      PUSH FFFFFFFFFFFFFFFFFFFFFFFFFFFFFFFFFFFFFFFF\t\t\treturn products[_id]\n      AND \t\t\treturn products[_id]\n      PUSH FFFFFFFFFFFFFFFFFFFFFFFFFFFFFFFFFFFFFFFF\t\t\treturn products[_id]\n      AND \t\t\treturn products[_id]\n      PUSH FFFFFFFFFFFFFFFFFFFFFFFFFFFFFFFFFFFFFFFF\t\t\treturn products[_id]\n      AND \t\t\treturn products[_id]\n      DUP2 \t\t\treturn products[_id]\n      MSTORE \t\t\treturn products[_id]\n      PUSH 20\t\t\treturn products[_id]\n      ADD \t\t\treturn products[_id]\n      PUSH 2\t\t\treturn products[_id]\n      DUP3 \t\t\treturn products[_id]\n      ADD \t\t\treturn products[_id]\n      PUSH 0\t\t\treturn products[_id]\n      SWAP1 \t\t\treturn products[_id]\n      SLOAD \t\t\treturn products[_id]\n      SWAP1 \t\t\treturn products[_id]\n      PUSH 100\t\t\treturn products[_id]\n      EXP \t\t\treturn products[_id]\n      SWAP1 \t\t\treturn products[_id]\n      DIV \t\t\treturn products[_id]\n      PUSH FFFFFFFFFFFFFFFFFFFFFFFFFFFFFFFFFFFFFFFF\t\t\treturn products[_id]\n      AND \t\t\treturn products[_id]\n      PUSH FFFFFFFFFFFFFFFFFFFFFFFFFFFFFFFFFFFFFFFF\t\t\treturn products[_id]\n      AND \t\t\treturn products[_id]\n      PUSH FFFFFFFFFFFFFFFFFFFFFFFFFFFFFFFFFFFFFFFF\t\t\treturn products[_id]\n      AND \t\t\treturn products[_id]\n      DUP2 \t\t\treturn products[_id]\n      MSTORE \t\t\treturn products[_id]\n      PUSH 20\t\t\treturn products[_id]\n      ADD \t\t\treturn products[_id]\n      PUSH 3\t\t\treturn products[_id]\n      DUP3 \t\t\treturn products[_id]\n      ADD \t\t\treturn products[_id]\n      DUP1 \t\t\treturn products[_id]\n      SLOAD \t\t\treturn products[_id]\n      PUSH [tag] 69\t\t\treturn products[_id]\n      SWAP1 \t\t\treturn products[_id]\n      PUSH [tag] 44\t\t\treturn products[_id]\n      JUMP \t\t\treturn products[_id]\n    tag 69\t\t\treturn products[_id]\n      JUMPDEST \t\t\treturn products[_id]\n      DUP1 \t\t\treturn products[_id]\n      PUSH 1F\t\t\treturn products[_id]\n      ADD \t\t\treturn products[_id]\n      PUSH 20\t\t\treturn products[_id]\n      DUP1 \t\t\treturn products[_id]\n      SWAP2 \t\t\treturn products[_id]\n      DIV \t\t\treturn products[_id]\n      MUL \t\t\treturn products[_id]\n      PUSH 20\t\t\treturn products[_id]\n      ADD \t\t\treturn products[_id]\n      PUSH 40\t\t\treturn products[_id]\n      MLOAD \t\t\treturn products[_id]\n      SWAP1 \t\t\treturn products[_id]\n      DUP2 \t\t\treturn products[_id]\n      ADD \t\t\treturn products[_id]\n      PUSH 40\t\t\treturn products[_id]\n      MSTORE \t\t\treturn products[_id]\n      DUP1 \t\t\treturn products[_id]\n      SWAP3 \t\t\treturn products[_id]\n      SWAP2 \t\t\treturn products[_id]\n      SWAP1 \t\t\treturn products[_id]\n      DUP2 \t\t\treturn products[_id]\n      DUP2 \t\t\treturn products[_id]\n      MSTORE \t\t\treturn products[_id]\n      PUSH 20\t\t\treturn products[_id]\n      ADD \t\t\treturn products[_id]\n      DUP3 \t\t\treturn products[_id]\n      DUP1 \t\t\treturn products[_id]\n      SLOAD \t\t\treturn products[_id]\n      PUSH [tag] 70\t\t\treturn products[_id]\n      SWAP1 \t\t\treturn products[_id]\n      PUSH [tag] 44\t\t\treturn products[_id]\n      JUMP \t\t\treturn products[_id]\n    tag 70\t\t\treturn products[_id]\n      JUMPDEST \t\t\treturn products[_id]\n      DUP1 \t\t\treturn products[_id]\n      ISZERO \t\t\treturn products[_id]\n      PUSH [tag] 71\t\t\treturn products[_id]\n      JUMPI \t\t\treturn products[_id]\n      DUP1 \t\t\treturn products[_id]\n      PUSH 1F\t\t\treturn products[_id]\n      LT \t\t\treturn products[_id]\n      PUSH [tag] 72\t\t\treturn products[_id]\n      JUMPI \t\t\treturn products[_id]\n      PUSH 100\t\t\treturn products[_id]\n      DUP1 \t\t\treturn products[_id]\n      DUP4 \t\t\treturn products[_id]\n      SLOAD \t\t\treturn products[_id]\n      DIV \t\t\treturn products[_id]\n      MUL \t\t\treturn products[_id]\n      DUP4 \t\t\treturn products[_id]\n      MSTORE \t\t\treturn products[_id]\n      SWAP2 \t\t\treturn products[_id]\n      PUSH 20\t\t\treturn products[_id]\n      ADD \t\t\treturn products[_id]\n      SWAP2 \t\t\treturn products[_id]\n      PUSH [tag] 71\t\t\treturn products[_id]\n      JUMP \t\t\treturn products[_id]\n    tag 72\t\t\treturn products[_id]\n      JUMPDEST \t\t\treturn products[_id]\n      DUP3 \t\t\treturn products[_id]\n      ADD \t\t\treturn products[_id]\n      SWAP2 \t\t\treturn products[_id]\n      SWAP1 \t\t\treturn products[_id]\n      PUSH 0\t\t\treturn products[_id]\n      MSTORE \t\t\treturn products[_id]\n      PUSH 20\t\t\treturn products[_id]\n      PUSH 0\t\t\treturn products[_id]\n      KECCAK256 \t\t\treturn products[_id]\n      SWAP1 \t\t\treturn products[_id]\n    tag 73\t\t\treturn products[_id]\n      JUMPDEST \t\t\treturn products[_id]\n      DUP2 \t\t\treturn products[_id]\n      SLOAD \t\t\treturn products[_id]\n      DUP2 \t\t\treturn products[_id]\n      MSTORE \t\t\treturn products[_id]\n      SWAP1 \t\t\treturn products[_id]\n      PUSH 1\t\t\treturn products[_id]\n      ADD \t\t\treturn products[_id]\n      SWAP1 \t\t\treturn products[_id]\n      PUSH 20\t\t\treturn products[_id]\n      ADD \t\t\treturn products[_id]\n      DUP1 \t\t\treturn products[_id]\n      DUP4 \t\t\treturn products[_id]\n      GT \t\t\treturn products[_id]\n      PUSH [tag] 73\t\t\treturn products[_id]\n      JUMPI \t\t\treturn products[_id]\n      DUP3 \t\t\treturn products[_id]\n      SWAP1 \t\t\treturn products[_id]\n      SUB \t\t\treturn products[_id]\n      PUSH 1F\t\t\treturn products[_id]\n      AND \t\t\treturn products[_id]\n      DUP3 \t\t\treturn products[_id]\n      ADD \t\t\treturn products[_id]\n      SWAP2 \t\t\treturn products[_id]\n    tag 71\t\t\treturn products[_id]\n      JUMPDEST \t\t\treturn products[_id]\n      POP \t\t\treturn products[_id]\n      POP \t\t\treturn products[_id]\n      POP \t\t\treturn products[_id]\n      POP \t\t\treturn products[_id]\n      POP \t\t\treturn products[_id]\n      DUP2 \t\t\treturn products[_id]\n      MSTORE \t\t\treturn products[_id]\n      PUSH 20\t\t\treturn products[_id]\n      ADD \t\t\treturn products[_id]\n      PUSH 4\t\t\treturn products[_id]\n      DUP3 \t\t\treturn products[_id]\n      ADD \t\t\treturn products[_id]\n      DUP1 \t\t\treturn products[_id]\n      SLOAD \t\t\treturn products[_id]\n      PUSH [tag] 74\t\t\treturn products[_id]\n      SWAP1 \t\t\treturn products[_id]\n      PUSH [tag] 44\t\t\treturn products[_id]\n      JUMP \t\t\treturn products[_id]\n    tag 74\t\t\treturn products[_id]\n      JUMPDEST \t\t\treturn products[_id]\n      DUP1 \t\t\treturn products[_id]\n      PUSH 1F\t\t\treturn products[_id]\n      ADD \t\t\treturn products[_id]\n      PUSH 20\t\t\treturn products[_id]\n      DUP1 \t\t\treturn products[_id]\n      SWAP2 \t\t\treturn products[_id]\n      DIV \t\t\treturn products[_id]\n      MUL \t\t\treturn products[_id]\n      PUSH 20\t\t\treturn products[_id]\n      ADD \t\t\treturn products[_id]\n      PUSH 40\t\t\treturn products[_id]\n      MLOAD \t\t\treturn products[_id]\n      SWAP1 \t\t\treturn products[_id]\n      DUP2 \t\t\treturn products[_id]\n      ADD \t\t\treturn products[_id]\n      PUSH 40\t\t\treturn products[_id]\n      MSTORE \t\t\treturn products[_id]\n      DUP1 \t\t\treturn products[_id]\n      SWAP3 \t\t\treturn products[_id]\n      SWAP2 \t\t\treturn products[_id]\n      SWAP1 \t\t\treturn products[_id]\n      DUP2 \t\t\treturn products[_id]\n      DUP2 \t\t\treturn products[_id]\n      MSTORE \t\t\treturn products[_id]\n      PUSH 20\t\t\treturn products[_id]\n      ADD \t\t\treturn products[_id]\n      DUP3 \t\t\treturn products[_id]\n      DUP1 \t\t\treturn products[_id]\n      SLOAD \t\t\treturn products[_id]\n      PUSH [tag] 75\t\t\treturn products[_id]\n      SWAP1 \t\t\treturn products[_id]\n      PUSH [tag] 44\t\t\treturn products[_id]\n      JUMP \t\t\treturn products[_id]\n    tag 75\t\t\treturn products[_id]\n      JUMPDEST \t\t\treturn products[_id]\n      DUP1 \t\t\treturn products[_id]\n      ISZERO \t\t\treturn products[_id]\n      PUSH [tag] 76\t\t\treturn products[_id]\n      JUMPI \t\t\treturn products[_id]\n      DUP1 \t\t\treturn products[_id]\n      PUSH 1F\t\t\treturn products[_id]\n      LT \t\t\treturn products[_id]\n      PUSH [tag] 77\t\t\treturn products[_id]\n      JUMPI \t\t\treturn products[_id]\n      PUSH 100\t\t\treturn products[_id]\n      DUP1 \t\t\treturn products[_id]\n      DUP4 \t\t\treturn products[_id]\n      SLOAD \t\t\treturn products[_id]\n      DIV \t\t\treturn products[_id]\n      MUL \t\t\treturn products[_id]\n      DUP4 \t\t\treturn products[_id]\n      MSTORE \t\t\treturn products[_id]\n      SWAP2 \t\t\treturn products[_id]\n      PUSH 20\t\t\treturn products[_id]\n      ADD \t\t\treturn products[_id]\n      SWAP2 \t\t\treturn products[_id]\n      PUSH [tag] 76\t\t\treturn products[_id]\n      JUMP \t\t\treturn products[_id]\n    tag 77\t\t\treturn products[_id]\n      JUMPDEST \t\t\treturn products[_id]\n      DUP3 \t\t\treturn products[_id]\n      ADD \t\t\treturn products[_id]\n      SWAP2 \t\t\treturn products[_id]\n      SWAP1 \t\t\treturn products[_id]\n      PUSH 0\t\t\treturn products[_id]\n      MSTORE \t\t\treturn products[_id]\n      PUSH 20\t\t\treturn products[_id]\n      PUSH 0\t\t\treturn products[_id]\n      KECCAK256 \t\t\treturn products[_id]\n      SWAP1 \t\t\treturn products[_id]\n    tag 78\t\t\treturn products[_id]\n      JUMPDEST \t\t\treturn products[_id]\n      DUP2 \t\t\treturn products[_id]\n      SLOAD \t\t\treturn products[_id]\n      DUP2 \t\t\treturn products[_id]\n      MSTORE \t\t\treturn products[_id]\n      SWAP1 \t\t\treturn products[_id]\n      PUSH 1\t\t\treturn products[_id]\n      ADD \t\t\treturn products[_id]\n      SWAP1 \t\t\treturn products[_id]\n      PUSH 20\t\t\treturn products[_id]\n      ADD \t\t\treturn products[_id]\n      DUP1 \t\t\treturn products[_id]\n      DUP4 \t\t\treturn products[_id]\n      GT \t\t\treturn products[_id]\n      PUSH [tag] 78\t\t\treturn products[_id]\n      JUMPI \t\t\treturn products[_id]\n      DUP3 \t\t\treturn products[_id]\n      SWAP1 \t\t\treturn products[_id]\n      SUB \t\t\treturn products[_id]\n      PUSH 1F\t\t\treturn products[_id]\n      AND \t\t\treturn products[_id]\n      DUP3 \t\t\treturn products[_id]\n      ADD \t\t\treturn products[_id]\n      SWAP2 \t\t\treturn products[_id]\n    tag 76\t\t\treturn products[_id]\n      JUMPDEST \t\t\treturn products[_id]\n      POP \t\t\treturn products[_id]\n      POP \t\t\treturn products[_id]\n      POP \t\t\treturn products[_id]\n      POP \t\t\treturn products[_id]\n      POP \t\t\treturn products[_id]\n      DUP2 \t\t\treturn products[_id]\n      MSTORE \t\t\treturn products[_id]\n      PUSH 20\t\t\treturn products[_id]\n      ADD \t\t\treturn products[_id]\n      PUSH 5\t\t\treturn products[_id]\n      DUP3 \t\t\treturn products[_id]\n      ADD \t\t\treturn products[_id]\n      DUP1 \t\t\treturn products[_id]\n      SLOAD \t\t\treturn products[_id]\n      PUSH [tag] 79\t\t\treturn products[_id]\n      SWAP1 \t\t\treturn products[_id]\n      PUSH [tag] 44\t\t\treturn products[_id]\n      JUMP \t\t\treturn products[_id]\n    tag 79\t\t\treturn products[_id]\n      JUMPDEST \t\t\treturn products[_id]\n      DUP1 \t\t\treturn products[_id]\n      PUSH 1F\t\t\treturn products[_id]\n      ADD \t\t\treturn products[_id]\n      PUSH 20\t\t\treturn products[_id]\n      DUP1 \t\t\treturn products[_id]\n      SWAP2 \t\t\treturn products[_id]\n      DIV \t\t\treturn products[_id]\n      MUL \t\t\treturn products[_id]\n      PUSH 20\t\t\treturn products[_id]\n      ADD \t\t\treturn products[_id]\n      PUSH 40\t\t\treturn products[_id]\n      MLOAD \t\t\treturn products[_id]\n      SWAP1 \t\t\treturn products[_id]\n      DUP2 \t\t\treturn products[_id]\n      ADD \t\t\treturn products[_id]\n      PUSH 40\t\t\treturn products[_id]\n      MSTORE \t\t\treturn products[_id]\n      DUP1 \t\t\treturn products[_id]\n      SWAP3 \t\t\treturn products[_id]\n      SWAP2 \t\t\treturn products[_id]\n      SWAP1 \t\t\treturn products[_id]\n      DUP2 \t\t\treturn products[_id]\n      DUP2 \t\t\treturn products[_id]\n      MSTORE \t\t\treturn products[_id]\n      PUSH 20\t\t\treturn products[_id]\n      ADD \t\t\treturn products[_id]\n      DUP3 \t\t\treturn products[_id]\n      DUP1 \t\t\treturn products[_id]\n      SLOAD \t\t\treturn products[_id]\n      PUSH [tag] 80\t\t\treturn products[_id]\n      SWAP1 \t\t\treturn products[_id]\n      PUSH [tag] 44\t\t\treturn products[_id]\n      JUMP \t\t\treturn products[_id]\n    tag 80\t\t\treturn products[_id]\n      JUMPDEST \t\t\treturn products[_id]\n      DUP1 \t\t\treturn products[_id]\n      ISZERO \t\t\treturn products[_id]\n      PUSH [tag] 81\t\t\treturn products[_id]\n      JUMPI \t\t\treturn products[_id]\n      DUP1 \t\t\treturn products[_id]\n      PUSH 1F\t\t\treturn products[_id]\n      LT \t\t\treturn products[_id]\n      PUSH [tag] 82\t\t\treturn products[_id]\n      JUMPI \t\t\treturn products[_id]\n      PUSH 100\t\t\treturn products[_id]\n      DUP1 \t\t\treturn products[_id]\n      DUP4 \t\t\treturn products[_id]\n      SLOAD \t\t\treturn products[_id]\n      DIV \t\t\treturn products[_id]\n      MUL \t\t\treturn products[_id]\n      DUP4 \t\t\treturn products[_id]\n      MSTORE \t\t\treturn products[_id]\n      SWAP2 \t\t\treturn products[_id]\n      PUSH 20\t\t\treturn products[_id]\n      ADD \t\t\treturn products[_id]\n      SWAP2 \t\t\treturn products[_id]\n      PUSH [tag] 81\t\t\treturn products[_id]\n      JUMP \t\t\treturn products[_id]\n    tag 82\t\t\treturn products[_id]\n      JUMPDEST \t\t\treturn products[_id]\n      DUP3 \t\t\treturn products[_id]\n      ADD \t\t\treturn products[_id]\n      SWAP2 \t\t\treturn products[_id]\n      SWAP1 \t\t\treturn products[_id]\n      PUSH 0\t\t\treturn products[_id]\n      MSTORE \t\t\treturn products[_id]\n      PUSH 20\t\t\treturn products[_id]\n      PUSH 0\t\t\treturn products[_id]\n      KECCAK256 \t\t\treturn products[_id]\n      SWAP1 \t\t\treturn products[_id]\n    tag 83\t\t\treturn products[_id]\n      JUMPDEST \t\t\treturn products[_id]\n      DUP2 \t\t\treturn products[_id]\n      SLOAD \t\t\treturn products[_id]\n      DUP2 \t\t\treturn products[_id]\n      MSTORE \t\t\treturn products[_id]\n      SWAP1 \t\t\treturn products[_id]\n      PUSH 1\t\t\treturn products[_id]\n      ADD \t\t\treturn products[_id]\n      SWAP1 \t\t\treturn products[_id]\n      PUSH 20\t\t\treturn products[_id]\n      ADD \t\t\treturn products[_id]\n      DUP1 \t\t\treturn products[_id]\n      DUP4 \t\t\treturn products[_id]\n      GT \t\t\treturn products[_id]\n      PUSH [tag] 83\t\t\treturn products[_id]\n      JUMPI \t\t\treturn products[_id]\n      DUP3 \t\t\treturn products[_id]\n      SWAP1 \t\t\treturn products[_id]\n      SUB \t\t\treturn products[_id]\n      PUSH 1F\t\t\treturn products[_id]\n      AND \t\t\treturn products[_id]\n      DUP3 \t\t\treturn products[_id]\n      ADD \t\t\treturn products[_id]\n      SWAP2 \t\t\treturn products[_id]\n    tag 81\t\t\treturn products[_id]\n      JUMPDEST \t\t\treturn products[_id]\n      POP \t\t\treturn products[_id]\n      POP \t\t\treturn products[_id]\n      POP \t\t\treturn products[_id]\n      POP \t\t\treturn products[_id]\n      POP \t\t\treturn products[_id]\n      DUP2 \t\t\treturn products[_id]\n      MSTORE \t\t\treturn products[_id]\n      PUSH 20\t\t\treturn products[_id]\n      ADD \t\t\treturn products[_id]\n      PUSH 6\t\t\treturn products[_id]\n      DUP3 \t\t\treturn products[_id]\n      ADD \t\t\treturn products[_id]\n      SLOAD \t\t\treturn products[_id]\n      DUP2 \t\t\treturn products[_id]\n      MSTORE \t\t\treturn products[_id]\n      PUSH 20\t\t\treturn products[_id]\n      ADD \t\t\treturn products[_id]\n      PUSH 7\t\t\treturn products[_id]\n      DUP3 \t\t\treturn products[_id]\n      ADD \t\t\treturn products[_id]\n      PUSH 0\t\t\treturn products[_id]\n      SWAP1 \t\t\treturn products[_id]\n      SLOAD \t\t\treturn products[_id]\n      SWAP1 \t\t\treturn products[_id]\n      PUSH 100\t\t\treturn products[_id]\n      EXP \t\t\treturn products[_id]\n      SWAP1 \t\t\treturn products[_id]\n      DIV \t\t\treturn products[_id]\n      PUSH FF\t\t\treturn products[_id]\n      AND \t\t\treturn products[_id]\n      ISZERO \t\t\treturn products[_id]\n      ISZERO \t\t\treturn products[_id]\n      ISZERO \t\t\treturn products[_id]\n      ISZERO \t\t\treturn products[_id]\n      DUP2 \t\t\treturn products[_id]\n      MSTORE \t\t\treturn products[_id]\n      POP \t\t\treturn products[_id]\n      POP \t\t\treturn products[_id]\n      SWAP1 \t\t\treturn products[_id]\n      POP \t\t\treturn products[_id]\n      SWAP2 \t\t\tfunction getProductById(uint _...\n      SWAP1 \t\t\tfunction getProductById(uint _...\n      POP \t\t\tfunction getProductById(uint _...\n      JUMP \t\t\tfunction getProductById(uint _...\n    tag 24\t\t\tfunction listAllProducts(strin...\n      JUMPDEST \t\t\tfunction listAllProducts(strin...\n      PUSH 0\t\t\t0\n      DUP2 \t\t\t_price\n      GT \t\t\t_price > 0\n      PUSH [tag] 85\t\t\trequire(_price > 0, \"Price mus...\n      JUMPI \t\t\trequire(_price > 0, \"Price mus...\n      PUSH 40\t\t\trequire(_price > 0, \"Price mus...\n      MLOAD \t\t\trequire(_price > 0, \"Price mus...\n      PUSH 8C379A000000000000000000000000000000000000000000000000000000000\t\t\trequire(_price > 0, \"Price mus...\n      DUP2 \t\t\trequire(_price > 0, \"Price mus...\n      MSTORE \t\t\trequire(_price > 0, \"Price mus...\n      PUSH 4\t\t\trequire(_price > 0, \"Price mus...\n      ADD \t\t\trequire(_price > 0, \"Price mus...\n      PUSH [tag] 86\t\t\trequire(_price > 0, \"Price mus...\n      SWAP1 \t\t\trequire(_price > 0, \"Price mus...\n      PUSH [tag] 87\t\t\trequire(_price > 0, \"Price mus...\n      JUMP \t\t\trequire(_price > 0, \"Price mus...\n    tag 86\t\t\trequire(_price > 0, \"Price mus...\n      JUMPDEST \t\t\trequire(_price > 0, \"Price mus...\n      PUSH 40\t\t\trequire(_price > 0, \"Price mus...\n      MLOAD \t\t\trequire(_price > 0, \"Price mus...\n      DUP1 \t\t\trequire(_price > 0, \"Price mus...\n      SWAP2 \t\t\trequire(_price > 0, \"Price mus...\n      SUB \t\t\trequire(_price > 0, \"Price mus...\n      SWAP1 \t\t\trequire(_price > 0, \"Price mus...\n      REVERT \t\t\trequire(_price > 0, \"Price mus...\n    tag 85\t\t\trequire(_price > 0, \"Price mus...\n      JUMPDEST \t\t\trequire(_price > 0, \"Price mus...\n      PUSH 0\t\t\tproducts\n      PUSH 40\t\t\tProduct({\\r\\n            id: p...\n      MLOAD \t\t\tProduct({\\r\\n            id: p...\n      DUP1 \t\t\tProduct({\\r\\n            id: p...\n      PUSH 100\t\t\tProduct({\\r\\n            id: p...\n      ADD \t\t\tProduct({\\r\\n            id: p...\n      PUSH 40\t\t\tProduct({\\r\\n            id: p...\n      MSTORE \t\t\tProduct({\\r\\n            id: p...\n      DUP1 \t\t\tProduct({\\r\\n            id: p...\n      PUSH 1\t\t\tproductCount\n      SLOAD \t\t\tproductCount\n      DUP2 \t\t\tProduct({\\r\\n            id: p...\n      MSTORE \t\t\tProduct({\\r\\n            id: p...\n      PUSH 20\t\t\tProduct({\\r\\n            id: p...\n      ADD \t\t\tProduct({\\r\\n            id: p...\n      CALLER \t\t\tmsg.sender\n      PUSH FFFFFFFFFFFFFFFFFFFFFFFFFFFFFFFFFFFFFFFF\t\t\tProduct({\\r\\n            id: p...\n      AND \t\t\tProduct({\\r\\n            id: p...\n      DUP2 \t\t\tProduct({\\r\\n            id: p...\n      MSTORE \t\t\tProduct({\\r\\n            id: p...\n      PUSH 20\t\t\tProduct({\\r\\n            id: p...\n      ADD \t\t\tProduct({\\r\\n            id: p...\n      CALLER \t\t\tmsg.sender\n      PUSH FFFFFFFFFFFFFFFFFFFFFFFFFFFFFFFFFFFFFFFF\t\t\tProduct({\\r\\n            id: p...\n      AND \t\t\tProduct({\\r\\n            id: p...\n      DUP2 \t\t\tProduct({\\r\\n            id: p...\n      MSTORE \t\t\tProduct({\\r\\n            id: p...\n      PUSH 20\t\t\tProduct({\\r\\n            id: p...\n      ADD \t\t\tProduct({\\r\\n            id: p...\n      DUP7 \t\t\t_title\n      DUP2 \t\t\tProduct({\\r\\n            id: p...\n      MSTORE \t\t\tProduct({\\r\\n            id: p...\n      PUSH 20\t\t\tProduct({\\r\\n            id: p...\n      ADD \t\t\tProduct({\\r\\n            id: p...\n      DUP6 \t\t\t_description\n      DUP2 \t\t\tProduct({\\r\\n            id: p...\n      MSTORE \t\t\tProduct({\\r\\n            id: p...\n      PUSH 20\t\t\tProduct({\\r\\n            id: p...\n      ADD \t\t\tProduct({\\r\\n            id: p...\n      DUP5 \t\t\t_imageHash\n      DUP2 \t\t\tProduct({\\r\\n            id: p...\n      MSTORE \t\t\tProduct({\\r\\n            id: p...\n      PUSH 20\t\t\tProduct({\\r\\n            id: p...\n      ADD \t\t\tProduct({\\r\\n            id: p...\n      DUP4 \t\t\t_price\n      DUP2 \t\t\tProduct({\\r\\n            id: p...\n      MSTORE \t\t\tProduct({\\r\\n            id: p...\n      PUSH 20\t\t\tProduct({\\r\\n            id: p...\n      ADD \t\t\tProduct({\\r\\n            id: p...\n      PUSH 0\t\t\tfalse\n      ISZERO \t\t\tProduct({\\r\\n            id: p...\n      ISZERO \t\t\tProduct({\\r\\n            id: p...\n      DUP2 \t\t\tProduct({\\r\\n            id: p...\n      MSTORE \t\t\tProduct({\\r\\n            id: p...\n      POP \t\t\tProduct({\\r\\n            id: p...\n      SWAP1 \t\t\tproducts.push(Product({\\r\\n   ...\n      DUP1 \t\t\tproducts.push(Product({\\r\\n   ...\n      PUSH 1\t\t\tproducts.push(Product({\\r\\n   ...\n      DUP2 \t\t\tproducts.push(Product({\\r\\n   ...\n      SLOAD \t\t\tproducts.push(Product({\\r\\n   ...\n      ADD \t\t\tproducts.push(Product({\\r\\n   ...\n      DUP1 \t\t\tproducts.push(Product({\\r\\n   ...\n      DUP3 \t\t\tproducts.push(Product({\\r\\n   ...\n      SSTORE \t\t\tproducts.push(Product({\\r\\n   ...\n      DUP1 \t\t\tproducts.push(Product({\\r\\n   ...\n      SWAP2 \t\t\tproducts.push(Product({\\r\\n   ...\n      POP \t\t\tproducts.push(Product({\\r\\n   ...\n      POP \t\t\tproducts.push(Product({\\r\\n   ...\n      PUSH 1\t\t\tproducts.push(Product({\\r\\n   ...\n      SWAP1 \t\t\tproducts.push(Product({\\r\\n   ...\n      SUB \t\t\tproducts.push(Product({\\r\\n   ...\n      SWAP1 \t\t\tproducts.push(Product({\\r\\n   ...\n      PUSH 0\t\t\tproducts.push(Product({\\r\\n   ...\n      MSTORE \t\t\tproducts.push(Product({\\r\\n   ...\n      PUSH 20\t\t\tproducts.push(Product({\\r\\n   ...\n      PUSH 0\t\t\tproducts.push(Product({\\r\\n   ...\n      KECCAK256 \t\t\tproducts.push(Product({\\r\\n   ...\n      SWAP1 \t\t\tproducts.push(Product({\\r\\n   ...\n      PUSH 8\t\t\tproducts.push(Product({\\r\\n   ...\n      MUL \t\t\tproducts.push(Product({\\r\\n   ...\n      ADD \t\t\tproducts.push(Product({\\r\\n   ...\n      PUSH 0\t\t\tproducts.push(Product({\\r\\n   ...\n      SWAP1 \t\t\tproducts.push(Product({\\r\\n   ...\n      SWAP2 \t\t\tproducts.push(Product({\\r\\n   ...\n      SWAP1 \t\t\tproducts.push(Product({\\r\\n   ...\n      SWAP2 \t\t\tproducts.push(Product({\\r\\n   ...\n      SWAP1 \t\t\tproducts.push(Product({\\r\\n   ...\n      SWAP2 \t\t\tproducts.push(Product({\\r\\n   ...\n      POP \t\t\tproducts.push(Product({\\r\\n   ...\n      PUSH 0\t\t\tproducts.push(Product({\\r\\n   ...\n      DUP3 \t\t\tproducts.push(Product({\\r\\n   ...\n      ADD \t\t\tproducts.push(Product({\\r\\n   ...\n      MLOAD \t\t\tproducts.push(Product({\\r\\n   ...\n      DUP2 \t\t\tproducts.push(Product({\\r\\n   ...\n      PUSH 0\t\t\tproducts.push(Product({\\r\\n   ...\n      ADD \t\t\tproducts.push(Product({\\r\\n   ...\n      SSTORE \t\t\tproducts.push(Product({\\r\\n   ...\n      PUSH 20\t\t\tproducts.push(Product({\\r\\n   ...\n      DUP3 \t\t\tproducts.push(Product({\\r\\n   ...\n      ADD \t\t\tproducts.push(Product({\\r\\n   ...\n      MLOAD \t\t\tproducts.push(Product({\\r\\n   ...\n      DUP2 \t\t\tproducts.push(Product({\\r\\n   ...\n      PUSH 1\t\t\tproducts.push(Product({\\r\\n   ...\n      ADD \t\t\tproducts.push(Product({\\r\\n   ...\n      PUSH 0\t\t\tproducts.push(Product({\\r\\n   ...\n      PUSH 100\t\t\tproducts.push(Product({\\r\\n   ...\n      EXP \t\t\tproducts.push(Product({\\r\\n   ...\n      DUP2 \t\t\tproducts.push(Product({\\r\\n   ...\n      SLOAD \t\t\tproducts.push(Product({\\r\\n   ...\n      DUP2 \t\t\tproducts.push(Product({\\r\\n   ...\n      PUSH FFFFFFFFFFFFFFFFFFFFFFFFFFFFFFFFFFFFFFFF\t\t\tproducts.push(Product({\\r\\n   ...\n      MUL \t\t\tproducts.push(Product({\\r\\n   ...\n      NOT \t\t\tproducts.push(Product({\\r\\n   ...\n      AND \t\t\tproducts.push(Product({\\r\\n   ...\n      SWAP1 \t\t\tproducts.push(Product({\\r\\n   ...\n      DUP4 \t\t\tproducts.push(Product({\\r\\n   ...\n      PUSH FFFFFFFFFFFFFFFFFFFFFFFFFFFFFFFFFFFFFFFF\t\t\tproducts.push(Product({\\r\\n   ...\n      AND \t\t\tproducts.push(Product({\\r\\n   ...\n      MUL \t\t\tproducts.push(Product({\\r\\n   ...\n      OR \t\t\tproducts.push(Product({\\r\\n   ...\n      SWAP1 \t\t\tproducts.push(Product({\\r\\n   ...\n      SSTORE \t\t\tproducts.push(Product({\\r\\n   ...\n      POP \t\t\tproducts.push(Product({\\r\\n   ...\n      PUSH 40\t\t\tproducts.push(Product({\\r\\n   ...\n      DUP3 \t\t\tproducts.push(Product({\\r\\n   ...\n      ADD \t\t\tproducts.push(Product({\\r\\n   ...\n      MLOAD \t\t\tproducts.push(Product({\\r\\n   ...\n      DUP2 \t\t\tproducts.push(Product({\\r\\n   ...\n      PUSH 2\t\t\tproducts.push(Product({\\r\\n   ...\n      ADD \t\t\tproducts.push(Product({\\r\\n   ...\n      PUSH 0\t\t\tproducts.push(Product({\\r\\n   ...\n      PUSH 100\t\t\tproducts.push(Product({\\r\\n   ...\n      EXP \t\t\tproducts.push(Product({\\r\\n   ...\n      DUP2 \t\t\tproducts.push(Product({\\r\\n   ...\n      SLOAD \t\t\tproducts.push(Product({\\r\\n   ...\n      DUP2 \t\t\tproducts.push(Product({\\r\\n   ...\n      PUSH FFFFFFFFFFFFFFFFFFFFFFFFFFFFFFFFFFFFFFFF\t\t\tproducts.push(Product({\\r\\n   ...\n      MUL \t\t\tproducts.push(Product({\\r\\n   ...\n      NOT \t\t\tproducts.push(Product({\\r\\n   ...\n      AND \t\t\tproducts.push(Product({\\r\\n   ...\n      SWAP1 \t\t\tproducts.push(Product({\\r\\n   ...\n      DUP4 \t\t\tproducts.push(Product({\\r\\n   ...\n      PUSH FFFFFFFFFFFFFFFFFFFFFFFFFFFFFFFFFFFFFFFF\t\t\tproducts.push(Product({\\r\\n   ...\n      AND \t\t\tproducts.push(Product({\\r\\n   ...\n      MUL \t\t\tproducts.push(Product({\\r\\n   ...\n      OR \t\t\tproducts.push(Product({\\r\\n   ...\n      SWAP1 \t\t\tproducts.push(Product({\\r\\n   ...\n      SSTORE \t\t\tproducts.push(Product({\\r\\n   ...\n      POP \t\t\tproducts.push(Product({\\r\\n   ...\n      PUSH 60\t\t\tproducts.push(Product({\\r\\n   ...\n      DUP3 \t\t\tproducts.push(Product({\\r\\n   ...\n      ADD \t\t\tproducts.push(Product({\\r\\n   ...\n      MLOAD \t\t\tproducts.push(Product({\\r\\n   ...\n      DUP2 \t\t\tproducts.push(Product({\\r\\n   ...\n      PUSH 3\t\t\tproducts.push(Product({\\r\\n   ...\n      ADD \t\t\tproducts.push(Product({\\r\\n   ...\n      SWAP1 \t\t\tproducts.push(Product({\\r\\n   ...\n      DUP2 \t\t\tproducts.push(Product({\\r\\n   ...\n      PUSH [tag] 89\t\t\tproducts.push(Product({\\r\\n   ...\n      SWAP2 \t\t\tproducts.push(Product({\\r\\n   ...\n      SWAP1 \t\t\tproducts.push(Product({\\r\\n   ...\n      PUSH [tag] 90\t\t\tproducts.push(Product({\\r\\n   ...\n      JUMP \t\t\tproducts.push(Product({\\r\\n   ...\n    tag 89\t\t\tproducts.push(Product({\\r\\n   ...\n      JUMPDEST \t\t\tproducts.push(Product({\\r\\n   ...\n      POP \t\t\tproducts.push(Product({\\r\\n   ...\n      PUSH 80\t\t\tproducts.push(Product({\\r\\n   ...\n      DUP3 \t\t\tproducts.push(Product({\\r\\n   ...\n      ADD \t\t\tproducts.push(Product({\\r\\n   ...\n      MLOAD \t\t\tproducts.push(Product({\\r\\n   ...\n      DUP2 \t\t\tproducts.push(Product({\\r\\n   ...\n      PUSH 4\t\t\tproducts.push(Product({\\r\\n   ...\n      ADD \t\t\tproducts.push(Product({\\r\\n   ...\n      SWAP1 \t\t\tproducts.push(Product({\\r\\n   ...\n      DUP2 \t\t\tproducts.push(Product({\\r\\n   ...\n      PUSH [tag] 91\t\t\tproducts.push(Product({\\r\\n   ...\n      SWAP2 \t\t\tproducts.push(Product({\\r\\n   ...\n      SWAP1 \t\t\tproducts.push(Product({\\r\\n   ...\n      PUSH [tag] 90\t\t\tproducts.push(Product({\\r\\n   ...\n      JUMP \t\t\tproducts.push(Product({\\r\\n   ...\n    tag 91\t\t\tproducts.push(Product({\\r\\n   ...\n      JUMPDEST \t\t\tproducts.push(Product({\\r\\n   ...\n      POP \t\t\tproducts.push(Product({\\r\\n   ...\n      PUSH A0\t\t\tproducts.push(Product({\\r\\n   ...\n      DUP3 \t\t\tproducts.push(Product({\\r\\n   ...\n      ADD \t\t\tproducts.push(Product({\\r\\n   ...\n      MLOAD \t\t\tproducts.push(Product({\\r\\n   ...\n      DUP2 \t\t\tproducts.push(Product({\\r\\n   ...\n      PUSH 5\t\t\tproducts.push(Product({\\r\\n   ...\n      ADD \t\t\tproducts.push(Product({\\r\\n   ...\n      SWAP1 \t\t\tproducts.push(Product({\\r\\n   ...\n      DUP2 \t\t\tproducts.push(Product({\\r\\n   ...\n      PUSH [tag] 92\t\t\tproducts.push(Product({\\r\\n   ...\n      SWAP2 \t\t\tproducts.push(Product({\\r\\n   ...\n      SWAP1 \t\t\tproducts.push(Product({\\r\\n   ...\n      PUSH [tag] 90\t\t\tproducts.push(Product({\\r\\n   ...\n      JUMP \t\t\tproducts.push(Product({\\r\\n   ...\n    tag 92\t\t\tproducts.push(Product({\\r\\n   ...\n      JUMPDEST \t\t\tproducts.push(Product({\\r\\n   ...\n      POP \t\t\tproducts.push(Product({\\r\\n   ...\n      PUSH C0\t\t\tproducts.push(Product({\\r\\n   ...\n      DUP3 \t\t\tproducts.push(Product({\\r\\n   ...\n      ADD \t\t\tproducts.push(Product({\\r\\n   ...\n      MLOAD \t\t\tproducts.push(Product({\\r\\n   ...\n      DUP2 \t\t\tproducts.push(Product({\\r\\n   ...\n      PUSH 6\t\t\tproducts.push(Product({\\r\\n   ...\n      ADD \t\t\tproducts.push(Product({\\r\\n   ...\n      SSTORE \t\t\tproducts.push(Product({\\r\\n   ...\n      PUSH E0\t\t\tproducts.push(Product({\\r\\n   ...\n      DUP3 \t\t\tproducts.push(Product({\\r\\n   ...\n      ADD \t\t\tproducts.push(Product({\\r\\n   ...\n      MLOAD \t\t\tproducts.push(Product({\\r\\n   ...\n      DUP2 \t\t\tproducts.push(Product({\\r\\n   ...\n      PUSH 7\t\t\tproducts.push(Product({\\r\\n   ...\n      ADD \t\t\tproducts.push(Product({\\r\\n   ...\n      PUSH 0\t\t\tproducts.push(Product({\\r\\n   ...\n      PUSH 100\t\t\tproducts.push(Product({\\r\\n   ...\n      EXP \t\t\tproducts.push(Product({\\r\\n   ...\n      DUP2 \t\t\tproducts.push(Product({\\r\\n   ...\n      SLOAD \t\t\tproducts.push(Product({\\r\\n   ...\n      DUP2 \t\t\tproducts.push(Product({\\r\\n   ...\n      PUSH FF\t\t\tproducts.push(Product({\\r\\n   ...\n      MUL \t\t\tproducts.push(Product({\\r\\n   ...\n      NOT \t\t\tproducts.push(Product({\\r\\n   ...\n      AND \t\t\tproducts.push(Product({\\r\\n   ...\n      SWAP1 \t\t\tproducts.push(Product({\\r\\n   ...\n      DUP4 \t\t\tproducts.push(Product({\\r\\n   ...\n      ISZERO \t\t\tproducts.push(Product({\\r\\n   ...\n      ISZERO \t\t\tproducts.push(Product({\\r\\n   ...\n      MUL \t\t\tproducts.push(Product({\\r\\n   ...\n      OR \t\t\tproducts.push(Product({\\r\\n   ...\n      SWAP1 \t\t\tproducts.push(Product({\\r\\n   ...\n      SSTORE \t\t\tproducts.push(Product({\\r\\n   ...\n      POP \t\t\tproducts.push(Product({\\r\\n   ...\n      POP \t\t\tproducts.push(Product({\\r\\n   ...\n      POP \t\t\tproducts.push(Product({\\r\\n   ...\n      CALLER \t\t\tmsg.sender\n      PUSH FFFFFFFFFFFFFFFFFFFFFFFFFFFFFFFFFFFFFFFF\t\t\tProductListed(productCount, ms...\n      AND \t\t\tProductListed(productCount, ms...\n      CALLER \t\t\tmsg.sender\n      PUSH FFFFFFFFFFFFFFFFFFFFFFFFFFFFFFFFFFFFFFFF\t\t\tProductListed(productCount, ms...\n      AND \t\t\tProductListed(productCount, ms...\n      PUSH D6C1F674CEEC95954157D523258B10894F33DDA5BF0532A1E27AE8181FCE3552\t\t\tProductListed(productCount, ms...\n      PUSH 1\t\t\tproductCount\n      SLOAD \t\t\tproductCount\n      DUP8 \t\t\t_title\n      DUP7 \t\t\t_imageHash\n      DUP7 \t\t\t_price\n      PUSH 40\t\t\tProductListed(productCount, ms...\n      MLOAD \t\t\tProductListed(productCount, ms...\n      PUSH [tag] 93\t\t\tProductListed(productCount, ms...\n      SWAP5 \t\t\tProductListed(productCount, ms...\n      SWAP4 \t\t\tProductListed(productCount, ms...\n      SWAP3 \t\t\tProductListed(productCount, ms...\n      SWAP2 \t\t\tProductListed(productCount, ms...\n      SWAP1 \t\t\tProductListed(productCount, ms...\n      PUSH [tag] 94\t\t\tProductListed(productCount, ms...\n      JUMP \t\t\tProductListed(productCount, ms...\n    tag 93\t\t\tProductListed(productCount, ms...\n      JUMPDEST \t\t\tProductListed(productCount, ms...\n      PUSH 40\t\t\tProductListed(productCount, ms...\n      MLOAD \t\t\tProductListed(productCount, ms...\n      DUP1 \t\t\tProductListed(productCount, ms...\n      SWAP2 \t\t\tProductListed(productCount, ms...\n      SUB \t\t\tProductListed(productCount, ms...\n      SWAP1 \t\t\tProductListed(productCount, ms...\n      LOG3 \t\t\tProductListed(productCount, ms...\n      PUSH 1\t\t\tproductCount\n      PUSH 0\t\t\tproductCount\n      DUP2 \t\t\tproductCount++\n      SLOAD \t\t\tproductCount++\n      DUP1 \t\t\tproductCount++\n      SWAP3 \t\t\tproductCount++\n      SWAP2 \t\t\tproductCount++\n      SWAP1 \t\t\tproductCount++\n      PUSH [tag] 95\t\t\tproductCount++\n      SWAP1 \t\t\tproductCount++\n      PUSH [tag] 96\t\t\tproductCount++\n      JUMP \t\t\tproductCount++\n    tag 95\t\t\tproductCount++\n      JUMPDEST \t\t\tproductCount++\n      SWAP2 \t\t\tproductCount++\n      SWAP1 \t\t\tproductCount++\n      POP \t\t\tproductCount++\n      SSTORE \t\t\tproductCount++\n      POP \t\t\tproductCount++\n      POP \t\t\tfunction listAllProducts(strin...\n      POP \t\t\tfunction listAllProducts(strin...\n      POP \t\t\tfunction listAllProducts(strin...\n      POP \t\t\tfunction listAllProducts(strin...\n      JUMP \t\t\tfunction listAllProducts(strin...\n    tag 28\t\t\tProduct[] public products\n      JUMPDEST \t\t\tProduct[] public products\n      PUSH 0\t\t\tProduct[] public products\n      DUP2 \t\t\tProduct[] public products\n      DUP2 \t\t\tProduct[] public products\n      SLOAD \t\t\tProduct[] public products\n      DUP2 \t\t\tProduct[] public products\n      LT \t\t\tProduct[] public products\n      PUSH [tag] 97\t\t\tProduct[] public products\n      JUMPI \t\t\tProduct[] public products\n      PUSH 0\t\t\tProduct[] public products\n      DUP1 \t\t\tProduct[] public products\n      REVERT \t\t\tProduct[] public products\n    tag 97\t\t\tProduct[] public products\n      JUMPDEST \t\t\tProduct[] public products\n      SWAP1 \t\t\tProduct[] public products\n      PUSH 0\t\t\tProduct[] public products\n      MSTORE \t\t\tProduct[] public products\n      PUSH 20\t\t\tProduct[] public products\n      PUSH 0\t\t\tProduct[] public products\n      KECCAK256 \t\t\tProduct[] public products\n      SWAP1 \t\t\tProduct[] public products\n      PUSH 8\t\t\tProduct[] public products\n      MUL \t\t\tProduct[] public products\n      ADD \t\t\tProduct[] public products\n      PUSH 0\t\t\tProduct[] public products\n      SWAP2 \t\t\tProduct[] public products\n      POP \t\t\tProduct[] public products\n      SWAP1 \t\t\tProduct[] public products\n      POP \t\t\tProduct[] public products\n      DUP1 \t\t\tProduct[] public products\n      PUSH 0\t\t\tProduct[] public products\n      ADD \t\t\tProduct[] public products\n      SLOAD \t\t\tProduct[] public products\n      SWAP1 \t\t\tProduct[] public products\n      DUP1 \t\t\tProduct[] public products\n      PUSH 1\t\t\tProduct[] public products\n      ADD \t\t\tProduct[] public products\n      PUSH 0\t\t\tProduct[] public products\n      SWAP1 \t\t\tProduct[] public products\n      SLOAD \t\t\tProduct[] public products\n      SWAP1 \t\t\tProduct[] public products\n      PUSH 100\t\t\tProduct[] public products\n      EXP \t\t\tProduct[] public products\n      SWAP1 \t\t\tProduct[] public products\n      DIV \t\t\tProduct[] public products\n      PUSH FFFFFFFFFFFFFFFFFFFFFFFFFFFFFFFFFFFFFFFF\t\t\tProduct[] public products\n      AND \t\t\tProduct[] public products\n      SWAP1 \t\t\tProduct[] public products\n      DUP1 \t\t\tProduct[] public products\n      PUSH 2\t\t\tProduct[] public products\n      ADD \t\t\tProduct[] public products\n      PUSH 0\t\t\tProduct[] public products\n      SWAP1 \t\t\tProduct[] public products\n      SLOAD \t\t\tProduct[] public products\n      SWAP1 \t\t\tProduct[] public products\n      PUSH 100\t\t\tProduct[] public products\n      EXP \t\t\tProduct[] public products\n      SWAP1 \t\t\tProduct[] public products\n      DIV \t\t\tProduct[] public products\n      PUSH FFFFFFFFFFFFFFFFFFFFFFFFFFFFFFFFFFFFFFFF\t\t\tProduct[] public products\n      AND \t\t\tProduct[] public products\n      SWAP1 \t\t\tProduct[] public products\n      DUP1 \t\t\tProduct[] public products\n      PUSH 3\t\t\tProduct[] public products\n      ADD \t\t\tProduct[] public products\n      DUP1 \t\t\tProduct[] public products\n      SLOAD \t\t\tProduct[] public products\n      PUSH [tag] 99\t\t\tProduct[] public products\n      SWAP1 \t\t\tProduct[] public products\n      PUSH [tag] 44\t\t\tProduct[] public products\n      JUMP \t\t\tProduct[] public products\n    tag 99\t\t\tProduct[] public products\n      JUMPDEST \t\t\tProduct[] public products\n      DUP1 \t\t\tProduct[] public products\n      PUSH 1F\t\t\tProduct[] public products\n      ADD \t\t\tProduct[] public products\n      PUSH 20\t\t\tProduct[] public products\n      DUP1 \t\t\tProduct[] public products\n      SWAP2 \t\t\tProduct[] public products\n      DIV \t\t\tProduct[] public products\n      MUL \t\t\tProduct[] public products\n      PUSH 20\t\t\tProduct[] public products\n      ADD \t\t\tProduct[] public products\n      PUSH 40\t\t\tProduct[] public products\n      MLOAD \t\t\tProduct[] public products\n      SWAP1 \t\t\tProduct[] public products\n      DUP2 \t\t\tProduct[] public products\n      ADD \t\t\tProduct[] public products\n      PUSH 40\t\t\tProduct[] public products\n      MSTORE \t\t\tProduct[] public products\n      DUP1 \t\t\tProduct[] public products\n      SWAP3 \t\t\tProduct[] public products\n      SWAP2 \t\t\tProduct[] public products\n      SWAP1 \t\t\tProduct[] public products\n      DUP2 \t\t\tProduct[] public products\n      DUP2 \t\t\tProduct[] public products\n      MSTORE \t\t\tProduct[] public products\n      PUSH 20\t\t\tProduct[] public products\n      ADD \t\t\tProduct[] public products\n      DUP3 \t\t\tProduct[] public products\n      DUP1 \t\t\tProduct[] public products\n      SLOAD \t\t\tProduct[] public products\n      PUSH [tag] 100\t\t\tProduct[] public products\n      SWAP1 \t\t\tProduct[] public products\n      PUSH [tag] 44\t\t\tProduct[] public products\n      JUMP \t\t\tProduct[] public products\n    tag 100\t\t\tProduct[] public products\n      JUMPDEST \t\t\tProduct[] public products\n      DUP1 \t\t\tProduct[] public products\n      ISZERO \t\t\tProduct[] public products\n      PUSH [tag] 101\t\t\tProduct[] public products\n      JUMPI \t\t\tProduct[] public products\n      DUP1 \t\t\tProduct[] public products\n      PUSH 1F\t\t\tProduct[] public products\n      LT \t\t\tProduct[] public products\n      PUSH [tag] 102\t\t\tProduct[] public products\n      JUMPI \t\t\tProduct[] public products\n      PUSH 100\t\t\tProduct[] public products\n      DUP1 \t\t\tProduct[] public products\n      DUP4 \t\t\tProduct[] public products\n      SLOAD \t\t\tProduct[] public products\n      DIV \t\t\tProduct[] public products\n      MUL \t\t\tProduct[] public products\n      DUP4 \t\t\tProduct[] public products\n      MSTORE \t\t\tProduct[] public products\n      SWAP2 \t\t\tProduct[] public products\n      PUSH 20\t\t\tProduct[] public products\n      ADD \t\t\tProduct[] public products\n      SWAP2 \t\t\tProduct[] public products\n      PUSH [tag] 101\t\t\tProduct[] public products\n      JUMP \t\t\tProduct[] public products\n    tag 102\t\t\tProduct[] public products\n      JUMPDEST \t\t\tProduct[] public products\n      DUP3 \t\t\tProduct[] public products\n      ADD \t\t\tProduct[] public products\n      SWAP2 \t\t\tProduct[] public products\n      SWAP1 \t\t\tProduct[] public products\n      PUSH 0\t\t\tProduct[] public products\n      MSTORE \t\t\tProduct[] public products\n      PUSH 20\t\t\tProduct[] public products\n      PUSH 0\t\t\tProduct[] public products\n      KECCAK256 \t\t\tProduct[] public products\n      SWAP1 \t\t\tProduct[] public products\n    tag 103\t\t\tProduct[] public products\n      JUMPDEST \t\t\tProduct[] public products\n      DUP2 \t\t\tProduct[] public products\n      SLOAD \t\t\tProduct[] public products\n      DUP2 \t\t\tProduct[] public products\n      MSTORE \t\t\tProduct[] public products\n      SWAP1 \t\t\tProduct[] public products\n      PUSH 1\t\t\tProduct[] public products\n      ADD \t\t\tProduct[] public products\n      SWAP1 \t\t\tProduct[] public products\n      PUSH 20\t\t\tProduct[] public products\n      ADD \t\t\tProduct[] public products\n      DUP1 \t\t\tProduct[] public products\n      DUP4 \t\t\tProduct[] public products\n      GT \t\t\tProduct[] public products\n      PUSH [tag] 103\t\t\tProduct[] public products\n      JUMPI \t\t\tProduct[] public products\n      DUP3 \t\t\tProduct[] public products\n      SWAP1 \t\t\tProduct[] public products\n      SUB \t\t\tProduct[] public products\n      PUSH 1F\t\t\tProduct[] public products\n      AND \t\t\tProduct[] public products\n      DUP3 \t\t\tProduct[] public products\n      ADD \t\t\tProduct[] public products\n      SWAP2 \t\t\tProduct[] public products\n    tag 101\t\t\tProduct[] public products\n      JUMPDEST \t\t\tProduct[] public products\n      POP \t\t\tProduct[] public products\n      POP \t\t\tProduct[] public products\n      POP \t\t\tProduct[] public products\n      POP \t\t\tProduct[] public products\n      POP \t\t\tProduct[] public products\n      SWAP1 \t\t\tProduct[] public products\n      DUP1 \t\t\tProduct[] public products\n      PUSH 4\t\t\tProduct[] public products\n      ADD \t\t\tProduct[] public products\n      DUP1 \t\t\tProduct[] public products\n      SLOAD \t\t\tProduct[] public products\n      PUSH [tag] 104\t\t\tProduct[] public products\n      SWAP1 \t\t\tProduct[] public products\n      PUSH [tag] 44\t\t\tProduct[] public products\n      JUMP \t\t\tProduct[] public products\n    tag 104\t\t\tProduct[] public products\n      JUMPDEST \t\t\tProduct[] public products\n      DUP1 \t\t\tProduct[] public products\n      PUSH 1F\t\t\tProduct[] public products\n      ADD \t\t\tProduct[] public products\n      PUSH 20\t\t\tProduct[] public products\n      DUP1 \t\t\tProduct[] public products\n      SWAP2 \t\t\tProduct[] public products\n      DIV \t\t\tProduct[] public products\n      MUL \t\t\tProduct[] public products\n      PUSH 20\t\t\tProduct[] public products\n      ADD \t\t\tProduct[] public products\n      PUSH 40\t\t\tProduct[] public products\n      MLOAD \t\t\tProduct[] public products\n      SWAP1 \t\t\tProduct[] public products\n      DUP2 \t\t\tProduct[] public products\n      ADD \t\t\tProduct[] public products\n      PUSH 40\t\t\tProduct[] public products\n      MSTORE \t\t\tProduct[] public products\n      DUP1 \t\t\tProduct[] public products\n      SWAP3 \t\t\tProduct[] public products\n      SWAP2 \t\t\tProduct[] public products\n      SWAP1 \t\t\tProduct[] public products\n      DUP2 \t\t\tProduct[] public products\n      DUP2 \t\t\tProduct[] public products\n      MSTORE \t\t\tProduct[] public products\n      PUSH 20\t\t\tProduct[] public products\n      ADD \t\t\tProduct[] public products\n      DUP3 \t\t\tProduct[] public products\n      DUP1 \t\t\tProduct[] public products\n      SLOAD \t\t\tProduct[] public products\n      PUSH [tag] 105\t\t\tProduct[] public products\n      SWAP1 \t\t\tProduct[] public products\n      PUSH [tag] 44\t\t\tProduct[] public products\n      JUMP \t\t\tProduct[] public products\n    tag 105\t\t\tProduct[] public products\n      JUMPDEST \t\t\tProduct[] public products\n      DUP1 \t\t\tProduct[] public products\n      ISZERO \t\t\tProduct[] public products\n      PUSH [tag] 106\t\t\tProduct[] public products\n      JUMPI \t\t\tProduct[] public products\n      DUP1 \t\t\tProduct[] public products\n      PUSH 1F\t\t\tProduct[] public products\n      LT \t\t\tProduct[] public products\n      PUSH [tag] 107\t\t\tProduct[] public products\n      JUMPI \t\t\tProduct[] public products\n      PUSH 100\t\t\tProduct[] public products\n      DUP1 \t\t\tProduct[] public products\n      DUP4 \t\t\tProduct[] public products\n      SLOAD \t\t\tProduct[] public products\n      DIV \t\t\tProduct[] public products\n      MUL \t\t\tProduct[] public products\n      DUP4 \t\t\tProduct[] public products\n      MSTORE \t\t\tProduct[] public products\n      SWAP2 \t\t\tProduct[] public products\n      PUSH 20\t\t\tProduct[] public products\n      ADD \t\t\tProduct[] public products\n      SWAP2 \t\t\tProduct[] public products\n      PUSH [tag] 106\t\t\tProduct[] public products\n      JUMP \t\t\tProduct[] public products\n    tag 107\t\t\tProduct[] public products\n      JUMPDEST \t\t\tProduct[] public products\n      DUP3 \t\t\tProduct[] public products\n      ADD \t\t\tProduct[] public products\n      SWAP2 \t\t\tProduct[] public products\n      SWAP1 \t\t\tProduct[] public products\n      PUSH 0\t\t\tProduct[] public products\n      MSTORE \t\t\tProduct[] public products\n      PUSH 20\t\t\tProduct[] public products\n      PUSH 0\t\t\tProduct[] public products\n      KECCAK256 \t\t\tProduct[] public products\n      SWAP1 \t\t\tProduct[] public products\n    tag 108\t\t\tProduct[] public products\n      JUMPDEST \t\t\tProduct[] public products\n      DUP2 \t\t\tProduct[] public products\n      SLOAD \t\t\tProduct[] public products\n      DUP2 \t\t\tProduct[] public products\n      MSTORE \t\t\tProduct[] public products\n      SWAP1 \t\t\tProduct[] public products\n      PUSH 1\t\t\tProduct[] public products\n      ADD \t\t\tProduct[] public products\n      SWAP1 \t\t\tProduct[] public products\n      PUSH 20\t\t\tProduct[] public products\n      ADD \t\t\tProduct[] public products\n      DUP1 \t\t\tProduct[] public products\n      DUP4 \t\t\tProduct[] public products\n      GT \t\t\tProduct[] public products\n      PUSH [tag] 108\t\t\tProduct[] public products\n      JUMPI \t\t\tProduct[] public products\n      DUP3 \t\t\tProduct[] public products\n      SWAP1 \t\t\tProduct[] public products\n      SUB \t\t\tProduct[] public products\n      PUSH 1F\t\t\tProduct[] public products\n      AND \t\t\tProduct[] public products\n      DUP3 \t\t\tProduct[] public products\n      ADD \t\t\tProduct[] public products\n      SWAP2 \t\t\tProduct[] public products\n    tag 106\t\t\tProduct[] public products\n      JUMPDEST \t\t\tProduct[] public products\n      POP \t\t\tProduct[] public products\n      POP \t\t\tProduct[] public products\n      POP \t\t\tProduct[] public products\n      POP \t\t\tProduct[] public products\n      POP \t\t\tProduct[] public products\n      SWAP1 \t\t\tProduct[] public products\n      DUP1 \t\t\tProduct[] public products\n      PUSH 5\t\t\tProduct[] public products\n      ADD \t\t\tProduct[] public products\n      DUP1 \t\t\tProduct[] public products\n      SLOAD \t\t\tProduct[] public products\n      PUSH [tag] 109\t\t\tProduct[] public products\n      SWAP1 \t\t\tProduct[] public products\n      PUSH [tag] 44\t\t\tProduct[] public products\n      JUMP \t\t\tProduct[] public products\n    tag 109\t\t\tProduct[] public products\n      JUMPDEST \t\t\tProduct[] public products\n      DUP1 \t\t\tProduct[] public products\n      PUSH 1F\t\t\tProduct[] public products\n      ADD \t\t\tProduct[] public products\n      PUSH 20\t\t\tProduct[] public products\n      DUP1 \t\t\tProduct[] public products\n      SWAP2 \t\t\tProduct[] public products\n      DIV \t\t\tProduct[] public products\n      MUL \t\t\tProduct[] public products\n      PUSH 20\t\t\tProduct[] public products\n      ADD \t\t\tProduct[] public products\n      PUSH 40\t\t\tProduct[] public products\n      MLOAD \t\t\tProduct[] public products\n      SWAP1 \t\t\tProduct[] public products\n      DUP2 \t\t\tProduct[] public products\n      ADD \t\t\tProduct[] public products\n      PUSH 40\t\t\tProduct[] public products\n      MSTORE \t\t\tProduct[] public products\n      DUP1 \t\t\tProduct[] public products\n      SWAP3 \t\t\tProduct[] public products\n      SWAP2 \t\t\tProduct[] public products\n      SWAP1 \t\t\tProduct[] public products\n      DUP2 \t\t\tProduct[] public products\n      DUP2 \t\t\tProduct[] public products\n      MSTORE \t\t\tProduct[] public products\n      PUSH 20\t\t\tProduct[] public products\n      ADD \t\t\tProduct[] public products\n      DUP3 \t\t\tProduct[] public products\n      DUP1 \t\t\tProduct[] public products\n      SLOAD \t\t\tProduct[] public products\n      PUSH [tag] 110\t\t\tProduct[] public products\n      SWAP1 \t\t\tProduct[] public products\n      PUSH [tag] 44\t\t\tProduct[] public products\n      JUMP \t\t\tProduct[] public products\n    tag 110\t\t\tProduct[] public products\n      JUMPDEST \t\t\tProduct[] public products\n      DUP1 \t\t\tProduct[] public products\n      ISZERO \t\t\tProduct[] public products\n      PUSH [tag] 111\t\t\tProduct[] public products\n      JUMPI \t\t\tProduct[] public products\n      DUP1 \t\t\tProduct[] public products\n      PUSH 1F\t\t\tProduct[] public products\n      LT \t\t\tProduct[] public products\n      PUSH [tag] 112\t\t\tProduct[] public products\n      JUMPI \t\t\tProduct[] public products\n      PUSH 100\t\t\tProduct[] public products\n      DUP1 \t\t\tProduct[] public products\n      DUP4 \t\t\tProduct[] public products\n      SLOAD \t\t\tProduct[] public products\n      DIV \t\t\tProduct[] public products\n      MUL \t\t\tProduct[] public products\n      DUP4 \t\t\tProduct[] public products\n      MSTORE \t\t\tProduct[] public products\n      SWAP2 \t\t\tProduct[] public products\n      PUSH 20\t\t\tProduct[] public products\n      ADD \t\t\tProduct[] public products\n      SWAP2 \t\t\tProduct[] public products\n      PUSH [tag] 111\t\t\tProduct[] public products\n      JUMP \t\t\tProduct[] public products\n    tag 112\t\t\tProduct[] public products\n      JUMPDEST \t\t\tProduct[] public products\n      DUP3 \t\t\tProduct[] public products\n      ADD \t\t\tProduct[] public products\n      SWAP2 \t\t\tProduct[] public products\n      SWAP1 \t\t\tProduct[] public products\n      PUSH 0\t\t\tProduct[] public products\n      MSTORE \t\t\tProduct[] public products\n      PUSH 20\t\t\tProduct[] public products\n      PUSH 0\t\t\tProduct[] public products\n      KECCAK256 \t\t\tProduct[] public products\n      SWAP1 \t\t\tProduct[] public products\n    tag 113\t\t\tProduct[] public products\n      JUMPDEST \t\t\tProduct[] public products\n      DUP2 \t\t\tProduct[] public products\n      SLOAD \t\t\tProduct[] public products\n      DUP2 \t\t\tProduct[] public products\n      MSTORE \t\t\tProduct[] public products\n      SWAP1 \t\t\tProduct[] public products\n      PUSH 1\t\t\tProduct[] public products\n      ADD \t\t\tProduct[] public products\n      SWAP1 \t\t\tProduct[] public products\n      PUSH 20\t\t\tProduct[] public products\n      ADD \t\t\tProduct[] public products\n      DUP1 \t\t\tProduct[] public products\n      DUP4 \t\t\tProduct[] public products\n      GT \t\t\tProduct[] public products\n      PUSH [tag] 113\t\t\tProduct[] public products\n      JUMPI \t\t\tProduct[] public products\n      DUP3 \t\t\tProduct[] public products\n      SWAP1 \t\t\tProduct[] public products\n      SUB \t\t\tProduct[] public products\n      PUSH 1F\t\t\tProduct[] public products\n      AND \t\t\tProduct[] public products\n      DUP3 \t\t\tProduct[] public products\n      ADD \t\t\tProduct[] public products\n      SWAP2 \t\t\tProduct[] public products\n    tag 111\t\t\tProduct[] public products\n      JUMPDEST \t\t\tProduct[] public products\n      POP \t\t\tProduct[] public products\n      POP \t\t\tProduct[] public products\n      POP \t\t\tProduct[] public products\n      POP \t\t\tProduct[] public products\n      POP \t\t\tProduct[] public products\n      SWAP1 \t\t\tProduct[] public products\n      DUP1 \t\t\tProduct[] public products\n      PUSH 6\t\t\tProduct[] public products\n      ADD \t\t\tProduct[] public products\n      SLOAD \t\t\tProduct[] public products\n      SWAP1 \t\t\tProduct[] public products\n      DUP1 \t\t\tProduct[] public products\n      PUSH 7\t\t\tProduct[] public products\n      ADD \t\t\tProduct[] public products\n      PUSH 0\t\t\tProduct[] public products\n      SWAP1 \t\t\tProduct[] public products\n      SLOAD \t\t\tProduct[] public products\n      SWAP1 \t\t\tProduct[] public products\n      PUSH 100\t\t\tProduct[] public products\n      EXP \t\t\tProduct[] public products\n      SWAP1 \t\t\tProduct[] public products\n      DIV \t\t\tProduct[] public products\n      PUSH FF\t\t\tProduct[] public products\n      AND \t\t\tProduct[] public products\n      SWAP1 \t\t\tProduct[] public products\n      POP \t\t\tProduct[] public products\n      DUP9 \t\t\tProduct[] public products\n      JUMP \t\t\tProduct[] public products\n    tag 33\t\t\tfunction buyProduct(uint _id) ...\n      JUMPDEST \t\t\tfunction buyProduct(uint _id) ...\n      PUSH 1\t\t\tproductCount\n      SLOAD \t\t\tproductCount\n      DUP2 \t\t\t_id\n      LT \t\t\t_id < productCount\n      PUSH [tag] 115\t\t\trequire(_id < productCount, \"P...\n      JUMPI \t\t\trequire(_id < productCount, \"P...\n      PUSH 40\t\t\trequire(_id < productCount, \"P...\n      MLOAD \t\t\trequire(_id < productCount, \"P...\n      PUSH 8C379A000000000000000000000000000000000000000000000000000000000\t\t\trequire(_id < productCount, \"P...\n      DUP2 \t\t\trequire(_id < productCount, \"P...\n      MSTORE \t\t\trequire(_id < productCount, \"P...\n      PUSH 4\t\t\trequire(_id < productCount, \"P...\n      ADD \t\t\trequire(_id < productCount, \"P...\n      PUSH [tag] 116\t\t\trequire(_id < productCount, \"P...\n      SWAP1 \t\t\trequire(_id < productCount, \"P...\n      PUSH [tag] 64\t\t\trequire(_id < productCount, \"P...\n      JUMP \t\t\trequire(_id < productCount, \"P...\n    tag 116\t\t\trequire(_id < productCount, \"P...\n      JUMPDEST \t\t\trequire(_id < productCount, \"P...\n      PUSH 40\t\t\trequire(_id < productCount, \"P...\n      MLOAD \t\t\trequire(_id < productCount, \"P...\n      DUP1 \t\t\trequire(_id < productCount, \"P...\n      SWAP2 \t\t\trequire(_id < productCount, \"P...\n      SUB \t\t\trequire(_id < productCount, \"P...\n      SWAP1 \t\t\trequire(_id < productCount, \"P...\n      REVERT \t\t\trequire(_id < productCount, \"P...\n    tag 115\t\t\trequire(_id < productCount, \"P...\n      JUMPDEST \t\t\trequire(_id < productCount, \"P...\n      PUSH 0\t\t\tProduct storage product\n      DUP1 \t\t\tproducts\n      DUP3 \t\t\t_id\n      DUP2 \t\t\tproducts[_id]\n      SLOAD \t\t\tproducts[_id]\n      DUP2 \t\t\tproducts[_id]\n      LT \t\t\tproducts[_id]\n      PUSH [tag] 117\t\t\tproducts[_id]\n      JUMPI \t\t\tproducts[_id]\n      PUSH [tag] 118\t\t\tproducts[_id]\n      PUSH [tag] 67\t\t\tproducts[_id]\n      JUMP \t\t\tproducts[_id]\n    tag 118\t\t\tproducts[_id]\n      JUMPDEST \t\t\tproducts[_id]\n    tag 117\t\t\tproducts[_id]\n      JUMPDEST \t\t\tproducts[_id]\n      SWAP1 \t\t\tproducts[_id]\n      PUSH 0\t\t\tproducts[_id]\n      MSTORE \t\t\tproducts[_id]\n      PUSH 20\t\t\tproducts[_id]\n      PUSH 0\t\t\tproducts[_id]\n      KECCAK256 \t\t\tproducts[_id]\n      SWAP1 \t\t\tproducts[_id]\n      PUSH 8\t\t\tproducts[_id]\n      MUL \t\t\tproducts[_id]\n      ADD \t\t\tproducts[_id]\n      SWAP1 \t\t\tProduct storage product = prod...\n      POP \t\t\tProduct storage product = prod...\n      DUP1 \t\t\tproduct\n      PUSH 6\t\t\tproduct.price\n      ADD \t\t\tproduct.price\n      SLOAD \t\t\tproduct.price\n      CALLVALUE \t\t\tmsg.value\n      EQ \t\t\tmsg.value == product.price\n      PUSH [tag] 120\t\t\trequire(msg.value == product.p...\n      JUMPI \t\t\trequire(msg.value == product.p...\n      PUSH 40\t\t\trequire(msg.value == product.p...\n      MLOAD \t\t\trequire(msg.value == product.p...\n      PUSH 8C379A000000000000000000000000000000000000000000000000000000000\t\t\trequire(msg.value == product.p...\n      DUP2 \t\t\trequire(msg.value == product.p...\n      MSTORE \t\t\trequire(msg.value == product.p...\n      PUSH 4\t\t\trequire(msg.value == product.p...\n      ADD \t\t\trequire(msg.value == product.p...\n      PUSH [tag] 121\t\t\trequire(msg.value == product.p...\n      SWAP1 \t\t\trequire(msg.value == product.p...\n      PUSH [tag] 122\t\t\trequire(msg.value == product.p...\n      JUMP \t\t\trequire(msg.value == product.p...\n    tag 121\t\t\trequire(msg.value == product.p...\n      JUMPDEST \t\t\trequire(msg.value == product.p...\n      PUSH 40\t\t\trequire(msg.value == product.p...\n      MLOAD \t\t\trequire(msg.value == product.p...\n      DUP1 \t\t\trequire(msg.value == product.p...\n      SWAP2 \t\t\trequire(msg.value == product.p...\n      SUB \t\t\trequire(msg.value == product.p...\n      SWAP1 \t\t\trequire(msg.value == product.p...\n      REVERT \t\t\trequire(msg.value == product.p...\n    tag 120\t\t\trequire(msg.value == product.p...\n      JUMPDEST \t\t\trequire(msg.value == product.p...\n      DUP1 \t\t\tproduct\n      PUSH 7\t\t\tproduct.sold\n      ADD \t\t\tproduct.sold\n      PUSH 0\t\t\tproduct.sold\n      SWAP1 \t\t\tproduct.sold\n      SLOAD \t\t\tproduct.sold\n      SWAP1 \t\t\tproduct.sold\n      PUSH 100\t\t\tproduct.sold\n      EXP \t\t\tproduct.sold\n      SWAP1 \t\t\tproduct.sold\n      DIV \t\t\tproduct.sold\n      PUSH FF\t\t\tproduct.sold\n      AND \t\t\tproduct.sold\n      ISZERO \t\t\t!product.sold\n      PUSH [tag] 123\t\t\trequire(!product.sold, \"This p...\n      JUMPI \t\t\trequire(!product.sold, \"This p...\n      PUSH 40\t\t\trequire(!product.sold, \"This p...\n      MLOAD \t\t\trequire(!product.sold, \"This p...\n      PUSH 8C379A000000000000000000000000000000000000000000000000000000000\t\t\trequire(!product.sold, \"This p...\n      DUP2 \t\t\trequire(!product.sold, \"This p...\n      MSTORE \t\t\trequire(!product.sold, \"This p...\n      PUSH 4\t\t\trequire(!product.sold, \"This p...\n      ADD \t\t\trequire(!product.sold, \"This p...\n      PUSH [tag] 124\t\t\trequire(!product.sold, \"This p...\n      SWAP1 \t\t\trequire(!product.sold, \"This p...\n      PUSH [tag] 125\t\t\trequire(!product.sold, \"This p...\n      JUMP \t\t\trequire(!product.sold, \"This p...\n    tag 124\t\t\trequire(!product.sold, \"This p...\n      JUMPDEST \t\t\trequire(!product.sold, \"This p...\n      PUSH 40\t\t\trequire(!product.sold, \"This p...\n      MLOAD \t\t\trequire(!product.sold, \"This p...\n      DUP1 \t\t\trequire(!product.sold, \"This p...\n      SWAP2 \t\t\trequire(!product.sold, \"This p...\n      SUB \t\t\trequire(!product.sold, \"This p...\n      SWAP1 \t\t\trequire(!product.sold, \"This p...\n      REVERT \t\t\trequire(!product.sold, \"This p...\n    tag 123\t\t\trequire(!product.sold, \"This p...\n      JUMPDEST \t\t\trequire(!product.sold, \"This p...\n      DUP1 \t\t\tproduct\n      PUSH 2\t\t\tproduct.owner\n      ADD \t\t\tproduct.owner\n      PUSH 0\t\t\tproduct.owner\n      SWAP1 \t\t\tproduct.owner\n      SLOAD \t\t\tproduct.owner\n      SWAP1 \t\t\tproduct.owner\n      PUSH 100\t\t\tproduct.owner\n      EXP \t\t\tproduct.owner\n      SWAP1 \t\t\tproduct.owner\n      DIV \t\t\tproduct.owner\n      PUSH FFFFFFFFFFFFFFFFFFFFFFFFFFFFFFFFFFFFFFFF\t\t\tproduct.owner\n      AND \t\t\tproduct.owner\n      PUSH FFFFFFFFFFFFFFFFFFFFFFFFFFFFFFFFFFFFFFFF\t\t\tmsg.sender != product.owner\n      AND \t\t\tmsg.sender != product.owner\n      CALLER \t\t\tmsg.sender\n      PUSH FFFFFFFFFFFFFFFFFFFFFFFFFFFFFFFFFFFFFFFF\t\t\tmsg.sender != product.owner\n      AND \t\t\tmsg.sender != product.owner\n      SUB \t\t\tmsg.sender != product.owner\n      PUSH [tag] 126\t\t\trequire(msg.sender != product....\n      JUMPI \t\t\trequire(msg.sender != product....\n      PUSH 40\t\t\trequire(msg.sender != product....\n      MLOAD \t\t\trequire(msg.sender != product....\n      PUSH 8C379A000000000000000000000000000000000000000000000000000000000\t\t\trequire(msg.sender != product....\n      DUP2 \t\t\trequire(msg.sender != product....\n      MSTORE \t\t\trequire(msg.sender != product....\n      PUSH 4\t\t\trequire(msg.sender != product....\n      ADD \t\t\trequire(msg.sender != product....\n      PUSH [tag] 127\t\t\trequire(msg.sender != product....\n      SWAP1 \t\t\trequire(msg.sender != product....\n      PUSH [tag] 128\t\t\trequire(msg.sender != product....\n      JUMP \t\t\trequire(msg.sender != product....\n    tag 127\t\t\trequire(msg.sender != product....\n      JUMPDEST \t\t\trequire(msg.sender != product....\n      PUSH 40\t\t\trequire(msg.sender != product....\n      MLOAD \t\t\trequire(msg.sender != product....\n      DUP1 \t\t\trequire(msg.sender != product....\n      SWAP2 \t\t\trequire(msg.sender != product....\n      SUB \t\t\trequire(msg.sender != product....\n      SWAP1 \t\t\trequire(msg.sender != product....\n      REVERT \t\t\trequire(msg.sender != product....\n    tag 126\t\t\trequire(msg.sender != product....\n      JUMPDEST \t\t\trequire(msg.sender != product....\n      PUSH 0\t\t\taddress payable prevOwner\n      DUP2 \t\t\tproduct\n      PUSH 2\t\t\tproduct.owner\n      ADD \t\t\tproduct.owner\n      PUSH 0\t\t\tproduct.owner\n      SWAP1 \t\t\tproduct.owner\n      SLOAD \t\t\tproduct.owner\n      SWAP1 \t\t\tproduct.owner\n      PUSH 100\t\t\tproduct.owner\n      EXP \t\t\tproduct.owner\n      SWAP1 \t\t\tproduct.owner\n      DIV \t\t\tproduct.owner\n      PUSH FFFFFFFFFFFFFFFFFFFFFFFFFFFFFFFFFFFFFFFF\t\t\tproduct.owner\n      AND \t\t\tproduct.owner\n      SWAP1 \t\t\taddress payable prevOwner = pr...\n      POP \t\t\taddress payable prevOwner = pr...\n      CALLER \t\t\tmsg.sender\n      DUP3 \t\t\tproduct\n      PUSH 2\t\t\tproduct.owner\n      ADD \t\t\tproduct.owner\n      PUSH 0\t\t\tproduct.owner\n      PUSH 100\t\t\tproduct.owner = payable(msg.se...\n      EXP \t\t\tproduct.owner = payable(msg.se...\n      DUP2 \t\t\tproduct.owner = payable(msg.se...\n      SLOAD \t\t\tproduct.owner = payable(msg.se...\n      DUP2 \t\t\tproduct.owner = payable(msg.se...\n      PUSH FFFFFFFFFFFFFFFFFFFFFFFFFFFFFFFFFFFFFFFF\t\t\tproduct.owner = payable(msg.se...\n      MUL \t\t\tproduct.owner = payable(msg.se...\n      NOT \t\t\tproduct.owner = payable(msg.se...\n      AND \t\t\tproduct.owner = payable(msg.se...\n      SWAP1 \t\t\tproduct.owner = payable(msg.se...\n      DUP4 \t\t\tproduct.owner = payable(msg.se...\n      PUSH FFFFFFFFFFFFFFFFFFFFFFFFFFFFFFFFFFFFFFFF\t\t\tproduct.owner = payable(msg.se...\n      AND \t\t\tproduct.owner = payable(msg.se...\n      MUL \t\t\tproduct.owner = payable(msg.se...\n      OR \t\t\tproduct.owner = payable(msg.se...\n      SWAP1 \t\t\tproduct.owner = payable(msg.se...\n      SSTORE \t\t\tproduct.owner = payable(msg.se...\n      POP \t\t\tproduct.owner = payable(msg.se...\n      PUSH 1\t\t\ttrue\n      DUP3 \t\t\tproduct\n      PUSH 7\t\t\tproduct.sold\n      ADD \t\t\tproduct.sold\n      PUSH 0\t\t\tproduct.sold\n      PUSH 100\t\t\tproduct.sold = true\n      EXP \t\t\tproduct.sold = true\n      DUP2 \t\t\tproduct.sold = true\n      SLOAD \t\t\tproduct.sold = true\n      DUP2 \t\t\tproduct.sold = true\n      PUSH FF\t\t\tproduct.sold = true\n      MUL \t\t\tproduct.sold = true\n      NOT \t\t\tproduct.sold = true\n      AND \t\t\tproduct.sold = true\n      SWAP1 \t\t\tproduct.sold = true\n      DUP4 \t\t\tproduct.sold = true\n      ISZERO \t\t\tproduct.sold = true\n      ISZERO \t\t\tproduct.sold = true\n      MUL \t\t\tproduct.sold = true\n      OR \t\t\tproduct.sold = true\n      SWAP1 \t\t\tproduct.sold = true\n      SSTORE \t\t\tproduct.sold = true\n      POP \t\t\tproduct.sold = true\n      DUP1 \t\t\tprevOwner\n      PUSH FFFFFFFFFFFFFFFFFFFFFFFFFFFFFFFFFFFFFFFF\t\t\tprevOwner.transfer\n      AND \t\t\tprevOwner.transfer\n      PUSH 8FC\t\t\tprevOwner.transfer(msg.value)\n      CALLVALUE \t\t\tmsg.value\n      SWAP1 \t\t\tprevOwner.transfer(msg.value)\n      DUP2 \t\t\tprevOwner.transfer(msg.value)\n      ISZERO \t\t\tprevOwner.transfer(msg.value)\n      MUL \t\t\tprevOwner.transfer(msg.value)\n      SWAP1 \t\t\tprevOwner.transfer(msg.value)\n      PUSH 40\t\t\tprevOwner.transfer(msg.value)\n      MLOAD \t\t\tprevOwner.transfer(msg.value)\n      PUSH 0\t\t\tprevOwner.transfer(msg.value)\n      PUSH 40\t\t\tprevOwner.transfer(msg.value)\n      MLOAD \t\t\tprevOwner.transfer(msg.value)\n      DUP1 \t\t\tprevOwner.transfer(msg.value)\n      DUP4 \t\t\tprevOwner.transfer(msg.value)\n      SUB \t\t\tprevOwner.transfer(msg.value)\n      DUP2 \t\t\tprevOwner.transfer(msg.value)\n      DUP6 \t\t\tprevOwner.transfer(msg.value)\n      DUP9 \t\t\tprevOwner.transfer(msg.value)\n      DUP9 \t\t\tprevOwner.transfer(msg.value)\n      CALL \t\t\tprevOwner.transfer(msg.value)\n      SWAP4 \t\t\tprevOwner.transfer(msg.value)\n      POP \t\t\tprevOwner.transfer(msg.value)\n      POP \t\t\tprevOwner.transfer(msg.value)\n      POP \t\t\tprevOwner.transfer(msg.value)\n      POP \t\t\tprevOwner.transfer(msg.value)\n      ISZERO \t\t\tprevOwner.transfer(msg.value)\n      DUP1 \t\t\tprevOwner.transfer(msg.value)\n      ISZERO \t\t\tprevOwner.transfer(msg.value)\n      PUSH [tag] 130\t\t\tprevOwner.transfer(msg.value)\n      JUMPI \t\t\tprevOwner.transfer(msg.value)\n      RETURNDATASIZE \t\t\tprevOwner.transfer(msg.value)\n      PUSH 0\t\t\tprevOwner.transfer(msg.value)\n      DUP1 \t\t\tprevOwner.transfer(msg.value)\n      RETURNDATACOPY \t\t\tprevOwner.transfer(msg.value)\n      RETURNDATASIZE \t\t\tprevOwner.transfer(msg.value)\n      PUSH 0\t\t\tprevOwner.transfer(msg.value)\n      REVERT \t\t\tprevOwner.transfer(msg.value)\n    tag 130\t\t\tprevOwner.transfer(msg.value)\n      JUMPDEST \t\t\tprevOwner.transfer(msg.value)\n      POP \t\t\tprevOwner.transfer(msg.value)\n      DUP1 \t\t\tprevOwner\n      PUSH FFFFFFFFFFFFFFFFFFFFFFFFFFFFFFFFFFFFFFFF\t\t\tPaymentSent(msg.sender, prevOw...\n      AND \t\t\tPaymentSent(msg.sender, prevOw...\n      CALLER \t\t\tmsg.sender\n      PUSH FFFFFFFFFFFFFFFFFFFFFFFFFFFFFFFFFFFFFFFF\t\t\tPaymentSent(msg.sender, prevOw...\n      AND \t\t\tPaymentSent(msg.sender, prevOw...\n      PUSH D52BD61F7C422D441E024604F4517878FD3305D6ACF0FE37BAEF23ED21AF6BC9\t\t\tPaymentSent(msg.sender, prevOw...\n      CALLVALUE \t\t\tmsg.value\n      PUSH 40\t\t\tPaymentSent(msg.sender, prevOw...\n      MLOAD \t\t\tPaymentSent(msg.sender, prevOw...\n      PUSH [tag] 131\t\t\tPaymentSent(msg.sender, prevOw...\n      SWAP2 \t\t\tPaymentSent(msg.sender, prevOw...\n      SWAP1 \t\t\tPaymentSent(msg.sender, prevOw...\n      PUSH [tag] 38\t\t\tPaymentSent(msg.sender, prevOw...\n      JUMP \t\t\tPaymentSent(msg.sender, prevOw...\n    tag 131\t\t\tPaymentSent(msg.sender, prevOw...\n      JUMPDEST \t\t\tPaymentSent(msg.sender, prevOw...\n      PUSH 40\t\t\tPaymentSent(msg.sender, prevOw...\n      MLOAD \t\t\tPaymentSent(msg.sender, prevOw...\n      DUP1 \t\t\tPaymentSent(msg.sender, prevOw...\n      SWAP2 \t\t\tPaymentSent(msg.sender, prevOw...\n      SUB \t\t\tPaymentSent(msg.sender, prevOw...\n      SWAP1 \t\t\tPaymentSent(msg.sender, prevOw...\n      LOG3 \t\t\tPaymentSent(msg.sender, prevOw...\n      CALLER \t\t\tmsg.sender\n      PUSH FFFFFFFFFFFFFFFFFFFFFFFFFFFFFFFFFFFFFFFF\t\t\tProductSold(_id, prevOwner, ms...\n      AND \t\t\tProductSold(_id, prevOwner, ms...\n      DUP2 \t\t\tprevOwner\n      PUSH FFFFFFFFFFFFFFFFFFFFFFFFFFFFFFFFFFFFFFFF\t\t\tProductSold(_id, prevOwner, ms...\n      AND \t\t\tProductSold(_id, prevOwner, ms...\n      PUSH A02E46FC9BBD3E1138787BC1DC117AE0B9A5A3745EA30B0AB673D79D90739029\t\t\tProductSold(_id, prevOwner, ms...\n      DUP6 \t\t\t_id\n      DUP6 \t\t\tproduct\n      PUSH 6\t\t\tproduct.price\n      ADD \t\t\tproduct.price\n      SLOAD \t\t\tproduct.price\n      PUSH 40\t\t\tProductSold(_id, prevOwner, ms...\n      MLOAD \t\t\tProductSold(_id, prevOwner, ms...\n      PUSH [tag] 132\t\t\tProductSold(_id, prevOwner, ms...\n      SWAP3 \t\t\tProductSold(_id, prevOwner, ms...\n      SWAP2 \t\t\tProductSold(_id, prevOwner, ms...\n      SWAP1 \t\t\tProductSold(_id, prevOwner, ms...\n      PUSH [tag] 133\t\t\tProductSold(_id, prevOwner, ms...\n      JUMP \t\t\tProductSold(_id, prevOwner, ms...\n    tag 132\t\t\tProductSold(_id, prevOwner, ms...\n      JUMPDEST \t\t\tProductSold(_id, prevOwner, ms...\n      PUSH 40\t\t\tProductSold(_id, prevOwner, ms...\n      MLOAD \t\t\tProductSold(_id, prevOwner, ms...\n      DUP1 \t\t\tProductSold(_id, prevOwner, ms...\n      SWAP2 \t\t\tProductSold(_id, prevOwner, ms...\n      SUB \t\t\tProductSold(_id, prevOwner, ms...\n      SWAP1 \t\t\tProductSold(_id, prevOwner, ms...\n      LOG3 \t\t\tProductSold(_id, prevOwner, ms...\n      POP \t\t\t{\\r\\n        require(_id < pro...\n      POP \t\t\t{\\r\\n        require(_id < pro...\n      POP \t\t\tfunction buyProduct(uint _id) ...\n      JUMP \t\t\tfunction buyProduct(uint _id) ...\n    tag 36\t\t\tuint public productCount\n      JUMPDEST \t\t\tuint public productCount\n      PUSH 1\t\t\tuint public productCount\n      SLOAD \t\t\tuint public productCount\n      DUP2 \t\t\tuint public productCount\n      JUMP \t\t\tuint public productCount\n    tag 60\t\t\t\n      JUMPDEST \t\t\t\n      PUSH 40\t\t\t\n      MLOAD \t\t\t\n      DUP1 \t\t\t\n      PUSH 100\t\t\t\n      ADD \t\t\t\n      PUSH 40\t\t\t\n      MSTORE \t\t\t\n      DUP1 \t\t\t\n      PUSH 0\t\t\t\n      DUP2 \t\t\t\n      MSTORE \t\t\t\n      PUSH 20\t\t\t\n      ADD \t\t\t\n      PUSH 0\t\t\t\n      PUSH FFFFFFFFFFFFFFFFFFFFFFFFFFFFFFFFFFFFFFFF\t\t\t\n      AND \t\t\t\n      DUP2 \t\t\t\n      MSTORE \t\t\t\n      PUSH 20\t\t\t\n      ADD \t\t\t\n      PUSH 0\t\t\t\n      PUSH FFFFFFFFFFFFFFFFFFFFFFFFFFFFFFFFFFFFFFFF\t\t\t\n      AND \t\t\t\n      DUP2 \t\t\t\n      MSTORE \t\t\t\n      PUSH 20\t\t\t\n      ADD \t\t\t\n      PUSH 60\t\t\t\n      DUP2 \t\t\t\n      MSTORE \t\t\t\n      PUSH 20\t\t\t\n      ADD \t\t\t\n      PUSH 60\t\t\t\n      DUP2 \t\t\t\n      MSTORE \t\t\t\n      PUSH 20\t\t\t\n      ADD \t\t\t\n      PUSH 60\t\t\t\n      DUP2 \t\t\t\n      MSTORE \t\t\t\n      PUSH 20\t\t\t\n      ADD \t\t\t\n      PUSH 0\t\t\t\n      DUP2 \t\t\t\n      MSTORE \t\t\t\n      PUSH 20\t\t\t\n      ADD \t\t\t\n      PUSH 0\t\t\t\n      ISZERO \t\t\t\n      ISZERO \t\t\t\n      DUP2 \t\t\t\n      MSTORE \t\t\t\n      POP \t\t\t\n      SWAP1 \t\t\t\n      JUMP \t\t\t\n    tag 134\t\t\t-License-Identifier: MIT\\r\\npr...\n      JUMPDEST \t\t\t-License-Identifier: MIT\\r\\npr...\n      PUSH 0\t\t\toduct \n      DUP2 \t\t\t addr\n      MLOAD \t\t\t       addre\n      SWAP1 \t\t\tint id;\\r\\n        addre\n      POP \t\t\tint id;\\r\\n        addre\n      SWAP2 \t\t\t-License-Identifier: MIT\\r\\npr...\n      SWAP1 \t\t\t-License-Identifier: MIT\\r\\npr...\n      POP \t\t\t-License-Identifier: MIT\\r\\npr...\n      JUMP \t\t\t-License-Identifier: MIT\\r\\npr...\n    tag 135\t\t\tller;\\r\\n        address payab...\n      JUMPDEST \t\t\tller;\\r\\n        address payab...\n      PUSH 0\t\t\t     uint p\n      DUP3 \t\t\td;\\r\\n  \n      DUP3 \t\t\tl s\n      MSTORE \t\t\t    bool sold;\\r\\n   \n      PUSH 20\t\t\tts;\\r\n      DUP3 \t\t\trod\n      ADD \t\t\tic products;\\r\\n\n      SWAP1 \t\t\t Product[] public products;\\r\\...\n      POP \t\t\t Product[] public products;\\r\\...\n      SWAP3 \t\t\tller;\\r\\n        address payab...\n      SWAP2 \t\t\tller;\\r\\n        address payab...\n      POP \t\t\tller;\\r\\n        address payab...\n      POP \t\t\tller;\\r\\n        address payab...\n      JUMP \t\t\tller;\\r\\n        address payab...\n    tag 136\t\t\tlic productCount;\\r\\n\\r\\n    e...\n      JUMPDEST \t\t\tlic productCount;\\r\\n\\r\\n    e...\n      PUSH 0\t\t\tss i\n      DUP2 \t\t\tg t\n      SWAP1 \t\t\tr, string t\n      POP \t\t\tr, string t\n      PUSH 20\t\t\tt pr\n      DUP3 \t\t\t, u\n      ADD \t\t\tHash, uint pri\n      SWAP1 \t\t\tng imageHash, uint pri\n      POP \t\t\tng imageHash, uint pri\n      SWAP2 \t\t\tlic productCount;\\r\\n\\r\\n    e...\n      SWAP1 \t\t\tlic productCount;\\r\\n\\r\\n    e...\n      POP \t\t\tlic productCount;\\r\\n\\r\\n    e...\n      JUMP \t\t\tlic productCount;\\r\\n\\r\\n    e...\n    tag 137\t\t\tnt ProductSold(uint productId,...\n      JUMPDEST \t\t\tnt ProductSold(uint productId,...\n      PUSH 0\t\t\ts index\n      DUP2 \t\t\tndexe\n      SWAP1 \t\t\t, address indexe\n      POP \t\t\t, address indexe\n      SWAP2 \t\t\tnt ProductSold(uint productId,...\n      SWAP1 \t\t\tnt ProductSold(uint productId,...\n      POP \t\t\tnt ProductSold(uint productId,...\n      JUMP \t\t\tnt ProductSold(uint productId,...\n    tag 138\t\t\tuint price);\\r\\n    event Paym...\n      JUMPDEST \t\t\tuint price);\\r\\n    event Paym...\n      PUSH [tag] 206\t\t\t uint256 amount);\\r\\n\\r\\n   \n      DUP2 \t\t\t\\n\\r\\n  \n      PUSH [tag] 137\t\t\t uint256 amount);\\r\\n\\r\\n   \n      JUMP \t\t\t uint256 amount);\\r\\n\\r\\n   \n    tag 206\t\t\t uint256 amount);\\r\\n\\r\\n   \n      JUMPDEST \t\t\t uint256 amount);\\r\\n\\r\\n   \n      DUP3 \t\t\td t\n      MSTORE \t\t\t indexed to, uint256 amount);\\...\n      POP \t\t\tuint price);\\r\\n    event Paym...\n      POP \t\t\tuint price);\\r\\n    event Paym...\n      JUMP \t\t\tuint price);\\r\\n    event Paym...\n    tag 139\t\t\t) {\\r\\n        productCount = ...\n      JUMPDEST \t\t\t) {\\r\\n        productCount = ...\n      PUSH 0\t\t\t\\r\\n\\r\\n   \n      PUSH FFFFFFFFFFFFFFFFFFFFFFFFFFFFFFFFFFFFFFFF\t\t\tmemory _title, string memory _...\n      DUP3 \t\t\tstrin\n      AND \t\t\tcts(string memory _title, stri...\n      SWAP1 \t\t\tistAllProducts(string memory _...\n      POP \t\t\tistAllProducts(string memory _...\n      SWAP2 \t\t\t) {\\r\\n        productCount = ...\n      SWAP1 \t\t\t) {\\r\\n        productCount = ...\n      POP \t\t\t) {\\r\\n        productCount = ...\n      JUMP \t\t\t) {\\r\\n        productCount = ...\n    tag 140\t\t\ty _imageHash, uint _price) ext...\n      JUMPDEST \t\t\ty _imageHash, uint _price) ext...\n      PUSH 0\t\t\t  requi\n      PUSH [tag] 209\t\t\tmust be greater than zer\n      DUP3 \t\t\tan ze\n      PUSH [tag] 139\t\t\tmust be greater than zer\n      JUMP \t\t\tmust be greater than zer\n    tag 209\t\t\tmust be greater than zer\n      JUMPDEST \t\t\tmust be greater than zer\n      SWAP1 \t\t\t 0, \"Price must be greater tha...\n      POP \t\t\t 0, \"Price must be greater tha...\n      SWAP2 \t\t\ty _imageHash, uint _price) ext...\n      SWAP1 \t\t\ty _imageHash, uint _price) ext...\n      POP \t\t\ty _imageHash, uint _price) ext...\n      JUMP \t\t\ty _imageHash, uint _price) ext...\n    tag 141\t\t\t  \\r\\n        products.push(Pr...\n      JUMPDEST \t\t\t  \\r\\n        products.push(Pr...\n      PUSH [tag] 211\t\t\tle(msg.sender),\\r\\n           ...\n      DUP2 \t\t\t   ow\n      PUSH [tag] 140\t\t\tle(msg.sender),\\r\\n           ...\n      JUMP \t\t\tle(msg.sender),\\r\\n           ...\n    tag 211\t\t\tle(msg.sender),\\r\\n           ...\n      JUMPDEST \t\t\tle(msg.sender),\\r\\n           ...\n      DUP3 \t\t\tpay\n      MSTORE \t\t\teller: payable(msg.sender),\\r\\...\n      POP \t\t\t  \\r\\n        products.push(Pr...\n      POP \t\t\t  \\r\\n        products.push(Pr...\n      JUMP \t\t\t  \\r\\n        products.push(Pr...\n    tag 142\t\t\tsg.sender), // Owner set as th...\n      JUMPDEST \t\t\tsg.sender), // Owner set as th...\n      PUSH 0\t\t\t      \n      DUP2 \t\t\t    d\n      MLOAD \t\t\t          de\n      SWAP1 \t\t\ttitle,\\r\\n            de\n      POP \t\t\ttitle,\\r\\n            de\n      SWAP2 \t\t\tsg.sender), // Owner set as th...\n      SWAP1 \t\t\tsg.sender), // Owner set as th...\n      POP \t\t\tsg.sender), // Owner set as th...\n      JUMP \t\t\tsg.sender), // Owner set as th...\n    tag 143\t\t\tescription,\\r\\n            ima...\n      JUMPDEST \t\t\tescription,\\r\\n            ima...\n      PUSH 0\t\t\t,\\r\\n        \n      DUP3 \t\t\t  }));\n      DUP3 \t\t\t   \n      MSTORE \t\t\talse\\r\\n        }));\\r\n      PUSH 20\t\t\tsted\n      DUP3 \t\t\tuct\n      ADD \t\t\tProductListed(\n      SWAP1 \t\t\t\\r\\n        emit ProductListed...\n      POP \t\t\t\\r\\n        emit ProductListed...\n      SWAP3 \t\t\tescription,\\r\\n            ima...\n      SWAP2 \t\t\tescription,\\r\\n            ima...\n      POP \t\t\tescription,\\r\\n            ima...\n      POP \t\t\tescription,\\r\\n            ima...\n      JUMP \t\t\tescription,\\r\\n            ima...\n    tag 144\t\t\t, msg.sender, msg.sender, _tit...\n      JUMPDEST \t\t\t, msg.sender, msg.sender, _tit...\n      DUP3 \t\t\t\\n    f\n      DUP2 \t\t\t }\\r\n      DUP4 \t\t\t\\r\\n \n      MCOPY \t\t\tunt++;\\r\\n    }\\r\\n\\r\\n    fu\n      PUSH 0\t\t\ta\n      DUP4 \t\t\td) ext\n      DUP4 \t\t\tnt \n      ADD \t\t\tt(uint _id) exte\n      MSTORE \t\t\tyProduct(uint _id) external\n      POP \t\t\t, msg.sender, msg.sender, _tit...\n      POP \t\t\t, msg.sender, msg.sender, _tit...\n      POP \t\t\t, msg.sender, msg.sender, _tit...\n      JUMP \t\t\t, msg.sender, msg.sender, _tit...\n    tag 145\t\t\t       require(_id < productCo...\n      JUMPDEST \t\t\t       require(_id < productCo...\n      PUSH 0\t\t\tct ID \n      PUSH 1F\t\t\tod\n      NOT \t\t\te produ\n      PUSH 1F\t\t\tto\n      DUP4 \t\t\toduct\n      ADD \t\t\t  Product stor\n      AND \t\t\t      Product storage produc\n      SWAP1 \t\t\tist\");\\r\\n        Product stor...\n      POP \t\t\tist\");\\r\\n        Product stor...\n      SWAP2 \t\t\t       require(_id < productCo...\n      SWAP1 \t\t\t       require(_id < productCo...\n      POP \t\t\t       require(_id < productCo...\n      JUMP \t\t\t       require(_id < productCo...\n    tag 146\t\t\t[_id];\\r\\n        require(msg....\n      JUMPDEST \t\t\t[_id];\\r\\n        require(msg....\n      PUSH 0\t\t\tpri\n      PUSH [tag] 217\t\t\the purchase\");\\r\\n        requ...\n      DUP3 \t\t\tprodu\n      PUSH [tag] 142\t\t\the purchase\");\\r\\n        requ...\n      JUMP \t\t\the purchase\");\\r\\n        requ...\n    tag 217\t\t\the purchase\");\\r\\n        requ...\n      JUMPDEST \t\t\the purchase\");\\r\\n        requ...\n      PUSH [tag] 218\t\t\toduct has already been sold\");...\n      DUP2 \t\t\tnder !\n      DUP6 \t\t\tsg.\n      PUSH [tag] 143\t\t\toduct has already been sold\");...\n      JUMP \t\t\toduct has already been sold\");...\n    tag 218\t\t\toduct has already been sold\");...\n      JUMPDEST \t\t\toduct has already been sold\");...\n      SWAP4 \t\t\tThis product has already been ...\n      POP \t\t\tThis product has already been ...\n      PUSH [tag] 219\t\t\towner, \"Owner cannot buy their...\n      DUP2 \t\t\tddress\n      DUP6 \t\t\t   \n      PUSH 20\t\t\t\\n\\r\\n \n      DUP7 \t\t\tuct\")\n      ADD \t\t\tproduct\");\\r\\n\\r\\n  \n      PUSH [tag] 144\t\t\towner, \"Owner cannot buy their...\n      JUMP \t\t\towner, \"Owner cannot buy their...\n    tag 219\t\t\towner, \"Owner cannot buy their...\n      JUMPDEST \t\t\towner, \"Owner cannot buy their...\n      PUSH [tag] 220\t\t\tct.owner; // Track previous o\n      DUP2 \t\t\tvious \n      PUSH [tag] 145\t\t\tct.owner; // Track previous o\n      JUMP \t\t\tct.owner; // Track previous o\n    tag 220\t\t\tct.owner; // Track previous o\n      JUMPDEST \t\t\tct.owner; // Track previous o\n      DUP5 \t\t\tpro\n      ADD \t\t\tr = product.owner; // Track pr...\n      SWAP2 \t\t\trevOwner = product.owner; // T...\n      POP \t\t\trevOwner = product.owner; // T...\n      POP \t\t\te in order to complete the pur...\n      SWAP3 \t\t\t[_id];\\r\\n        require(msg....\n      SWAP2 \t\t\t[_id];\\r\\n        require(msg....\n      POP \t\t\t[_id];\\r\\n        require(msg....\n      POP \t\t\t[_id];\\r\\n        require(msg....\n      JUMP \t\t\t[_id];\\r\\n        require(msg....\n    tag 147\t\t\tt\\r\\n        product.owner = p...\n      JUMPDEST \t\t\tt\\r\\n        product.owner = p...\n      PUSH 0\t\t\t(msg.se\n      DUP2 \t\t\tyer\\r\\n\n      ISZERO \t\t\t new buyer\\r\\n \n      ISZERO \t\t\t to the new buyer\\r\\n  \n      SWAP1 \t\t\tpdate owner to the new buyer\\r...\n      POP \t\t\tpdate owner to the new buyer\\r...\n      SWAP2 \t\t\tt\\r\\n        product.owner = p...\n      SWAP1 \t\t\tt\\r\\n        product.owner = p...\n      POP \t\t\tt\\r\\n        product.owner = p...\n      JUMP \t\t\tt\\r\\n        product.owner = p...\n    tag 148\t\t\tt.sold = true;\\r\\n\\r\\n        ...\n      JUMPDEST \t\t\tt.sold = true;\\r\\n\\r\\n        ...\n      PUSH [tag] 223\t\t\tnds to the previous o\n      DUP2 \t\t\tious \n      PUSH [tag] 147\t\t\tnds to the previous o\n      JUMP \t\t\tnds to the previous o\n    tag 223\t\t\tnds to the previous o\n      JUMPDEST \t\t\tnds to the previous o\n      DUP3 \t\t\ter \n      MSTORE \t\t\t Transfer funds to the previou...\n      POP \t\t\tt.sold = true;\\r\\n\\r\\n        ...\n      POP \t\t\tt.sold = true;\\r\\n\\r\\n        ...\n      JUMP \t\t\tt.sold = true;\\r\\n\\r\\n        ...\n    tag 149\t\t\temit ProductSold(_id, prevOwne...\n      JUMPDEST \t\t\temit ProductSold(_id, prevOwne...\n      PUSH 0\t\t\trna\n      PUSH 100\t\t\t {\\r\\n  \n      DUP4 \t\t\tmor\n      ADD \t\t\t] memory) {\\r\\n   \n      PUSH 0\t\t\tiew \n      DUP4 \t\t\ternal\n      ADD \t\t\t external view r\n      MLOAD \t\t\tt _id) external view re\n      PUSH [tag] 225\t\t\tt memory) {\\r\\n        require...\n      PUSH 0\t\t\t ID \n      DUP7 \t\t\todu\n      ADD \t\t\t \"Product ID d\n      DUP3 \t\t\t productCoun\n      PUSH [tag] 138\t\t\tt memory) {\\r\\n        require...\n      JUMP \t\t\tt memory) {\\r\\n        require...\n    tag 225\t\t\tt memory) {\\r\\n        require...\n      JUMPDEST \t\t\tt memory) {\\r\\n        require...\n      POP \t\t\tn products;\\r\\n    }\\r\\n\\r\\n  ...\n      PUSH 20\t\t\t\n      DUP4 \t\t\t\n      ADD \t\t\t\n      MLOAD \t\t\t\n      PUSH [tag] 226\t\t\t\n      PUSH 20\t\t\t\n      DUP7 \t\t\t\n      ADD \t\t\t\n      DUP3 \t\t\t\n      PUSH [tag] 141\t\t\t\n      JUMP \t\t\t\n    tag 226\t\t\t\n      JUMPDEST \t\t\t\n      POP \t\t\t     return products[_id];\\r\\n...\n      PUSH 40\t\t\t\n      DUP4 \t\t\t\n      ADD \t\t\t\n      MLOAD \t\t\t\n      PUSH [tag] 227\t\t\t\n      PUSH 40\t\t\t\n      DUP7 \t\t\t\n      ADD \t\t\t\n      DUP3 \t\t\t\n      PUSH [tag] 141\t\t\t\n      JUMP \t\t\t\n    tag 227\t\t\t\n      JUMPDEST \t\t\t\n      POP \t\t\t\n      PUSH 60\t\t\t\n      DUP4 \t\t\t\n      ADD \t\t\t\n      MLOAD \t\t\t\n      DUP5 \t\t\t\n      DUP3 \t\t\t\n      SUB \t\t\t\n      PUSH 60\t\t\t\n      DUP7 \t\t\t\n      ADD \t\t\t\n      MSTORE \t\t\t\n      PUSH [tag] 228\t\t\t\n      DUP3 \t\t\t\n      DUP3 \t\t\t\n      PUSH [tag] 146\t\t\t\n      JUMP \t\t\t\n    tag 228\t\t\t\n      JUMPDEST \t\t\t\n      SWAP2 \t\t\t\n      POP \t\t\t\n      POP \t\t\t\n      PUSH 80\t\t\t\n      DUP4 \t\t\t\n      ADD \t\t\t\n      MLOAD \t\t\t\n      DUP5 \t\t\t\n      DUP3 \t\t\t\n      SUB \t\t\t\n      PUSH 80\t\t\t\n      DUP7 \t\t\t\n      ADD \t\t\t\n      MSTORE \t\t\t\n      PUSH [tag] 229\t\t\t\n      DUP3 \t\t\t\n      DUP3 \t\t\t\n      PUSH [tag] 146\t\t\t\n      JUMP \t\t\t\n    tag 229\t\t\t\n      JUMPDEST \t\t\t\n      SWAP2 \t\t\t\n      POP \t\t\t\n      POP \t\t\t\n      PUSH A0\t\t\t\n      DUP4 \t\t\t\n      ADD \t\t\t\n      MLOAD \t\t\t\n      DUP5 \t\t\t\n      DUP3 \t\t\t\n      SUB \t\t\t\n      PUSH A0\t\t\t\n      DUP7 \t\t\t\n      ADD \t\t\t\n      MSTORE \t\t\t\n      PUSH [tag] 230\t\t\t\n      DUP3 \t\t\t\n      DUP3 \t\t\t\n      PUSH [tag] 146\t\t\t\n      JUMP \t\t\t\n    tag 230\t\t\t\n      JUMPDEST \t\t\t\n      SWAP2 \t\t\t\n      POP \t\t\t\n      POP \t\t\t\n      PUSH C0\t\t\t\n      DUP4 \t\t\t\n      ADD \t\t\t\n      MLOAD \t\t\t\n      PUSH [tag] 231\t\t\t\n      PUSH C0\t\t\t\n      DUP7 \t\t\t\n      ADD \t\t\t\n      DUP3 \t\t\t\n      PUSH [tag] 138\t\t\t\n      JUMP \t\t\t\n    tag 231\t\t\t\n      JUMPDEST \t\t\t\n      POP \t\t\t\n      PUSH E0\t\t\t\n      DUP4 \t\t\t\n      ADD \t\t\t\n      MLOAD \t\t\t\n      PUSH [tag] 232\t\t\t\n      PUSH E0\t\t\t\n      DUP7 \t\t\t\n      ADD \t\t\t\n      DUP3 \t\t\t\n      PUSH [tag] 148\t\t\t\n      JUMP \t\t\t\n    tag 232\t\t\t\n      JUMPDEST \t\t\t\n      POP \t\t\t\n      DUP1 \t\t\t\n      SWAP2 \t\t\t\n      POP \t\t\t\n      POP \t\t\tview returns (Product[] memory...\n      SWAP3 \t\t\temit ProductSold(_id, prevOwne...\n      SWAP2 \t\t\temit ProductSold(_id, prevOwne...\n      POP \t\t\temit ProductSold(_id, prevOwne...\n      POP \t\t\temit ProductSold(_id, prevOwne...\n      JUMP \t\t\temit ProductSold(_id, prevOwne...\n    tag 150\t\t\t\n      JUMPDEST \t\t\t\n      PUSH 0\t\t\t\n      PUSH [tag] 234\t\t\t\n      DUP4 \t\t\t\n      DUP4 \t\t\t\n      PUSH [tag] 149\t\t\t\n      JUMP \t\t\t\n    tag 234\t\t\t\n      JUMPDEST \t\t\t\n      SWAP1 \t\t\t\n      POP \t\t\t\n      SWAP3 \t\t\t\n      SWAP2 \t\t\t\n      POP \t\t\t\n      POP \t\t\t\n      JUMP \t\t\t\n    tag 151\t\t\t\n      JUMPDEST \t\t\t\n      PUSH 0\t\t\t\n      PUSH 20\t\t\t\n      DUP3 \t\t\t\n      ADD \t\t\t\n      SWAP1 \t\t\t\n      POP \t\t\t\n      SWAP2 \t\t\t\n      SWAP1 \t\t\t\n      POP \t\t\t\n      JUMP \t\t\t\n    tag 152\t\t\t\n      JUMPDEST \t\t\t\n      PUSH 0\t\t\t\n      PUSH [tag] 237\t\t\t\n      DUP3 \t\t\t\n      PUSH [tag] 134\t\t\t\n      JUMP \t\t\t\n    tag 237\t\t\t\n      JUMPDEST \t\t\t\n      PUSH [tag] 238\t\t\t\n      DUP2 \t\t\t\n      DUP6 \t\t\t\n      PUSH [tag] 135\t\t\t\n      JUMP \t\t\t\n    tag 238\t\t\t\n      JUMPDEST \t\t\t\n      SWAP4 \t\t\t\n      POP \t\t\t\n      DUP4 \t\t\t\n      PUSH 20\t\t\t\n      DUP3 \t\t\t\n      MUL \t\t\t\n      DUP6 \t\t\t\n      ADD \t\t\t\n      PUSH [tag] 239\t\t\t\n      DUP6 \t\t\t\n      PUSH [tag] 136\t\t\t\n      JUMP \t\t\t\n    tag 239\t\t\t\n      JUMPDEST \t\t\t\n      DUP1 \t\t\t\n      PUSH 0\t\t\t\n    tag 240\t\t\t\n      JUMPDEST \t\t\t\n      DUP6 \t\t\t\n      DUP2 \t\t\t\n      LT \t\t\t\n      ISZERO \t\t\t\n      PUSH [tag] 242\t\t\t\n      JUMPI \t\t\t\n      DUP5 \t\t\t\n      DUP5 \t\t\t\n      SUB \t\t\t\n      DUP10 \t\t\t\n      MSTORE \t\t\t\n      DUP2 \t\t\t\n      MLOAD \t\t\t\n      PUSH [tag] 243\t\t\t\n      DUP6 \t\t\t\n      DUP3 \t\t\t\n      PUSH [tag] 150\t\t\t\n      JUMP \t\t\t\n    tag 243\t\t\t\n      JUMPDEST \t\t\t\n      SWAP5 \t\t\t\n      POP \t\t\t\n      PUSH [tag] 244\t\t\t\n      DUP4 \t\t\t\n      PUSH [tag] 151\t\t\t\n      JUMP \t\t\t\n    tag 244\t\t\t\n      JUMPDEST \t\t\t\n      SWAP3 \t\t\t\n      POP \t\t\t\n      PUSH 20\t\t\t\n      DUP11 \t\t\t\n      ADD \t\t\t\n      SWAP10 \t\t\t\n      POP \t\t\t\n      POP \t\t\t\n      PUSH 1\t\t\t\n      DUP2 \t\t\t\n      ADD \t\t\t\n      SWAP1 \t\t\t\n      POP \t\t\t\n      PUSH [tag] 240\t\t\t\n      JUMP \t\t\t\n    tag 242\t\t\t\n      JUMPDEST \t\t\t\n      POP \t\t\t\n      DUP3 \t\t\t\n      SWAP8 \t\t\t\n      POP \t\t\t\n      DUP8 \t\t\t\n      SWAP6 \t\t\t\n      POP \t\t\t\n      POP \t\t\t\n      POP \t\t\t\n      POP \t\t\t\n      POP \t\t\t\n      POP \t\t\t\n      SWAP3 \t\t\t\n      SWAP2 \t\t\t\n      POP \t\t\t\n      POP \t\t\t\n      JUMP \t\t\t\n    tag 12\t\t\t\n      JUMPDEST \t\t\t\n      PUSH 0\t\t\t\n      PUSH 20\t\t\t\n      DUP3 \t\t\t\n      ADD \t\t\t\n      SWAP1 \t\t\t\n      POP \t\t\t\n      DUP2 \t\t\t\n      DUP2 \t\t\t\n      SUB \t\t\t\n      PUSH 0\t\t\t\n      DUP4 \t\t\t\n      ADD \t\t\t\n      MSTORE \t\t\t\n      PUSH [tag] 246\t\t\t\n      DUP2 \t\t\t\n      DUP5 \t\t\t\n      PUSH [tag] 152\t\t\t\n      JUMP \t\t\t\n    tag 246\t\t\t\n      JUMPDEST \t\t\t\n      SWAP1 \t\t\t\n      POP \t\t\t\n      SWAP3 \t\t\t\n      SWAP2 \t\t\t\n      POP \t\t\t\n      POP \t\t\t\n      JUMP \t\t\t\n    tag 153\t\t\t\n      JUMPDEST \t\t\t\n      PUSH 0\t\t\t\n      PUSH 40\t\t\t\n      MLOAD \t\t\t\n      SWAP1 \t\t\t\n      POP \t\t\t\n      SWAP1 \t\t\t\n      JUMP \t\t\t\n    tag 154\t\t\t\n      JUMPDEST \t\t\t\n      PUSH 0\t\t\t\n      DUP1 \t\t\t\n      REVERT \t\t\t\n    tag 155\t\t\t\n      JUMPDEST \t\t\t\n      PUSH 0\t\t\t\n      DUP1 \t\t\t\n      REVERT \t\t\t\n    tag 156\t\t\t\n      JUMPDEST \t\t\t\n      PUSH [tag] 251\t\t\t\n      DUP2 \t\t\t\n      PUSH [tag] 137\t\t\t\n      JUMP \t\t\t\n    tag 251\t\t\t\n      JUMPDEST \t\t\t\n      DUP2 \t\t\t\n      EQ \t\t\t\n      PUSH [tag] 252\t\t\t\n      JUMPI \t\t\t\n      PUSH 0\t\t\t\n      DUP1 \t\t\t\n      REVERT \t\t\t\n    tag 252\t\t\t\n      JUMPDEST \t\t\t\n      POP \t\t\t\n      JUMP \t\t\t\n    tag 157\t\t\t\n      JUMPDEST \t\t\t\n      PUSH 0\t\t\t\n      DUP2 \t\t\t\n      CALLDATALOAD \t\t\t\n      SWAP1 \t\t\t\n      POP \t\t\t\n      PUSH [tag] 254\t\t\t\n      DUP2 \t\t\t\n      PUSH [tag] 156\t\t\t\n      JUMP \t\t\t\n    tag 254\t\t\t\n      JUMPDEST \t\t\t\n      SWAP3 \t\t\t\n      SWAP2 \t\t\t\n      POP \t\t\t\n      POP \t\t\t\n      JUMP \t\t\t\n    tag 16\t\t\t\n      JUMPDEST \t\t\t\n      PUSH 0\t\t\t\n      PUSH 20\t\t\t\n      DUP3 \t\t\t\n      DUP5 \t\t\t\n      SUB \t\t\t\n      SLT \t\t\t\n      ISZERO \t\t\t\n      PUSH [tag] 256\t\t\t\n      JUMPI \t\t\t\n      PUSH [tag] 257\t\t\t\n      PUSH [tag] 154\t\t\t\n      JUMP \t\t\t\n    tag 257\t\t\t\n      JUMPDEST \t\t\t\n    tag 256\t\t\t\n      JUMPDEST \t\t\t\n      PUSH 0\t\t\t\n      PUSH [tag] 258\t\t\t\n      DUP5 \t\t\t\n      DUP3 \t\t\t\n      DUP6 \t\t\t\n      ADD \t\t\t\n      PUSH [tag] 157\t\t\t\n      JUMP \t\t\t\n    tag 258\t\t\t\n      JUMPDEST \t\t\t\n      SWAP2 \t\t\t\n      POP \t\t\t\n      POP \t\t\t\n      SWAP3 \t\t\t\n      SWAP2 \t\t\t\n      POP \t\t\t\n      POP \t\t\t\n      JUMP \t\t\t\n    tag 158\t\t\t\n      JUMPDEST \t\t\t\n      PUSH 0\t\t\t\n      PUSH 100\t\t\t\n      DUP4 \t\t\t\n      ADD \t\t\t\n      PUSH 0\t\t\t\n      DUP4 \t\t\t\n      ADD \t\t\t\n      MLOAD \t\t\t\n      PUSH [tag] 260\t\t\t\n      PUSH 0\t\t\t\n      DUP7 \t\t\t\n      ADD \t\t\t\n      DUP3 \t\t\t\n      PUSH [tag] 138\t\t\t\n      JUMP \t\t\t\n    tag 260\t\t\t\n      JUMPDEST \t\t\t\n      POP \t\t\t\n      PUSH 20\t\t\t\n      DUP4 \t\t\t\n      ADD \t\t\t\n      MLOAD \t\t\t\n      PUSH [tag] 261\t\t\t\n      PUSH 20\t\t\t\n      DUP7 \t\t\t\n      ADD \t\t\t\n      DUP3 \t\t\t\n      PUSH [tag] 141\t\t\t\n      JUMP \t\t\t\n    tag 261\t\t\t\n      JUMPDEST \t\t\t\n      POP \t\t\t\n      PUSH 40\t\t\t\n      DUP4 \t\t\t\n      ADD \t\t\t\n      MLOAD \t\t\t\n      PUSH [tag] 262\t\t\t\n      PUSH 40\t\t\t\n      DUP7 \t\t\t\n      ADD \t\t\t\n      DUP3 \t\t\t\n      PUSH [tag] 141\t\t\t\n      JUMP \t\t\t\n    tag 262\t\t\t\n      JUMPDEST \t\t\t\n      POP \t\t\t\n      PUSH 60\t\t\t\n      DUP4 \t\t\t\n      ADD \t\t\t\n      MLOAD \t\t\t\n      DUP5 \t\t\t\n      DUP3 \t\t\t\n      SUB \t\t\t\n      PUSH 60\t\t\t\n      DUP7 \t\t\t\n      ADD \t\t\t\n      MSTORE \t\t\t\n      PUSH [tag] 263\t\t\t\n      DUP3 \t\t\t\n      DUP3 \t\t\t\n      PUSH [tag] 146\t\t\t\n      JUMP \t\t\t\n    tag 263\t\t\t\n      JUMPDEST \t\t\t\n      SWAP2 \t\t\t\n      POP \t\t\t\n      POP \t\t\t\n      PUSH 80\t\t\t\n      DUP4 \t\t\t\n      ADD \t\t\t\n      MLOAD \t\t\t\n      DUP5 \t\t\t\n      DUP3 \t\t\t\n      SUB \t\t\t\n      PUSH 80\t\t\t\n      DUP7 \t\t\t\n      ADD \t\t\t\n      MSTORE \t\t\t\n      PUSH [tag] 264\t\t\t\n      DUP3 \t\t\t\n      DUP3 \t\t\t\n      PUSH [tag] 146\t\t\t\n      JUMP \t\t\t\n    tag 264\t\t\t\n      JUMPDEST \t\t\t\n      SWAP2 \t\t\t\n      POP \t\t\t\n      POP \t\t\t\n      PUSH A0\t\t\t\n      DUP4 \t\t\t\n      ADD \t\t\t\n      MLOAD \t\t\t\n      DUP5 \t\t\t\n      DUP3 \t\t\t\n      SUB \t\t\t\n      PUSH A0\t\t\t\n      DUP7 \t\t\t\n      ADD \t\t\t\n      MSTORE \t\t\t\n      PUSH [tag] 265\t\t\t\n      DUP3 \t\t\t\n      DUP3 \t\t\t\n      PUSH [tag] 146\t\t\t\n      JUMP \t\t\t\n    tag 265\t\t\t\n      JUMPDEST \t\t\t\n      SWAP2 \t\t\t\n      POP \t\t\t\n      POP \t\t\t\n      PUSH C0\t\t\t\n      DUP4 \t\t\t\n      ADD \t\t\t\n      MLOAD \t\t\t\n      PUSH [tag] 266\t\t\t\n      PUSH C0\t\t\t\n      DUP7 \t\t\t\n      ADD \t\t\t\n      DUP3 \t\t\t\n      PUSH [tag] 138\t\t\t\n      JUMP \t\t\t\n    tag 266\t\t\t\n      JUMPDEST \t\t\t\n      POP \t\t\t\n      PUSH E0\t\t\t\n      DUP4 \t\t\t\n      ADD \t\t\t\n      MLOAD \t\t\t\n      PUSH [tag] 267\t\t\t\n      PUSH E0\t\t\t\n      DUP7 \t\t\t\n      ADD \t\t\t\n      DUP3 \t\t\t\n      PUSH [tag] 148\t\t\t\n      JUMP \t\t\t\n    tag 267\t\t\t\n      JUMPDEST \t\t\t\n      POP \t\t\t\n      DUP1 \t\t\t\n      SWAP2 \t\t\t\n      POP \t\t\t\n      POP \t\t\t\n      SWAP3 \t\t\t\n      SWAP2 \t\t\t\n      POP \t\t\t\n      POP \t\t\t\n      JUMP \t\t\t\n    tag 19\t\t\t\n      JUMPDEST \t\t\t\n      PUSH 0\t\t\t\n      PUSH 20\t\t\t\n      DUP3 \t\t\t\n      ADD \t\t\t\n      SWAP1 \t\t\t\n      POP \t\t\t\n      DUP2 \t\t\t\n      DUP2 \t\t\t\n      SUB \t\t\t\n      PUSH 0\t\t\t\n      DUP4 \t\t\t\n      ADD \t\t\t\n      MSTORE \t\t\t\n      PUSH [tag] 269\t\t\t\n      DUP2 \t\t\t\n      DUP5 \t\t\t\n      PUSH [tag] 158\t\t\t\n      JUMP \t\t\t\n    tag 269\t\t\t\n      JUMPDEST \t\t\t\n      SWAP1 \t\t\t\n      POP \t\t\t\n      SWAP3 \t\t\t\n      SWAP2 \t\t\t\n      POP \t\t\t\n      POP \t\t\t\n      JUMP \t\t\t\n    tag 159\t\t\t\n      JUMPDEST \t\t\t\n      PUSH 0\t\t\t\n      DUP1 \t\t\t\n      REVERT \t\t\t\n    tag 160\t\t\t\n      JUMPDEST \t\t\t\n      PUSH 0\t\t\t\n      DUP1 \t\t\t\n      REVERT \t\t\t\n    tag 161\t\t\t\n      JUMPDEST \t\t\t\n      PUSH 4E487B7100000000000000000000000000000000000000000000000000000000\t\t\t\n      PUSH 0\t\t\t\n      MSTORE \t\t\t\n      PUSH 41\t\t\t\n      PUSH 4\t\t\t\n      MSTORE \t\t\t\n      PUSH 24\t\t\t\n      PUSH 0\t\t\t\n      REVERT \t\t\t\n    tag 162\t\t\t\n      JUMPDEST \t\t\t\n      PUSH [tag] 274\t\t\t\n      DUP3 \t\t\t\n      PUSH [tag] 145\t\t\t\n      JUMP \t\t\t\n    tag 274\t\t\t\n      JUMPDEST \t\t\t\n      DUP2 \t\t\t\n      ADD \t\t\t\n      DUP2 \t\t\t\n      DUP2 \t\t\t\n      LT \t\t\t\n      PUSH FFFFFFFFFFFFFFFF\t\t\t\n      DUP3 \t\t\t\n      GT \t\t\t\n      OR \t\t\t\n      ISZERO \t\t\t\n      PUSH [tag] 275\t\t\t\n      JUMPI \t\t\t\n      PUSH [tag] 276\t\t\t\n      PUSH [tag] 161\t\t\t\n      JUMP \t\t\t\n    tag 276\t\t\t\n      JUMPDEST \t\t\t\n    tag 275\t\t\t\n      JUMPDEST \t\t\t\n      DUP1 \t\t\t\n      PUSH 40\t\t\t\n      MSTORE \t\t\t\n      POP \t\t\t\n      POP \t\t\t\n      POP \t\t\t\n      JUMP \t\t\t\n    tag 163\t\t\t\n      JUMPDEST \t\t\t\n      PUSH 0\t\t\t\n      PUSH [tag] 278\t\t\t\n      PUSH [tag] 153\t\t\t\n      JUMP \t\t\t\n    tag 278\t\t\t\n      JUMPDEST \t\t\t\n      SWAP1 \t\t\t\n      POP \t\t\t\n      PUSH [tag] 279\t\t\t\n      DUP3 \t\t\t\n      DUP3 \t\t\t\n      PUSH [tag] 162\t\t\t\n      JUMP \t\t\t\n    tag 279\t\t\t\n      JUMPDEST \t\t\t\n      SWAP2 \t\t\t\n      SWAP1 \t\t\t\n      POP \t\t\t\n      JUMP \t\t\t\n    tag 164\t\t\t\n      JUMPDEST \t\t\t\n      PUSH 0\t\t\t\n      PUSH FFFFFFFFFFFFFFFF\t\t\t\n      DUP3 \t\t\t\n      GT \t\t\t\n      ISZERO \t\t\t\n      PUSH [tag] 281\t\t\t\n      JUMPI \t\t\t\n      PUSH [tag] 282\t\t\t\n      PUSH [tag] 161\t\t\t\n      JUMP \t\t\t\n    tag 282\t\t\t\n      JUMPDEST \t\t\t\n    tag 281\t\t\t\n      JUMPDEST \t\t\t\n      PUSH [tag] 283\t\t\t\n      DUP3 \t\t\t\n      PUSH [tag] 145\t\t\t\n      JUMP \t\t\t\n    tag 283\t\t\t\n      JUMPDEST \t\t\t\n      SWAP1 \t\t\t\n      POP \t\t\t\n      PUSH 20\t\t\t\n      DUP2 \t\t\t\n      ADD \t\t\t\n      SWAP1 \t\t\t\n      POP \t\t\t\n      SWAP2 \t\t\t\n      SWAP1 \t\t\t\n      POP \t\t\t\n      JUMP \t\t\t\n    tag 165\t\t\t\n      JUMPDEST \t\t\t\n      DUP3 \t\t\t\n      DUP2 \t\t\t\n      DUP4 \t\t\t\n      CALLDATACOPY \t\t\t\n      PUSH 0\t\t\t\n      DUP4 \t\t\t\n      DUP4 \t\t\t\n      ADD \t\t\t\n      MSTORE \t\t\t\n      POP \t\t\t\n      POP \t\t\t\n      POP \t\t\t\n      JUMP \t\t\t\n    tag 166\t\t\t\n      JUMPDEST \t\t\t\n      PUSH 0\t\t\t\n      PUSH [tag] 286\t\t\t\n      PUSH [tag] 287\t\t\t\n      DUP5 \t\t\t\n      PUSH [tag] 164\t\t\t\n      JUMP \t\t\t\n    tag 287\t\t\t\n      JUMPDEST \t\t\t\n      PUSH [tag] 163\t\t\t\n      JUMP \t\t\t\n    tag 286\t\t\t\n      JUMPDEST \t\t\t\n      SWAP1 \t\t\t\n      POP \t\t\t\n      DUP3 \t\t\t\n      DUP2 \t\t\t\n      MSTORE \t\t\t\n      PUSH 20\t\t\t\n      DUP2 \t\t\t\n      ADD \t\t\t\n      DUP5 \t\t\t\n      DUP5 \t\t\t\n      DUP5 \t\t\t\n      ADD \t\t\t\n      GT \t\t\t\n      ISZERO \t\t\t\n      PUSH [tag] 288\t\t\t\n      JUMPI \t\t\t\n      PUSH [tag] 289\t\t\t\n      PUSH [tag] 160\t\t\t\n      JUMP \t\t\t\n    tag 289\t\t\t\n      JUMPDEST \t\t\t\n    tag 288\t\t\t\n      JUMPDEST \t\t\t\n      PUSH [tag] 290\t\t\t\n      DUP5 \t\t\t\n      DUP3 \t\t\t\n      DUP6 \t\t\t\n      PUSH [tag] 165\t\t\t\n      JUMP \t\t\t\n    tag 290\t\t\t\n      JUMPDEST \t\t\t\n      POP \t\t\t\n      SWAP4 \t\t\t\n      SWAP3 \t\t\t\n      POP \t\t\t\n      POP \t\t\t\n      POP \t\t\t\n      JUMP \t\t\t\n    tag 167\t\t\t\n      JUMPDEST \t\t\t\n      PUSH 0\t\t\t\n      DUP3 \t\t\t\n      PUSH 1F\t\t\t\n      DUP4 \t\t\t\n      ADD \t\t\t\n      SLT \t\t\t\n      PUSH [tag] 292\t\t\t\n      JUMPI \t\t\t\n      PUSH [tag] 293\t\t\t\n      PUSH [tag] 159\t\t\t\n      JUMP \t\t\t\n    tag 293\t\t\t\n      JUMPDEST \t\t\t\n    tag 292\t\t\t\n      JUMPDEST \t\t\t\n      DUP2 \t\t\t\n      CALLDATALOAD \t\t\t\n      PUSH [tag] 294\t\t\t\n      DUP5 \t\t\t\n      DUP3 \t\t\t\n      PUSH 20\t\t\t\n      DUP7 \t\t\t\n      ADD \t\t\t\n      PUSH [tag] 166\t\t\t\n      JUMP \t\t\t\n    tag 294\t\t\t\n      JUMPDEST \t\t\t\n      SWAP2 \t\t\t\n      POP \t\t\t\n      POP \t\t\t\n      SWAP3 \t\t\t\n      SWAP2 \t\t\t\n      POP \t\t\t\n      POP \t\t\t\n      JUMP \t\t\t\n    tag 23\t\t\t\n      JUMPDEST \t\t\t\n      PUSH 0\t\t\t\n      DUP1 \t\t\t\n      PUSH 0\t\t\t\n      DUP1 \t\t\t\n      PUSH 80\t\t\t\n      DUP6 \t\t\t\n      DUP8 \t\t\t\n      SUB \t\t\t\n      SLT \t\t\t\n      ISZERO \t\t\t\n      PUSH [tag] 296\t\t\t\n      JUMPI \t\t\t\n      PUSH [tag] 297\t\t\t\n      PUSH [tag] 154\t\t\t\n      JUMP \t\t\t\n    tag 297\t\t\t\n      JUMPDEST \t\t\t\n    tag 296\t\t\t\n      JUMPDEST \t\t\t\n      PUSH 0\t\t\t\n      DUP6 \t\t\t\n      ADD \t\t\t\n      CALLDATALOAD \t\t\t\n      PUSH FFFFFFFFFFFFFFFF\t\t\t\n      DUP2 \t\t\t\n      GT \t\t\t\n      ISZERO \t\t\t\n      PUSH [tag] 298\t\t\t\n      JUMPI \t\t\t\n      PUSH [tag] 299\t\t\t\n      PUSH [tag] 155\t\t\t\n      JUMP \t\t\t\n    tag 299\t\t\t\n      JUMPDEST \t\t\t\n    tag 298\t\t\t\n      JUMPDEST \t\t\t\n      PUSH [tag] 300\t\t\t\n      DUP8 \t\t\t\n      DUP3 \t\t\t\n      DUP9 \t\t\t\n      ADD \t\t\t\n      PUSH [tag] 167\t\t\t\n      JUMP \t\t\t\n    tag 300\t\t\t\n      JUMPDEST \t\t\t\n      SWAP5 \t\t\t\n      POP \t\t\t\n      POP \t\t\t\n      PUSH 20\t\t\t\n      DUP6 \t\t\t\n      ADD \t\t\t\n      CALLDATALOAD \t\t\t\n      PUSH FFFFFFFFFFFFFFFF\t\t\t\n      DUP2 \t\t\t\n      GT \t\t\t\n      ISZERO \t\t\t\n      PUSH [tag] 301\t\t\t\n      JUMPI \t\t\t\n      PUSH [tag] 302\t\t\t\n      PUSH [tag] 155\t\t\t\n      JUMP \t\t\t\n    tag 302\t\t\t\n      JUMPDEST \t\t\t\n    tag 301\t\t\t\n      JUMPDEST \t\t\t\n      PUSH [tag] 303\t\t\t\n      DUP8 \t\t\t\n      DUP3 \t\t\t\n      DUP9 \t\t\t\n      ADD \t\t\t\n      PUSH [tag] 167\t\t\t\n      JUMP \t\t\t\n    tag 303\t\t\t\n      JUMPDEST \t\t\t\n      SWAP4 \t\t\t\n      POP \t\t\t\n      POP \t\t\t\n      PUSH 40\t\t\t\n      DUP6 \t\t\t\n      ADD \t\t\t\n      CALLDATALOAD \t\t\t\n      PUSH FFFFFFFFFFFFFFFF\t\t\t\n      DUP2 \t\t\t\n      GT \t\t\t\n      ISZERO \t\t\t\n      PUSH [tag] 304\t\t\t\n      JUMPI \t\t\t\n      PUSH [tag] 305\t\t\t\n      PUSH [tag] 155\t\t\t\n      JUMP \t\t\t\n    tag 305\t\t\t\n      JUMPDEST \t\t\t\n    tag 304\t\t\t\n      JUMPDEST \t\t\t\n      PUSH [tag] 306\t\t\t\n      DUP8 \t\t\t\n      DUP3 \t\t\t\n      DUP9 \t\t\t\n      ADD \t\t\t\n      PUSH [tag] 167\t\t\t\n      JUMP \t\t\t\n    tag 306\t\t\t\n      JUMPDEST \t\t\t\n      SWAP3 \t\t\t\n      POP \t\t\t\n      POP \t\t\t\n      PUSH 60\t\t\t\n      PUSH [tag] 307\t\t\t\n      DUP8 \t\t\t\n      DUP3 \t\t\t\n      DUP9 \t\t\t\n      ADD \t\t\t\n      PUSH [tag] 157\t\t\t\n      JUMP \t\t\t\n    tag 307\t\t\t\n      JUMPDEST \t\t\t\n      SWAP2 \t\t\t\n      POP \t\t\t\n      POP \t\t\t\n      SWAP3 \t\t\t\n      SWAP6 \t\t\t\n      SWAP2 \t\t\t\n      SWAP5 \t\t\t\n      POP \t\t\t\n      SWAP3 \t\t\t\n      POP \t\t\t\n      JUMP \t\t\t\n    tag 168\t\t\t\n      JUMPDEST \t\t\t\n      PUSH [tag] 309\t\t\t\n      DUP2 \t\t\t\n      PUSH [tag] 137\t\t\t\n      JUMP \t\t\t\n    tag 309\t\t\t\n      JUMPDEST \t\t\t\n      DUP3 \t\t\t\n      MSTORE \t\t\t\n      POP \t\t\t\n      POP \t\t\t\n      JUMP \t\t\t\n    tag 169\t\t\t\n      JUMPDEST \t\t\t\n      PUSH [tag] 311\t\t\t\n      DUP2 \t\t\t\n      PUSH [tag] 140\t\t\t\n      JUMP \t\t\t\n    tag 311\t\t\t\n      JUMPDEST \t\t\t\n      DUP3 \t\t\t\n      MSTORE \t\t\t\n      POP \t\t\t\n      POP \t\t\t\n      JUMP \t\t\t\n    tag 170\t\t\t\n      JUMPDEST \t\t\t\n      PUSH 0\t\t\t\n      DUP3 \t\t\t\n      DUP3 \t\t\t\n      MSTORE \t\t\t\n      PUSH 20\t\t\t\n      DUP3 \t\t\t\n      ADD \t\t\t\n      SWAP1 \t\t\t\n      POP \t\t\t\n      SWAP3 \t\t\t\n      SWAP2 \t\t\t\n      POP \t\t\t\n      POP \t\t\t\n      JUMP \t\t\t\n    tag 171\t\t\t\n      JUMPDEST \t\t\t\n      PUSH 0\t\t\t\n      PUSH [tag] 314\t\t\t\n      DUP3 \t\t\t\n      PUSH [tag] 142\t\t\t\n      JUMP \t\t\t\n    tag 314\t\t\t\n      JUMPDEST \t\t\t\n      PUSH [tag] 315\t\t\t\n      DUP2 \t\t\t\n      DUP6 \t\t\t\n      PUSH [tag] 170\t\t\t\n      JUMP \t\t\t\n    tag 315\t\t\t\n      JUMPDEST \t\t\t\n      SWAP4 \t\t\t\n      POP \t\t\t\n      PUSH [tag] 316\t\t\t\n      DUP2 \t\t\t\n      DUP6 \t\t\t\n      PUSH 20\t\t\t\n      DUP7 \t\t\t\n      ADD \t\t\t\n      PUSH [tag] 144\t\t\t\n      JUMP \t\t\t\n    tag 316\t\t\t\n      JUMPDEST \t\t\t\n      PUSH [tag] 317\t\t\t\n      DUP2 \t\t\t\n      PUSH [tag] 145\t\t\t\n      JUMP \t\t\t\n    tag 317\t\t\t\n      JUMPDEST \t\t\t\n      DUP5 \t\t\t\n      ADD \t\t\t\n      SWAP2 \t\t\t\n      POP \t\t\t\n      POP \t\t\t\n      SWAP3 \t\t\t\n      SWAP2 \t\t\t\n      POP \t\t\t\n      POP \t\t\t\n      JUMP \t\t\t\n    tag 172\t\t\t\n      JUMPDEST \t\t\t\n      PUSH [tag] 319\t\t\t\n      DUP2 \t\t\t\n      PUSH [tag] 147\t\t\t\n      JUMP \t\t\t\n    tag 319\t\t\t\n      JUMPDEST \t\t\t\n      DUP3 \t\t\t\n      MSTORE \t\t\t\n      POP \t\t\t\n      POP \t\t\t\n      JUMP \t\t\t\n    tag 30\t\t\t\n      JUMPDEST \t\t\t\n      PUSH 0\t\t\t\n      PUSH 100\t\t\t\n      DUP3 \t\t\t\n      ADD \t\t\t\n      SWAP1 \t\t\t\n      POP \t\t\t\n      PUSH [tag] 321\t\t\t\n      PUSH 0\t\t\t\n      DUP4 \t\t\t\n      ADD \t\t\t\n      DUP12 \t\t\t\n      PUSH [tag] 168\t\t\t\n      JUMP \t\t\t\n    tag 321\t\t\t\n      JUMPDEST \t\t\t\n      PUSH [tag] 322\t\t\t\n      PUSH 20\t\t\t\n      DUP4 \t\t\t\n      ADD \t\t\t\n      DUP11 \t\t\t\n      PUSH [tag] 169\t\t\t\n      JUMP \t\t\t\n    tag 322\t\t\t\n      JUMPDEST \t\t\t\n      PUSH [tag] 323\t\t\t\n      PUSH 40\t\t\t\n      DUP4 \t\t\t\n      ADD \t\t\t\n      DUP10 \t\t\t\n      PUSH [tag] 169\t\t\t\n      JUMP \t\t\t\n    tag 323\t\t\t\n      JUMPDEST \t\t\t\n      DUP2 \t\t\t\n      DUP2 \t\t\t\n      SUB \t\t\t\n      PUSH 60\t\t\t\n      DUP4 \t\t\t\n      ADD \t\t\t\n      MSTORE \t\t\t\n      PUSH [tag] 324\t\t\t\n      DUP2 \t\t\t\n      DUP9 \t\t\t\n      PUSH [tag] 171\t\t\t\n      JUMP \t\t\t\n    tag 324\t\t\t\n      JUMPDEST \t\t\t\n      SWAP1 \t\t\t\n      POP \t\t\t\n      DUP2 \t\t\t\n      DUP2 \t\t\t\n      SUB \t\t\t\n      PUSH 80\t\t\t\n      DUP4 \t\t\t\n      ADD \t\t\t\n      MSTORE \t\t\t\n      PUSH [tag] 325\t\t\t\n      DUP2 \t\t\t\n      DUP8 \t\t\t\n      PUSH [tag] 171\t\t\t\n      JUMP \t\t\t\n    tag 325\t\t\t\n      JUMPDEST \t\t\t\n      SWAP1 \t\t\t\n      POP \t\t\t\n      DUP2 \t\t\t\n      DUP2 \t\t\t\n      SUB \t\t\t\n      PUSH A0\t\t\t\n      DUP4 \t\t\t\n      ADD \t\t\t\n      MSTORE \t\t\t\n      PUSH [tag] 326\t\t\t\n      DUP2 \t\t\t\n      DUP7 \t\t\t\n      PUSH [tag] 171\t\t\t\n      JUMP \t\t\t\n    tag 326\t\t\t\n      JUMPDEST \t\t\t\n      SWAP1 \t\t\t\n      POP \t\t\t\n      PUSH [tag] 327\t\t\t\n      PUSH C0\t\t\t\n      DUP4 \t\t\t\n      ADD \t\t\t\n      DUP6 \t\t\t\n      PUSH [tag] 168\t\t\t\n      JUMP \t\t\t\n    tag 327\t\t\t\n      JUMPDEST \t\t\t\n      PUSH [tag] 328\t\t\t\n      PUSH E0\t\t\t\n      DUP4 \t\t\t\n      ADD \t\t\t\n      DUP5 \t\t\t\n      PUSH [tag] 172\t\t\t\n      JUMP \t\t\t\n    tag 328\t\t\t\n      JUMPDEST \t\t\t\n      SWAP10 \t\t\t\n      SWAP9 \t\t\t\n      POP \t\t\t\n      POP \t\t\t\n      POP \t\t\t\n      POP \t\t\t\n      POP \t\t\t\n      POP \t\t\t\n      POP \t\t\t\n      POP \t\t\t\n      POP \t\t\t\n      JUMP \t\t\t\n    tag 38\t\t\t\n      JUMPDEST \t\t\t\n      PUSH 0\t\t\t\n      PUSH 20\t\t\t\n      DUP3 \t\t\t\n      ADD \t\t\t\n      SWAP1 \t\t\t\n      POP \t\t\t\n      PUSH [tag] 330\t\t\t\n      PUSH 0\t\t\t\n      DUP4 \t\t\t\n      ADD \t\t\t\n      DUP5 \t\t\t\n      PUSH [tag] 168\t\t\t\n      JUMP \t\t\t\n    tag 330\t\t\t\n      JUMPDEST \t\t\t\n      SWAP3 \t\t\t\n      SWAP2 \t\t\t\n      POP \t\t\t\n      POP \t\t\t\n      JUMP \t\t\t\n    tag 173\t\t\t\n      JUMPDEST \t\t\t\n      PUSH 4E487B7100000000000000000000000000000000000000000000000000000000\t\t\t\n      PUSH 0\t\t\t\n      MSTORE \t\t\t\n      PUSH 22\t\t\t\n      PUSH 4\t\t\t\n      MSTORE \t\t\t\n      PUSH 24\t\t\t\n      PUSH 0\t\t\t\n      REVERT \t\t\t\n    tag 44\t\t\t\n      JUMPDEST \t\t\t\n      PUSH 0\t\t\t\n      PUSH 2\t\t\t\n      DUP3 \t\t\t\n      DIV \t\t\t\n      SWAP1 \t\t\t\n      POP \t\t\t\n      PUSH 1\t\t\t\n      DUP3 \t\t\t\n      AND \t\t\t\n      DUP1 \t\t\t\n      PUSH [tag] 333\t\t\t\n      JUMPI \t\t\t\n      PUSH 7F\t\t\t\n      DUP3 \t\t\t\n      AND \t\t\t\n      SWAP2 \t\t\t\n      POP \t\t\t\n    tag 333\t\t\t\n      JUMPDEST \t\t\t\n      PUSH 20\t\t\t\n      DUP3 \t\t\t\n      LT \t\t\t\n      DUP2 \t\t\t\n      SUB \t\t\t\n      PUSH [tag] 334\t\t\t\n      JUMPI \t\t\t\n      PUSH [tag] 335\t\t\t\n      PUSH [tag] 173\t\t\t\n      JUMP \t\t\t\n    tag 335\t\t\t\n      JUMPDEST \t\t\t\n    tag 334\t\t\t\n      JUMPDEST \t\t\t\n      POP \t\t\t\n      SWAP2 \t\t\t\n      SWAP1 \t\t\t\n      POP \t\t\t\n      JUMP \t\t\t\n    tag 174\t\t\t\n      JUMPDEST \t\t\t\n      PUSH 50726F6475637420494420646F6573206E6F7420657869737400000000000000\t\t\t\n      PUSH 0\t\t\t\n      DUP3 \t\t\t\n      ADD \t\t\t\n      MSTORE \t\t\t\n      POP \t\t\t\n      JUMP \t\t\t\n    tag 175\t\t\t\n      JUMPDEST \t\t\t\n      PUSH 0\t\t\t\n      PUSH [tag] 338\t\t\t\n      PUSH 19\t\t\t\n      DUP4 \t\t\t\n      PUSH [tag] 170\t\t\t\n      JUMP \t\t\t\n    tag 338\t\t\t\n      JUMPDEST \t\t\t\n      SWAP2 \t\t\t\n      POP \t\t\t\n      PUSH [tag] 339\t\t\t\n      DUP3 \t\t\t\n      PUSH [tag] 174\t\t\t\n      JUMP \t\t\t\n    tag 339\t\t\t\n      JUMPDEST \t\t\t\n      PUSH 20\t\t\t\n      DUP3 \t\t\t\n      ADD \t\t\t\n      SWAP1 \t\t\t\n      POP \t\t\t\n      SWAP2 \t\t\t\n      SWAP1 \t\t\t\n      POP \t\t\t\n      JUMP \t\t\t\n    tag 64\t\t\t\n      JUMPDEST \t\t\t\n      PUSH 0\t\t\t\n      PUSH 20\t\t\t\n      DUP3 \t\t\t\n      ADD \t\t\t\n      SWAP1 \t\t\t\n      POP \t\t\t\n      DUP2 \t\t\t\n      DUP2 \t\t\t\n      SUB \t\t\t\n      PUSH 0\t\t\t\n      DUP4 \t\t\t\n      ADD \t\t\t\n      MSTORE \t\t\t\n      PUSH [tag] 341\t\t\t\n      DUP2 \t\t\t\n      PUSH [tag] 175\t\t\t\n      JUMP \t\t\t\n    tag 341\t\t\t\n      JUMPDEST \t\t\t\n      SWAP1 \t\t\t\n      POP \t\t\t\n      SWAP2 \t\t\t\n      SWAP1 \t\t\t\n      POP \t\t\t\n      JUMP \t\t\t\n    tag 67\t\t\t\n      JUMPDEST \t\t\t\n      PUSH 4E487B7100000000000000000000000000000000000000000000000000000000\t\t\t\n      PUSH 0\t\t\t\n      MSTORE \t\t\t\n      PUSH 32\t\t\t\n      PUSH 4\t\t\t\n      MSTORE \t\t\t\n      PUSH 24\t\t\t\n      PUSH 0\t\t\t\n      REVERT \t\t\t\n    tag 176\t\t\t\n      JUMPDEST \t\t\t\n      PUSH 5072696365206D7573742062652067726561746572207468616E207A65726F00\t\t\t\n      PUSH 0\t\t\t\n      DUP3 \t\t\t\n      ADD \t\t\t\n      MSTORE \t\t\t\n      POP \t\t\t\n      JUMP \t\t\t\n    tag 177\t\t\t\n      JUMPDEST \t\t\t\n      PUSH 0\t\t\t\n      PUSH [tag] 345\t\t\t\n      PUSH 1F\t\t\t\n      DUP4 \t\t\t\n      PUSH [tag] 170\t\t\t\n      JUMP \t\t\t\n    tag 345\t\t\t\n      JUMPDEST \t\t\t\n      SWAP2 \t\t\t\n      POP \t\t\t\n      PUSH [tag] 346\t\t\t\n      DUP3 \t\t\t\n      PUSH [tag] 176\t\t\t\n      JUMP \t\t\t\n    tag 346\t\t\t\n      JUMPDEST \t\t\t\n      PUSH 20\t\t\t\n      DUP3 \t\t\t\n      ADD \t\t\t\n      SWAP1 \t\t\t\n      POP \t\t\t\n      SWAP2 \t\t\t\n      SWAP1 \t\t\t\n      POP \t\t\t\n      JUMP \t\t\t\n    tag 87\t\t\t\n      JUMPDEST \t\t\t\n      PUSH 0\t\t\t\n      PUSH 20\t\t\t\n      DUP3 \t\t\t\n      ADD \t\t\t\n      SWAP1 \t\t\t\n      POP \t\t\t\n      DUP2 \t\t\t\n      DUP2 \t\t\t\n      SUB \t\t\t\n      PUSH 0\t\t\t\n      DUP4 \t\t\t\n      ADD \t\t\t\n      MSTORE \t\t\t\n      PUSH [tag] 348\t\t\t\n      DUP2 \t\t\t\n      PUSH [tag] 177\t\t\t\n      JUMP \t\t\t\n    tag 348\t\t\t\n      JUMPDEST \t\t\t\n      SWAP1 \t\t\t\n      POP \t\t\t\n      SWAP2 \t\t\t\n      SWAP1 \t\t\t\n      POP \t\t\t\n      JUMP \t\t\t\n    tag 178\t\t\t\n      JUMPDEST \t\t\t\n      PUSH 0\t\t\t\n      DUP2 \t\t\t\n      SWAP1 \t\t\t\n      POP \t\t\t\n      DUP2 \t\t\t\n      PUSH 0\t\t\t\n      MSTORE \t\t\t\n      PUSH 20\t\t\t\n      PUSH 0\t\t\t\n      KECCAK256 \t\t\t\n      SWAP1 \t\t\t\n      POP \t\t\t\n      SWAP2 \t\t\t\n      SWAP1 \t\t\t\n      POP \t\t\t\n      JUMP \t\t\t\n    tag 179\t\t\t\n      JUMPDEST \t\t\t\n      PUSH 0\t\t\t\n      PUSH 20\t\t\t\n      PUSH 1F\t\t\t\n      DUP4 \t\t\t\n      ADD \t\t\t\n      DIV \t\t\t\n      SWAP1 \t\t\t\n      POP \t\t\t\n      SWAP2 \t\t\t\n      SWAP1 \t\t\t\n      POP \t\t\t\n      JUMP \t\t\t\n    tag 180\t\t\t\n      JUMPDEST \t\t\t\n      PUSH 0\t\t\t\n      DUP3 \t\t\t\n      DUP3 \t\t\t\n      SHL \t\t\t\n      SWAP1 \t\t\t\n      POP \t\t\t\n      SWAP3 \t\t\t\n      SWAP2 \t\t\t\n      POP \t\t\t\n      POP \t\t\t\n      JUMP \t\t\t\n    tag 181\t\t\t\n      JUMPDEST \t\t\t\n      PUSH 0\t\t\t\n      PUSH 8\t\t\t\n      DUP4 \t\t\t\n      MUL \t\t\t\n      PUSH [tag] 353\t\t\t\n      PUSH FFFFFFFFFFFFFFFFFFFFFFFFFFFFFFFFFFFFFFFFFFFFFFFFFFFFFFFFFFFFFFFF\t\t\t\n      DUP3 \t\t\t\n      PUSH [tag] 180\t\t\t\n      JUMP \t\t\t\n    tag 353\t\t\t\n      JUMPDEST \t\t\t\n      PUSH [tag] 354\t\t\t\n      DUP7 \t\t\t\n      DUP4 \t\t\t\n      PUSH [tag] 180\t\t\t\n      JUMP \t\t\t\n    tag 354\t\t\t\n      JUMPDEST \t\t\t\n      SWAP6 \t\t\t\n      POP \t\t\t\n      DUP1 \t\t\t\n      NOT \t\t\t\n      DUP5 \t\t\t\n      AND \t\t\t\n      SWAP4 \t\t\t\n      POP \t\t\t\n      DUP1 \t\t\t\n      DUP7 \t\t\t\n      AND \t\t\t\n      DUP5 \t\t\t\n      OR \t\t\t\n      SWAP3 \t\t\t\n      POP \t\t\t\n      POP \t\t\t\n      POP \t\t\t\n      SWAP4 \t\t\t\n      SWAP3 \t\t\t\n      POP \t\t\t\n      POP \t\t\t\n      POP \t\t\t\n      JUMP \t\t\t\n    tag 182\t\t\t\n      JUMPDEST \t\t\t\n      PUSH 0\t\t\t\n      DUP2 \t\t\t\n      SWAP1 \t\t\t\n      POP \t\t\t\n      SWAP2 \t\t\t\n      SWAP1 \t\t\t\n      POP \t\t\t\n      JUMP \t\t\t\n    tag 183\t\t\t\n      JUMPDEST \t\t\t\n      PUSH 0\t\t\t\n      PUSH [tag] 357\t\t\t\n      PUSH [tag] 358\t\t\t\n      PUSH [tag] 359\t\t\t\n      DUP5 \t\t\t\n      PUSH [tag] 137\t\t\t\n      JUMP \t\t\t\n    tag 359\t\t\t\n      JUMPDEST \t\t\t\n      PUSH [tag] 182\t\t\t\n      JUMP \t\t\t\n    tag 358\t\t\t\n      JUMPDEST \t\t\t\n      PUSH [tag] 137\t\t\t\n      JUMP \t\t\t\n    tag 357\t\t\t\n      JUMPDEST \t\t\t\n      SWAP1 \t\t\t\n      POP \t\t\t\n      SWAP2 \t\t\t\n      SWAP1 \t\t\t\n      POP \t\t\t\n      JUMP \t\t\t\n    tag 184\t\t\t\n      JUMPDEST \t\t\t\n      PUSH 0\t\t\t\n      DUP2 \t\t\t\n      SWAP1 \t\t\t\n      POP \t\t\t\n      SWAP2 \t\t\t\n      SWAP1 \t\t\t\n      POP \t\t\t\n      JUMP \t\t\t\n    tag 185\t\t\t\n      JUMPDEST \t\t\t\n      PUSH [tag] 362\t\t\t\n      DUP4 \t\t\t\n      PUSH [tag] 183\t\t\t\n      JUMP \t\t\t\n    tag 362\t\t\t\n      JUMPDEST \t\t\t\n      PUSH [tag] 363\t\t\t\n      PUSH [tag] 364\t\t\t\n      DUP3 \t\t\t\n      PUSH [tag] 184\t\t\t\n      JUMP \t\t\t\n    tag 364\t\t\t\n      JUMPDEST \t\t\t\n      DUP5 \t\t\t\n      DUP5 \t\t\t\n      SLOAD \t\t\t\n      PUSH [tag] 181\t\t\t\n      JUMP \t\t\t\n    tag 363\t\t\t\n      JUMPDEST \t\t\t\n      DUP3 \t\t\t\n      SSTORE \t\t\t\n      POP \t\t\t\n      POP \t\t\t\n      POP \t\t\t\n      POP \t\t\t\n      JUMP \t\t\t\n    tag 186\t\t\t\n      JUMPDEST \t\t\t\n      PUSH 0\t\t\t\n      SWAP1 \t\t\t\n      JUMP \t\t\t\n    tag 187\t\t\t\n      JUMPDEST \t\t\t\n      PUSH [tag] 367\t\t\t\n      PUSH [tag] 186\t\t\t\n      JUMP \t\t\t\n    tag 367\t\t\t\n      JUMPDEST \t\t\t\n      PUSH [tag] 368\t\t\t\n      DUP2 \t\t\t\n      DUP5 \t\t\t\n      DUP5 \t\t\t\n      PUSH [tag] 185\t\t\t\n      JUMP \t\t\t\n    tag 368\t\t\t\n      JUMPDEST \t\t\t\n      POP \t\t\t\n      POP \t\t\t\n      POP \t\t\t\n      JUMP \t\t\t\n    tag 188\t\t\t\n      JUMPDEST \t\t\t\n    tag 370\t\t\t\n      JUMPDEST \t\t\t\n      DUP2 \t\t\t\n      DUP2 \t\t\t\n      LT \t\t\t\n      ISZERO \t\t\t\n      PUSH [tag] 372\t\t\t\n      JUMPI \t\t\t\n      PUSH [tag] 373\t\t\t\n      PUSH 0\t\t\t\n      DUP3 \t\t\t\n      PUSH [tag] 187\t\t\t\n      JUMP \t\t\t\n    tag 373\t\t\t\n      JUMPDEST \t\t\t\n      PUSH 1\t\t\t\n      DUP2 \t\t\t\n      ADD \t\t\t\n      SWAP1 \t\t\t\n      POP \t\t\t\n      PUSH [tag] 370\t\t\t\n      JUMP \t\t\t\n    tag 372\t\t\t\n      JUMPDEST \t\t\t\n      POP \t\t\t\n      POP \t\t\t\n      JUMP \t\t\t\n    tag 189\t\t\t\n      JUMPDEST \t\t\t\n      PUSH 1F\t\t\t\n      DUP3 \t\t\t\n      GT \t\t\t\n      ISZERO \t\t\t\n      PUSH [tag] 375\t\t\t\n      JUMPI \t\t\t\n      PUSH [tag] 376\t\t\t\n      DUP2 \t\t\t\n      PUSH [tag] 178\t\t\t\n      JUMP \t\t\t\n    tag 376\t\t\t\n      JUMPDEST \t\t\t\n      PUSH [tag] 377\t\t\t\n      DUP5 \t\t\t\n      PUSH [tag] 179\t\t\t\n      JUMP \t\t\t\n    tag 377\t\t\t\n      JUMPDEST \t\t\t\n      DUP2 \t\t\t\n      ADD \t\t\t\n      PUSH 20\t\t\t\n      DUP6 \t\t\t\n      LT \t\t\t\n      ISZERO \t\t\t\n      PUSH [tag] 378\t\t\t\n      JUMPI \t\t\t\n      DUP2 \t\t\t\n      SWAP1 \t\t\t\n      POP \t\t\t\n    tag 378\t\t\t\n      JUMPDEST \t\t\t\n      PUSH [tag] 379\t\t\t\n      PUSH [tag] 380\t\t\t\n      DUP6 \t\t\t\n      PUSH [tag] 179\t\t\t\n      JUMP \t\t\t\n    tag 380\t\t\t\n      JUMPDEST \t\t\t\n      DUP4 \t\t\t\n      ADD \t\t\t\n      DUP3 \t\t\t\n      PUSH [tag] 188\t\t\t\n      JUMP \t\t\t\n    tag 379\t\t\t\n      JUMPDEST \t\t\t\n      POP \t\t\t\n      POP \t\t\t\n    tag 375\t\t\t\n      JUMPDEST \t\t\t\n      POP \t\t\t\n      POP \t\t\t\n      POP \t\t\t\n      JUMP \t\t\t\n    tag 190\t\t\t\n      JUMPDEST \t\t\t\n      PUSH 0\t\t\t\n      DUP3 \t\t\t\n      DUP3 \t\t\t\n      SHR \t\t\t\n      SWAP1 \t\t\t\n      POP \t\t\t\n      SWAP3 \t\t\t\n      SWAP2 \t\t\t\n      POP \t\t\t\n      POP \t\t\t\n      JUMP \t\t\t\n    tag 191\t\t\t\n      JUMPDEST \t\t\t\n      PUSH 0\t\t\t\n      PUSH [tag] 383\t\t\t\n      PUSH 0\t\t\t\n      NOT \t\t\t\n      DUP5 \t\t\t\n      PUSH 8\t\t\t\n      MUL \t\t\t\n      PUSH [tag] 190\t\t\t\n      JUMP \t\t\t\n    tag 383\t\t\t\n      JUMPDEST \t\t\t\n      NOT \t\t\t\n      DUP1 \t\t\t\n      DUP4 \t\t\t\n      AND \t\t\t\n      SWAP2 \t\t\t\n      POP \t\t\t\n      POP \t\t\t\n      SWAP3 \t\t\t\n      SWAP2 \t\t\t\n      POP \t\t\t\n      POP \t\t\t\n      JUMP \t\t\t\n    tag 192\t\t\t\n      JUMPDEST \t\t\t\n      PUSH 0\t\t\t\n      PUSH [tag] 385\t\t\t\n      DUP4 \t\t\t\n      DUP4 \t\t\t\n      PUSH [tag] 191\t\t\t\n      JUMP \t\t\t\n    tag 385\t\t\t\n      JUMPDEST \t\t\t\n      SWAP2 \t\t\t\n      POP \t\t\t\n      DUP3 \t\t\t\n      PUSH 2\t\t\t\n      MUL \t\t\t\n      DUP3 \t\t\t\n      OR \t\t\t\n      SWAP1 \t\t\t\n      POP \t\t\t\n      SWAP3 \t\t\t\n      SWAP2 \t\t\t\n      POP \t\t\t\n      POP \t\t\t\n      JUMP \t\t\t\n    tag 90\t\t\t\n      JUMPDEST \t\t\t\n      PUSH [tag] 387\t\t\t\n      DUP3 \t\t\t\n      PUSH [tag] 142\t\t\t\n      JUMP \t\t\t\n    tag 387\t\t\t\n      JUMPDEST \t\t\t\n      PUSH FFFFFFFFFFFFFFFF\t\t\t\n      DUP2 \t\t\t\n      GT \t\t\t\n      ISZERO \t\t\t\n      PUSH [tag] 388\t\t\t\n      JUMPI \t\t\t\n      PUSH [tag] 389\t\t\t\n      PUSH [tag] 161\t\t\t\n      JUMP \t\t\t\n    tag 389\t\t\t\n      JUMPDEST \t\t\t\n    tag 388\t\t\t\n      JUMPDEST \t\t\t\n      PUSH [tag] 390\t\t\t\n      DUP3 \t\t\t\n      SLOAD \t\t\t\n      PUSH [tag] 44\t\t\t\n      JUMP \t\t\t\n    tag 390\t\t\t\n      JUMPDEST \t\t\t\n      PUSH [tag] 391\t\t\t\n      DUP3 \t\t\t\n      DUP3 \t\t\t\n      DUP6 \t\t\t\n      PUSH [tag] 189\t\t\t\n      JUMP \t\t\t\n    tag 391\t\t\t\n      JUMPDEST \t\t\t\n      PUSH 0\t\t\t\n      PUSH 20\t\t\t\n      SWAP1 \t\t\t\n      POP \t\t\t\n      PUSH 1F\t\t\t\n      DUP4 \t\t\t\n      GT \t\t\t\n      PUSH 1\t\t\t\n      DUP2 \t\t\t\n      EQ \t\t\t\n      PUSH [tag] 393\t\t\t\n      JUMPI \t\t\t\n      PUSH 0\t\t\t\n      DUP5 \t\t\t\n      ISZERO \t\t\t\n      PUSH [tag] 394\t\t\t\n      JUMPI \t\t\t\n      DUP3 \t\t\t\n      DUP8 \t\t\t\n      ADD \t\t\t\n      MLOAD \t\t\t\n      SWAP1 \t\t\t\n      POP \t\t\t\n    tag 394\t\t\t\n      JUMPDEST \t\t\t\n      PUSH [tag] 395\t\t\t\n      DUP6 \t\t\t\n      DUP3 \t\t\t\n      PUSH [tag] 192\t\t\t\n      JUMP \t\t\t\n    tag 395\t\t\t\n      JUMPDEST \t\t\t\n      DUP7 \t\t\t\n      SSTORE \t\t\t\n      POP \t\t\t\n      PUSH [tag] 392\t\t\t\n      JUMP \t\t\t\n    tag 393\t\t\t\n      JUMPDEST \t\t\t\n      PUSH 1F\t\t\t\n      NOT \t\t\t\n      DUP5 \t\t\t\n      AND \t\t\t\n      PUSH [tag] 396\t\t\t\n      DUP7 \t\t\t\n      PUSH [tag] 178\t\t\t\n      JUMP \t\t\t\n    tag 396\t\t\t\n      JUMPDEST \t\t\t\n      PUSH 0\t\t\t\n    tag 397\t\t\t\n      JUMPDEST \t\t\t\n      DUP3 \t\t\t\n      DUP2 \t\t\t\n      LT \t\t\t\n      ISZERO \t\t\t\n      PUSH [tag] 399\t\t\t\n      JUMPI \t\t\t\n      DUP5 \t\t\t\n      DUP10 \t\t\t\n      ADD \t\t\t\n      MLOAD \t\t\t\n      DUP3 \t\t\t\n      SSTORE \t\t\t\n      PUSH 1\t\t\t\n      DUP3 \t\t\t\n      ADD \t\t\t\n      SWAP2 \t\t\t\n      POP \t\t\t\n      PUSH 20\t\t\t\n      DUP6 \t\t\t\n      ADD \t\t\t\n      SWAP5 \t\t\t\n      POP \t\t\t\n      PUSH 20\t\t\t\n      DUP2 \t\t\t\n      ADD \t\t\t\n      SWAP1 \t\t\t\n      POP \t\t\t\n      PUSH [tag] 397\t\t\t\n      JUMP \t\t\t\n    tag 399\t\t\t\n      JUMPDEST \t\t\t\n      DUP7 \t\t\t\n      DUP4 \t\t\t\n      LT \t\t\t\n      ISZERO \t\t\t\n      PUSH [tag] 400\t\t\t\n      JUMPI \t\t\t\n      DUP5 \t\t\t\n      DUP10 \t\t\t\n      ADD \t\t\t\n      MLOAD \t\t\t\n      PUSH [tag] 401\t\t\t\n      PUSH 1F\t\t\t\n      DUP10 \t\t\t\n      AND \t\t\t\n      DUP3 \t\t\t\n      PUSH [tag] 191\t\t\t\n      JUMP \t\t\t\n    tag 401\t\t\t\n      JUMPDEST \t\t\t\n      DUP4 \t\t\t\n      SSTORE \t\t\t\n      POP \t\t\t\n    tag 400\t\t\t\n      JUMPDEST \t\t\t\n      PUSH 1\t\t\t\n      PUSH 2\t\t\t\n      DUP9 \t\t\t\n      MUL \t\t\t\n      ADD \t\t\t\n      DUP9 \t\t\t\n      SSTORE \t\t\t\n      POP \t\t\t\n      POP \t\t\t\n      POP \t\t\t\n    tag 392\t\t\t\n      JUMPDEST \t\t\t\n      POP \t\t\t\n      POP \t\t\t\n      POP \t\t\t\n      POP \t\t\t\n      POP \t\t\t\n      POP \t\t\t\n      JUMP \t\t\t\n    tag 94\t\t\t\n      JUMPDEST \t\t\t\n      PUSH 0\t\t\t\n      PUSH 80\t\t\t\n      DUP3 \t\t\t\n      ADD \t\t\t\n      SWAP1 \t\t\t\n      POP \t\t\t\n      PUSH [tag] 403\t\t\t\n      PUSH 0\t\t\t\n      DUP4 \t\t\t\n      ADD \t\t\t\n      DUP8 \t\t\t\n      PUSH [tag] 168\t\t\t\n      JUMP \t\t\t\n    tag 403\t\t\t\n      JUMPDEST \t\t\t\n      DUP2 \t\t\t\n      DUP2 \t\t\t\n      SUB \t\t\t\n      PUSH 20\t\t\t\n      DUP4 \t\t\t\n      ADD \t\t\t\n      MSTORE \t\t\t\n      PUSH [tag] 404\t\t\t\n      DUP2 \t\t\t\n      DUP7 \t\t\t\n      PUSH [tag] 171\t\t\t\n      JUMP \t\t\t\n    tag 404\t\t\t\n      JUMPDEST \t\t\t\n      SWAP1 \t\t\t\n      POP \t\t\t\n      DUP2 \t\t\t\n      DUP2 \t\t\t\n      SUB \t\t\t\n      PUSH 40\t\t\t\n      DUP4 \t\t\t\n      ADD \t\t\t\n      MSTORE \t\t\t\n      PUSH [tag] 405\t\t\t\n      DUP2 \t\t\t\n      DUP6 \t\t\t\n      PUSH [tag] 171\t\t\t\n      JUMP \t\t\t\n    tag 405\t\t\t\n      JUMPDEST \t\t\t\n      SWAP1 \t\t\t\n      POP \t\t\t\n      PUSH [tag] 406\t\t\t\n      PUSH 60\t\t\t\n      DUP4 \t\t\t\n      ADD \t\t\t\n      DUP5 \t\t\t\n      PUSH [tag] 168\t\t\t\n      JUMP \t\t\t\n    tag 406\t\t\t\n      JUMPDEST \t\t\t\n      SWAP6 \t\t\t\n      SWAP5 \t\t\t\n      POP \t\t\t\n      POP \t\t\t\n      POP \t\t\t\n      POP \t\t\t\n      POP \t\t\t\n      JUMP \t\t\t\n    tag 193\t\t\t\n      JUMPDEST \t\t\t\n      PUSH 4E487B7100000000000000000000000000000000000000000000000000000000\t\t\t\n      PUSH 0\t\t\t\n      MSTORE \t\t\t\n      PUSH 11\t\t\t\n      PUSH 4\t\t\t\n      MSTORE \t\t\t\n      PUSH 24\t\t\t\n      PUSH 0\t\t\t\n      REVERT \t\t\t\n    tag 96\t\t\t\n      JUMPDEST \t\t\t\n      PUSH 0\t\t\t\n      PUSH [tag] 409\t\t\t\n      DUP3 \t\t\t\n      PUSH [tag] 137\t\t\t\n      JUMP \t\t\t\n    tag 409\t\t\t\n      JUMPDEST \t\t\t\n      SWAP2 \t\t\t\n      POP \t\t\t\n      PUSH FFFFFFFFFFFFFFFFFFFFFFFFFFFFFFFFFFFFFFFFFFFFFFFFFFFFFFFFFFFFFFFF\t\t\t\n      DUP3 \t\t\t\n      SUB \t\t\t\n      PUSH [tag] 410\t\t\t\n      JUMPI \t\t\t\n      PUSH [tag] 411\t\t\t\n      PUSH [tag] 193\t\t\t\n      JUMP \t\t\t\n    tag 411\t\t\t\n      JUMPDEST \t\t\t\n    tag 410\t\t\t\n      JUMPDEST \t\t\t\n      PUSH 1\t\t\t\n      DUP3 \t\t\t\n      ADD \t\t\t\n      SWAP1 \t\t\t\n      POP \t\t\t\n      SWAP2 \t\t\t\n      SWAP1 \t\t\t\n      POP \t\t\t\n      JUMP \t\t\t\n    tag 194\t\t\t\n      JUMPDEST \t\t\t\n      PUSH 506C65617365207375626D6974207468652061736B696E672070726963652069\t\t\t\n      PUSH 0\t\t\t\n      DUP3 \t\t\t\n      ADD \t\t\t\n      MSTORE \t\t\t\n      PUSH 6E206F7264657220746F20636F6D706C65746520746865207075726368617365\t\t\t\n      PUSH 20\t\t\t\n      DUP3 \t\t\t\n      ADD \t\t\t\n      MSTORE \t\t\t\n      POP \t\t\t\n      JUMP \t\t\t\n    tag 195\t\t\t\n      JUMPDEST \t\t\t\n      PUSH 0\t\t\t\n      PUSH [tag] 414\t\t\t\n      PUSH 40\t\t\t\n      DUP4 \t\t\t\n      PUSH [tag] 170\t\t\t\n      JUMP \t\t\t\n    tag 414\t\t\t\n      JUMPDEST \t\t\t\n      SWAP2 \t\t\t\n      POP \t\t\t\n      PUSH [tag] 415\t\t\t\n      DUP3 \t\t\t\n      PUSH [tag] 194\t\t\t\n      JUMP \t\t\t\n    tag 415\t\t\t\n      JUMPDEST \t\t\t\n      PUSH 40\t\t\t\n      DUP3 \t\t\t\n      ADD \t\t\t\n      SWAP1 \t\t\t\n      POP \t\t\t\n      SWAP2 \t\t\t\n      SWAP1 \t\t\t\n      POP \t\t\t\n      JUMP \t\t\t\n    tag 122\t\t\t\n      JUMPDEST \t\t\t\n      PUSH 0\t\t\t\n      PUSH 20\t\t\t\n      DUP3 \t\t\t\n      ADD \t\t\t\n      SWAP1 \t\t\t\n      POP \t\t\t\n      DUP2 \t\t\t\n      DUP2 \t\t\t\n      SUB \t\t\t\n      PUSH 0\t\t\t\n      DUP4 \t\t\t\n      ADD \t\t\t\n      MSTORE \t\t\t\n      PUSH [tag] 417\t\t\t\n      DUP2 \t\t\t\n      PUSH [tag] 195\t\t\t\n      JUMP \t\t\t\n    tag 417\t\t\t\n      JUMPDEST \t\t\t\n      SWAP1 \t\t\t\n      POP \t\t\t\n      SWAP2 \t\t\t\n      SWAP1 \t\t\t\n      POP \t\t\t\n      JUMP \t\t\t\n    tag 196\t\t\t\n      JUMPDEST \t\t\t\n      PUSH 546869732070726F647563742068617320616C7265616479206265656E20736F\t\t\t\n      PUSH 0\t\t\t\n      DUP3 \t\t\t\n      ADD \t\t\t\n      MSTORE \t\t\t\n      PUSH 6C64000000000000000000000000000000000000000000000000000000000000\t\t\t\n      PUSH 20\t\t\t\n      DUP3 \t\t\t\n      ADD \t\t\t\n      MSTORE \t\t\t\n      POP \t\t\t\n      JUMP \t\t\t\n    tag 197\t\t\t\n      JUMPDEST \t\t\t\n      PUSH 0\t\t\t\n      PUSH [tag] 420\t\t\t\n      PUSH 22\t\t\t\n      DUP4 \t\t\t\n      PUSH [tag] 170\t\t\t\n      JUMP \t\t\t\n    tag 420\t\t\t\n      JUMPDEST \t\t\t\n      SWAP2 \t\t\t\n      POP \t\t\t\n      PUSH [tag] 421\t\t\t\n      DUP3 \t\t\t\n      PUSH [tag] 196\t\t\t\n      JUMP \t\t\t\n    tag 421\t\t\t\n      JUMPDEST \t\t\t\n      PUSH 40\t\t\t\n      DUP3 \t\t\t\n      ADD \t\t\t\n      SWAP1 \t\t\t\n      POP \t\t\t\n      SWAP2 \t\t\t\n      SWAP1 \t\t\t\n      POP \t\t\t\n      JUMP \t\t\t\n    tag 125\t\t\t\n      JUMPDEST \t\t\t\n      PUSH 0\t\t\t\n      PUSH 20\t\t\t\n      DUP3 \t\t\t\n      ADD \t\t\t\n      SWAP1 \t\t\t\n      POP \t\t\t\n      DUP2 \t\t\t\n      DUP2 \t\t\t\n      SUB \t\t\t\n      PUSH 0\t\t\t\n      DUP4 \t\t\t\n      ADD \t\t\t\n      MSTORE \t\t\t\n      PUSH [tag] 423\t\t\t\n      DUP2 \t\t\t\n      PUSH [tag] 197\t\t\t\n      JUMP \t\t\t\n    tag 423\t\t\t\n      JUMPDEST \t\t\t\n      SWAP1 \t\t\t\n      POP \t\t\t\n      SWAP2 \t\t\t\n      SWAP1 \t\t\t\n      POP \t\t\t\n      JUMP \t\t\t\n    tag 198\t\t\t\n      JUMPDEST \t\t\t\n      PUSH 4F776E65722063616E6E6F7420627579207468656972206F776E2070726F6475\t\t\t\n      PUSH 0\t\t\t\n      DUP3 \t\t\t\n      ADD \t\t\t\n      MSTORE \t\t\t\n      PUSH 6374000000000000000000000000000000000000000000000000000000000000\t\t\t\n      PUSH 20\t\t\t\n      DUP3 \t\t\t\n      ADD \t\t\t\n      MSTORE \t\t\t\n      POP \t\t\t\n      JUMP \t\t\t\n    tag 199\t\t\t\n      JUMPDEST \t\t\t\n      PUSH 0\t\t\t\n      PUSH [tag] 426\t\t\t\n      PUSH 22\t\t\t\n      DUP4 \t\t\t\n      PUSH [tag] 170\t\t\t\n      JUMP \t\t\t\n    tag 426\t\t\t\n      JUMPDEST \t\t\t\n      SWAP2 \t\t\t\n      POP \t\t\t\n      PUSH [tag] 427\t\t\t\n      DUP3 \t\t\t\n      PUSH [tag] 198\t\t\t\n      JUMP \t\t\t\n    tag 427\t\t\t\n      JUMPDEST \t\t\t\n      PUSH 40\t\t\t\n      DUP3 \t\t\t\n      ADD \t\t\t\n      SWAP1 \t\t\t\n      POP \t\t\t\n      SWAP2 \t\t\t\n      SWAP1 \t\t\t\n      POP \t\t\t\n      JUMP \t\t\t\n    tag 128\t\t\t\n      JUMPDEST \t\t\t\n      PUSH 0\t\t\t\n      PUSH 20\t\t\t\n      DUP3 \t\t\t\n      ADD \t\t\t\n      SWAP1 \t\t\t\n      POP \t\t\t\n      DUP2 \t\t\t\n      DUP2 \t\t\t\n      SUB \t\t\t\n      PUSH 0\t\t\t\n      DUP4 \t\t\t\n      ADD \t\t\t\n      MSTORE \t\t\t\n      PUSH [tag] 429\t\t\t\n      DUP2 \t\t\t\n      PUSH [tag] 199\t\t\t\n      JUMP \t\t\t\n    tag 429\t\t\t\n      JUMPDEST \t\t\t\n      SWAP1 \t\t\t\n      POP \t\t\t\n      SWAP2 \t\t\t\n      SWAP1 \t\t\t\n      POP \t\t\t\n      JUMP \t\t\t\n    tag 133\t\t\t\n      JUMPDEST \t\t\t\n      PUSH 0\t\t\t\n      PUSH 40\t\t\t\n      DUP3 \t\t\t\n      ADD \t\t\t\n      SWAP1 \t\t\t\n      POP \t\t\t\n      PUSH [tag] 431\t\t\t\n      PUSH 0\t\t\t\n      DUP4 \t\t\t\n      ADD \t\t\t\n      DUP6 \t\t\t\n      PUSH [tag] 168\t\t\t\n      JUMP \t\t\t\n    tag 431\t\t\t\n      JUMPDEST \t\t\t\n      PUSH [tag] 432\t\t\t\n      PUSH 20\t\t\t\n      DUP4 \t\t\t\n      ADD \t\t\t\n      DUP5 \t\t\t\n      PUSH [tag] 168\t\t\t\n      JUMP \t\t\t\n    tag 432\t\t\t\n      JUMPDEST \t\t\t\n      SWAP4 \t\t\t\n      SWAP3 \t\t\t\n      POP \t\t\t\n      POP \t\t\t\n      POP \t\t\t\n      JUMP \t\t\t\n    .data\n"
}